{
  "_format": "hh-sol-artifact-1",
  "contractName": "TruthVault",
  "sourceName": "solidity/contracts/TruthVault.sol",
  "abi": [
    {
      "inputs": [
        {
          "internalType": "address",
          "name": "_gttToken",
          "type": "address"
        },
        {
          "internalType": "address",
          "name": "_admin",
          "type": "address"
        }
      ],
      "stateMutability": "nonpayable",
      "type": "constructor"
    },
    {
      "inputs": [],
      "name": "AccessControlBadConfirmation",
      "type": "error"
    },
    {
      "inputs": [
        {
          "internalType": "address",
          "name": "account",
          "type": "address"
        },
        {
          "internalType": "bytes32",
          "name": "neededRole",
          "type": "bytes32"
        }
      ],
      "name": "AccessControlUnauthorizedAccount",
      "type": "error"
    },
    {
      "inputs": [],
      "name": "EnforcedPause",
      "type": "error"
    },
    {
      "inputs": [],
      "name": "ExpectedPause",
      "type": "error"
    },
    {
      "inputs": [],
      "name": "ReentrancyGuardReentrantCall",
      "type": "error"
    },
    {
      "anonymous": false,
      "inputs": [
        {
          "indexed": true,
          "internalType": "uint256",
          "name": "capsuleId",
          "type": "uint256"
        },
        {
          "indexed": true,
          "internalType": "address",
          "name": "creator",
          "type": "address"
        },
        {
          "indexed": false,
          "internalType": "string",
          "name": "ipfsHash",
          "type": "string"
        }
      ],
      "name": "CapsuleRegistered",
      "type": "event"
    },
    {
      "anonymous": false,
      "inputs": [
        {
          "indexed": true,
          "internalType": "uint256",
          "name": "capsuleId",
          "type": "uint256"
        },
        {
          "indexed": false,
          "internalType": "bool",
          "name": "isVerified",
          "type": "bool"
        },
        {
          "indexed": false,
          "internalType": "bool",
          "name": "isSealed",
          "type": "bool"
        }
      ],
      "name": "CapsuleVerified",
      "type": "event"
    },
    {
      "anonymous": false,
      "inputs": [
        {
          "indexed": false,
          "internalType": "uint256",
          "name": "yieldToGTTRatio",
          "type": "uint256"
        },
        {
          "indexed": false,
          "internalType": "uint256",
          "name": "premiumMultiplier",
          "type": "uint256"
        },
        {
          "indexed": false,
          "internalType": "uint256",
          "name": "eliteMultiplier",
          "type": "uint256"
        },
        {
          "indexed": false,
          "internalType": "uint256",
          "name": "legendaryMultiplier",
          "type": "uint256"
        }
      ],
      "name": "ParametersUpdated",
      "type": "event"
    },
    {
      "anonymous": false,
      "inputs": [
        {
          "indexed": false,
          "internalType": "address",
          "name": "account",
          "type": "address"
        }
      ],
      "name": "Paused",
      "type": "event"
    },
    {
      "anonymous": false,
      "inputs": [
        {
          "indexed": true,
          "internalType": "bytes32",
          "name": "role",
          "type": "bytes32"
        },
        {
          "indexed": true,
          "internalType": "bytes32",
          "name": "previousAdminRole",
          "type": "bytes32"
        },
        {
          "indexed": true,
          "internalType": "bytes32",
          "name": "newAdminRole",
          "type": "bytes32"
        }
      ],
      "name": "RoleAdminChanged",
      "type": "event"
    },
    {
      "anonymous": false,
      "inputs": [
        {
          "indexed": true,
          "internalType": "bytes32",
          "name": "role",
          "type": "bytes32"
        },
        {
          "indexed": true,
          "internalType": "address",
          "name": "account",
          "type": "address"
        },
        {
          "indexed": true,
          "internalType": "address",
          "name": "sender",
          "type": "address"
        }
      ],
      "name": "RoleGranted",
      "type": "event"
    },
    {
      "anonymous": false,
      "inputs": [
        {
          "indexed": true,
          "internalType": "bytes32",
          "name": "role",
          "type": "bytes32"
        },
        {
          "indexed": true,
          "internalType": "address",
          "name": "account",
          "type": "address"
        },
        {
          "indexed": true,
          "internalType": "address",
          "name": "sender",
          "type": "address"
        }
      ],
      "name": "RoleRevoked",
      "type": "event"
    },
    {
      "anonymous": false,
      "inputs": [
        {
          "indexed": false,
          "internalType": "address",
          "name": "account",
          "type": "address"
        }
      ],
      "name": "Unpaused",
      "type": "event"
    },
    {
      "anonymous": false,
      "inputs": [
        {
          "indexed": true,
          "internalType": "address",
          "name": "user",
          "type": "address"
        },
        {
          "indexed": true,
          "internalType": "uint256",
          "name": "capsuleId",
          "type": "uint256"
        },
        {
          "indexed": false,
          "internalType": "uint256",
          "name": "yieldAmount",
          "type": "uint256"
        },
        {
          "indexed": false,
          "internalType": "uint256",
          "name": "gttAmount",
          "type": "uint256"
        },
        {
          "indexed": false,
          "internalType": "string",
          "name": "reason",
          "type": "string"
        }
      ],
      "name": "YieldClaimed",
      "type": "event"
    },
    {
      "anonymous": false,
      "inputs": [
        {
          "indexed": true,
          "internalType": "uint256",
          "name": "capsuleId",
          "type": "uint256"
        },
        {
          "indexed": false,
          "internalType": "uint256",
          "name": "oldYield",
          "type": "uint256"
        },
        {
          "indexed": false,
          "internalType": "uint256",
          "name": "newYield",
          "type": "uint256"
        }
      ],
      "name": "YieldUpdated",
      "type": "event"
    },
    {
      "inputs": [],
      "name": "CLAIM_COOLDOWN",
      "outputs": [
        {
          "internalType": "uint256",
          "name": "",
          "type": "uint256"
        }
      ],
      "stateMutability": "view",
      "type": "function"
    },
    {
      "inputs": [],
      "name": "DEFAULT_ADMIN_ROLE",
      "outputs": [
        {
          "internalType": "bytes32",
          "name": "",
          "type": "bytes32"
        }
      ],
      "stateMutability": "view",
      "type": "function"
    },
    {
      "inputs": [],
      "name": "ELITE_THRESHOLD",
      "outputs": [
        {
          "internalType": "uint256",
          "name": "",
          "type": "uint256"
        }
      ],
      "stateMutability": "view",
      "type": "function"
    },
    {
      "inputs": [],
      "name": "GOVERNOR_ROLE",
      "outputs": [
        {
          "internalType": "bytes32",
          "name": "",
          "type": "bytes32"
        }
      ],
      "stateMutability": "view",
      "type": "function"
    },
    {
      "inputs": [],
      "name": "LEGENDARY_THRESHOLD",
      "outputs": [
        {
          "internalType": "uint256",
          "name": "",
          "type": "uint256"
        }
      ],
      "stateMutability": "view",
      "type": "function"
    },
    {
      "inputs": [],
      "name": "MIN_CLAIM_AMOUNT",
      "outputs": [
        {
          "internalType": "uint256",
          "name": "",
          "type": "uint256"
        }
      ],
      "stateMutability": "view",
      "type": "function"
    },
    {
      "inputs": [],
      "name": "ORACLE_ROLE",
      "outputs": [
        {
          "internalType": "bytes32",
          "name": "",
          "type": "bytes32"
        }
      ],
      "stateMutability": "view",
      "type": "function"
    },
    {
      "inputs": [],
      "name": "PREMIUM_THRESHOLD",
      "outputs": [
        {
          "internalType": "uint256",
          "name": "",
          "type": "uint256"
        }
      ],
      "stateMutability": "view",
      "type": "function"
    },
    {
      "inputs": [
        {
          "internalType": "uint256",
          "name": "yieldAmount",
          "type": "uint256"
        }
      ],
      "name": "calculateGTTReward",
      "outputs": [
        {
          "internalType": "uint256",
          "name": "",
          "type": "uint256"
        }
      ],
      "stateMutability": "view",
      "type": "function"
    },
    {
      "inputs": [
        {
          "internalType": "uint256",
          "name": "",
          "type": "uint256"
        },
        {
          "internalType": "address",
          "name": "",
          "type": "address"
        }
      ],
      "name": "capsuleUserClaims",
      "outputs": [
        {
          "internalType": "uint256",
          "name": "",
          "type": "uint256"
        }
      ],
      "stateMutability": "view",
      "type": "function"
    },
    {
      "inputs": [
        {
          "internalType": "uint256",
          "name": "",
          "type": "uint256"
        }
      ],
      "name": "capsules",
      "outputs": [
        {
          "internalType": "address",
          "name": "creator",
          "type": "address"
        },
        {
          "internalType": "bool",
          "name": "isVerified",
          "type": "bool"
        },
        {
          "internalType": "bool",
          "name": "isSealed",
          "type": "bool"
        },
        {
          "internalType": "uint256",
          "name": "truthYield",
          "type": "uint256"
        },
        {
          "internalType": "uint256",
          "name": "totalClaimed",
          "type": "uint256"
        },
        {
          "internalType": "uint256",
          "name": "lastClaimTime",
          "type": "uint256"
        },
        {
          "internalType": "string",
          "name": "ipfsHash",
          "type": "string"
        },
        {
          "internalType": "string",
          "name": "veritasSealUrl",
          "type": "string"
        }
      ],
      "stateMutability": "view",
      "type": "function"
    },
    {
      "inputs": [
        {
          "internalType": "uint256",
          "name": "capsuleId",
          "type": "uint256"
        }
      ],
      "name": "claimYield",
      "outputs": [],
      "stateMutability": "nonpayable",
      "type": "function"
    },
    {
      "inputs": [],
      "name": "eliteMultiplier",
      "outputs": [
        {
          "internalType": "uint256",
          "name": "",
          "type": "uint256"
        }
      ],
      "stateMutability": "view",
      "type": "function"
    },
    {
      "inputs": [
        {
          "internalType": "uint256",
          "name": "capsuleId",
          "type": "uint256"
        }
      ],
      "name": "getCapsuleClaimInfo",
      "outputs": [
        {
          "internalType": "address",
          "name": "creator",
          "type": "address"
        },
        {
          "internalType": "uint256",
          "name": "totalEarned",
          "type": "uint256"
        },
        {
          "internalType": "uint256",
          "name": "totalClaimed",
          "type": "uint256"
        },
        {
          "internalType": "uint256",
          "name": "claimable",
          "type": "uint256"
        },
        {
          "internalType": "uint256",
          "name": "nextClaimTime",
          "type": "uint256"
        }
      ],
      "stateMutability": "view",
      "type": "function"
    },
    {
      "inputs": [
        {
          "internalType": "bytes32",
          "name": "role",
          "type": "bytes32"
        }
      ],
      "name": "getRoleAdmin",
      "outputs": [
        {
          "internalType": "bytes32",
          "name": "",
          "type": "bytes32"
        }
      ],
      "stateMutability": "view",
      "type": "function"
    },
    {
      "inputs": [
        {
          "internalType": "bytes32",
          "name": "role",
          "type": "bytes32"
        },
        {
          "internalType": "address",
          "name": "account",
          "type": "address"
        }
      ],
      "name": "grantRole",
      "outputs": [],
      "stateMutability": "nonpayable",
      "type": "function"
    },
    {
      "inputs": [],
      "name": "gttToken",
      "outputs": [
        {
          "internalType": "contract GTTToken",
          "name": "",
          "type": "address"
        }
      ],
      "stateMutability": "view",
      "type": "function"
    },
    {
      "inputs": [
        {
          "internalType": "bytes32",
          "name": "role",
          "type": "bytes32"
        },
        {
          "internalType": "address",
          "name": "account",
          "type": "address"
        }
      ],
      "name": "hasRole",
      "outputs": [
        {
          "internalType": "bool",
          "name": "",
          "type": "bool"
        }
      ],
      "stateMutability": "view",
      "type": "function"
    },
    {
      "inputs": [],
      "name": "legendaryMultiplier",
      "outputs": [
        {
          "internalType": "uint256",
          "name": "",
          "type": "uint256"
        }
      ],
      "stateMutability": "view",
      "type": "function"
    },
    {
      "inputs": [],
      "name": "pause",
      "outputs": [],
      "stateMutability": "nonpayable",
      "type": "function"
    },
    {
      "inputs": [],
      "name": "paused",
      "outputs": [
        {
          "internalType": "bool",
          "name": "",
          "type": "bool"
        }
      ],
      "stateMutability": "view",
      "type": "function"
    },
    {
      "inputs": [],
      "name": "premiumMultiplier",
      "outputs": [
        {
          "internalType": "uint256",
          "name": "",
          "type": "uint256"
        }
      ],
      "stateMutability": "view",
      "type": "function"
    },
    {
      "inputs": [
        {
          "internalType": "uint256",
          "name": "capsuleId",
          "type": "uint256"
        },
        {
          "internalType": "address",
          "name": "creator",
          "type": "address"
        },
        {
          "internalType": "string",
          "name": "ipfsHash",
          "type": "string"
        }
      ],
      "name": "registerCapsule",
      "outputs": [],
      "stateMutability": "nonpayable",
      "type": "function"
    },
    {
      "inputs": [
        {
          "internalType": "bytes32",
          "name": "role",
          "type": "bytes32"
        },
        {
          "internalType": "address",
          "name": "callerConfirmation",
          "type": "address"
        }
      ],
      "name": "renounceRole",
      "outputs": [],
      "stateMutability": "nonpayable",
      "type": "function"
    },
    {
      "inputs": [
        {
          "internalType": "bytes32",
          "name": "role",
          "type": "bytes32"
        },
        {
          "internalType": "address",
          "name": "account",
          "type": "address"
        }
      ],
      "name": "revokeRole",
      "outputs": [],
      "stateMutability": "nonpayable",
      "type": "function"
    },
    {
      "inputs": [
        {
          "internalType": "bytes4",
          "name": "interfaceId",
          "type": "bytes4"
        }
      ],
      "name": "supportsInterface",
      "outputs": [
        {
          "internalType": "bool",
          "name": "",
          "type": "bool"
        }
      ],
      "stateMutability": "view",
      "type": "function"
    },
    {
      "inputs": [
        {
          "internalType": "address",
          "name": "",
          "type": "address"
        }
      ],
      "name": "totalUserClaims",
      "outputs": [
        {
          "internalType": "uint256",
          "name": "",
          "type": "uint256"
        }
      ],
      "stateMutability": "view",
      "type": "function"
    },
    {
      "inputs": [],
      "name": "unpause",
      "outputs": [],
      "stateMutability": "nonpayable",
      "type": "function"
    },
    {
      "inputs": [
        {
          "internalType": "uint256",
          "name": "_yieldToGTTRatio",
          "type": "uint256"
        },
        {
          "internalType": "uint256",
          "name": "_premiumMultiplier",
          "type": "uint256"
        },
        {
          "internalType": "uint256",
          "name": "_eliteMultiplier",
          "type": "uint256"
        },
        {
          "internalType": "uint256",
          "name": "_legendaryMultiplier",
          "type": "uint256"
        }
      ],
      "name": "updateParameters",
      "outputs": [],
      "stateMutability": "nonpayable",
      "type": "function"
    },
    {
      "inputs": [
        {
          "internalType": "uint256",
          "name": "capsuleId",
          "type": "uint256"
        },
        {
          "internalType": "uint256",
          "name": "newYield",
          "type": "uint256"
        }
      ],
      "name": "updateYield",
      "outputs": [],
      "stateMutability": "nonpayable",
      "type": "function"
    },
    {
      "inputs": [
        {
          "internalType": "uint256",
          "name": "capsuleId",
          "type": "uint256"
        },
        {
          "internalType": "bool",
          "name": "isVerified",
          "type": "bool"
        },
        {
          "internalType": "bool",
          "name": "isSealed",
          "type": "bool"
        },
        {
          "internalType": "string",
          "name": "veritasSealUrl",
          "type": "string"
        }
      ],
      "name": "verifyCapsule",
      "outputs": [],
      "stateMutability": "nonpayable",
      "type": "function"
    },
    {
      "inputs": [],
      "name": "yieldToGTTRatio",
      "outputs": [
        {
          "internalType": "uint256",
          "name": "",
          "type": "uint256"
        }
      ],
      "stateMutability": "view",
      "type": "function"
    }
  ],
  "bytecode": "0x60a06040526064600655609660075560c860085561012c6009553480156200002657600080fd5b50604051620020ca380380620020ca833981016040819052620000499162000256565b600180556001600160a01b038216620000b55760405162461bcd60e51b8152602060048201526024808201527f54727574685661756c743a2047545420746f6b656e2063616e6e6f74206265206044820152637a65726f60e01b60648201526084015b60405180910390fd5b6001600160a01b0381166200010d5760405162461bcd60e51b815260206004820181905260248201527f54727574685661756c743a2041646d696e2063616e6e6f74206265207a65726f6044820152606401620000ac565b6001600160a01b038216608052620001276000826200018a565b50620001547f7935bd0ae54bc31f548c14dba4d37c5c64b3f8ca900cb468fb8abd54d5894f55826200018a565b50620001817f68e79a7bf1e0bc45d0a330c573bc367f9cf464fd326078812f301165fbda4ef1826200018a565b5050506200028e565b6000828152602081815260408083206001600160a01b038516845290915281205460ff166200022f576000838152602081815260408083206001600160a01b03861684529091529020805460ff19166001179055620001e63390565b6001600160a01b0316826001600160a01b0316847f2f8788117e7eff1d82e926ec794901d17c78024a50270940304540a733656f0d60405160405180910390a450600162000233565b5060005b92915050565b80516001600160a01b03811681146200025157600080fd5b919050565b600080604083850312156200026a57600080fd5b620002758362000239565b9150620002856020840162000239565b90509250929050565b608051611e19620002b160003960008181610245015261083c0152611e196000f3fe608060405234801561001057600080fd5b50600436106101f05760003560e01c80636fe389821161010f578063ac159467116100a2578063d8f7ef2c11610071578063d8f7ef2c14610475578063e945be1314610488578063ee1eab4f1461049b578063f4277c6d146104ae57600080fd5b8063ac15946714610435578063ccc574901461043e578063d547741f14610453578063d731c4f61461046657600080fd5b806391d14854116100de57806391d14854146103c557806395a968e5146103d85780639af01c2d1461041d578063a217fddf1461042d57600080fd5b80636fe38982146103765780637de857dd1461037f5780638456cb59146103925780638e52b2841461039a57600080fd5b8063383ea72811610187578063517bbf4611610156578063517bbf461461031157806354973c0e1461033857806357e856f91461034b5780635c975abb1461036b57600080fd5b8063383ea728146102dd5780633f4ba83a146102ed57806340bd2e23146102f55780634783decd1461030857600080fd5b80632bc1f6bf116101c35780632bc1f6bf146102a25780632f2ff15d146102ab57806336568abe146102c057806337c909ec146102d357600080fd5b806301ffc9a7146101f557806307e2cea51461021d5780631712c52414610240578063248a9ca31461027f575b600080fd5b6102086102033660046116e5565b6104be565b60405190151581526020015b60405180910390f35b610232600080516020611dc483398151915281565b604051908152602001610214565b6102677f000000000000000000000000000000000000000000000000000000000000000081565b6040516001600160a01b039091168152602001610214565b61023261028d366004611716565b60009081526020819052604090206001015490565b61023260095481565b6102be6102b936600461174b565b6104f5565b005b6102be6102ce36600461174b565b610520565b61023262093a8081565b610232680d8d726b7177a8000081565b6102be610558565b6102be610303366004611716565b61057b565b61023260065481565b61032461031f366004611716565b610900565b6040516102149897969594939291906117c7565b6102be61034636600461182e565b610a67565b610232610359366004611850565b60046020526000908152604090205481565b60025460ff16610208565b61023260075481565b6102be61038d3660046118c4565b610b0d565b6102be610c0a565b6102326103a836600461174b565b600560209081526000928352604080842090915290825290205481565b6102086103d336600461174b565b610c2a565b6103eb6103e6366004611716565b610c53565b604080516001600160a01b0390961686526020860194909452928401919091526060830152608082015260a001610214565b61023268056bc75e2d6310000081565b610232600081565b61023260085481565b610232600080516020611da483398151915281565b6102be61046136600461174b565b610e4a565b610232670de0b6b3a764000081565b610232610483366004611716565b610e6f565b6102be610496366004611933565b610f07565b6102be6104a936600461198d565b6111b6565b610232681b1ae4d6e2ef50000081565b60006001600160e01b03198216637965db0b60e01b14806104ef57506301ffc9a760e01b6001600160e01b03198316145b92915050565b6000828152602081905260409020600101546105108161139e565b61051a83836113a8565b50505050565b6001600160a01b03811633146105495760405163334bd91960e11b815260040160405180910390fd5b610553828261143a565b505050565b600080516020611da48339815191526105708161139e565b6105786114a5565b50565b6105836114f7565b61058b611521565b6000818152600360205260409020548190600160a01b900460ff16806105c65750600081815260036020526040902054600160a81b900460ff165b6106175760405162461bcd60e51b815260206004820181905260248201527f54727574685661756c743a2043617073756c65206e6f7420766572696669656460448201526064015b60405180910390fd5b60008281526003602052604090205482906001600160a01b0316331461067f5760405162461bcd60e51b815260206004820152601f60248201527f54727574685661756c743a204e6f742063617073756c652063726561746f7200604482015260640161060e565b6000838152600360208190526040909120908101546106a29062093a80906119d5565b4210156106fb5760405162461bcd60e51b815260206004820152602160248201527f54727574685661756c743a20436c61696d20636f6f6c646f776e2061637469766044820152606560f81b606482015260840161060e565b600061070a8260010154610e6f565b9050600082600201548261071e91906119e8565b9050670de0b6b3a76400008110156107885760405162461bcd60e51b815260206004820152602760248201527f54727574685661756c743a20496e73756666696369656e74207969656c6420746044820152666f20636c61696d60c81b606482015260840161060e565b8083600201600082825461079c91906119d5565b909155505042600384015533600090815260046020526040812080548392906107c69084906119d5565b90915550506000868152600560209081526040808320338452909152812080548392906107f49084906119d5565b909155506000905061080587611547565b60405160200161081591906119fb565b60408051601f19818403018152908290526308b419b760e41b825291506001600160a01b037f00000000000000000000000000000000000000000000000000000000000000001690638b419b709061087590339086908690600401611a40565b600060405180830381600087803b15801561088f57600080fd5b505af11580156108a3573d6000803e3d6000fd5b5050505086336001600160a01b03167f78d87b3229abd5d5378082613dfaf665a6126e74df802fd6c5e220b8c5f38db0866001015485856040516108e993929190611a70565b60405180910390a350505050505061057860018055565b6003602081905260009182526040909120805460018201546002830154938301546004840180546001600160a01b0385169660ff600160a01b8704811697600160a81b9097041695909392909161095690611a8f565b80601f016020809104026020016040519081016040528092919081815260200182805461098290611a8f565b80156109cf5780601f106109a4576101008083540402835291602001916109cf565b820191906000526020600020905b8154815290600101906020018083116109b257829003601f168201915b5050505050908060050180546109e490611a8f565b80601f0160208091040260200160405190810160405280929190818152602001828054610a1090611a8f565b8015610a5d5780601f10610a3257610100808354040283529160200191610a5d565b820191906000526020600020905b815481529060010190602001808311610a4057829003601f168201915b5050505050905088565b600080516020611dc4833981519152610a7f8161139e565b6000838152600360205260409020546001600160a01b0316610ab35760405162461bcd60e51b815260040161060e90611ac9565b60008381526003602090815260409182902060010180549085905582518181529182018590529185917f5250a38a2d30d036e9551d0ffebae487372c83817a8d740854c5d4768587bf77910160405180910390a250505050565b600080516020611dc4833981519152610b258161139e565b6000868152600360205260409020546001600160a01b0316610b595760405162461bcd60e51b815260040161060e90611ac9565b6000868152600360205260409020805461ffff60a01b1916600160a01b8715150260ff60a81b191617600160a81b8615801591909102919091179091558490610ba157508115155b15610bc4576000868152600360205260409020600501610bc2838583611b6f565b505b604080518615158152851515602082015287917f96490d92533f44e8a931268063a90889639eca27c88096a30d4baf00da2a83f0910160405180910390a2505050505050565b600080516020611da4833981519152610c228161139e565b610578611648565b6000918252602082815260408084206001600160a01b0393909316845291905290205460ff1690565b600081815260036020818152604080842081516101008101835281546001600160a01b038116825260ff600160a01b82048116151595830195909552600160a81b900490931615159183019190915260018101546060830152600281015460808301529182015460a0820152600482018054849384938493849384939160c0840191610cde90611a8f565b80601f0160208091040260200160405190810160405280929190818152602001828054610d0a90611a8f565b8015610d575780601f10610d2c57610100808354040283529160200191610d57565b820191906000526020600020905b815481529060010190602001808311610d3a57829003601f168201915b50505050508152602001600582018054610d7090611a8f565b80601f0160208091040260200160405190810160405280929190818152602001828054610d9c90611a8f565b8015610de95780601f10610dbe57610100808354040283529160200191610de9565b820191906000526020600020905b815481529060010190602001808311610dcc57829003601f168201915b505050505081525050905080600001519550610e088160600151610e6f565b945080608001519350838511610e1f576000610e29565b610e2984866119e8565b925062093a808160a00151610e3e91906119d5565b91505091939590929450565b600082815260208190526040902060010154610e658161139e565b61051a838361143a565b600081600003610e8157506000919050565b600061271060065484610e949190611c30565b610e9e9190611c5d565b90506064681b1ae4d6e2ef5000008410610ebb5750600954610ee9565b680d8d726b7177a800008410610ed45750600854610ee9565b68056bc75e2d631000008410610ee957506007545b6064610ef58284611c30565b610eff9190611c5d565b949350505050565b600080516020611dc4833981519152610f1f8161139e565b6001600160a01b038416610f805760405162461bcd60e51b815260206004820152602260248201527f54727574685661756c743a2043726561746f722063616e6e6f74206265207a65604482015261726f60f01b606482015260840161060e565b81610fcd5760405162461bcd60e51b815260206004820152601e60248201527f54727574685661756c743a204950465320686173682072657175697265640000604482015260640161060e565b6000858152600360205260409020546001600160a01b03161561103d5760405162461bcd60e51b815260206004820152602260248201527f54727574685661756c743a2043617073756c6520616c72656164792065786973604482015261747360f01b606482015260840161060e565b604051806101000160405280856001600160a01b0316815260200160001515815260200160001515815260200160008152602001600081526020016000815260200184848080601f016020809104026020016040519081016040528093929190818152602001838380828437600092018290525093855250506040805160208181018352848252948501528983526003808552928190208551815495870151928701511515600160a81b0260ff60a81b19931515600160a01b026001600160a81b03199097166001600160a01b0390921691909117959095179190911693909317835550606083015160018301556080830151600283015560a08301519082015560c082015160048201906111529082611c71565b5060e082015160058201906111679082611c71565b50905050836001600160a01b0316857f1416eedbd3662f6d7632153faa4e4b5a9ee829fc1278981b082bc342bd5c63a685856040516111a7929190611d31565b60405180910390a35050505050565b600080516020611da48339815191526111ce8161139e565b6000851161121e5760405162461bcd60e51b815260206004820152601960248201527f54727574685661756c743a20496e76616c696420726174696f00000000000000604482015260640161060e565b606484101561127e5760405162461bcd60e51b815260206004820152602660248201527f54727574685661756c743a20496e76616c6964207072656d69756d206d756c7460448201526534b83634b2b960d11b606482015260840161060e565b838310156112da5760405162461bcd60e51b8152602060048201526024808201527f54727574685661756c743a20496e76616c696420656c697465206d756c7469706044820152633634b2b960e11b606482015260840161060e565b8282101561133b5760405162461bcd60e51b815260206004820152602860248201527f54727574685661756c743a20496e76616c6964206c6567656e64617279206d75604482015267363a34b83634b2b960c11b606482015260840161060e565b60068590556007849055600883905560098290556040805186815260208101869052908101849052606081018390527fbca959adb5aa52aaea5a17838313a61bebf160bf6064e31593c79c8432c79fea9060800160405180910390a15050505050565b6105788133611685565b60006113b48383610c2a565b611432576000838152602081815260408083206001600160a01b03861684529091529020805460ff191660011790556113ea3390565b6001600160a01b0316826001600160a01b0316847f2f8788117e7eff1d82e926ec794901d17c78024a50270940304540a733656f0d60405160405180910390a45060016104ef565b5060006104ef565b60006114468383610c2a565b15611432576000838152602081815260408083206001600160a01b0386168085529252808320805460ff1916905551339286917ff6391f5c32d9c69d2a47ea670b442974b53935d1edc7fd64eb21e047a839171b9190a45060016104ef565b6114ad6116c2565b6002805460ff191690557f5db9ee0a495bf2e6ff9c91a7834c1ba4fdd244a5e8aa4e537bd38aeae4b073aa335b6040516001600160a01b03909116815260200160405180910390a1565b60026001540361151a57604051633ee5aeb560e01b815260040160405180910390fd5b6002600155565b60025460ff16156115455760405163d93c066560e01b815260040160405180910390fd5b565b60608160000361156e5750506040805180820190915260018152600360fc1b602082015290565b8160005b8115611598578061158281611d60565b91506115919050600a83611c5d565b9150611572565b60008167ffffffffffffffff8111156115b3576115b3611b0b565b6040519080825280601f01601f1916602001820160405280156115dd576020820181803683370190505b5090505b8415610eff576115f26001836119e8565b91506115ff600a86611d79565b61160a9060306119d5565b60f81b81838151811061161f5761161f611d8d565b60200101906001600160f81b031916908160001a905350611641600a86611c5d565b94506115e1565b611650611521565b6002805460ff191660011790557f62e78cea01bee320cd4e420270b5ea74000d11b0c9f74754ebdbfc544b05a2586114da3390565b61168f8282610c2a565b6116be5760405163e2517d3f60e01b81526001600160a01b03821660048201526024810183905260440161060e565b5050565b60025460ff1661154557604051638dfc202b60e01b815260040160405180910390fd5b6000602082840312156116f757600080fd5b81356001600160e01b03198116811461170f57600080fd5b9392505050565b60006020828403121561172857600080fd5b5035919050565b80356001600160a01b038116811461174657600080fd5b919050565b6000806040838503121561175e57600080fd5b8235915061176e6020840161172f565b90509250929050565b60005b8381101561179257818101518382015260200161177a565b50506000910152565b600081518084526117b3816020860160208601611777565b601f01601f19169290920160200192915050565b600061010060018060a01b038b168352891515602084015288151560408401528760608401528660808401528560a08401528060c084015261180b8184018661179b565b905082810360e084015261181f818561179b565b9b9a5050505050505050505050565b6000806040838503121561184157600080fd5b50508035926020909101359150565b60006020828403121561186257600080fd5b61170f8261172f565b8035801515811461174657600080fd5b60008083601f84011261188d57600080fd5b50813567ffffffffffffffff8111156118a557600080fd5b6020830191508360208285010111156118bd57600080fd5b9250929050565b6000806000806000608086880312156118dc57600080fd5b853594506118ec6020870161186b565b93506118fa6040870161186b565b9250606086013567ffffffffffffffff81111561191657600080fd5b6119228882890161187b565b969995985093965092949392505050565b6000806000806060858703121561194957600080fd5b843593506119596020860161172f565b9250604085013567ffffffffffffffff81111561197557600080fd5b6119818782880161187b565b95989497509550505050565b600080600080608085870312156119a357600080fd5b5050823594602084013594506040840135936060013592509050565b634e487b7160e01b600052601160045260246000fd5b808201808211156104ef576104ef6119bf565b818103818111156104ef576104ef6119bf565b7f5969656c6420636c61696d20666f722063617073756c65202300000000000000815260008251611a33816019850160208701611777565b9190910160190192915050565b60018060a01b0384168152826020820152606060408201526000611a67606083018461179b565b95945050505050565b838152826020820152606060408201526000611a67606083018461179b565b600181811c90821680611aa357607f821691505b602082108103611ac357634e487b7160e01b600052602260045260246000fd5b50919050565b60208082526022908201527f54727574685661756c743a2043617073756c65206e6f74207265676973746572604082015261195960f21b606082015260800190565b634e487b7160e01b600052604160045260246000fd5b601f82111561055357600081815260208120601f850160051c81016020861015611b485750805b601f850160051c820191505b81811015611b6757828155600101611b54565b505050505050565b67ffffffffffffffff831115611b8757611b87611b0b565b611b9b83611b958354611a8f565b83611b21565b6000601f841160018114611bcf5760008515611bb75750838201355b600019600387901b1c1916600186901b178355611c29565b600083815260209020601f19861690835b82811015611c005786850135825560209485019460019092019101611be0565b5086821015611c1d5760001960f88860031b161c19848701351681555b505060018560011b0183555b5050505050565b80820281158282048414176104ef576104ef6119bf565b634e487b7160e01b600052601260045260246000fd5b600082611c6c57611c6c611c47565b500490565b815167ffffffffffffffff811115611c8b57611c8b611b0b565b611c9f81611c998454611a8f565b84611b21565b602080601f831160018114611cd45760008415611cbc5750858301515b600019600386901b1c1916600185901b178555611b67565b600085815260208120601f198616915b82811015611d0357888601518255948401946001909101908401611ce4565b5085821015611d215787850151600019600388901b60f8161c191681555b5050505050600190811b01905550565b60208152816020820152818360408301376000818301604090810191909152601f909201601f19160101919050565b600060018201611d7257611d726119bf565b5060010190565b600082611d8857611d88611c47565b500690565b634e487b7160e01b600052603260045260246000fdfe7935bd0ae54bc31f548c14dba4d37c5c64b3f8ca900cb468fb8abd54d5894f5568e79a7bf1e0bc45d0a330c573bc367f9cf464fd326078812f301165fbda4ef1a2646970667358221220388cd71cdaffb95666babee29c503f1f88ff48b0afa895fec1e8bba414bf00a764736f6c63430008140033",
  "linkReferences": {},
  "deployedLinkReferences": {}
}