{
  "_format": "hh-sol-artifact-1",
  "contractName": "TruthVault",
  "sourceName": "solidity/contracts/TruthVault.sol",
  "abi": [
    {
      "anonymous": false,
      "inputs": [
        {
          "indexed": false,
          "internalType": "uint256",
          "name": "capsuleId",
          "type": "uint256"
        },
        {
          "indexed": true,
          "internalType": "address",
          "name": "sealedBy",
          "type": "address"
        },
        {
          "indexed": false,
          "internalType": "string",
          "name": "metadataHash",
          "type": "string"
        }
      ],
      "name": "CapsuleSealed",
      "type": "event"
    },
    {
      "inputs": [
        {
          "internalType": "uint256",
          "name": "capsuleId",
          "type": "uint256"
        }
      ],
      "name": "getSeal",
      "outputs": [
        {
          "components": [
            {
              "internalType": "address",
              "name": "sealedBy",
              "type": "address"
            },
            {
              "internalType": "uint256",
              "name": "timestamp",
              "type": "uint256"
            },
            {
              "internalType": "string",
              "name": "metadataHash",
              "type": "string"
            }
          ],
          "internalType": "struct TruthVault.Seal",
          "name": "",
          "type": "tuple"
        }
      ],
      "stateMutability": "view",
      "type": "function"
    },
    {
      "inputs": [
        {
          "internalType": "uint256",
          "name": "capsuleId",
          "type": "uint256"
        },
        {
          "internalType": "string",
          "name": "metadataHash",
          "type": "string"
        }
      ],
      "name": "sealCapsule",
      "outputs": [],
      "stateMutability": "nonpayable",
      "type": "function"
    },
    {
      "inputs": [
        {
          "internalType": "uint256",
          "name": "",
          "type": "uint256"
        }
      ],
      "name": "sealedCapsules",
      "outputs": [
        {
          "internalType": "address",
          "name": "sealedBy",
          "type": "address"
        },
        {
          "internalType": "uint256",
          "name": "timestamp",
          "type": "uint256"
        },
        {
          "internalType": "string",
          "name": "metadataHash",
          "type": "string"
        }
      ],
      "stateMutability": "view",
      "type": "function"
    }
  ],
  "bytecode": "0x608060405234801561001057600080fd5b50610644806100206000396000f3fe608060405234801561001057600080fd5b50600436106100415760003560e01c80632c945c75146100465780633d204f951461006f578063b658b08a14610084575b600080fd5b61005961005436600461032f565b6100a6565b604051610066919061038e565b60405180910390f35b61008261007d3660046103cd565b610193565b005b61009761009236600461032f565b61027a565b60405161006693929190610449565b6040805160608082018352600080835260208301529181019190915260008281526020818152604091829020825160608101845281546001600160a01b03168152600182015492810192909252600281018054929391929184019161010a90610479565b80601f016020809104026020016040519081016040528092919081815260200182805461013690610479565b80156101835780601f1061015857610100808354040283529160200191610183565b820191906000526020600020905b81548152906001019060200180831161016657829003601f168201915b5050505050815250509050919050565b6040518060600160405280336001600160a01b0316815260200142815260200183838080601f01602080910402602001604051908101604052809392919081815260200183838082843760009201829052509390945250508581526020818152604091829020845181546001600160a01b0319166001600160a01b039091161781559084015160018201559083015190915060028201906102349082610518565b50506040513391507f291680a6b2b862f97effc95e5a7031b73a2ca772150a03c231aca84a0628e6d29061026d908690869086906105d8565b60405180910390a2505050565b6000602081905290815260409020805460018201546002830180546001600160a01b039093169391926102ac90610479565b80601f01602080910402602001604051908101604052809291908181526020018280546102d890610479565b80156103255780601f106102fa57610100808354040283529160200191610325565b820191906000526020600020905b81548152906001019060200180831161030857829003601f168201915b5050505050905083565b60006020828403121561034157600080fd5b5035919050565b6000815180845260005b8181101561036e57602081850181015186830182015201610352565b506000602082860101526020601f19601f83011685010191505092915050565b6020815260018060a01b03825116602082015260208201516040820152600060408301516060808401526103c56080840182610348565b949350505050565b6000806000604084860312156103e257600080fd5b83359250602084013567ffffffffffffffff8082111561040157600080fd5b818601915086601f83011261041557600080fd5b81358181111561042457600080fd5b87602082850101111561043657600080fd5b6020830194508093505050509250925092565b60018060a01b03841681528260208201526060604082015260006104706060830184610348565b95945050505050565b600181811c9082168061048d57607f821691505b6020821081036104ad57634e487b7160e01b600052602260045260246000fd5b50919050565b634e487b7160e01b600052604160045260246000fd5b601f82111561051357600081815260208120601f850160051c810160208610156104f05750805b601f850160051c820191505b8181101561050f578281556001016104fc565b5050505b505050565b815167ffffffffffffffff811115610532576105326104b3565b610546816105408454610479565b846104c9565b602080601f83116001811461057b57600084156105635750858301515b600019600386901b1c1916600185901b17855561050f565b600085815260208120601f198616915b828110156105aa5788860151825594840194600190910190840161058b565b50858210156105c85787850151600019600388901b60f8161c191681555b5050505050600190811b01905550565b83815260406020820152816040820152818360608301376000818301606090810191909152601f909201601f191601019291505056fea2646970667358221220c04c3ac431d6301b589922e1ad2587ede1e3cffc44e58b5b64ef9bcd9ef9007f64736f6c63430008140033",
  "linkReferences": {},
  "deployedLinkReferences": {}
}