{"contracts/TruthVault.sol":{"TruthVault":{"abi":[{"inputs":[{"internalType":"address","name":"_gttToken","type":"address"}],"stateMutability":"nonpayable","type":"constructor"},{"inputs":[],"name":"EnforcedPause","type":"error"},{"inputs":[],"name":"ExpectedPause","type":"error"},{"inputs":[{"internalType":"address","name":"owner","type":"address"}],"name":"OwnableInvalidOwner","type":"error"},{"inputs":[{"internalType":"address","name":"account","type":"address"}],"name":"OwnableUnauthorizedAccount","type":"error"},{"inputs":[],"name":"ReentrancyGuardReentrantCall","type":"error"},{"anonymous":false,"inputs":[{"indexed":true,"internalType":"bytes32","name":"capsuleId","type":"bytes32"},{"indexed":true,"internalType":"address","name":"creator","type":"address"},{"indexed":false,"internalType":"uint256","name":"timestamp","type":"uint256"}],"name":"CapsuleCreated","type":"event"},{"anonymous":false,"inputs":[{"indexed":true,"internalType":"bytes32","name":"capsuleId","type":"bytes32"},{"indexed":true,"internalType":"address","name":"verifier","type":"address"},{"indexed":false,"internalType":"uint256","name":"yieldAmount","type":"uint256"}],"name":"CapsuleVerified","type":"event"},{"anonymous":false,"inputs":[{"indexed":true,"internalType":"address","name":"previousOwner","type":"address"},{"indexed":true,"internalType":"address","name":"newOwner","type":"address"}],"name":"OwnershipTransferred","type":"event"},{"anonymous":false,"inputs":[{"indexed":false,"internalType":"address","name":"account","type":"address"}],"name":"Paused","type":"event"},{"anonymous":false,"inputs":[{"indexed":false,"internalType":"address","name":"account","type":"address"}],"name":"Unpaused","type":"event"},{"anonymous":false,"inputs":[{"indexed":true,"internalType":"address","name":"user","type":"address"},{"indexed":true,"internalType":"bytes32","name":"capsuleId","type":"bytes32"},{"indexed":false,"internalType":"uint256","name":"amount","type":"uint256"}],"name":"YieldClaimed","type":"event"},{"anonymous":false,"inputs":[{"indexed":false,"internalType":"uint256","name":"baseAmount","type":"uint256"},{"indexed":false,"internalType":"uint256","name":"verificationBonus","type":"uint256"},{"indexed":false,"internalType":"uint256","name":"shareBonus","type":"uint256"}],"name":"YieldConfigUpdated","type":"event"},{"inputs":[],"name":"baseYieldAmount","outputs":[{"internalType":"uint256","name":"","type":"uint256"}],"stateMutability":"view","type":"function"},{"inputs":[{"internalType":"bytes32[]","name":"capsuleIds","type":"bytes32[]"}],"name":"batchClaimYield","outputs":[],"stateMutability":"nonpayable","type":"function"},{"inputs":[{"internalType":"bytes32","name":"","type":"bytes32"}],"name":"capsuleCreator","outputs":[{"internalType":"address","name":"","type":"address"}],"stateMutability":"view","type":"function"},{"inputs":[{"internalType":"bytes32","name":"","type":"bytes32"}],"name":"capsuleVerified","outputs":[{"internalType":"bool","name":"","type":"bool"}],"stateMutability":"view","type":"function"},{"inputs":[{"internalType":"bytes32","name":"","type":"bytes32"}],"name":"capsuleYield","outputs":[{"internalType":"uint256","name":"","type":"uint256"}],"stateMutability":"view","type":"function"},{"inputs":[{"internalType":"bytes32","name":"capsuleId","type":"bytes32"}],"name":"claimYield","outputs":[],"stateMutability":"nonpayable","type":"function"},{"inputs":[{"internalType":"bytes32","name":"capsuleId","type":"bytes32"},{"internalType":"address","name":"creator","type":"address"}],"name":"createCapsule","outputs":[],"stateMutability":"nonpayable","type":"function"},{"inputs":[{"internalType":"bytes32","name":"capsuleId","type":"bytes32"}],"name":"getCapsuleInfo","outputs":[{"internalType":"address","name":"creator","type":"address"},{"internalType":"bool","name":"verified","type":"bool"},{"internalType":"uint256","name":"yieldAmount","type":"uint256"}],"stateMutability":"view","type":"function"},{"inputs":[{"internalType":"address","name":"user","type":"address"}],"name":"getClaimableYield","outputs":[{"internalType":"uint256","name":"totalClaimable","type":"uint256"}],"stateMutability":"view","type":"function"},{"inputs":[],"name":"getSystemStats","outputs":[{"internalType":"uint256","name":"totalCapsules","type":"uint256"},{"internalType":"uint256","name":"verifiedCapsules","type":"uint256"},{"internalType":"uint256","name":"totalYield","type":"uint256"},{"internalType":"uint256","name":"baseYield","type":"uint256"},{"internalType":"uint256","name":"verificationBonus_","type":"uint256"},{"internalType":"uint256","name":"shareBonus_","type":"uint256"}],"stateMutability":"view","type":"function"},{"inputs":[{"internalType":"address","name":"user","type":"address"}],"name":"getUserCapsules","outputs":[{"internalType":"bytes32[]","name":"","type":"bytes32[]"}],"stateMutability":"view","type":"function"},{"inputs":[],"name":"gttToken","outputs":[{"internalType":"contract SimpleGTTToken","name":"","type":"address"}],"stateMutability":"view","type":"function"},{"inputs":[],"name":"owner","outputs":[{"internalType":"address","name":"","type":"address"}],"stateMutability":"view","type":"function"},{"inputs":[],"name":"pause","outputs":[],"stateMutability":"nonpayable","type":"function"},{"inputs":[],"name":"paused","outputs":[{"internalType":"bool","name":"","type":"bool"}],"stateMutability":"view","type":"function"},{"inputs":[],"name":"renounceOwnership","outputs":[],"stateMutability":"nonpayable","type":"function"},{"inputs":[],"name":"shareBonus","outputs":[{"internalType":"uint256","name":"","type":"uint256"}],"stateMutability":"view","type":"function"},{"inputs":[],"name":"totalCapsulesCreated","outputs":[{"internalType":"uint256","name":"","type":"uint256"}],"stateMutability":"view","type":"function"},{"inputs":[],"name":"totalCapsulesVerified","outputs":[{"internalType":"uint256","name":"","type":"uint256"}],"stateMutability":"view","type":"function"},{"inputs":[],"name":"totalYieldDistributed","outputs":[{"internalType":"uint256","name":"","type":"uint256"}],"stateMutability":"view","type":"function"},{"inputs":[{"internalType":"address","name":"newOwner","type":"address"}],"name":"transferOwnership","outputs":[],"stateMutability":"nonpayable","type":"function"},{"inputs":[],"name":"unpause","outputs":[],"stateMutability":"nonpayable","type":"function"},{"inputs":[{"internalType":"uint256","name":"_baseYieldAmount","type":"uint256"},{"internalType":"uint256","name":"_verificationBonus","type":"uint256"},{"internalType":"uint256","name":"_shareBonus","type":"uint256"}],"name":"updateYieldConfig","outputs":[],"stateMutability":"nonpayable","type":"function"},{"inputs":[{"internalType":"address","name":"","type":"address"},{"internalType":"uint256","name":"","type":"uint256"}],"name":"userCapsules","outputs":[{"internalType":"bytes32","name":"","type":"bytes32"}],"stateMutability":"view","type":"function"},{"inputs":[{"internalType":"address","name":"","type":"address"}],"name":"userTotalYield","outputs":[{"internalType":"uint256","name":"","type":"uint256"}],"stateMutability":"view","type":"function"},{"inputs":[],"name":"verificationBonus","outputs":[{"internalType":"uint256","name":"","type":"uint256"}],"stateMutability":"view","type":"function"},{"inputs":[{"internalType":"bytes32","name":"capsuleId","type":"bytes32"},{"internalType":"uint256","name":"views","type":"uint256"},{"internalType":"uint256","name":"shares","type":"uint256"},{"internalType":"uint256","name":"verifications","type":"uint256"}],"name":"verifyCapsule","outputs":[],"stateMutability":"nonpayable","type":"function"}],"evm":{"bytecode":{"linkReferences":{},"object":"60a060405268056bc75e2d631000006008556802b5e3af16b188000060095568015af1d78b58c40000600a5534801561003757600080fd5b506040516113b13803806113b183398101604081905261005691610142565b338061007d57604051631e4fbdf760e01b8152600060048201526024015b60405180910390fd5b610086816100f2565b50600180556001600160a01b0381166100e15760405162461bcd60e51b815260206004820152601960248201527f496e76616c69642047545420746f6b656e2061646472657373000000000000006044820152606401610074565b6001600160a01b0316608052610172565b600080546001600160a01b038381166001600160a01b0319831681178455604051919092169283917f8be0079c531659141344cd1fd0a4f28419497f9722a3daafe3b4186f6b6457e09190a35050565b60006020828403121561015457600080fd5b81516001600160a01b038116811461016b57600080fd5b9392505050565b60805161121661019b600039600081816102040152818161082e0152610c2801526112166000f3fe608060405234801561001057600080fd5b50600436106101a95760003560e01c80638da5cb5b116100f9578063c838f6b311610097578063df7adf0211610071578063df7adf02146103d0578063df9970b4146103d9578063ec797fc214610443578063f2fde38b1461045657600080fd5b8063c838f6b314610375578063d1ce59a71461037e578063dc227a3a146103bd57600080fd5b8063a0d79fb5116100d3578063a0d79fb514610310578063a7609f7414610323578063b26695f61461032c578063b97b04a21461034c57600080fd5b80638da5cb5b146102ed57806396f9cffa146102fe57806397206bd51461030757600080fd5b80633f4ba83a116101665780635cc1b404116101405780635cc1b404146102b7578063715018a6146102ca5780638456cb59146102d2578063864f8828146102da57600080fd5b80633f4ba83a146102915780635bdb8beb146102995780635c975abb146102ac57600080fd5b806308ab7f86146101ae57806311cdf856146101ca5780631502370e146101ea5780631712c524146101ff578063295ba6781461023e578063366636f714610271575b600080fd5b6101b760095481565b6040519081526020015b60405180910390f35b6101b76101d8366004610fa1565b60066020526000908152604090205481565b6101fd6101f8366004610fc3565b610469565b005b6102267f000000000000000000000000000000000000000000000000000000000000000081565b6040516001600160a01b0390911681526020016101c1565b61026161024c366004610fef565b60046020526000908152604090205460ff1681565b60405190151581526020016101c1565b61028461027f366004610fa1565b6105cc565b6040516101c19190611008565b6101fd610638565b6101fd6102a736600461104c565b61064a565b60025460ff16610261565b6101fd6102c5366004611078565b6106a7565b6101fd6108a0565b6101fd6108b2565b6101fd6102e83660046110ed565b6108c2565b6000546001600160a01b0316610226565b6101b7600a5481565b6101b7600d5481565b6101b761031e36600461111f565b610ab9565b6101b7600c5481565b6101b761033a366004610fef565b60036020526000908152604090205481565b61022661035a366004610fef565b6005602052600090815260409020546001600160a01b031681565b6101b760085481565b600b54600c54600d54600854600954600a54604080519687526020870195909552938501929092526060840152608083015260a082015260c0016101c1565b6101fd6103cb366004610fef565b610aea565b6101b7600b5481565b61041e6103e7366004610fef565b600090815260056020908152604080832054600483528184205460039093529220546001600160a01b039092169260ff9091169190565b604080516001600160a01b0390941684529115156020840152908201526060016101c1565b6101b7610451366004610fa1565b610cd0565b6101fd610464366004610fa1565b610dcd565b610471610e08565b6001600160a01b0381166104cc5760405162461bcd60e51b815260206004820152601760248201527f496e76616c69642063726561746f72206164647265737300000000000000000060448201526064015b60405180910390fd5b6000828152600560205260409020546001600160a01b03161561052a5760405162461bcd60e51b815260206004820152601660248201527543617073756c6520616c72656164792065786973747360501b60448201526064016104c3565b600082815260056020908152604080832080546001600160a01b0319166001600160a01b0386169081179091558352600782528220805460018101825590835290822001839055600b80549161057f8361115f565b9190505550806001600160a01b0316827f79ea3ac4dd49962c08d84a60983e7fc6d2644a0bfa00ad45c39bb482330278cb426040516105c091815260200190565b60405180910390a35050565b6001600160a01b03811660009081526007602090815260409182902080548351818402810184019094528084526060939283018282801561062c57602002820191906000526020600020905b815481526020019060010190808311610618575b50505050509050919050565b610640610e08565b610648610e35565b565b610652610e08565b60088390556009829055600a81905560408051848152602081018490529081018290527f0d467a7494b9e0f784db7ceebca95962dd19a123851b032bafdda6ec89f490a79060600160405180910390a1505050565b6106af610e87565b6106b7610eb1565b6000805b828110156107cd5760008484838181106106d7576106d7611178565b6020908102929092013560008181526005909352604090922054919250506001600160a01b03163314801561071a575060008181526004602052604090205460ff165b8015610733575060008181526003602052604090205415155b156107ba57600081815260036020526040902054610751908461118e565b925080336001600160a01b03167fddc2b0721b847b3102b25c210199ed62baa85a9731241a785e55bb06d6c53c3360036000858152602001908152602001600020546040516107a291815260200190565b60405180910390a36000818152600360205260408120555b50806107c58161115f565b9150506106bb565b50600081116108125760405162461bcd60e51b81526020600482015260116024820152704e6f207969656c6420746f20636c61696d60781b60448201526064016104c3565b6040516302f52ea760e61b8152336004820152602481018290527f00000000000000000000000000000000000000000000000000000000000000006001600160a01b03169063bd4ba9c090604401600060405180830381600087803b15801561087a57600080fd5b505af115801561088e573d6000803e3d6000fd5b505050505061089c60018055565b5050565b6108a8610e08565b6106486000610ed5565b6108ba610e08565b610648610f25565b6108ca610e08565b6000848152600560205260409020546001600160a01b03166109275760405162461bcd60e51b815260206004820152601660248201527510d85c1cdd5b1948191bd95cc81b9bdd08195e1a5cdd60521b60448201526064016104c3565b60008481526004602052604090205460ff16156109865760405162461bcd60e51b815260206004820152601860248201527f43617073756c6520616c7265616479207665726966696564000000000000000060448201526064016104c3565b600854811561099f5760095461099c908261118e565b90505b60006109ac600a856111a7565b9050600a54816109bc91906111c9565b6109c6908361118e565b915060006109d56064876111a7565b6109e790670de0b6b3a76400006111c9565b90506109f3818461118e565b600088815260036020908152604080832084905560048252808320805460ff1916600117905560058252808320546001600160a01b031683526006909152812080549295508592909190610a4890849061118e565b9091555050600c8054906000610a5d8361115f565b919050555082600d6000828254610a74919061118e565b9091555050604051838152339088907fe59b013893a7fe6936a7b155628c6c199298d08c774b5ca62ff114012d04f2fd9060200160405180910390a350505050505050565b60076020528160005260406000208181548110610ad557600080fd5b90600052602060002001600091509150505481565b610af2610e87565b610afa610eb1565b6000818152600560205260409020546001600160a01b03163314610b565760405162461bcd60e51b81526020600482015260136024820152722737ba1031b0b839bab6329031b932b0ba37b960691b60448201526064016104c3565b60008181526004602052604090205460ff16610bab5760405162461bcd60e51b815260206004820152601460248201527310d85c1cdd5b19481b9bdd081d995c9a599a595960621b60448201526064016104c3565b600081815260036020526040902054610bfa5760405162461bcd60e51b81526020600482015260116024820152704e6f207969656c6420746f20636c61696d60781b60448201526064016104c3565b6000818152600360205260408082208054929055516302f52ea760e61b8152336004820152602481018290527f00000000000000000000000000000000000000000000000000000000000000006001600160a01b03169063bd4ba9c090604401600060405180830381600087803b158015610c7457600080fd5b505af1158015610c88573d6000803e3d6000fd5b50506040518381528492503391507fddc2b0721b847b3102b25c210199ed62baa85a9731241a785e55bb06d6c53c339060200160405180910390a350610ccd60018055565b50565b6001600160a01b038116600090815260076020908152604080832080548251818502810185019093528083528493830182828015610d2d57602002820191906000526020600020905b815481526020019060010190808311610d19575b5050505050905060005b8151811015610dc65760046000838381518110610d5657610d56611178565b60209081029190910181015182528101919091526040016000205460ff1615610db45760036000838381518110610d8f57610d8f611178565b602002602001015181526020019081526020016000205483610db1919061118e565b92505b80610dbe8161115f565b915050610d37565b5050919050565b610dd5610e08565b6001600160a01b038116610dff57604051631e4fbdf760e01b8152600060048201526024016104c3565b610ccd81610ed5565b6000546001600160a01b031633146106485760405163118cdaa760e01b81523360048201526024016104c3565b610e3d610f62565b6002805460ff191690557f5db9ee0a495bf2e6ff9c91a7834c1ba4fdd244a5e8aa4e537bd38aeae4b073aa335b6040516001600160a01b03909116815260200160405180910390a1565b600260015403610eaa57604051633ee5aeb560e01b815260040160405180910390fd5b6002600155565b60025460ff16156106485760405163d93c066560e01b815260040160405180910390fd5b600080546001600160a01b038381166001600160a01b0319831681178455604051919092169283917f8be0079c531659141344cd1fd0a4f28419497f9722a3daafe3b4186f6b6457e09190a35050565b610f2d610eb1565b6002805460ff191660011790557f62e78cea01bee320cd4e420270b5ea74000d11b0c9f74754ebdbfc544b05a258610e6a3390565b60025460ff1661064857604051638dfc202b60e01b815260040160405180910390fd5b80356001600160a01b0381168114610f9c57600080fd5b919050565b600060208284031215610fb357600080fd5b610fbc82610f85565b9392505050565b60008060408385031215610fd657600080fd5b82359150610fe660208401610f85565b90509250929050565b60006020828403121561100157600080fd5b5035919050565b6020808252825182820181905260009190848201906040850190845b8181101561104057835183529284019291840191600101611024565b50909695505050505050565b60008060006060848603121561106157600080fd5b505081359360208301359350604090920135919050565b6000806020838503121561108b57600080fd5b823567ffffffffffffffff808211156110a357600080fd5b818501915085601f8301126110b757600080fd5b8135818111156110c657600080fd5b8660208260051b85010111156110db57600080fd5b60209290920196919550909350505050565b6000806000806080858703121561110357600080fd5b5050823594602084013594506040840135936060013592509050565b6000806040838503121561113257600080fd5b61113b83610f85565b946020939093013593505050565b634e487b7160e01b600052601160045260246000fd5b60006001820161117157611171611149565b5060010190565b634e487b7160e01b600052603260045260246000fd5b808201808211156111a1576111a1611149565b92915050565b6000826111c457634e487b7160e01b600052601260045260246000fd5b500490565b80820281158282048414176111a1576111a161114956fea2646970667358221220a529cff98fdcb99749d2a35b833fde8b82cf2d2e80ed23de5630f66e0c3ac9cf64736f6c63430008140033","opcodes":"PUSH1 0xA0 PUSH1 0x40 MSTORE PUSH9 0x56BC75E2D63100000 PUSH1 0x8 SSTORE PUSH9 0x2B5E3AF16B1880000 PUSH1 0x9 SSTORE PUSH9 0x15AF1D78B58C40000 PUSH1 0xA SSTORE CALLVALUE DUP1 ISZERO PUSH2 0x37 JUMPI PUSH1 0x0 DUP1 REVERT JUMPDEST POP PUSH1 0x40 MLOAD PUSH2 0x13B1 CODESIZE SUB DUP1 PUSH2 0x13B1 DUP4 CODECOPY DUP2 ADD PUSH1 0x40 DUP2 SWAP1 MSTORE PUSH2 0x56 SWAP2 PUSH2 0x142 JUMP JUMPDEST CALLER DUP1 PUSH2 0x7D JUMPI PUSH1 0x40 MLOAD PUSH4 0x1E4FBDF7 PUSH1 0xE0 SHL DUP2 MSTORE PUSH1 0x0 PUSH1 0x4 DUP3 ADD MSTORE PUSH1 0x24 ADD JUMPDEST PUSH1 0x40 MLOAD DUP1 SWAP2 SUB SWAP1 REVERT JUMPDEST PUSH2 0x86 DUP2 PUSH2 0xF2 JUMP JUMPDEST POP PUSH1 0x1 DUP1 SSTORE PUSH1 0x1 PUSH1 0x1 PUSH1 0xA0 SHL SUB DUP2 AND PUSH2 0xE1 JUMPI PUSH1 0x40 MLOAD PUSH3 0x461BCD PUSH1 0xE5 SHL DUP2 MSTORE PUSH1 0x20 PUSH1 0x4 DUP3 ADD MSTORE PUSH1 0x19 PUSH1 0x24 DUP3 ADD MSTORE PUSH32 0x496E76616C69642047545420746F6B656E206164647265737300000000000000 PUSH1 0x44 DUP3 ADD MSTORE PUSH1 0x64 ADD PUSH2 0x74 JUMP JUMPDEST PUSH1 0x1 PUSH1 0x1 PUSH1 0xA0 SHL SUB AND PUSH1 0x80 MSTORE PUSH2 0x172 JUMP JUMPDEST PUSH1 0x0 DUP1 SLOAD PUSH1 0x1 PUSH1 0x1 PUSH1 0xA0 SHL SUB DUP4 DUP2 AND PUSH1 0x1 PUSH1 0x1 PUSH1 0xA0 SHL SUB NOT DUP4 AND DUP2 OR DUP5 SSTORE PUSH1 0x40 MLOAD SWAP2 SWAP1 SWAP3 AND SWAP3 DUP4 SWAP2 PUSH32 0x8BE0079C531659141344CD1FD0A4F28419497F9722A3DAAFE3B4186F6B6457E0 SWAP2 SWAP1 LOG3 POP POP JUMP JUMPDEST PUSH1 0x0 PUSH1 0x20 DUP3 DUP5 SUB SLT ISZERO PUSH2 0x154 JUMPI PUSH1 0x0 DUP1 REVERT JUMPDEST DUP2 MLOAD PUSH1 0x1 PUSH1 0x1 PUSH1 0xA0 SHL SUB DUP2 AND DUP2 EQ PUSH2 0x16B JUMPI PUSH1 0x0 DUP1 REVERT JUMPDEST SWAP4 SWAP3 POP POP POP JUMP JUMPDEST PUSH1 0x80 MLOAD PUSH2 0x1216 PUSH2 0x19B PUSH1 0x0 CODECOPY PUSH1 0x0 DUP2 DUP2 PUSH2 0x204 ADD MSTORE DUP2 DUP2 PUSH2 0x82E ADD MSTORE PUSH2 0xC28 ADD MSTORE PUSH2 0x1216 PUSH1 0x0 RETURN INVALID PUSH1 0x80 PUSH1 0x40 MSTORE CALLVALUE DUP1 ISZERO PUSH2 0x10 JUMPI PUSH1 0x0 DUP1 REVERT JUMPDEST POP PUSH1 0x4 CALLDATASIZE LT PUSH2 0x1A9 JUMPI PUSH1 0x0 CALLDATALOAD PUSH1 0xE0 SHR DUP1 PUSH4 0x8DA5CB5B GT PUSH2 0xF9 JUMPI DUP1 PUSH4 0xC838F6B3 GT PUSH2 0x97 JUMPI DUP1 PUSH4 0xDF7ADF02 GT PUSH2 0x71 JUMPI DUP1 PUSH4 0xDF7ADF02 EQ PUSH2 0x3D0 JUMPI DUP1 PUSH4 0xDF9970B4 EQ PUSH2 0x3D9 JUMPI DUP1 PUSH4 0xEC797FC2 EQ PUSH2 0x443 JUMPI DUP1 PUSH4 0xF2FDE38B EQ PUSH2 0x456 JUMPI PUSH1 0x0 DUP1 REVERT JUMPDEST DUP1 PUSH4 0xC838F6B3 EQ PUSH2 0x375 JUMPI DUP1 PUSH4 0xD1CE59A7 EQ PUSH2 0x37E JUMPI DUP1 PUSH4 0xDC227A3A EQ PUSH2 0x3BD JUMPI PUSH1 0x0 DUP1 REVERT JUMPDEST DUP1 PUSH4 0xA0D79FB5 GT PUSH2 0xD3 JUMPI DUP1 PUSH4 0xA0D79FB5 EQ PUSH2 0x310 JUMPI DUP1 PUSH4 0xA7609F74 EQ PUSH2 0x323 JUMPI DUP1 PUSH4 0xB26695F6 EQ PUSH2 0x32C JUMPI DUP1 PUSH4 0xB97B04A2 EQ PUSH2 0x34C JUMPI PUSH1 0x0 DUP1 REVERT JUMPDEST DUP1 PUSH4 0x8DA5CB5B EQ PUSH2 0x2ED JUMPI DUP1 PUSH4 0x96F9CFFA EQ PUSH2 0x2FE JUMPI DUP1 PUSH4 0x97206BD5 EQ PUSH2 0x307 JUMPI PUSH1 0x0 DUP1 REVERT JUMPDEST DUP1 PUSH4 0x3F4BA83A GT PUSH2 0x166 JUMPI DUP1 PUSH4 0x5CC1B404 GT PUSH2 0x140 JUMPI DUP1 PUSH4 0x5CC1B404 EQ PUSH2 0x2B7 JUMPI DUP1 PUSH4 0x715018A6 EQ PUSH2 0x2CA JUMPI DUP1 PUSH4 0x8456CB59 EQ PUSH2 0x2D2 JUMPI DUP1 PUSH4 0x864F8828 EQ PUSH2 0x2DA JUMPI PUSH1 0x0 DUP1 REVERT JUMPDEST DUP1 PUSH4 0x3F4BA83A EQ PUSH2 0x291 JUMPI DUP1 PUSH4 0x5BDB8BEB EQ PUSH2 0x299 JUMPI DUP1 PUSH4 0x5C975ABB EQ PUSH2 0x2AC JUMPI PUSH1 0x0 DUP1 REVERT JUMPDEST DUP1 PUSH4 0x8AB7F86 EQ PUSH2 0x1AE JUMPI DUP1 PUSH4 0x11CDF856 EQ PUSH2 0x1CA JUMPI DUP1 PUSH4 0x1502370E EQ PUSH2 0x1EA JUMPI DUP1 PUSH4 0x1712C524 EQ PUSH2 0x1FF JUMPI DUP1 PUSH4 0x295BA678 EQ PUSH2 0x23E JUMPI DUP1 PUSH4 0x366636F7 EQ PUSH2 0x271 JUMPI JUMPDEST PUSH1 0x0 DUP1 REVERT JUMPDEST PUSH2 0x1B7 PUSH1 0x9 SLOAD DUP2 JUMP JUMPDEST PUSH1 0x40 MLOAD SWAP1 DUP2 MSTORE PUSH1 0x20 ADD JUMPDEST PUSH1 0x40 MLOAD DUP1 SWAP2 SUB SWAP1 RETURN JUMPDEST PUSH2 0x1B7 PUSH2 0x1D8 CALLDATASIZE PUSH1 0x4 PUSH2 0xFA1 JUMP JUMPDEST PUSH1 0x6 PUSH1 0x20 MSTORE PUSH1 0x0 SWAP1 DUP2 MSTORE PUSH1 0x40 SWAP1 KECCAK256 SLOAD DUP2 JUMP JUMPDEST PUSH2 0x1FD PUSH2 0x1F8 CALLDATASIZE PUSH1 0x4 PUSH2 0xFC3 JUMP JUMPDEST PUSH2 0x469 JUMP JUMPDEST STOP JUMPDEST PUSH2 0x226 PUSH32 0x0 DUP2 JUMP JUMPDEST PUSH1 0x40 MLOAD PUSH1 0x1 PUSH1 0x1 PUSH1 0xA0 SHL SUB SWAP1 SWAP2 AND DUP2 MSTORE PUSH1 0x20 ADD PUSH2 0x1C1 JUMP JUMPDEST PUSH2 0x261 PUSH2 0x24C CALLDATASIZE PUSH1 0x4 PUSH2 0xFEF JUMP JUMPDEST PUSH1 0x4 PUSH1 0x20 MSTORE PUSH1 0x0 SWAP1 DUP2 MSTORE PUSH1 0x40 SWAP1 KECCAK256 SLOAD PUSH1 0xFF AND DUP2 JUMP JUMPDEST PUSH1 0x40 MLOAD SWAP1 ISZERO ISZERO DUP2 MSTORE PUSH1 0x20 ADD PUSH2 0x1C1 JUMP JUMPDEST PUSH2 0x284 PUSH2 0x27F CALLDATASIZE PUSH1 0x4 PUSH2 0xFA1 JUMP JUMPDEST PUSH2 0x5CC JUMP JUMPDEST PUSH1 0x40 MLOAD PUSH2 0x1C1 SWAP2 SWAP1 PUSH2 0x1008 JUMP JUMPDEST PUSH2 0x1FD PUSH2 0x638 JUMP JUMPDEST PUSH2 0x1FD PUSH2 0x2A7 CALLDATASIZE PUSH1 0x4 PUSH2 0x104C JUMP JUMPDEST PUSH2 0x64A JUMP JUMPDEST PUSH1 0x2 SLOAD PUSH1 0xFF AND PUSH2 0x261 JUMP JUMPDEST PUSH2 0x1FD PUSH2 0x2C5 CALLDATASIZE PUSH1 0x4 PUSH2 0x1078 JUMP JUMPDEST PUSH2 0x6A7 JUMP JUMPDEST PUSH2 0x1FD PUSH2 0x8A0 JUMP JUMPDEST PUSH2 0x1FD PUSH2 0x8B2 JUMP JUMPDEST PUSH2 0x1FD PUSH2 0x2E8 CALLDATASIZE PUSH1 0x4 PUSH2 0x10ED JUMP JUMPDEST PUSH2 0x8C2 JUMP JUMPDEST PUSH1 0x0 SLOAD PUSH1 0x1 PUSH1 0x1 PUSH1 0xA0 SHL SUB AND PUSH2 0x226 JUMP JUMPDEST PUSH2 0x1B7 PUSH1 0xA SLOAD DUP2 JUMP JUMPDEST PUSH2 0x1B7 PUSH1 0xD SLOAD DUP2 JUMP JUMPDEST PUSH2 0x1B7 PUSH2 0x31E CALLDATASIZE PUSH1 0x4 PUSH2 0x111F JUMP JUMPDEST PUSH2 0xAB9 JUMP JUMPDEST PUSH2 0x1B7 PUSH1 0xC SLOAD DUP2 JUMP JUMPDEST PUSH2 0x1B7 PUSH2 0x33A CALLDATASIZE PUSH1 0x4 PUSH2 0xFEF JUMP JUMPDEST PUSH1 0x3 PUSH1 0x20 MSTORE PUSH1 0x0 SWAP1 DUP2 MSTORE PUSH1 0x40 SWAP1 KECCAK256 SLOAD DUP2 JUMP JUMPDEST PUSH2 0x226 PUSH2 0x35A CALLDATASIZE PUSH1 0x4 PUSH2 0xFEF JUMP JUMPDEST PUSH1 0x5 PUSH1 0x20 MSTORE PUSH1 0x0 SWAP1 DUP2 MSTORE PUSH1 0x40 SWAP1 KECCAK256 SLOAD PUSH1 0x1 PUSH1 0x1 PUSH1 0xA0 SHL SUB AND DUP2 JUMP JUMPDEST PUSH2 0x1B7 PUSH1 0x8 SLOAD DUP2 JUMP JUMPDEST PUSH1 0xB SLOAD PUSH1 0xC SLOAD PUSH1 0xD SLOAD PUSH1 0x8 SLOAD PUSH1 0x9 SLOAD PUSH1 0xA SLOAD PUSH1 0x40 DUP1 MLOAD SWAP7 DUP8 MSTORE PUSH1 0x20 DUP8 ADD SWAP6 SWAP1 SWAP6 MSTORE SWAP4 DUP6 ADD SWAP3 SWAP1 SWAP3 MSTORE PUSH1 0x60 DUP5 ADD MSTORE PUSH1 0x80 DUP4 ADD MSTORE PUSH1 0xA0 DUP3 ADD MSTORE PUSH1 0xC0 ADD PUSH2 0x1C1 JUMP JUMPDEST PUSH2 0x1FD PUSH2 0x3CB CALLDATASIZE PUSH1 0x4 PUSH2 0xFEF JUMP JUMPDEST PUSH2 0xAEA JUMP JUMPDEST PUSH2 0x1B7 PUSH1 0xB SLOAD DUP2 JUMP JUMPDEST PUSH2 0x41E PUSH2 0x3E7 CALLDATASIZE PUSH1 0x4 PUSH2 0xFEF JUMP JUMPDEST PUSH1 0x0 SWAP1 DUP2 MSTORE PUSH1 0x5 PUSH1 0x20 SWAP1 DUP2 MSTORE PUSH1 0x40 DUP1 DUP4 KECCAK256 SLOAD PUSH1 0x4 DUP4 MSTORE DUP2 DUP5 KECCAK256 SLOAD PUSH1 0x3 SWAP1 SWAP4 MSTORE SWAP3 KECCAK256 SLOAD PUSH1 0x1 PUSH1 0x1 PUSH1 0xA0 SHL SUB SWAP1 SWAP3 AND SWAP3 PUSH1 0xFF SWAP1 SWAP2 AND SWAP2 SWAP1 JUMP JUMPDEST PUSH1 0x40 DUP1 MLOAD PUSH1 0x1 PUSH1 0x1 PUSH1 0xA0 SHL SUB SWAP1 SWAP5 AND DUP5 MSTORE SWAP2 ISZERO ISZERO PUSH1 0x20 DUP5 ADD MSTORE SWAP1 DUP3 ADD MSTORE PUSH1 0x60 ADD PUSH2 0x1C1 JUMP JUMPDEST PUSH2 0x1B7 PUSH2 0x451 CALLDATASIZE PUSH1 0x4 PUSH2 0xFA1 JUMP JUMPDEST PUSH2 0xCD0 JUMP JUMPDEST PUSH2 0x1FD PUSH2 0x464 CALLDATASIZE PUSH1 0x4 PUSH2 0xFA1 JUMP JUMPDEST PUSH2 0xDCD JUMP JUMPDEST PUSH2 0x471 PUSH2 0xE08 JUMP JUMPDEST PUSH1 0x1 PUSH1 0x1 PUSH1 0xA0 SHL SUB DUP2 AND PUSH2 0x4CC JUMPI PUSH1 0x40 MLOAD PUSH3 0x461BCD PUSH1 0xE5 SHL DUP2 MSTORE PUSH1 0x20 PUSH1 0x4 DUP3 ADD MSTORE PUSH1 0x17 PUSH1 0x24 DUP3 ADD MSTORE PUSH32 0x496E76616C69642063726561746F722061646472657373000000000000000000 PUSH1 0x44 DUP3 ADD MSTORE PUSH1 0x64 ADD JUMPDEST PUSH1 0x40 MLOAD DUP1 SWAP2 SUB SWAP1 REVERT JUMPDEST PUSH1 0x0 DUP3 DUP2 MSTORE PUSH1 0x5 PUSH1 0x20 MSTORE PUSH1 0x40 SWAP1 KECCAK256 SLOAD PUSH1 0x1 PUSH1 0x1 PUSH1 0xA0 SHL SUB AND ISZERO PUSH2 0x52A JUMPI PUSH1 0x40 MLOAD PUSH3 0x461BCD PUSH1 0xE5 SHL DUP2 MSTORE PUSH1 0x20 PUSH1 0x4 DUP3 ADD MSTORE PUSH1 0x16 PUSH1 0x24 DUP3 ADD MSTORE PUSH22 0x43617073756C6520616C726561647920657869737473 PUSH1 0x50 SHL PUSH1 0x44 DUP3 ADD MSTORE PUSH1 0x64 ADD PUSH2 0x4C3 JUMP JUMPDEST PUSH1 0x0 DUP3 DUP2 MSTORE PUSH1 0x5 PUSH1 0x20 SWAP1 DUP2 MSTORE PUSH1 0x40 DUP1 DUP4 KECCAK256 DUP1 SLOAD PUSH1 0x1 PUSH1 0x1 PUSH1 0xA0 SHL SUB NOT AND PUSH1 0x1 PUSH1 0x1 PUSH1 0xA0 SHL SUB DUP7 AND SWAP1 DUP2 OR SWAP1 SWAP2 SSTORE DUP4 MSTORE PUSH1 0x7 DUP3 MSTORE DUP3 KECCAK256 DUP1 SLOAD PUSH1 0x1 DUP2 ADD DUP3 SSTORE SWAP1 DUP4 MSTORE SWAP1 DUP3 KECCAK256 ADD DUP4 SWAP1 SSTORE PUSH1 0xB DUP1 SLOAD SWAP2 PUSH2 0x57F DUP4 PUSH2 0x115F JUMP JUMPDEST SWAP2 SWAP1 POP SSTORE POP DUP1 PUSH1 0x1 PUSH1 0x1 PUSH1 0xA0 SHL SUB AND DUP3 PUSH32 0x79EA3AC4DD49962C08D84A60983E7FC6D2644A0BFA00AD45C39BB482330278CB TIMESTAMP PUSH1 0x40 MLOAD PUSH2 0x5C0 SWAP2 DUP2 MSTORE PUSH1 0x20 ADD SWAP1 JUMP JUMPDEST PUSH1 0x40 MLOAD DUP1 SWAP2 SUB SWAP1 LOG3 POP POP JUMP JUMPDEST PUSH1 0x1 PUSH1 0x1 PUSH1 0xA0 SHL SUB DUP2 AND PUSH1 0x0 SWAP1 DUP2 MSTORE PUSH1 0x7 PUSH1 0x20 SWAP1 DUP2 MSTORE PUSH1 0x40 SWAP2 DUP3 SWAP1 KECCAK256 DUP1 SLOAD DUP4 MLOAD DUP2 DUP5 MUL DUP2 ADD DUP5 ADD SWAP1 SWAP5 MSTORE DUP1 DUP5 MSTORE PUSH1 0x60 SWAP4 SWAP3 DUP4 ADD DUP3 DUP3 DUP1 ISZERO PUSH2 0x62C JUMPI PUSH1 0x20 MUL DUP3 ADD SWAP2 SWAP1 PUSH1 0x0 MSTORE PUSH1 0x20 PUSH1 0x0 KECCAK256 SWAP1 JUMPDEST DUP2 SLOAD DUP2 MSTORE PUSH1 0x20 ADD SWAP1 PUSH1 0x1 ADD SWAP1 DUP1 DUP4 GT PUSH2 0x618 JUMPI JUMPDEST POP POP POP POP POP SWAP1 POP SWAP2 SWAP1 POP JUMP JUMPDEST PUSH2 0x640 PUSH2 0xE08 JUMP JUMPDEST PUSH2 0x648 PUSH2 0xE35 JUMP JUMPDEST JUMP JUMPDEST PUSH2 0x652 PUSH2 0xE08 JUMP JUMPDEST PUSH1 0x8 DUP4 SWAP1 SSTORE PUSH1 0x9 DUP3 SWAP1 SSTORE PUSH1 0xA DUP2 SWAP1 SSTORE PUSH1 0x40 DUP1 MLOAD DUP5 DUP2 MSTORE PUSH1 0x20 DUP2 ADD DUP5 SWAP1 MSTORE SWAP1 DUP2 ADD DUP3 SWAP1 MSTORE PUSH32 0xD467A7494B9E0F784DB7CEEBCA95962DD19A123851B032BAFDDA6EC89F490A7 SWAP1 PUSH1 0x60 ADD PUSH1 0x40 MLOAD DUP1 SWAP2 SUB SWAP1 LOG1 POP POP POP JUMP JUMPDEST PUSH2 0x6AF PUSH2 0xE87 JUMP JUMPDEST PUSH2 0x6B7 PUSH2 0xEB1 JUMP JUMPDEST PUSH1 0x0 DUP1 JUMPDEST DUP3 DUP2 LT ISZERO PUSH2 0x7CD JUMPI PUSH1 0x0 DUP5 DUP5 DUP4 DUP2 DUP2 LT PUSH2 0x6D7 JUMPI PUSH2 0x6D7 PUSH2 0x1178 JUMP JUMPDEST PUSH1 0x20 SWAP1 DUP2 MUL SWAP3 SWAP1 SWAP3 ADD CALLDATALOAD PUSH1 0x0 DUP2 DUP2 MSTORE PUSH1 0x5 SWAP1 SWAP4 MSTORE PUSH1 0x40 SWAP1 SWAP3 KECCAK256 SLOAD SWAP2 SWAP3 POP POP PUSH1 0x1 PUSH1 0x1 PUSH1 0xA0 SHL SUB AND CALLER EQ DUP1 ISZERO PUSH2 0x71A JUMPI POP PUSH1 0x0 DUP2 DUP2 MSTORE PUSH1 0x4 PUSH1 0x20 MSTORE PUSH1 0x40 SWAP1 KECCAK256 SLOAD PUSH1 0xFF AND JUMPDEST DUP1 ISZERO PUSH2 0x733 JUMPI POP PUSH1 0x0 DUP2 DUP2 MSTORE PUSH1 0x3 PUSH1 0x20 MSTORE PUSH1 0x40 SWAP1 KECCAK256 SLOAD ISZERO ISZERO JUMPDEST ISZERO PUSH2 0x7BA JUMPI PUSH1 0x0 DUP2 DUP2 MSTORE PUSH1 0x3 PUSH1 0x20 MSTORE PUSH1 0x40 SWAP1 KECCAK256 SLOAD PUSH2 0x751 SWAP1 DUP5 PUSH2 0x118E JUMP JUMPDEST SWAP3 POP DUP1 CALLER PUSH1 0x1 PUSH1 0x1 PUSH1 0xA0 SHL SUB AND PUSH32 0xDDC2B0721B847B3102B25C210199ED62BAA85A9731241A785E55BB06D6C53C33 PUSH1 0x3 PUSH1 0x0 DUP6 DUP2 MSTORE PUSH1 0x20 ADD SWAP1 DUP2 MSTORE PUSH1 0x20 ADD PUSH1 0x0 KECCAK256 SLOAD PUSH1 0x40 MLOAD PUSH2 0x7A2 SWAP2 DUP2 MSTORE PUSH1 0x20 ADD SWAP1 JUMP JUMPDEST PUSH1 0x40 MLOAD DUP1 SWAP2 SUB SWAP1 LOG3 PUSH1 0x0 DUP2 DUP2 MSTORE PUSH1 0x3 PUSH1 0x20 MSTORE PUSH1 0x40 DUP2 KECCAK256 SSTORE JUMPDEST POP DUP1 PUSH2 0x7C5 DUP2 PUSH2 0x115F JUMP JUMPDEST SWAP2 POP POP PUSH2 0x6BB JUMP JUMPDEST POP PUSH1 0x0 DUP2 GT PUSH2 0x812 JUMPI PUSH1 0x40 MLOAD PUSH3 0x461BCD PUSH1 0xE5 SHL DUP2 MSTORE PUSH1 0x20 PUSH1 0x4 DUP3 ADD MSTORE PUSH1 0x11 PUSH1 0x24 DUP3 ADD MSTORE PUSH17 0x4E6F207969656C6420746F20636C61696D PUSH1 0x78 SHL PUSH1 0x44 DUP3 ADD MSTORE PUSH1 0x64 ADD PUSH2 0x4C3 JUMP JUMPDEST PUSH1 0x40 MLOAD PUSH4 0x2F52EA7 PUSH1 0xE6 SHL DUP2 MSTORE CALLER PUSH1 0x4 DUP3 ADD MSTORE PUSH1 0x24 DUP2 ADD DUP3 SWAP1 MSTORE PUSH32 0x0 PUSH1 0x1 PUSH1 0x1 PUSH1 0xA0 SHL SUB AND SWAP1 PUSH4 0xBD4BA9C0 SWAP1 PUSH1 0x44 ADD PUSH1 0x0 PUSH1 0x40 MLOAD DUP1 DUP4 SUB DUP2 PUSH1 0x0 DUP8 DUP1 EXTCODESIZE ISZERO DUP1 ISZERO PUSH2 0x87A JUMPI PUSH1 0x0 DUP1 REVERT JUMPDEST POP GAS CALL ISZERO DUP1 ISZERO PUSH2 0x88E JUMPI RETURNDATASIZE PUSH1 0x0 DUP1 RETURNDATACOPY RETURNDATASIZE PUSH1 0x0 REVERT JUMPDEST POP POP POP POP POP PUSH2 0x89C PUSH1 0x1 DUP1 SSTORE JUMP JUMPDEST POP POP JUMP JUMPDEST PUSH2 0x8A8 PUSH2 0xE08 JUMP JUMPDEST PUSH2 0x648 PUSH1 0x0 PUSH2 0xED5 JUMP JUMPDEST PUSH2 0x8BA PUSH2 0xE08 JUMP JUMPDEST PUSH2 0x648 PUSH2 0xF25 JUMP JUMPDEST PUSH2 0x8CA PUSH2 0xE08 JUMP JUMPDEST PUSH1 0x0 DUP5 DUP2 MSTORE PUSH1 0x5 PUSH1 0x20 MSTORE PUSH1 0x40 SWAP1 KECCAK256 SLOAD PUSH1 0x1 PUSH1 0x1 PUSH1 0xA0 SHL SUB AND PUSH2 0x927 JUMPI PUSH1 0x40 MLOAD PUSH3 0x461BCD PUSH1 0xE5 SHL DUP2 MSTORE PUSH1 0x20 PUSH1 0x4 DUP3 ADD MSTORE PUSH1 0x16 PUSH1 0x24 DUP3 ADD MSTORE PUSH22 0x10D85C1CDD5B1948191BD95CC81B9BDD08195E1A5CDD PUSH1 0x52 SHL PUSH1 0x44 DUP3 ADD MSTORE PUSH1 0x64 ADD PUSH2 0x4C3 JUMP JUMPDEST PUSH1 0x0 DUP5 DUP2 MSTORE PUSH1 0x4 PUSH1 0x20 MSTORE PUSH1 0x40 SWAP1 KECCAK256 SLOAD PUSH1 0xFF AND ISZERO PUSH2 0x986 JUMPI PUSH1 0x40 MLOAD PUSH3 0x461BCD PUSH1 0xE5 SHL DUP2 MSTORE PUSH1 0x20 PUSH1 0x4 DUP3 ADD MSTORE PUSH1 0x18 PUSH1 0x24 DUP3 ADD MSTORE PUSH32 0x43617073756C6520616C72656164792076657269666965640000000000000000 PUSH1 0x44 DUP3 ADD MSTORE PUSH1 0x64 ADD PUSH2 0x4C3 JUMP JUMPDEST PUSH1 0x8 SLOAD DUP2 ISZERO PUSH2 0x99F JUMPI PUSH1 0x9 SLOAD PUSH2 0x99C SWAP1 DUP3 PUSH2 0x118E JUMP JUMPDEST SWAP1 POP JUMPDEST PUSH1 0x0 PUSH2 0x9AC PUSH1 0xA DUP6 PUSH2 0x11A7 JUMP JUMPDEST SWAP1 POP PUSH1 0xA SLOAD DUP2 PUSH2 0x9BC SWAP2 SWAP1 PUSH2 0x11C9 JUMP JUMPDEST PUSH2 0x9C6 SWAP1 DUP4 PUSH2 0x118E JUMP JUMPDEST SWAP2 POP PUSH1 0x0 PUSH2 0x9D5 PUSH1 0x64 DUP8 PUSH2 0x11A7 JUMP JUMPDEST PUSH2 0x9E7 SWAP1 PUSH8 0xDE0B6B3A7640000 PUSH2 0x11C9 JUMP JUMPDEST SWAP1 POP PUSH2 0x9F3 DUP2 DUP5 PUSH2 0x118E JUMP JUMPDEST PUSH1 0x0 DUP9 DUP2 MSTORE PUSH1 0x3 PUSH1 0x20 SWAP1 DUP2 MSTORE PUSH1 0x40 DUP1 DUP4 KECCAK256 DUP5 SWAP1 SSTORE PUSH1 0x4 DUP3 MSTORE DUP1 DUP4 KECCAK256 DUP1 SLOAD PUSH1 0xFF NOT AND PUSH1 0x1 OR SWAP1 SSTORE PUSH1 0x5 DUP3 MSTORE DUP1 DUP4 KECCAK256 SLOAD PUSH1 0x1 PUSH1 0x1 PUSH1 0xA0 SHL SUB AND DUP4 MSTORE PUSH1 0x6 SWAP1 SWAP2 MSTORE DUP2 KECCAK256 DUP1 SLOAD SWAP3 SWAP6 POP DUP6 SWAP3 SWAP1 SWAP2 SWAP1 PUSH2 0xA48 SWAP1 DUP5 SWAP1 PUSH2 0x118E JUMP JUMPDEST SWAP1 SWAP2 SSTORE POP POP PUSH1 0xC DUP1 SLOAD SWAP1 PUSH1 0x0 PUSH2 0xA5D DUP4 PUSH2 0x115F JUMP JUMPDEST SWAP2 SWAP1 POP SSTORE POP DUP3 PUSH1 0xD PUSH1 0x0 DUP3 DUP3 SLOAD PUSH2 0xA74 SWAP2 SWAP1 PUSH2 0x118E JUMP JUMPDEST SWAP1 SWAP2 SSTORE POP POP PUSH1 0x40 MLOAD DUP4 DUP2 MSTORE CALLER SWAP1 DUP9 SWAP1 PUSH32 0xE59B013893A7FE6936A7B155628C6C199298D08C774B5CA62FF114012D04F2FD SWAP1 PUSH1 0x20 ADD PUSH1 0x40 MLOAD DUP1 SWAP2 SUB SWAP1 LOG3 POP POP POP POP POP POP POP JUMP JUMPDEST PUSH1 0x7 PUSH1 0x20 MSTORE DUP2 PUSH1 0x0 MSTORE PUSH1 0x40 PUSH1 0x0 KECCAK256 DUP2 DUP2 SLOAD DUP2 LT PUSH2 0xAD5 JUMPI PUSH1 0x0 DUP1 REVERT JUMPDEST SWAP1 PUSH1 0x0 MSTORE PUSH1 0x20 PUSH1 0x0 KECCAK256 ADD PUSH1 0x0 SWAP2 POP SWAP2 POP POP SLOAD DUP2 JUMP JUMPDEST PUSH2 0xAF2 PUSH2 0xE87 JUMP JUMPDEST PUSH2 0xAFA PUSH2 0xEB1 JUMP JUMPDEST PUSH1 0x0 DUP2 DUP2 MSTORE PUSH1 0x5 PUSH1 0x20 MSTORE PUSH1 0x40 SWAP1 KECCAK256 SLOAD PUSH1 0x1 PUSH1 0x1 PUSH1 0xA0 SHL SUB AND CALLER EQ PUSH2 0xB56 JUMPI PUSH1 0x40 MLOAD PUSH3 0x461BCD PUSH1 0xE5 SHL DUP2 MSTORE PUSH1 0x20 PUSH1 0x4 DUP3 ADD MSTORE PUSH1 0x13 PUSH1 0x24 DUP3 ADD MSTORE PUSH19 0x2737BA1031B0B839BAB6329031B932B0BA37B9 PUSH1 0x69 SHL PUSH1 0x44 DUP3 ADD MSTORE PUSH1 0x64 ADD PUSH2 0x4C3 JUMP JUMPDEST PUSH1 0x0 DUP2 DUP2 MSTORE PUSH1 0x4 PUSH1 0x20 MSTORE PUSH1 0x40 SWAP1 KECCAK256 SLOAD PUSH1 0xFF AND PUSH2 0xBAB JUMPI PUSH1 0x40 MLOAD PUSH3 0x461BCD PUSH1 0xE5 SHL DUP2 MSTORE PUSH1 0x20 PUSH1 0x4 DUP3 ADD MSTORE PUSH1 0x14 PUSH1 0x24 DUP3 ADD MSTORE PUSH20 0x10D85C1CDD5B19481B9BDD081D995C9A599A5959 PUSH1 0x62 SHL PUSH1 0x44 DUP3 ADD MSTORE PUSH1 0x64 ADD PUSH2 0x4C3 JUMP JUMPDEST PUSH1 0x0 DUP2 DUP2 MSTORE PUSH1 0x3 PUSH1 0x20 MSTORE PUSH1 0x40 SWAP1 KECCAK256 SLOAD PUSH2 0xBFA JUMPI PUSH1 0x40 MLOAD PUSH3 0x461BCD PUSH1 0xE5 SHL DUP2 MSTORE PUSH1 0x20 PUSH1 0x4 DUP3 ADD MSTORE PUSH1 0x11 PUSH1 0x24 DUP3 ADD MSTORE PUSH17 0x4E6F207969656C6420746F20636C61696D PUSH1 0x78 SHL PUSH1 0x44 DUP3 ADD MSTORE PUSH1 0x64 ADD PUSH2 0x4C3 JUMP JUMPDEST PUSH1 0x0 DUP2 DUP2 MSTORE PUSH1 0x3 PUSH1 0x20 MSTORE PUSH1 0x40 DUP1 DUP3 KECCAK256 DUP1 SLOAD SWAP3 SWAP1 SSTORE MLOAD PUSH4 0x2F52EA7 PUSH1 0xE6 SHL DUP2 MSTORE CALLER PUSH1 0x4 DUP3 ADD MSTORE PUSH1 0x24 DUP2 ADD DUP3 SWAP1 MSTORE PUSH32 0x0 PUSH1 0x1 PUSH1 0x1 PUSH1 0xA0 SHL SUB AND SWAP1 PUSH4 0xBD4BA9C0 SWAP1 PUSH1 0x44 ADD PUSH1 0x0 PUSH1 0x40 MLOAD DUP1 DUP4 SUB DUP2 PUSH1 0x0 DUP8 DUP1 EXTCODESIZE ISZERO DUP1 ISZERO PUSH2 0xC74 JUMPI PUSH1 0x0 DUP1 REVERT JUMPDEST POP GAS CALL ISZERO DUP1 ISZERO PUSH2 0xC88 JUMPI RETURNDATASIZE PUSH1 0x0 DUP1 RETURNDATACOPY RETURNDATASIZE PUSH1 0x0 REVERT JUMPDEST POP POP PUSH1 0x40 MLOAD DUP4 DUP2 MSTORE DUP5 SWAP3 POP CALLER SWAP2 POP PUSH32 0xDDC2B0721B847B3102B25C210199ED62BAA85A9731241A785E55BB06D6C53C33 SWAP1 PUSH1 0x20 ADD PUSH1 0x40 MLOAD DUP1 SWAP2 SUB SWAP1 LOG3 POP PUSH2 0xCCD PUSH1 0x1 DUP1 SSTORE JUMP JUMPDEST POP JUMP JUMPDEST PUSH1 0x1 PUSH1 0x1 PUSH1 0xA0 SHL SUB DUP2 AND PUSH1 0x0 SWAP1 DUP2 MSTORE PUSH1 0x7 PUSH1 0x20 SWAP1 DUP2 MSTORE PUSH1 0x40 DUP1 DUP4 KECCAK256 DUP1 SLOAD DUP3 MLOAD DUP2 DUP6 MUL DUP2 ADD DUP6 ADD SWAP1 SWAP4 MSTORE DUP1 DUP4 MSTORE DUP5 SWAP4 DUP4 ADD DUP3 DUP3 DUP1 ISZERO PUSH2 0xD2D JUMPI PUSH1 0x20 MUL DUP3 ADD SWAP2 SWAP1 PUSH1 0x0 MSTORE PUSH1 0x20 PUSH1 0x0 KECCAK256 SWAP1 JUMPDEST DUP2 SLOAD DUP2 MSTORE PUSH1 0x20 ADD SWAP1 PUSH1 0x1 ADD SWAP1 DUP1 DUP4 GT PUSH2 0xD19 JUMPI JUMPDEST POP POP POP POP POP SWAP1 POP PUSH1 0x0 JUMPDEST DUP2 MLOAD DUP2 LT ISZERO PUSH2 0xDC6 JUMPI PUSH1 0x4 PUSH1 0x0 DUP4 DUP4 DUP2 MLOAD DUP2 LT PUSH2 0xD56 JUMPI PUSH2 0xD56 PUSH2 0x1178 JUMP JUMPDEST PUSH1 0x20 SWAP1 DUP2 MUL SWAP2 SWAP1 SWAP2 ADD DUP2 ADD MLOAD DUP3 MSTORE DUP2 ADD SWAP2 SWAP1 SWAP2 MSTORE PUSH1 0x40 ADD PUSH1 0x0 KECCAK256 SLOAD PUSH1 0xFF AND ISZERO PUSH2 0xDB4 JUMPI PUSH1 0x3 PUSH1 0x0 DUP4 DUP4 DUP2 MLOAD DUP2 LT PUSH2 0xD8F JUMPI PUSH2 0xD8F PUSH2 0x1178 JUMP JUMPDEST PUSH1 0x20 MUL PUSH1 0x20 ADD ADD MLOAD DUP2 MSTORE PUSH1 0x20 ADD SWAP1 DUP2 MSTORE PUSH1 0x20 ADD PUSH1 0x0 KECCAK256 SLOAD DUP4 PUSH2 0xDB1 SWAP2 SWAP1 PUSH2 0x118E JUMP JUMPDEST SWAP3 POP JUMPDEST DUP1 PUSH2 0xDBE DUP2 PUSH2 0x115F JUMP JUMPDEST SWAP2 POP POP PUSH2 0xD37 JUMP JUMPDEST POP POP SWAP2 SWAP1 POP JUMP JUMPDEST PUSH2 0xDD5 PUSH2 0xE08 JUMP JUMPDEST PUSH1 0x1 PUSH1 0x1 PUSH1 0xA0 SHL SUB DUP2 AND PUSH2 0xDFF JUMPI PUSH1 0x40 MLOAD PUSH4 0x1E4FBDF7 PUSH1 0xE0 SHL DUP2 MSTORE PUSH1 0x0 PUSH1 0x4 DUP3 ADD MSTORE PUSH1 0x24 ADD PUSH2 0x4C3 JUMP JUMPDEST PUSH2 0xCCD DUP2 PUSH2 0xED5 JUMP JUMPDEST PUSH1 0x0 SLOAD PUSH1 0x1 PUSH1 0x1 PUSH1 0xA0 SHL SUB AND CALLER EQ PUSH2 0x648 JUMPI PUSH1 0x40 MLOAD PUSH4 0x118CDAA7 PUSH1 0xE0 SHL DUP2 MSTORE CALLER PUSH1 0x4 DUP3 ADD MSTORE PUSH1 0x24 ADD PUSH2 0x4C3 JUMP JUMPDEST PUSH2 0xE3D PUSH2 0xF62 JUMP JUMPDEST PUSH1 0x2 DUP1 SLOAD PUSH1 0xFF NOT AND SWAP1 SSTORE PUSH32 0x5DB9EE0A495BF2E6FF9C91A7834C1BA4FDD244A5E8AA4E537BD38AEAE4B073AA CALLER JUMPDEST PUSH1 0x40 MLOAD PUSH1 0x1 PUSH1 0x1 PUSH1 0xA0 SHL SUB SWAP1 SWAP2 AND DUP2 MSTORE PUSH1 0x20 ADD PUSH1 0x40 MLOAD DUP1 SWAP2 SUB SWAP1 LOG1 JUMP JUMPDEST PUSH1 0x2 PUSH1 0x1 SLOAD SUB PUSH2 0xEAA JUMPI PUSH1 0x40 MLOAD PUSH4 0x3EE5AEB5 PUSH1 0xE0 SHL DUP2 MSTORE PUSH1 0x4 ADD PUSH1 0x40 MLOAD DUP1 SWAP2 SUB SWAP1 REVERT JUMPDEST PUSH1 0x2 PUSH1 0x1 SSTORE JUMP JUMPDEST PUSH1 0x2 SLOAD PUSH1 0xFF AND ISZERO PUSH2 0x648 JUMPI PUSH1 0x40 MLOAD PUSH4 0xD93C0665 PUSH1 0xE0 SHL DUP2 MSTORE PUSH1 0x4 ADD PUSH1 0x40 MLOAD DUP1 SWAP2 SUB SWAP1 REVERT JUMPDEST PUSH1 0x0 DUP1 SLOAD PUSH1 0x1 PUSH1 0x1 PUSH1 0xA0 SHL SUB DUP4 DUP2 AND PUSH1 0x1 PUSH1 0x1 PUSH1 0xA0 SHL SUB NOT DUP4 AND DUP2 OR DUP5 SSTORE PUSH1 0x40 MLOAD SWAP2 SWAP1 SWAP3 AND SWAP3 DUP4 SWAP2 PUSH32 0x8BE0079C531659141344CD1FD0A4F28419497F9722A3DAAFE3B4186F6B6457E0 SWAP2 SWAP1 LOG3 POP POP JUMP JUMPDEST PUSH2 0xF2D PUSH2 0xEB1 JUMP JUMPDEST PUSH1 0x2 DUP1 SLOAD PUSH1 0xFF NOT AND PUSH1 0x1 OR SWAP1 SSTORE PUSH32 0x62E78CEA01BEE320CD4E420270B5EA74000D11B0C9F74754EBDBFC544B05A258 PUSH2 0xE6A CALLER SWAP1 JUMP JUMPDEST PUSH1 0x2 SLOAD PUSH1 0xFF AND PUSH2 0x648 JUMPI PUSH1 0x40 MLOAD PUSH4 0x8DFC202B PUSH1 0xE0 SHL DUP2 MSTORE PUSH1 0x4 ADD PUSH1 0x40 MLOAD DUP1 SWAP2 SUB SWAP1 REVERT JUMPDEST DUP1 CALLDATALOAD PUSH1 0x1 PUSH1 0x1 PUSH1 0xA0 SHL SUB DUP2 AND DUP2 EQ PUSH2 0xF9C JUMPI PUSH1 0x0 DUP1 REVERT JUMPDEST SWAP2 SWAP1 POP JUMP JUMPDEST PUSH1 0x0 PUSH1 0x20 DUP3 DUP5 SUB SLT ISZERO PUSH2 0xFB3 JUMPI PUSH1 0x0 DUP1 REVERT JUMPDEST PUSH2 0xFBC DUP3 PUSH2 0xF85 JUMP JUMPDEST SWAP4 SWAP3 POP POP POP JUMP JUMPDEST PUSH1 0x0 DUP1 PUSH1 0x40 DUP4 DUP6 SUB SLT ISZERO PUSH2 0xFD6 JUMPI PUSH1 0x0 DUP1 REVERT JUMPDEST DUP3 CALLDATALOAD SWAP2 POP PUSH2 0xFE6 PUSH1 0x20 DUP5 ADD PUSH2 0xF85 JUMP JUMPDEST SWAP1 POP SWAP3 POP SWAP3 SWAP1 POP JUMP JUMPDEST PUSH1 0x0 PUSH1 0x20 DUP3 DUP5 SUB SLT ISZERO PUSH2 0x1001 JUMPI PUSH1 0x0 DUP1 REVERT JUMPDEST POP CALLDATALOAD SWAP2 SWAP1 POP JUMP JUMPDEST PUSH1 0x20 DUP1 DUP3 MSTORE DUP3 MLOAD DUP3 DUP3 ADD DUP2 SWAP1 MSTORE PUSH1 0x0 SWAP2 SWAP1 DUP5 DUP3 ADD SWAP1 PUSH1 0x40 DUP6 ADD SWAP1 DUP5 JUMPDEST DUP2 DUP2 LT ISZERO PUSH2 0x1040 JUMPI DUP4 MLOAD DUP4 MSTORE SWAP3 DUP5 ADD SWAP3 SWAP2 DUP5 ADD SWAP2 PUSH1 0x1 ADD PUSH2 0x1024 JUMP JUMPDEST POP SWAP1 SWAP7 SWAP6 POP POP POP POP POP POP JUMP JUMPDEST PUSH1 0x0 DUP1 PUSH1 0x0 PUSH1 0x60 DUP5 DUP7 SUB SLT ISZERO PUSH2 0x1061 JUMPI PUSH1 0x0 DUP1 REVERT JUMPDEST POP POP DUP2 CALLDATALOAD SWAP4 PUSH1 0x20 DUP4 ADD CALLDATALOAD SWAP4 POP PUSH1 0x40 SWAP1 SWAP3 ADD CALLDATALOAD SWAP2 SWAP1 POP JUMP JUMPDEST PUSH1 0x0 DUP1 PUSH1 0x20 DUP4 DUP6 SUB SLT ISZERO PUSH2 0x108B JUMPI PUSH1 0x0 DUP1 REVERT JUMPDEST DUP3 CALLDATALOAD PUSH8 0xFFFFFFFFFFFFFFFF DUP1 DUP3 GT ISZERO PUSH2 0x10A3 JUMPI PUSH1 0x0 DUP1 REVERT JUMPDEST DUP2 DUP6 ADD SWAP2 POP DUP6 PUSH1 0x1F DUP4 ADD SLT PUSH2 0x10B7 JUMPI PUSH1 0x0 DUP1 REVERT JUMPDEST DUP2 CALLDATALOAD DUP2 DUP2 GT ISZERO PUSH2 0x10C6 JUMPI PUSH1 0x0 DUP1 REVERT JUMPDEST DUP7 PUSH1 0x20 DUP3 PUSH1 0x5 SHL DUP6 ADD ADD GT ISZERO PUSH2 0x10DB JUMPI PUSH1 0x0 DUP1 REVERT JUMPDEST PUSH1 0x20 SWAP3 SWAP1 SWAP3 ADD SWAP7 SWAP2 SWAP6 POP SWAP1 SWAP4 POP POP POP POP JUMP JUMPDEST PUSH1 0x0 DUP1 PUSH1 0x0 DUP1 PUSH1 0x80 DUP6 DUP8 SUB SLT ISZERO PUSH2 0x1103 JUMPI PUSH1 0x0 DUP1 REVERT JUMPDEST POP POP DUP3 CALLDATALOAD SWAP5 PUSH1 0x20 DUP5 ADD CALLDATALOAD SWAP5 POP PUSH1 0x40 DUP5 ADD CALLDATALOAD SWAP4 PUSH1 0x60 ADD CALLDATALOAD SWAP3 POP SWAP1 POP JUMP JUMPDEST PUSH1 0x0 DUP1 PUSH1 0x40 DUP4 DUP6 SUB SLT ISZERO PUSH2 0x1132 JUMPI PUSH1 0x0 DUP1 REVERT JUMPDEST PUSH2 0x113B DUP4 PUSH2 0xF85 JUMP JUMPDEST SWAP5 PUSH1 0x20 SWAP4 SWAP1 SWAP4 ADD CALLDATALOAD SWAP4 POP POP POP JUMP JUMPDEST PUSH4 0x4E487B71 PUSH1 0xE0 SHL PUSH1 0x0 MSTORE PUSH1 0x11 PUSH1 0x4 MSTORE PUSH1 0x24 PUSH1 0x0 REVERT JUMPDEST PUSH1 0x0 PUSH1 0x1 DUP3 ADD PUSH2 0x1171 JUMPI PUSH2 0x1171 PUSH2 0x1149 JUMP JUMPDEST POP PUSH1 0x1 ADD SWAP1 JUMP JUMPDEST PUSH4 0x4E487B71 PUSH1 0xE0 SHL PUSH1 0x0 MSTORE PUSH1 0x32 PUSH1 0x4 MSTORE PUSH1 0x24 PUSH1 0x0 REVERT JUMPDEST DUP1 DUP3 ADD DUP1 DUP3 GT ISZERO PUSH2 0x11A1 JUMPI PUSH2 0x11A1 PUSH2 0x1149 JUMP JUMPDEST SWAP3 SWAP2 POP POP JUMP JUMPDEST PUSH1 0x0 DUP3 PUSH2 0x11C4 JUMPI PUSH4 0x4E487B71 PUSH1 0xE0 SHL PUSH1 0x0 MSTORE PUSH1 0x12 PUSH1 0x4 MSTORE PUSH1 0x24 PUSH1 0x0 REVERT JUMPDEST POP DIV SWAP1 JUMP JUMPDEST DUP1 DUP3 MUL DUP2 ISZERO DUP3 DUP3 DIV DUP5 EQ OR PUSH2 0x11A1 JUMPI PUSH2 0x11A1 PUSH2 0x1149 JUMP INVALID LOG2 PUSH5 0x6970667358 0x22 SLT KECCAK256 0xA5 0x29 0xCF 0xF9 DUP16 0xDC 0xB9 SWAP8 0x49 0xD2 LOG3 JUMPDEST DUP4 EXTCODEHASH 0xDE DUP12 DUP3 0xCF 0x2D 0x2E DUP1 0xED 0x23 0xDE JUMP ADDRESS 0xF6 PUSH15 0xC3AC9CF64736F6C63430008140033 "},"methodIdentifiers":{"baseYieldAmount()":"c838f6b3","batchClaimYield(bytes32[])":"5cc1b404","capsuleCreator(bytes32)":"b97b04a2","capsuleVerified(bytes32)":"295ba678","capsuleYield(bytes32)":"b26695f6","claimYield(bytes32)":"dc227a3a","createCapsule(bytes32,address)":"1502370e","getCapsuleInfo(bytes32)":"df9970b4","getClaimableYield(address)":"ec797fc2","getSystemStats()":"d1ce59a7","getUserCapsules(address)":"366636f7","gttToken()":"1712c524","owner()":"8da5cb5b","pause()":"8456cb59","paused()":"5c975abb","renounceOwnership()":"715018a6","shareBonus()":"96f9cffa","totalCapsulesCreated()":"df7adf02","totalCapsulesVerified()":"a7609f74","totalYieldDistributed()":"97206bd5","transferOwnership(address)":"f2fde38b","unpause()":"3f4ba83a","updateYieldConfig(uint256,uint256,uint256)":"5bdb8beb","userCapsules(address,uint256)":"a0d79fb5","userTotalYield(address)":"11cdf856","verificationBonus()":"08ab7f86","verifyCapsule(bytes32,uint256,uint256,uint256)":"864f8828"}}}}}