{"contracts/SimpleGTTToken.sol":{"SimpleGTTToken":{"abi":[{"inputs":[{"internalType":"address","name":"_treasury","type":"address"},{"internalType":"address","name":"_yieldPool","type":"address"}],"stateMutability":"nonpayable","type":"constructor"},{"inputs":[{"internalType":"address","name":"spender","type":"address"},{"internalType":"uint256","name":"allowance","type":"uint256"},{"internalType":"uint256","name":"needed","type":"uint256"}],"name":"ERC20InsufficientAllowance","type":"error"},{"inputs":[{"internalType":"address","name":"sender","type":"address"},{"internalType":"uint256","name":"balance","type":"uint256"},{"internalType":"uint256","name":"needed","type":"uint256"}],"name":"ERC20InsufficientBalance","type":"error"},{"inputs":[{"internalType":"address","name":"approver","type":"address"}],"name":"ERC20InvalidApprover","type":"error"},{"inputs":[{"internalType":"address","name":"receiver","type":"address"}],"name":"ERC20InvalidReceiver","type":"error"},{"inputs":[{"internalType":"address","name":"sender","type":"address"}],"name":"ERC20InvalidSender","type":"error"},{"inputs":[{"internalType":"address","name":"spender","type":"address"}],"name":"ERC20InvalidSpender","type":"error"},{"inputs":[{"internalType":"address","name":"owner","type":"address"}],"name":"OwnableInvalidOwner","type":"error"},{"inputs":[{"internalType":"address","name":"account","type":"address"}],"name":"OwnableUnauthorizedAccount","type":"error"},{"inputs":[],"name":"ReentrancyGuardReentrantCall","type":"error"},{"anonymous":false,"inputs":[{"indexed":true,"internalType":"address","name":"owner","type":"address"},{"indexed":true,"internalType":"address","name":"spender","type":"address"},{"indexed":false,"internalType":"uint256","name":"value","type":"uint256"}],"name":"Approval","type":"event"},{"anonymous":false,"inputs":[{"indexed":true,"internalType":"address","name":"previousOwner","type":"address"},{"indexed":true,"internalType":"address","name":"newOwner","type":"address"}],"name":"OwnershipTransferred","type":"event"},{"anonymous":false,"inputs":[{"indexed":true,"internalType":"address","name":"account","type":"address"},{"indexed":false,"internalType":"bool","name":"exempt","type":"bool"}],"name":"TaxExemptionChanged","type":"event"},{"anonymous":false,"inputs":[{"indexed":true,"internalType":"address","name":"from","type":"address"},{"indexed":true,"internalType":"address","name":"to","type":"address"},{"indexed":false,"internalType":"uint256","name":"amount","type":"uint256"}],"name":"TradingTaxCollected","type":"event"},{"anonymous":false,"inputs":[{"indexed":false,"internalType":"uint256","name":"oldRate","type":"uint256"},{"indexed":false,"internalType":"uint256","name":"newRate","type":"uint256"}],"name":"TradingTaxUpdated","type":"event"},{"anonymous":false,"inputs":[{"indexed":true,"internalType":"address","name":"from","type":"address"},{"indexed":true,"internalType":"address","name":"to","type":"address"},{"indexed":false,"internalType":"uint256","name":"value","type":"uint256"}],"name":"Transfer","type":"event"},{"anonymous":false,"inputs":[{"indexed":true,"internalType":"address","name":"recipient","type":"address"},{"indexed":false,"internalType":"uint256","name":"amount","type":"uint256"}],"name":"YieldDistributed","type":"event"},{"inputs":[],"name":"INITIAL_SUPPLY","outputs":[{"internalType":"uint256","name":"","type":"uint256"}],"stateMutability":"view","type":"function"},{"inputs":[],"name":"MAX_SUPPLY","outputs":[{"internalType":"uint256","name":"","type":"uint256"}],"stateMutability":"view","type":"function"},{"inputs":[{"internalType":"address","name":"owner","type":"address"},{"internalType":"address","name":"spender","type":"address"}],"name":"allowance","outputs":[{"internalType":"uint256","name":"","type":"uint256"}],"stateMutability":"view","type":"function"},{"inputs":[{"internalType":"address","name":"spender","type":"address"},{"internalType":"uint256","name":"value","type":"uint256"}],"name":"approve","outputs":[{"internalType":"bool","name":"","type":"bool"}],"stateMutability":"nonpayable","type":"function"},{"inputs":[{"internalType":"address","name":"account","type":"address"}],"name":"balanceOf","outputs":[{"internalType":"uint256","name":"","type":"uint256"}],"stateMutability":"view","type":"function"},{"inputs":[{"internalType":"uint256","name":"amount","type":"uint256"}],"name":"burn","outputs":[],"stateMutability":"nonpayable","type":"function"},{"inputs":[],"name":"decimals","outputs":[{"internalType":"uint8","name":"","type":"uint8"}],"stateMutability":"view","type":"function"},{"inputs":[{"internalType":"address","name":"recipient","type":"address"},{"internalType":"uint256","name":"amount","type":"uint256"}],"name":"distributeYield","outputs":[],"stateMutability":"nonpayable","type":"function"},{"inputs":[],"name":"getTokenInfo","outputs":[{"internalType":"uint256","name":"totalSupply_","type":"uint256"},{"internalType":"uint256","name":"maxSupply_","type":"uint256"},{"internalType":"uint256","name":"tradingTax_","type":"uint256"},{"internalType":"address","name":"treasury_","type":"address"},{"internalType":"address","name":"yieldPool_","type":"address"}],"stateMutability":"view","type":"function"},{"inputs":[{"internalType":"address","name":"user","type":"address"}],"name":"getUserStats","outputs":[{"internalType":"uint256","name":"balance_","type":"uint256"},{"internalType":"uint256","name":"lastTransaction_","type":"uint256"},{"internalType":"uint256","name":"totalYield_","type":"uint256"},{"internalType":"bool","name":"taxExempt_","type":"bool"}],"stateMutability":"view","type":"function"},{"inputs":[{"internalType":"address","name":"","type":"address"}],"name":"isTaxExempt","outputs":[{"internalType":"bool","name":"","type":"bool"}],"stateMutability":"view","type":"function"},{"inputs":[{"internalType":"address","name":"","type":"address"}],"name":"lastTransactionTime","outputs":[{"internalType":"uint256","name":"","type":"uint256"}],"stateMutability":"view","type":"function"},{"inputs":[{"internalType":"address","name":"to","type":"address"},{"internalType":"uint256","name":"amount","type":"uint256"}],"name":"mint","outputs":[],"stateMutability":"nonpayable","type":"function"},{"inputs":[],"name":"name","outputs":[{"internalType":"string","name":"","type":"string"}],"stateMutability":"view","type":"function"},{"inputs":[],"name":"owner","outputs":[{"internalType":"address","name":"","type":"address"}],"stateMutability":"view","type":"function"},{"inputs":[],"name":"renounceOwnership","outputs":[],"stateMutability":"nonpayable","type":"function"},{"inputs":[{"internalType":"address","name":"account","type":"address"},{"internalType":"bool","name":"exempt","type":"bool"}],"name":"setTaxExempt","outputs":[],"stateMutability":"nonpayable","type":"function"},{"inputs":[{"internalType":"uint256","name":"newTaxBP","type":"uint256"}],"name":"setTradingTax","outputs":[],"stateMutability":"nonpayable","type":"function"},{"inputs":[],"name":"symbol","outputs":[{"internalType":"string","name":"","type":"string"}],"stateMutability":"view","type":"function"},{"inputs":[],"name":"totalSupply","outputs":[{"internalType":"uint256","name":"","type":"uint256"}],"stateMutability":"view","type":"function"},{"inputs":[{"internalType":"address","name":"","type":"address"}],"name":"totalYieldClaimed","outputs":[{"internalType":"uint256","name":"","type":"uint256"}],"stateMutability":"view","type":"function"},{"inputs":[],"name":"tradingTaxBP","outputs":[{"internalType":"uint256","name":"","type":"uint256"}],"stateMutability":"view","type":"function"},{"inputs":[{"internalType":"address","name":"to","type":"address"},{"internalType":"uint256","name":"value","type":"uint256"}],"name":"transfer","outputs":[{"internalType":"bool","name":"","type":"bool"}],"stateMutability":"nonpayable","type":"function"},{"inputs":[{"internalType":"address","name":"from","type":"address"},{"internalType":"address","name":"to","type":"address"},{"internalType":"uint256","name":"value","type":"uint256"}],"name":"transferFrom","outputs":[{"internalType":"bool","name":"","type":"bool"}],"stateMutability":"nonpayable","type":"function"},{"inputs":[{"internalType":"address","name":"newOwner","type":"address"}],"name":"transferOwnership","outputs":[],"stateMutability":"nonpayable","type":"function"},{"inputs":[],"name":"treasury","outputs":[{"internalType":"address","name":"","type":"address"}],"stateMutability":"view","type":"function"},{"inputs":[],"name":"yieldPool","outputs":[{"internalType":"address","name":"","type":"address"}],"stateMutability":"view","type":"function"}],"evm":{"bytecode":{"linkReferences":{},"object":"608060405260fa6009553480156200001657600080fd5b50604051620015e3380380620015e3833981016040819052620000399162000416565b336040518060400160405280601981526020017f475541524449414e434841494e20547275746820546f6b656e000000000000008152506040518060400160405280600381526020016211d51560ea1b81525081600390816200009d9190620004f3565b506004620000ac8282620004f3565b5050506001600160a01b038116620000df57604051631e4fbdf760e01b8152600060048201526024015b60405180910390fd5b620000ea8162000236565b5060016006556001600160a01b038216620001485760405162461bcd60e51b815260206004820152601860248201527f496e76616c6964207472656173757279206164647265737300000000000000006044820152606401620000d6565b6001600160a01b038116620001a05760405162461bcd60e51b815260206004820152601a60248201527f496e76616c6964207969656c6420706f6f6c20616464726573730000000000006044820152606401620000d6565b600880546001600160a01b038085166001600160a01b0319928316179092556007805492841692909116919091179055620001e7826a52b7d2dcc80cd2e400000062000288565b6001600160a01b039182166000908152600a60205260408082208054600160ff1991821681179092559390941682528082208054841685179055338252902080549091169091179055620005e7565b600580546001600160a01b038381166001600160a01b0319831681179093556040519116919082907f8be0079c531659141344cd1fd0a4f28419497f9722a3daafe3b4186f6b6457e090600090a35050565b6001600160a01b038216620002b45760405163ec442f0560e01b815260006004820152602401620000d6565b620002c260008383620002c6565b5050565b6001600160a01b038316620002f5578060026000828254620002e99190620005bf565b90915550620003699050565b6001600160a01b038316600090815260208190526040902054818110156200034a5760405163391434e360e21b81526001600160a01b03851660048201526024810182905260448101839052606401620000d6565b6001600160a01b03841660009081526020819052604090209082900390555b6001600160a01b0382166200038757600280548290039055620003a6565b6001600160a01b03821660009081526020819052604090208054820190555b816001600160a01b0316836001600160a01b03167fddf252ad1be2c89b69c2b068fc378daa952ba7f163c4a11628f55a4df523b3ef83604051620003ec91815260200190565b60405180910390a3505050565b80516001600160a01b03811681146200041157600080fd5b919050565b600080604083850312156200042a57600080fd5b6200043583620003f9565b91506200044560208401620003f9565b90509250929050565b634e487b7160e01b600052604160045260246000fd5b600181811c908216806200047957607f821691505b6020821081036200049a57634e487b7160e01b600052602260045260246000fd5b50919050565b601f821115620004ee57600081815260208120601f850160051c81016020861015620004c95750805b601f850160051c820191505b81811015620004ea57828155600101620004d5565b5050505b505050565b81516001600160401b038111156200050f576200050f6200044e565b620005278162000520845462000464565b84620004a0565b602080601f8311600181146200055f5760008415620005465750858301515b600019600386901b1c1916600185901b178555620004ea565b600085815260208120601f198616915b8281101562000590578886015182559484019460019091019084016200056f565b5085821015620005af5787850151600019600388901b60f8161c191681555b5050505050600190811b01905550565b80820180821115620005e157634e487b7160e01b600052601160045260246000fd5b92915050565b610fec80620005f76000396000f3fe608060405234801561001057600080fd5b50600436106101a95760003560e01c80634e43603a116100f9578063a9059cbb11610097578063c3b240b611610071578063c3b240b6146103ee578063dd62ed3e14610401578063e75b20731461043a578063f2fde38b1461045a57600080fd5b8063a9059cbb1461038c578063abb1dc441461039f578063bd4ba9c0146103db57600080fd5b8063715018a6116100d3578063715018a6146103585780638da5cb5b146103605780638f188dd41461037157806395d89b411461038457600080fd5b80634e43603a146102cf57806361d027b31461030457806370a082311461032f57600080fd5b806323b872dd1161016657806332cb6b0c1161014057806332cb6b0c1461028d5780633372d996146102a057806340c10f19146102a957806342966c68146102bc57600080fd5b806323b872dd146102595780632ff2e9dc1461026c578063313ce5671461027e57600080fd5b806306ac7aed146101ae57806306fdde03146101e1578063095ea7b3146101f657806316c2be6b1461021957806318160ddd1461023c5780631dc6104014610244575b600080fd5b6101ce6101bc366004610dfd565b600c6020526000908152604090205481565b6040519081526020015b60405180910390f35b6101e961046d565b6040516101d89190610e1f565b610209610204366004610e6d565b6104ff565b60405190151581526020016101d8565b610209610227366004610dfd565b600a6020526000908152604090205460ff1681565b6002546101ce565b610257610252366004610e97565b610519565b005b610209610267366004610ed3565b6105dc565b6101ce6a52b7d2dcc80cd2e400000081565b604051601281526020016101d8565b6101ce6b033b2e3c9fd0803ce800000081565b6101ce60095481565b6102576102b7366004610e6d565b610600565b6102576102ca366004610f0f565b6106d4565b6102e26102dd366004610dfd565b6106e1565b60408051948552602085019390935291830152151560608201526080016101d8565b600854610317906001600160a01b031681565b6040516001600160a01b0390911681526020016101d8565b6101ce61033d366004610dfd565b6001600160a01b031660009081526020819052604090205490565b610257610745565b6005546001600160a01b0316610317565b600754610317906001600160a01b031681565b6101e9610759565b61020961039a366004610e6d565b610768565b6103a7610776565b604080519586526020860194909452928401919091526001600160a01b03908116606084015216608082015260a0016101d8565b6102576103e9366004610e6d565b6107ba565b6102576103fc366004610f0f565b61092d565b6101ce61040f366004610f28565b6001600160a01b03918216600090815260016020908152604080832093909416825291909152205490565b6101ce610448366004610dfd565b600b6020526000908152604090205481565b610257610468366004610dfd565b6109cc565b60606003805461047c90610f5b565b80601f01602080910402602001604051908101604052809291908181526020018280546104a890610f5b565b80156104f55780601f106104ca576101008083540402835291602001916104f5565b820191906000526020600020905b8154815290600101906020018083116104d857829003601f168201915b5050505050905090565b60003361050d818585610a07565b60019150505b92915050565b610521610a19565b6001600160a01b03821661057c5760405162461bcd60e51b815260206004820152601760248201527f496e76616c6964206163636f756e74206164647265737300000000000000000060448201526064015b60405180910390fd5b6001600160a01b0382166000818152600a6020908152604091829020805460ff191685151590811790915591519182527ff683c34ac024bc3882d7544ca8f618433ba84e43d5a01ae90fadc141c45f2c5991015b60405180910390a25050565b6000336105ea858285610a46565b6105f5858585610ac5565b506001949350505050565b610608610a19565b6001600160a01b03821661065e5760405162461bcd60e51b815260206004820152601960248201527f496e76616c696420726563697069656e742061646472657373000000000000006044820152606401610573565b6b033b2e3c9fd0803ce80000008161067560025490565b61067f9190610f95565b11156106c65760405162461bcd60e51b815260206004820152601660248201527545786365656473206d6178696d756d20737570706c7960501b6044820152606401610573565b6106d08282610b24565b5050565b6106de3382610b5a565b50565b600080600080610706856001600160a01b031660009081526020819052604090205490565b6001600160a01b03959095166000908152600b6020908152604080832054600c835281842054600a9093529220549697919690955060ff169350915050565b61074d610a19565b6107576000610b90565b565b60606004805461047c90610f5b565b60003361050d818585610ac5565b600080600080600061078760025490565b60095460085460075492986b033b2e3c9fd0803ce800000098509196506001600160a01b03908116955090911692509050565b6007546001600160a01b031633146108145760405162461bcd60e51b815260206004820152601e60248201527f4f6e6c79207969656c6420706f6f6c2063616e206469737472696275746500006044820152606401610573565b6001600160a01b03821661085e5760405162461bcd60e51b8152602060048201526011602482015270125b9d985b1a59081c9958da5c1a595b9d607a1b6044820152606401610573565b600081116108ae5760405162461bcd60e51b815260206004820181905260248201527f416d6f756e74206d7573742062652067726561746572207468616e207a65726f6044820152606401610573565b6001600160a01b0382166000908152600c6020526040812080548392906108d6908490610f95565b90915550506007546108f2906001600160a01b03168383610ac5565b816001600160a01b03167f9d315883dbfe38532083c1e42c0d10fbf89ad1cabaa0c269f78b3beb892c101d826040516105d091815260200190565b610935610a19565b6103e88111156109875760405162461bcd60e51b815260206004820152601b60248201527f546178207261746520746f6f206869676820286d6178203130252900000000006044820152606401610573565b600980549082905560408051828152602081018490527f4a0a9731d057a57ad14dd19005bc294a7de48dbca51aee6eddf8e2cb64459578910160405180910390a15050565b6109d4610a19565b6001600160a01b0381166109fe57604051631e4fbdf760e01b815260006004820152602401610573565b6106de81610b90565b610a148383836001610be2565b505050565b6005546001600160a01b031633146107575760405163118cdaa760e01b8152336004820152602401610573565b6001600160a01b03838116600090815260016020908152604080832093861683529290522054600019811015610abf5781811015610ab057604051637dc7a0d960e11b81526001600160a01b03841660048201526024810182905260448101839052606401610573565b610abf84848484036000610be2565b50505050565b6001600160a01b038316610aef57604051634b637e8f60e11b815260006004820152602401610573565b6001600160a01b038216610b195760405163ec442f0560e01b815260006004820152602401610573565b610a14838383610cb7565b6001600160a01b038216610b4e5760405163ec442f0560e01b815260006004820152602401610573565b6106d060008383610cb7565b6001600160a01b038216610b8457604051634b637e8f60e11b815260006004820152602401610573565b6106d082600083610cb7565b600580546001600160a01b038381166001600160a01b0319831681179093556040519116919082907f8be0079c531659141344cd1fd0a4f28419497f9722a3daafe3b4186f6b6457e090600090a35050565b6001600160a01b038416610c0c5760405163e602df0560e01b815260006004820152602401610573565b6001600160a01b038316610c3657604051634a1406b160e11b815260006004820152602401610573565b6001600160a01b0380851660009081526001602090815260408083209387168352929052208290558015610abf57826001600160a01b0316846001600160a01b03167f8c5be1e5ebec7d5bd14f71427d1e84f3dd0314c0f7b2291e5b200ac8c7c3b92584604051610ca991815260200190565b60405180910390a350505050565b6001600160a01b038316610ce2578060026000828254610cd79190610f95565b90915550610d549050565b6001600160a01b03831660009081526020819052604090205481811015610d355760405163391434e360e21b81526001600160a01b03851660048201526024810182905260448101839052606401610573565b6001600160a01b03841660009081526020819052604090209082900390555b6001600160a01b038216610d7057600280548290039055610d8f565b6001600160a01b03821660009081526020819052604090208054820190555b816001600160a01b0316836001600160a01b03167fddf252ad1be2c89b69c2b068fc378daa952ba7f163c4a11628f55a4df523b3ef83604051610dd491815260200190565b60405180910390a3505050565b80356001600160a01b0381168114610df857600080fd5b919050565b600060208284031215610e0f57600080fd5b610e1882610de1565b9392505050565b600060208083528351808285015260005b81811015610e4c57858101830151858201604001528201610e30565b506000604082860101526040601f19601f8301168501019250505092915050565b60008060408385031215610e8057600080fd5b610e8983610de1565b946020939093013593505050565b60008060408385031215610eaa57600080fd5b610eb383610de1565b915060208301358015158114610ec857600080fd5b809150509250929050565b600080600060608486031215610ee857600080fd5b610ef184610de1565b9250610eff60208501610de1565b9150604084013590509250925092565b600060208284031215610f2157600080fd5b5035919050565b60008060408385031215610f3b57600080fd5b610f4483610de1565b9150610f5260208401610de1565b90509250929050565b600181811c90821680610f6f57607f821691505b602082108103610f8f57634e487b7160e01b600052602260045260246000fd5b50919050565b8082018082111561051357634e487b7160e01b600052601160045260246000fdfea26469706673582212205c7888cc925add23492628a3b16aaaed0e084c04b44dad56d94cef07c7cec8f564736f6c63430008140033","opcodes":"PUSH1 0x80 PUSH1 0x40 MSTORE PUSH1 0xFA PUSH1 0x9 SSTORE CALLVALUE DUP1 ISZERO PUSH3 0x16 JUMPI PUSH1 0x0 DUP1 REVERT JUMPDEST POP PUSH1 0x40 MLOAD PUSH3 0x15E3 CODESIZE SUB DUP1 PUSH3 0x15E3 DUP4 CODECOPY DUP2 ADD PUSH1 0x40 DUP2 SWAP1 MSTORE PUSH3 0x39 SWAP2 PUSH3 0x416 JUMP JUMPDEST CALLER PUSH1 0x40 MLOAD DUP1 PUSH1 0x40 ADD PUSH1 0x40 MSTORE DUP1 PUSH1 0x19 DUP2 MSTORE PUSH1 0x20 ADD PUSH32 0x475541524449414E434841494E20547275746820546F6B656E00000000000000 DUP2 MSTORE POP PUSH1 0x40 MLOAD DUP1 PUSH1 0x40 ADD PUSH1 0x40 MSTORE DUP1 PUSH1 0x3 DUP2 MSTORE PUSH1 0x20 ADD PUSH3 0x11D515 PUSH1 0xEA SHL DUP2 MSTORE POP DUP2 PUSH1 0x3 SWAP1 DUP2 PUSH3 0x9D SWAP2 SWAP1 PUSH3 0x4F3 JUMP JUMPDEST POP PUSH1 0x4 PUSH3 0xAC DUP3 DUP3 PUSH3 0x4F3 JUMP JUMPDEST POP POP POP PUSH1 0x1 PUSH1 0x1 PUSH1 0xA0 SHL SUB DUP2 AND PUSH3 0xDF JUMPI PUSH1 0x40 MLOAD PUSH4 0x1E4FBDF7 PUSH1 0xE0 SHL DUP2 MSTORE PUSH1 0x0 PUSH1 0x4 DUP3 ADD MSTORE PUSH1 0x24 ADD JUMPDEST PUSH1 0x40 MLOAD DUP1 SWAP2 SUB SWAP1 REVERT JUMPDEST PUSH3 0xEA DUP2 PUSH3 0x236 JUMP JUMPDEST POP PUSH1 0x1 PUSH1 0x6 SSTORE PUSH1 0x1 PUSH1 0x1 PUSH1 0xA0 SHL SUB DUP3 AND PUSH3 0x148 JUMPI PUSH1 0x40 MLOAD PUSH3 0x461BCD PUSH1 0xE5 SHL DUP2 MSTORE PUSH1 0x20 PUSH1 0x4 DUP3 ADD MSTORE PUSH1 0x18 PUSH1 0x24 DUP3 ADD MSTORE PUSH32 0x496E76616C696420747265617375727920616464726573730000000000000000 PUSH1 0x44 DUP3 ADD MSTORE PUSH1 0x64 ADD PUSH3 0xD6 JUMP JUMPDEST PUSH1 0x1 PUSH1 0x1 PUSH1 0xA0 SHL SUB DUP2 AND PUSH3 0x1A0 JUMPI PUSH1 0x40 MLOAD PUSH3 0x461BCD PUSH1 0xE5 SHL DUP2 MSTORE PUSH1 0x20 PUSH1 0x4 DUP3 ADD MSTORE PUSH1 0x1A PUSH1 0x24 DUP3 ADD MSTORE PUSH32 0x496E76616C6964207969656C6420706F6F6C2061646472657373000000000000 PUSH1 0x44 DUP3 ADD MSTORE PUSH1 0x64 ADD PUSH3 0xD6 JUMP JUMPDEST PUSH1 0x8 DUP1 SLOAD PUSH1 0x1 PUSH1 0x1 PUSH1 0xA0 SHL SUB DUP1 DUP6 AND PUSH1 0x1 PUSH1 0x1 PUSH1 0xA0 SHL SUB NOT SWAP3 DUP4 AND OR SWAP1 SWAP3 SSTORE PUSH1 0x7 DUP1 SLOAD SWAP3 DUP5 AND SWAP3 SWAP1 SWAP2 AND SWAP2 SWAP1 SWAP2 OR SWAP1 SSTORE PUSH3 0x1E7 DUP3 PUSH11 0x52B7D2DCC80CD2E4000000 PUSH3 0x288 JUMP JUMPDEST PUSH1 0x1 PUSH1 0x1 PUSH1 0xA0 SHL SUB SWAP2 DUP3 AND PUSH1 0x0 SWAP1 DUP2 MSTORE PUSH1 0xA PUSH1 0x20 MSTORE PUSH1 0x40 DUP1 DUP3 KECCAK256 DUP1 SLOAD PUSH1 0x1 PUSH1 0xFF NOT SWAP2 DUP3 AND DUP2 OR SWAP1 SWAP3 SSTORE SWAP4 SWAP1 SWAP5 AND DUP3 MSTORE DUP1 DUP3 KECCAK256 DUP1 SLOAD DUP5 AND DUP6 OR SWAP1 SSTORE CALLER DUP3 MSTORE SWAP1 KECCAK256 DUP1 SLOAD SWAP1 SWAP2 AND SWAP1 SWAP2 OR SWAP1 SSTORE PUSH3 0x5E7 JUMP JUMPDEST PUSH1 0x5 DUP1 SLOAD PUSH1 0x1 PUSH1 0x1 PUSH1 0xA0 SHL SUB DUP4 DUP2 AND PUSH1 0x1 PUSH1 0x1 PUSH1 0xA0 SHL SUB NOT DUP4 AND DUP2 OR SWAP1 SWAP4 SSTORE PUSH1 0x40 MLOAD SWAP2 AND SWAP2 SWAP1 DUP3 SWAP1 PUSH32 0x8BE0079C531659141344CD1FD0A4F28419497F9722A3DAAFE3B4186F6B6457E0 SWAP1 PUSH1 0x0 SWAP1 LOG3 POP POP JUMP JUMPDEST PUSH1 0x1 PUSH1 0x1 PUSH1 0xA0 SHL SUB DUP3 AND PUSH3 0x2B4 JUMPI PUSH1 0x40 MLOAD PUSH4 0xEC442F05 PUSH1 0xE0 SHL DUP2 MSTORE PUSH1 0x0 PUSH1 0x4 DUP3 ADD MSTORE PUSH1 0x24 ADD PUSH3 0xD6 JUMP JUMPDEST PUSH3 0x2C2 PUSH1 0x0 DUP4 DUP4 PUSH3 0x2C6 JUMP JUMPDEST POP POP JUMP JUMPDEST PUSH1 0x1 PUSH1 0x1 PUSH1 0xA0 SHL SUB DUP4 AND PUSH3 0x2F5 JUMPI DUP1 PUSH1 0x2 PUSH1 0x0 DUP3 DUP3 SLOAD PUSH3 0x2E9 SWAP2 SWAP1 PUSH3 0x5BF JUMP JUMPDEST SWAP1 SWAP2 SSTORE POP PUSH3 0x369 SWAP1 POP JUMP JUMPDEST PUSH1 0x1 PUSH1 0x1 PUSH1 0xA0 SHL SUB DUP4 AND PUSH1 0x0 SWAP1 DUP2 MSTORE PUSH1 0x20 DUP2 SWAP1 MSTORE PUSH1 0x40 SWAP1 KECCAK256 SLOAD DUP2 DUP2 LT ISZERO PUSH3 0x34A JUMPI PUSH1 0x40 MLOAD PUSH4 0x391434E3 PUSH1 0xE2 SHL DUP2 MSTORE PUSH1 0x1 PUSH1 0x1 PUSH1 0xA0 SHL SUB DUP6 AND PUSH1 0x4 DUP3 ADD MSTORE PUSH1 0x24 DUP2 ADD DUP3 SWAP1 MSTORE PUSH1 0x44 DUP2 ADD DUP4 SWAP1 MSTORE PUSH1 0x64 ADD PUSH3 0xD6 JUMP JUMPDEST PUSH1 0x1 PUSH1 0x1 PUSH1 0xA0 SHL SUB DUP5 AND PUSH1 0x0 SWAP1 DUP2 MSTORE PUSH1 0x20 DUP2 SWAP1 MSTORE PUSH1 0x40 SWAP1 KECCAK256 SWAP1 DUP3 SWAP1 SUB SWAP1 SSTORE JUMPDEST PUSH1 0x1 PUSH1 0x1 PUSH1 0xA0 SHL SUB DUP3 AND PUSH3 0x387 JUMPI PUSH1 0x2 DUP1 SLOAD DUP3 SWAP1 SUB SWAP1 SSTORE PUSH3 0x3A6 JUMP JUMPDEST PUSH1 0x1 PUSH1 0x1 PUSH1 0xA0 SHL SUB DUP3 AND PUSH1 0x0 SWAP1 DUP2 MSTORE PUSH1 0x20 DUP2 SWAP1 MSTORE PUSH1 0x40 SWAP1 KECCAK256 DUP1 SLOAD DUP3 ADD SWAP1 SSTORE JUMPDEST DUP2 PUSH1 0x1 PUSH1 0x1 PUSH1 0xA0 SHL SUB AND DUP4 PUSH1 0x1 PUSH1 0x1 PUSH1 0xA0 SHL SUB AND PUSH32 0xDDF252AD1BE2C89B69C2B068FC378DAA952BA7F163C4A11628F55A4DF523B3EF DUP4 PUSH1 0x40 MLOAD PUSH3 0x3EC SWAP2 DUP2 MSTORE PUSH1 0x20 ADD SWAP1 JUMP JUMPDEST PUSH1 0x40 MLOAD DUP1 SWAP2 SUB SWAP1 LOG3 POP POP POP JUMP JUMPDEST DUP1 MLOAD PUSH1 0x1 PUSH1 0x1 PUSH1 0xA0 SHL SUB DUP2 AND DUP2 EQ PUSH3 0x411 JUMPI PUSH1 0x0 DUP1 REVERT JUMPDEST SWAP2 SWAP1 POP JUMP JUMPDEST PUSH1 0x0 DUP1 PUSH1 0x40 DUP4 DUP6 SUB SLT ISZERO PUSH3 0x42A JUMPI PUSH1 0x0 DUP1 REVERT JUMPDEST PUSH3 0x435 DUP4 PUSH3 0x3F9 JUMP JUMPDEST SWAP2 POP PUSH3 0x445 PUSH1 0x20 DUP5 ADD PUSH3 0x3F9 JUMP JUMPDEST SWAP1 POP SWAP3 POP SWAP3 SWAP1 POP JUMP JUMPDEST PUSH4 0x4E487B71 PUSH1 0xE0 SHL PUSH1 0x0 MSTORE PUSH1 0x41 PUSH1 0x4 MSTORE PUSH1 0x24 PUSH1 0x0 REVERT JUMPDEST PUSH1 0x1 DUP2 DUP2 SHR SWAP1 DUP3 AND DUP1 PUSH3 0x479 JUMPI PUSH1 0x7F DUP3 AND SWAP2 POP JUMPDEST PUSH1 0x20 DUP3 LT DUP2 SUB PUSH3 0x49A JUMPI PUSH4 0x4E487B71 PUSH1 0xE0 SHL PUSH1 0x0 MSTORE PUSH1 0x22 PUSH1 0x4 MSTORE PUSH1 0x24 PUSH1 0x0 REVERT JUMPDEST POP SWAP2 SWAP1 POP JUMP JUMPDEST PUSH1 0x1F DUP3 GT ISZERO PUSH3 0x4EE JUMPI PUSH1 0x0 DUP2 DUP2 MSTORE PUSH1 0x20 DUP2 KECCAK256 PUSH1 0x1F DUP6 ADD PUSH1 0x5 SHR DUP2 ADD PUSH1 0x20 DUP7 LT ISZERO PUSH3 0x4C9 JUMPI POP DUP1 JUMPDEST PUSH1 0x1F DUP6 ADD PUSH1 0x5 SHR DUP3 ADD SWAP2 POP JUMPDEST DUP2 DUP2 LT ISZERO PUSH3 0x4EA JUMPI DUP3 DUP2 SSTORE PUSH1 0x1 ADD PUSH3 0x4D5 JUMP JUMPDEST POP POP POP JUMPDEST POP POP POP JUMP JUMPDEST DUP2 MLOAD PUSH1 0x1 PUSH1 0x1 PUSH1 0x40 SHL SUB DUP2 GT ISZERO PUSH3 0x50F JUMPI PUSH3 0x50F PUSH3 0x44E JUMP JUMPDEST PUSH3 0x527 DUP2 PUSH3 0x520 DUP5 SLOAD PUSH3 0x464 JUMP JUMPDEST DUP5 PUSH3 0x4A0 JUMP JUMPDEST PUSH1 0x20 DUP1 PUSH1 0x1F DUP4 GT PUSH1 0x1 DUP2 EQ PUSH3 0x55F JUMPI PUSH1 0x0 DUP5 ISZERO PUSH3 0x546 JUMPI POP DUP6 DUP4 ADD MLOAD JUMPDEST PUSH1 0x0 NOT PUSH1 0x3 DUP7 SWAP1 SHL SHR NOT AND PUSH1 0x1 DUP6 SWAP1 SHL OR DUP6 SSTORE PUSH3 0x4EA JUMP JUMPDEST PUSH1 0x0 DUP6 DUP2 MSTORE PUSH1 0x20 DUP2 KECCAK256 PUSH1 0x1F NOT DUP7 AND SWAP2 JUMPDEST DUP3 DUP2 LT ISZERO PUSH3 0x590 JUMPI DUP9 DUP7 ADD MLOAD DUP3 SSTORE SWAP5 DUP5 ADD SWAP5 PUSH1 0x1 SWAP1 SWAP2 ADD SWAP1 DUP5 ADD PUSH3 0x56F JUMP JUMPDEST POP DUP6 DUP3 LT ISZERO PUSH3 0x5AF JUMPI DUP8 DUP6 ADD MLOAD PUSH1 0x0 NOT PUSH1 0x3 DUP9 SWAP1 SHL PUSH1 0xF8 AND SHR NOT AND DUP2 SSTORE JUMPDEST POP POP POP POP POP PUSH1 0x1 SWAP1 DUP2 SHL ADD SWAP1 SSTORE POP JUMP JUMPDEST DUP1 DUP3 ADD DUP1 DUP3 GT ISZERO PUSH3 0x5E1 JUMPI PUSH4 0x4E487B71 PUSH1 0xE0 SHL PUSH1 0x0 MSTORE PUSH1 0x11 PUSH1 0x4 MSTORE PUSH1 0x24 PUSH1 0x0 REVERT JUMPDEST SWAP3 SWAP2 POP POP JUMP JUMPDEST PUSH2 0xFEC DUP1 PUSH3 0x5F7 PUSH1 0x0 CODECOPY PUSH1 0x0 RETURN INVALID PUSH1 0x80 PUSH1 0x40 MSTORE CALLVALUE DUP1 ISZERO PUSH2 0x10 JUMPI PUSH1 0x0 DUP1 REVERT JUMPDEST POP PUSH1 0x4 CALLDATASIZE LT PUSH2 0x1A9 JUMPI PUSH1 0x0 CALLDATALOAD PUSH1 0xE0 SHR DUP1 PUSH4 0x4E43603A GT PUSH2 0xF9 JUMPI DUP1 PUSH4 0xA9059CBB GT PUSH2 0x97 JUMPI DUP1 PUSH4 0xC3B240B6 GT PUSH2 0x71 JUMPI DUP1 PUSH4 0xC3B240B6 EQ PUSH2 0x3EE JUMPI DUP1 PUSH4 0xDD62ED3E EQ PUSH2 0x401 JUMPI DUP1 PUSH4 0xE75B2073 EQ PUSH2 0x43A JUMPI DUP1 PUSH4 0xF2FDE38B EQ PUSH2 0x45A JUMPI PUSH1 0x0 DUP1 REVERT JUMPDEST DUP1 PUSH4 0xA9059CBB EQ PUSH2 0x38C JUMPI DUP1 PUSH4 0xABB1DC44 EQ PUSH2 0x39F JUMPI DUP1 PUSH4 0xBD4BA9C0 EQ PUSH2 0x3DB JUMPI PUSH1 0x0 DUP1 REVERT JUMPDEST DUP1 PUSH4 0x715018A6 GT PUSH2 0xD3 JUMPI DUP1 PUSH4 0x715018A6 EQ PUSH2 0x358 JUMPI DUP1 PUSH4 0x8DA5CB5B EQ PUSH2 0x360 JUMPI DUP1 PUSH4 0x8F188DD4 EQ PUSH2 0x371 JUMPI DUP1 PUSH4 0x95D89B41 EQ PUSH2 0x384 JUMPI PUSH1 0x0 DUP1 REVERT JUMPDEST DUP1 PUSH4 0x4E43603A EQ PUSH2 0x2CF JUMPI DUP1 PUSH4 0x61D027B3 EQ PUSH2 0x304 JUMPI DUP1 PUSH4 0x70A08231 EQ PUSH2 0x32F JUMPI PUSH1 0x0 DUP1 REVERT JUMPDEST DUP1 PUSH4 0x23B872DD GT PUSH2 0x166 JUMPI DUP1 PUSH4 0x32CB6B0C GT PUSH2 0x140 JUMPI DUP1 PUSH4 0x32CB6B0C EQ PUSH2 0x28D JUMPI DUP1 PUSH4 0x3372D996 EQ PUSH2 0x2A0 JUMPI DUP1 PUSH4 0x40C10F19 EQ PUSH2 0x2A9 JUMPI DUP1 PUSH4 0x42966C68 EQ PUSH2 0x2BC JUMPI PUSH1 0x0 DUP1 REVERT JUMPDEST DUP1 PUSH4 0x23B872DD EQ PUSH2 0x259 JUMPI DUP1 PUSH4 0x2FF2E9DC EQ PUSH2 0x26C JUMPI DUP1 PUSH4 0x313CE567 EQ PUSH2 0x27E JUMPI PUSH1 0x0 DUP1 REVERT JUMPDEST DUP1 PUSH4 0x6AC7AED EQ PUSH2 0x1AE JUMPI DUP1 PUSH4 0x6FDDE03 EQ PUSH2 0x1E1 JUMPI DUP1 PUSH4 0x95EA7B3 EQ PUSH2 0x1F6 JUMPI DUP1 PUSH4 0x16C2BE6B EQ PUSH2 0x219 JUMPI DUP1 PUSH4 0x18160DDD EQ PUSH2 0x23C JUMPI DUP1 PUSH4 0x1DC61040 EQ PUSH2 0x244 JUMPI JUMPDEST PUSH1 0x0 DUP1 REVERT JUMPDEST PUSH2 0x1CE PUSH2 0x1BC CALLDATASIZE PUSH1 0x4 PUSH2 0xDFD JUMP JUMPDEST PUSH1 0xC PUSH1 0x20 MSTORE PUSH1 0x0 SWAP1 DUP2 MSTORE PUSH1 0x40 SWAP1 KECCAK256 SLOAD DUP2 JUMP JUMPDEST PUSH1 0x40 MLOAD SWAP1 DUP2 MSTORE PUSH1 0x20 ADD JUMPDEST PUSH1 0x40 MLOAD DUP1 SWAP2 SUB SWAP1 RETURN JUMPDEST PUSH2 0x1E9 PUSH2 0x46D JUMP JUMPDEST PUSH1 0x40 MLOAD PUSH2 0x1D8 SWAP2 SWAP1 PUSH2 0xE1F JUMP JUMPDEST PUSH2 0x209 PUSH2 0x204 CALLDATASIZE PUSH1 0x4 PUSH2 0xE6D JUMP JUMPDEST PUSH2 0x4FF JUMP JUMPDEST PUSH1 0x40 MLOAD SWAP1 ISZERO ISZERO DUP2 MSTORE PUSH1 0x20 ADD PUSH2 0x1D8 JUMP JUMPDEST PUSH2 0x209 PUSH2 0x227 CALLDATASIZE PUSH1 0x4 PUSH2 0xDFD JUMP JUMPDEST PUSH1 0xA PUSH1 0x20 MSTORE PUSH1 0x0 SWAP1 DUP2 MSTORE PUSH1 0x40 SWAP1 KECCAK256 SLOAD PUSH1 0xFF AND DUP2 JUMP JUMPDEST PUSH1 0x2 SLOAD PUSH2 0x1CE JUMP JUMPDEST PUSH2 0x257 PUSH2 0x252 CALLDATASIZE PUSH1 0x4 PUSH2 0xE97 JUMP JUMPDEST PUSH2 0x519 JUMP JUMPDEST STOP JUMPDEST PUSH2 0x209 PUSH2 0x267 CALLDATASIZE PUSH1 0x4 PUSH2 0xED3 JUMP JUMPDEST PUSH2 0x5DC JUMP JUMPDEST PUSH2 0x1CE PUSH11 0x52B7D2DCC80CD2E4000000 DUP2 JUMP JUMPDEST PUSH1 0x40 MLOAD PUSH1 0x12 DUP2 MSTORE PUSH1 0x20 ADD PUSH2 0x1D8 JUMP JUMPDEST PUSH2 0x1CE PUSH12 0x33B2E3C9FD0803CE8000000 DUP2 JUMP JUMPDEST PUSH2 0x1CE PUSH1 0x9 SLOAD DUP2 JUMP JUMPDEST PUSH2 0x257 PUSH2 0x2B7 CALLDATASIZE PUSH1 0x4 PUSH2 0xE6D JUMP JUMPDEST PUSH2 0x600 JUMP JUMPDEST PUSH2 0x257 PUSH2 0x2CA CALLDATASIZE PUSH1 0x4 PUSH2 0xF0F JUMP JUMPDEST PUSH2 0x6D4 JUMP JUMPDEST PUSH2 0x2E2 PUSH2 0x2DD CALLDATASIZE PUSH1 0x4 PUSH2 0xDFD JUMP JUMPDEST PUSH2 0x6E1 JUMP JUMPDEST PUSH1 0x40 DUP1 MLOAD SWAP5 DUP6 MSTORE PUSH1 0x20 DUP6 ADD SWAP4 SWAP1 SWAP4 MSTORE SWAP2 DUP4 ADD MSTORE ISZERO ISZERO PUSH1 0x60 DUP3 ADD MSTORE PUSH1 0x80 ADD PUSH2 0x1D8 JUMP JUMPDEST PUSH1 0x8 SLOAD PUSH2 0x317 SWAP1 PUSH1 0x1 PUSH1 0x1 PUSH1 0xA0 SHL SUB AND DUP2 JUMP JUMPDEST PUSH1 0x40 MLOAD PUSH1 0x1 PUSH1 0x1 PUSH1 0xA0 SHL SUB SWAP1 SWAP2 AND DUP2 MSTORE PUSH1 0x20 ADD PUSH2 0x1D8 JUMP JUMPDEST PUSH2 0x1CE PUSH2 0x33D CALLDATASIZE PUSH1 0x4 PUSH2 0xDFD JUMP JUMPDEST PUSH1 0x1 PUSH1 0x1 PUSH1 0xA0 SHL SUB AND PUSH1 0x0 SWAP1 DUP2 MSTORE PUSH1 0x20 DUP2 SWAP1 MSTORE PUSH1 0x40 SWAP1 KECCAK256 SLOAD SWAP1 JUMP JUMPDEST PUSH2 0x257 PUSH2 0x745 JUMP JUMPDEST PUSH1 0x5 SLOAD PUSH1 0x1 PUSH1 0x1 PUSH1 0xA0 SHL SUB AND PUSH2 0x317 JUMP JUMPDEST PUSH1 0x7 SLOAD PUSH2 0x317 SWAP1 PUSH1 0x1 PUSH1 0x1 PUSH1 0xA0 SHL SUB AND DUP2 JUMP JUMPDEST PUSH2 0x1E9 PUSH2 0x759 JUMP JUMPDEST PUSH2 0x209 PUSH2 0x39A CALLDATASIZE PUSH1 0x4 PUSH2 0xE6D JUMP JUMPDEST PUSH2 0x768 JUMP JUMPDEST PUSH2 0x3A7 PUSH2 0x776 JUMP JUMPDEST PUSH1 0x40 DUP1 MLOAD SWAP6 DUP7 MSTORE PUSH1 0x20 DUP7 ADD SWAP5 SWAP1 SWAP5 MSTORE SWAP3 DUP5 ADD SWAP2 SWAP1 SWAP2 MSTORE PUSH1 0x1 PUSH1 0x1 PUSH1 0xA0 SHL SUB SWAP1 DUP2 AND PUSH1 0x60 DUP5 ADD MSTORE AND PUSH1 0x80 DUP3 ADD MSTORE PUSH1 0xA0 ADD PUSH2 0x1D8 JUMP JUMPDEST PUSH2 0x257 PUSH2 0x3E9 CALLDATASIZE PUSH1 0x4 PUSH2 0xE6D JUMP JUMPDEST PUSH2 0x7BA JUMP JUMPDEST PUSH2 0x257 PUSH2 0x3FC CALLDATASIZE PUSH1 0x4 PUSH2 0xF0F JUMP JUMPDEST PUSH2 0x92D JUMP JUMPDEST PUSH2 0x1CE PUSH2 0x40F CALLDATASIZE PUSH1 0x4 PUSH2 0xF28 JUMP JUMPDEST PUSH1 0x1 PUSH1 0x1 PUSH1 0xA0 SHL SUB SWAP2 DUP3 AND PUSH1 0x0 SWAP1 DUP2 MSTORE PUSH1 0x1 PUSH1 0x20 SWAP1 DUP2 MSTORE PUSH1 0x40 DUP1 DUP4 KECCAK256 SWAP4 SWAP1 SWAP5 AND DUP3 MSTORE SWAP2 SWAP1 SWAP2 MSTORE KECCAK256 SLOAD SWAP1 JUMP JUMPDEST PUSH2 0x1CE PUSH2 0x448 CALLDATASIZE PUSH1 0x4 PUSH2 0xDFD JUMP JUMPDEST PUSH1 0xB PUSH1 0x20 MSTORE PUSH1 0x0 SWAP1 DUP2 MSTORE PUSH1 0x40 SWAP1 KECCAK256 SLOAD DUP2 JUMP JUMPDEST PUSH2 0x257 PUSH2 0x468 CALLDATASIZE PUSH1 0x4 PUSH2 0xDFD JUMP JUMPDEST PUSH2 0x9CC JUMP JUMPDEST PUSH1 0x60 PUSH1 0x3 DUP1 SLOAD PUSH2 0x47C SWAP1 PUSH2 0xF5B JUMP JUMPDEST DUP1 PUSH1 0x1F ADD PUSH1 0x20 DUP1 SWAP2 DIV MUL PUSH1 0x20 ADD PUSH1 0x40 MLOAD SWAP1 DUP2 ADD PUSH1 0x40 MSTORE DUP1 SWAP3 SWAP2 SWAP1 DUP2 DUP2 MSTORE PUSH1 0x20 ADD DUP3 DUP1 SLOAD PUSH2 0x4A8 SWAP1 PUSH2 0xF5B JUMP JUMPDEST DUP1 ISZERO PUSH2 0x4F5 JUMPI DUP1 PUSH1 0x1F LT PUSH2 0x4CA JUMPI PUSH2 0x100 DUP1 DUP4 SLOAD DIV MUL DUP4 MSTORE SWAP2 PUSH1 0x20 ADD SWAP2 PUSH2 0x4F5 JUMP JUMPDEST DUP3 ADD SWAP2 SWAP1 PUSH1 0x0 MSTORE PUSH1 0x20 PUSH1 0x0 KECCAK256 SWAP1 JUMPDEST DUP2 SLOAD DUP2 MSTORE SWAP1 PUSH1 0x1 ADD SWAP1 PUSH1 0x20 ADD DUP1 DUP4 GT PUSH2 0x4D8 JUMPI DUP3 SWAP1 SUB PUSH1 0x1F AND DUP3 ADD SWAP2 JUMPDEST POP POP POP POP POP SWAP1 POP SWAP1 JUMP JUMPDEST PUSH1 0x0 CALLER PUSH2 0x50D DUP2 DUP6 DUP6 PUSH2 0xA07 JUMP JUMPDEST PUSH1 0x1 SWAP2 POP POP JUMPDEST SWAP3 SWAP2 POP POP JUMP JUMPDEST PUSH2 0x521 PUSH2 0xA19 JUMP JUMPDEST PUSH1 0x1 PUSH1 0x1 PUSH1 0xA0 SHL SUB DUP3 AND PUSH2 0x57C JUMPI PUSH1 0x40 MLOAD PUSH3 0x461BCD PUSH1 0xE5 SHL DUP2 MSTORE PUSH1 0x20 PUSH1 0x4 DUP3 ADD MSTORE PUSH1 0x17 PUSH1 0x24 DUP3 ADD MSTORE PUSH32 0x496E76616C6964206163636F756E742061646472657373000000000000000000 PUSH1 0x44 DUP3 ADD MSTORE PUSH1 0x64 ADD JUMPDEST PUSH1 0x40 MLOAD DUP1 SWAP2 SUB SWAP1 REVERT JUMPDEST PUSH1 0x1 PUSH1 0x1 PUSH1 0xA0 SHL SUB DUP3 AND PUSH1 0x0 DUP2 DUP2 MSTORE PUSH1 0xA PUSH1 0x20 SWAP1 DUP2 MSTORE PUSH1 0x40 SWAP2 DUP3 SWAP1 KECCAK256 DUP1 SLOAD PUSH1 0xFF NOT AND DUP6 ISZERO ISZERO SWAP1 DUP2 OR SWAP1 SWAP2 SSTORE SWAP2 MLOAD SWAP2 DUP3 MSTORE PUSH32 0xF683C34AC024BC3882D7544CA8F618433BA84E43D5A01AE90FADC141C45F2C59 SWAP2 ADD JUMPDEST PUSH1 0x40 MLOAD DUP1 SWAP2 SUB SWAP1 LOG2 POP POP JUMP JUMPDEST PUSH1 0x0 CALLER PUSH2 0x5EA DUP6 DUP3 DUP6 PUSH2 0xA46 JUMP JUMPDEST PUSH2 0x5F5 DUP6 DUP6 DUP6 PUSH2 0xAC5 JUMP JUMPDEST POP PUSH1 0x1 SWAP5 SWAP4 POP POP POP POP JUMP JUMPDEST PUSH2 0x608 PUSH2 0xA19 JUMP JUMPDEST PUSH1 0x1 PUSH1 0x1 PUSH1 0xA0 SHL SUB DUP3 AND PUSH2 0x65E JUMPI PUSH1 0x40 MLOAD PUSH3 0x461BCD PUSH1 0xE5 SHL DUP2 MSTORE PUSH1 0x20 PUSH1 0x4 DUP3 ADD MSTORE PUSH1 0x19 PUSH1 0x24 DUP3 ADD MSTORE PUSH32 0x496E76616C696420726563697069656E74206164647265737300000000000000 PUSH1 0x44 DUP3 ADD MSTORE PUSH1 0x64 ADD PUSH2 0x573 JUMP JUMPDEST PUSH12 0x33B2E3C9FD0803CE8000000 DUP2 PUSH2 0x675 PUSH1 0x2 SLOAD SWAP1 JUMP JUMPDEST PUSH2 0x67F SWAP2 SWAP1 PUSH2 0xF95 JUMP JUMPDEST GT ISZERO PUSH2 0x6C6 JUMPI PUSH1 0x40 MLOAD PUSH3 0x461BCD PUSH1 0xE5 SHL DUP2 MSTORE PUSH1 0x20 PUSH1 0x4 DUP3 ADD MSTORE PUSH1 0x16 PUSH1 0x24 DUP3 ADD MSTORE PUSH22 0x45786365656473206D6178696D756D20737570706C79 PUSH1 0x50 SHL PUSH1 0x44 DUP3 ADD MSTORE PUSH1 0x64 ADD PUSH2 0x573 JUMP JUMPDEST PUSH2 0x6D0 DUP3 DUP3 PUSH2 0xB24 JUMP JUMPDEST POP POP JUMP JUMPDEST PUSH2 0x6DE CALLER DUP3 PUSH2 0xB5A JUMP JUMPDEST POP JUMP JUMPDEST PUSH1 0x0 DUP1 PUSH1 0x0 DUP1 PUSH2 0x706 DUP6 PUSH1 0x1 PUSH1 0x1 PUSH1 0xA0 SHL SUB AND PUSH1 0x0 SWAP1 DUP2 MSTORE PUSH1 0x20 DUP2 SWAP1 MSTORE PUSH1 0x40 SWAP1 KECCAK256 SLOAD SWAP1 JUMP JUMPDEST PUSH1 0x1 PUSH1 0x1 PUSH1 0xA0 SHL SUB SWAP6 SWAP1 SWAP6 AND PUSH1 0x0 SWAP1 DUP2 MSTORE PUSH1 0xB PUSH1 0x20 SWAP1 DUP2 MSTORE PUSH1 0x40 DUP1 DUP4 KECCAK256 SLOAD PUSH1 0xC DUP4 MSTORE DUP2 DUP5 KECCAK256 SLOAD PUSH1 0xA SWAP1 SWAP4 MSTORE SWAP3 KECCAK256 SLOAD SWAP7 SWAP8 SWAP2 SWAP7 SWAP1 SWAP6 POP PUSH1 0xFF AND SWAP4 POP SWAP2 POP POP JUMP JUMPDEST PUSH2 0x74D PUSH2 0xA19 JUMP JUMPDEST PUSH2 0x757 PUSH1 0x0 PUSH2 0xB90 JUMP JUMPDEST JUMP JUMPDEST PUSH1 0x60 PUSH1 0x4 DUP1 SLOAD PUSH2 0x47C SWAP1 PUSH2 0xF5B JUMP JUMPDEST PUSH1 0x0 CALLER PUSH2 0x50D DUP2 DUP6 DUP6 PUSH2 0xAC5 JUMP JUMPDEST PUSH1 0x0 DUP1 PUSH1 0x0 DUP1 PUSH1 0x0 PUSH2 0x787 PUSH1 0x2 SLOAD SWAP1 JUMP JUMPDEST PUSH1 0x9 SLOAD PUSH1 0x8 SLOAD PUSH1 0x7 SLOAD SWAP3 SWAP9 PUSH12 0x33B2E3C9FD0803CE8000000 SWAP9 POP SWAP2 SWAP7 POP PUSH1 0x1 PUSH1 0x1 PUSH1 0xA0 SHL SUB SWAP1 DUP2 AND SWAP6 POP SWAP1 SWAP2 AND SWAP3 POP SWAP1 POP JUMP JUMPDEST PUSH1 0x7 SLOAD PUSH1 0x1 PUSH1 0x1 PUSH1 0xA0 SHL SUB AND CALLER EQ PUSH2 0x814 JUMPI PUSH1 0x40 MLOAD PUSH3 0x461BCD PUSH1 0xE5 SHL DUP2 MSTORE PUSH1 0x20 PUSH1 0x4 DUP3 ADD MSTORE PUSH1 0x1E PUSH1 0x24 DUP3 ADD MSTORE PUSH32 0x4F6E6C79207969656C6420706F6F6C2063616E20646973747269627574650000 PUSH1 0x44 DUP3 ADD MSTORE PUSH1 0x64 ADD PUSH2 0x573 JUMP JUMPDEST PUSH1 0x1 PUSH1 0x1 PUSH1 0xA0 SHL SUB DUP3 AND PUSH2 0x85E JUMPI PUSH1 0x40 MLOAD PUSH3 0x461BCD PUSH1 0xE5 SHL DUP2 MSTORE PUSH1 0x20 PUSH1 0x4 DUP3 ADD MSTORE PUSH1 0x11 PUSH1 0x24 DUP3 ADD MSTORE PUSH17 0x125B9D985B1A59081C9958DA5C1A595B9D PUSH1 0x7A SHL PUSH1 0x44 DUP3 ADD MSTORE PUSH1 0x64 ADD PUSH2 0x573 JUMP JUMPDEST PUSH1 0x0 DUP2 GT PUSH2 0x8AE JUMPI PUSH1 0x40 MLOAD PUSH3 0x461BCD PUSH1 0xE5 SHL DUP2 MSTORE PUSH1 0x20 PUSH1 0x4 DUP3 ADD DUP2 SWAP1 MSTORE PUSH1 0x24 DUP3 ADD MSTORE PUSH32 0x416D6F756E74206D7573742062652067726561746572207468616E207A65726F PUSH1 0x44 DUP3 ADD MSTORE PUSH1 0x64 ADD PUSH2 0x573 JUMP JUMPDEST PUSH1 0x1 PUSH1 0x1 PUSH1 0xA0 SHL SUB DUP3 AND PUSH1 0x0 SWAP1 DUP2 MSTORE PUSH1 0xC PUSH1 0x20 MSTORE PUSH1 0x40 DUP2 KECCAK256 DUP1 SLOAD DUP4 SWAP3 SWAP1 PUSH2 0x8D6 SWAP1 DUP5 SWAP1 PUSH2 0xF95 JUMP JUMPDEST SWAP1 SWAP2 SSTORE POP POP PUSH1 0x7 SLOAD PUSH2 0x8F2 SWAP1 PUSH1 0x1 PUSH1 0x1 PUSH1 0xA0 SHL SUB AND DUP4 DUP4 PUSH2 0xAC5 JUMP JUMPDEST DUP2 PUSH1 0x1 PUSH1 0x1 PUSH1 0xA0 SHL SUB AND PUSH32 0x9D315883DBFE38532083C1E42C0D10FBF89AD1CABAA0C269F78B3BEB892C101D DUP3 PUSH1 0x40 MLOAD PUSH2 0x5D0 SWAP2 DUP2 MSTORE PUSH1 0x20 ADD SWAP1 JUMP JUMPDEST PUSH2 0x935 PUSH2 0xA19 JUMP JUMPDEST PUSH2 0x3E8 DUP2 GT ISZERO PUSH2 0x987 JUMPI PUSH1 0x40 MLOAD PUSH3 0x461BCD PUSH1 0xE5 SHL DUP2 MSTORE PUSH1 0x20 PUSH1 0x4 DUP3 ADD MSTORE PUSH1 0x1B PUSH1 0x24 DUP3 ADD MSTORE PUSH32 0x546178207261746520746F6F206869676820286D617820313025290000000000 PUSH1 0x44 DUP3 ADD MSTORE PUSH1 0x64 ADD PUSH2 0x573 JUMP JUMPDEST PUSH1 0x9 DUP1 SLOAD SWAP1 DUP3 SWAP1 SSTORE PUSH1 0x40 DUP1 MLOAD DUP3 DUP2 MSTORE PUSH1 0x20 DUP2 ADD DUP5 SWAP1 MSTORE PUSH32 0x4A0A9731D057A57AD14DD19005BC294A7DE48DBCA51AEE6EDDF8E2CB64459578 SWAP2 ADD PUSH1 0x40 MLOAD DUP1 SWAP2 SUB SWAP1 LOG1 POP POP JUMP JUMPDEST PUSH2 0x9D4 PUSH2 0xA19 JUMP JUMPDEST PUSH1 0x1 PUSH1 0x1 PUSH1 0xA0 SHL SUB DUP2 AND PUSH2 0x9FE JUMPI PUSH1 0x40 MLOAD PUSH4 0x1E4FBDF7 PUSH1 0xE0 SHL DUP2 MSTORE PUSH1 0x0 PUSH1 0x4 DUP3 ADD MSTORE PUSH1 0x24 ADD PUSH2 0x573 JUMP JUMPDEST PUSH2 0x6DE DUP2 PUSH2 0xB90 JUMP JUMPDEST PUSH2 0xA14 DUP4 DUP4 DUP4 PUSH1 0x1 PUSH2 0xBE2 JUMP JUMPDEST POP POP POP JUMP JUMPDEST PUSH1 0x5 SLOAD PUSH1 0x1 PUSH1 0x1 PUSH1 0xA0 SHL SUB AND CALLER EQ PUSH2 0x757 JUMPI PUSH1 0x40 MLOAD PUSH4 0x118CDAA7 PUSH1 0xE0 SHL DUP2 MSTORE CALLER PUSH1 0x4 DUP3 ADD MSTORE PUSH1 0x24 ADD PUSH2 0x573 JUMP JUMPDEST PUSH1 0x1 PUSH1 0x1 PUSH1 0xA0 SHL SUB DUP4 DUP2 AND PUSH1 0x0 SWAP1 DUP2 MSTORE PUSH1 0x1 PUSH1 0x20 SWAP1 DUP2 MSTORE PUSH1 0x40 DUP1 DUP4 KECCAK256 SWAP4 DUP7 AND DUP4 MSTORE SWAP3 SWAP1 MSTORE KECCAK256 SLOAD PUSH1 0x0 NOT DUP2 LT ISZERO PUSH2 0xABF JUMPI DUP2 DUP2 LT ISZERO PUSH2 0xAB0 JUMPI PUSH1 0x40 MLOAD PUSH4 0x7DC7A0D9 PUSH1 0xE1 SHL DUP2 MSTORE PUSH1 0x1 PUSH1 0x1 PUSH1 0xA0 SHL SUB DUP5 AND PUSH1 0x4 DUP3 ADD MSTORE PUSH1 0x24 DUP2 ADD DUP3 SWAP1 MSTORE PUSH1 0x44 DUP2 ADD DUP4 SWAP1 MSTORE PUSH1 0x64 ADD PUSH2 0x573 JUMP JUMPDEST PUSH2 0xABF DUP5 DUP5 DUP5 DUP5 SUB PUSH1 0x0 PUSH2 0xBE2 JUMP JUMPDEST POP POP POP POP JUMP JUMPDEST PUSH1 0x1 PUSH1 0x1 PUSH1 0xA0 SHL SUB DUP4 AND PUSH2 0xAEF JUMPI PUSH1 0x40 MLOAD PUSH4 0x4B637E8F PUSH1 0xE1 SHL DUP2 MSTORE PUSH1 0x0 PUSH1 0x4 DUP3 ADD MSTORE PUSH1 0x24 ADD PUSH2 0x573 JUMP JUMPDEST PUSH1 0x1 PUSH1 0x1 PUSH1 0xA0 SHL SUB DUP3 AND PUSH2 0xB19 JUMPI PUSH1 0x40 MLOAD PUSH4 0xEC442F05 PUSH1 0xE0 SHL DUP2 MSTORE PUSH1 0x0 PUSH1 0x4 DUP3 ADD MSTORE PUSH1 0x24 ADD PUSH2 0x573 JUMP JUMPDEST PUSH2 0xA14 DUP4 DUP4 DUP4 PUSH2 0xCB7 JUMP JUMPDEST PUSH1 0x1 PUSH1 0x1 PUSH1 0xA0 SHL SUB DUP3 AND PUSH2 0xB4E JUMPI PUSH1 0x40 MLOAD PUSH4 0xEC442F05 PUSH1 0xE0 SHL DUP2 MSTORE PUSH1 0x0 PUSH1 0x4 DUP3 ADD MSTORE PUSH1 0x24 ADD PUSH2 0x573 JUMP JUMPDEST PUSH2 0x6D0 PUSH1 0x0 DUP4 DUP4 PUSH2 0xCB7 JUMP JUMPDEST PUSH1 0x1 PUSH1 0x1 PUSH1 0xA0 SHL SUB DUP3 AND PUSH2 0xB84 JUMPI PUSH1 0x40 MLOAD PUSH4 0x4B637E8F PUSH1 0xE1 SHL DUP2 MSTORE PUSH1 0x0 PUSH1 0x4 DUP3 ADD MSTORE PUSH1 0x24 ADD PUSH2 0x573 JUMP JUMPDEST PUSH2 0x6D0 DUP3 PUSH1 0x0 DUP4 PUSH2 0xCB7 JUMP JUMPDEST PUSH1 0x5 DUP1 SLOAD PUSH1 0x1 PUSH1 0x1 PUSH1 0xA0 SHL SUB DUP4 DUP2 AND PUSH1 0x1 PUSH1 0x1 PUSH1 0xA0 SHL SUB NOT DUP4 AND DUP2 OR SWAP1 SWAP4 SSTORE PUSH1 0x40 MLOAD SWAP2 AND SWAP2 SWAP1 DUP3 SWAP1 PUSH32 0x8BE0079C531659141344CD1FD0A4F28419497F9722A3DAAFE3B4186F6B6457E0 SWAP1 PUSH1 0x0 SWAP1 LOG3 POP POP JUMP JUMPDEST PUSH1 0x1 PUSH1 0x1 PUSH1 0xA0 SHL SUB DUP5 AND PUSH2 0xC0C JUMPI PUSH1 0x40 MLOAD PUSH4 0xE602DF05 PUSH1 0xE0 SHL DUP2 MSTORE PUSH1 0x0 PUSH1 0x4 DUP3 ADD MSTORE PUSH1 0x24 ADD PUSH2 0x573 JUMP JUMPDEST PUSH1 0x1 PUSH1 0x1 PUSH1 0xA0 SHL SUB DUP4 AND PUSH2 0xC36 JUMPI PUSH1 0x40 MLOAD PUSH4 0x4A1406B1 PUSH1 0xE1 SHL DUP2 MSTORE PUSH1 0x0 PUSH1 0x4 DUP3 ADD MSTORE PUSH1 0x24 ADD PUSH2 0x573 JUMP JUMPDEST PUSH1 0x1 PUSH1 0x1 PUSH1 0xA0 SHL SUB DUP1 DUP6 AND PUSH1 0x0 SWAP1 DUP2 MSTORE PUSH1 0x1 PUSH1 0x20 SWAP1 DUP2 MSTORE PUSH1 0x40 DUP1 DUP4 KECCAK256 SWAP4 DUP8 AND DUP4 MSTORE SWAP3 SWAP1 MSTORE KECCAK256 DUP3 SWAP1 SSTORE DUP1 ISZERO PUSH2 0xABF JUMPI DUP3 PUSH1 0x1 PUSH1 0x1 PUSH1 0xA0 SHL SUB AND DUP5 PUSH1 0x1 PUSH1 0x1 PUSH1 0xA0 SHL SUB AND PUSH32 0x8C5BE1E5EBEC7D5BD14F71427D1E84F3DD0314C0F7B2291E5B200AC8C7C3B925 DUP5 PUSH1 0x40 MLOAD PUSH2 0xCA9 SWAP2 DUP2 MSTORE PUSH1 0x20 ADD SWAP1 JUMP JUMPDEST PUSH1 0x40 MLOAD DUP1 SWAP2 SUB SWAP1 LOG3 POP POP POP POP JUMP JUMPDEST PUSH1 0x1 PUSH1 0x1 PUSH1 0xA0 SHL SUB DUP4 AND PUSH2 0xCE2 JUMPI DUP1 PUSH1 0x2 PUSH1 0x0 DUP3 DUP3 SLOAD PUSH2 0xCD7 SWAP2 SWAP1 PUSH2 0xF95 JUMP JUMPDEST SWAP1 SWAP2 SSTORE POP PUSH2 0xD54 SWAP1 POP JUMP JUMPDEST PUSH1 0x1 PUSH1 0x1 PUSH1 0xA0 SHL SUB DUP4 AND PUSH1 0x0 SWAP1 DUP2 MSTORE PUSH1 0x20 DUP2 SWAP1 MSTORE PUSH1 0x40 SWAP1 KECCAK256 SLOAD DUP2 DUP2 LT ISZERO PUSH2 0xD35 JUMPI PUSH1 0x40 MLOAD PUSH4 0x391434E3 PUSH1 0xE2 SHL DUP2 MSTORE PUSH1 0x1 PUSH1 0x1 PUSH1 0xA0 SHL SUB DUP6 AND PUSH1 0x4 DUP3 ADD MSTORE PUSH1 0x24 DUP2 ADD DUP3 SWAP1 MSTORE PUSH1 0x44 DUP2 ADD DUP4 SWAP1 MSTORE PUSH1 0x64 ADD PUSH2 0x573 JUMP JUMPDEST PUSH1 0x1 PUSH1 0x1 PUSH1 0xA0 SHL SUB DUP5 AND PUSH1 0x0 SWAP1 DUP2 MSTORE PUSH1 0x20 DUP2 SWAP1 MSTORE PUSH1 0x40 SWAP1 KECCAK256 SWAP1 DUP3 SWAP1 SUB SWAP1 SSTORE JUMPDEST PUSH1 0x1 PUSH1 0x1 PUSH1 0xA0 SHL SUB DUP3 AND PUSH2 0xD70 JUMPI PUSH1 0x2 DUP1 SLOAD DUP3 SWAP1 SUB SWAP1 SSTORE PUSH2 0xD8F JUMP JUMPDEST PUSH1 0x1 PUSH1 0x1 PUSH1 0xA0 SHL SUB DUP3 AND PUSH1 0x0 SWAP1 DUP2 MSTORE PUSH1 0x20 DUP2 SWAP1 MSTORE PUSH1 0x40 SWAP1 KECCAK256 DUP1 SLOAD DUP3 ADD SWAP1 SSTORE JUMPDEST DUP2 PUSH1 0x1 PUSH1 0x1 PUSH1 0xA0 SHL SUB AND DUP4 PUSH1 0x1 PUSH1 0x1 PUSH1 0xA0 SHL SUB AND PUSH32 0xDDF252AD1BE2C89B69C2B068FC378DAA952BA7F163C4A11628F55A4DF523B3EF DUP4 PUSH1 0x40 MLOAD PUSH2 0xDD4 SWAP2 DUP2 MSTORE PUSH1 0x20 ADD SWAP1 JUMP JUMPDEST PUSH1 0x40 MLOAD DUP1 SWAP2 SUB SWAP1 LOG3 POP POP POP JUMP JUMPDEST DUP1 CALLDATALOAD PUSH1 0x1 PUSH1 0x1 PUSH1 0xA0 SHL SUB DUP2 AND DUP2 EQ PUSH2 0xDF8 JUMPI PUSH1 0x0 DUP1 REVERT JUMPDEST SWAP2 SWAP1 POP JUMP JUMPDEST PUSH1 0x0 PUSH1 0x20 DUP3 DUP5 SUB SLT ISZERO PUSH2 0xE0F JUMPI PUSH1 0x0 DUP1 REVERT JUMPDEST PUSH2 0xE18 DUP3 PUSH2 0xDE1 JUMP JUMPDEST SWAP4 SWAP3 POP POP POP JUMP JUMPDEST PUSH1 0x0 PUSH1 0x20 DUP1 DUP4 MSTORE DUP4 MLOAD DUP1 DUP3 DUP6 ADD MSTORE PUSH1 0x0 JUMPDEST DUP2 DUP2 LT ISZERO PUSH2 0xE4C JUMPI DUP6 DUP2 ADD DUP4 ADD MLOAD DUP6 DUP3 ADD PUSH1 0x40 ADD MSTORE DUP3 ADD PUSH2 0xE30 JUMP JUMPDEST POP PUSH1 0x0 PUSH1 0x40 DUP3 DUP7 ADD ADD MSTORE PUSH1 0x40 PUSH1 0x1F NOT PUSH1 0x1F DUP4 ADD AND DUP6 ADD ADD SWAP3 POP POP POP SWAP3 SWAP2 POP POP JUMP JUMPDEST PUSH1 0x0 DUP1 PUSH1 0x40 DUP4 DUP6 SUB SLT ISZERO PUSH2 0xE80 JUMPI PUSH1 0x0 DUP1 REVERT JUMPDEST PUSH2 0xE89 DUP4 PUSH2 0xDE1 JUMP JUMPDEST SWAP5 PUSH1 0x20 SWAP4 SWAP1 SWAP4 ADD CALLDATALOAD SWAP4 POP POP POP JUMP JUMPDEST PUSH1 0x0 DUP1 PUSH1 0x40 DUP4 DUP6 SUB SLT ISZERO PUSH2 0xEAA JUMPI PUSH1 0x0 DUP1 REVERT JUMPDEST PUSH2 0xEB3 DUP4 PUSH2 0xDE1 JUMP JUMPDEST SWAP2 POP PUSH1 0x20 DUP4 ADD CALLDATALOAD DUP1 ISZERO ISZERO DUP2 EQ PUSH2 0xEC8 JUMPI PUSH1 0x0 DUP1 REVERT JUMPDEST DUP1 SWAP2 POP POP SWAP3 POP SWAP3 SWAP1 POP JUMP JUMPDEST PUSH1 0x0 DUP1 PUSH1 0x0 PUSH1 0x60 DUP5 DUP7 SUB SLT ISZERO PUSH2 0xEE8 JUMPI PUSH1 0x0 DUP1 REVERT JUMPDEST PUSH2 0xEF1 DUP5 PUSH2 0xDE1 JUMP JUMPDEST SWAP3 POP PUSH2 0xEFF PUSH1 0x20 DUP6 ADD PUSH2 0xDE1 JUMP JUMPDEST SWAP2 POP PUSH1 0x40 DUP5 ADD CALLDATALOAD SWAP1 POP SWAP3 POP SWAP3 POP SWAP3 JUMP JUMPDEST PUSH1 0x0 PUSH1 0x20 DUP3 DUP5 SUB SLT ISZERO PUSH2 0xF21 JUMPI PUSH1 0x0 DUP1 REVERT JUMPDEST POP CALLDATALOAD SWAP2 SWAP1 POP JUMP JUMPDEST PUSH1 0x0 DUP1 PUSH1 0x40 DUP4 DUP6 SUB SLT ISZERO PUSH2 0xF3B JUMPI PUSH1 0x0 DUP1 REVERT JUMPDEST PUSH2 0xF44 DUP4 PUSH2 0xDE1 JUMP JUMPDEST SWAP2 POP PUSH2 0xF52 PUSH1 0x20 DUP5 ADD PUSH2 0xDE1 JUMP JUMPDEST SWAP1 POP SWAP3 POP SWAP3 SWAP1 POP JUMP JUMPDEST PUSH1 0x1 DUP2 DUP2 SHR SWAP1 DUP3 AND DUP1 PUSH2 0xF6F JUMPI PUSH1 0x7F DUP3 AND SWAP2 POP JUMPDEST PUSH1 0x20 DUP3 LT DUP2 SUB PUSH2 0xF8F JUMPI PUSH4 0x4E487B71 PUSH1 0xE0 SHL PUSH1 0x0 MSTORE PUSH1 0x22 PUSH1 0x4 MSTORE PUSH1 0x24 PUSH1 0x0 REVERT JUMPDEST POP SWAP2 SWAP1 POP JUMP JUMPDEST DUP1 DUP3 ADD DUP1 DUP3 GT ISZERO PUSH2 0x513 JUMPI PUSH4 0x4E487B71 PUSH1 0xE0 SHL PUSH1 0x0 MSTORE PUSH1 0x11 PUSH1 0x4 MSTORE PUSH1 0x24 PUSH1 0x0 REVERT INVALID LOG2 PUSH5 0x6970667358 0x22 SLT KECCAK256 0x5C PUSH25 0x88CC925ADD23492628A3B16AAAED0E084C04B44DAD56D94CEF SMOD 0xC7 0xCE 0xC8 CREATE2 PUSH5 0x736F6C6343 STOP ADDMOD EQ STOP CALLER "},"methodIdentifiers":{"INITIAL_SUPPLY()":"2ff2e9dc","MAX_SUPPLY()":"32cb6b0c","allowance(address,address)":"dd62ed3e","approve(address,uint256)":"095ea7b3","balanceOf(address)":"70a08231","burn(uint256)":"42966c68","decimals()":"313ce567","distributeYield(address,uint256)":"bd4ba9c0","getTokenInfo()":"abb1dc44","getUserStats(address)":"4e43603a","isTaxExempt(address)":"16c2be6b","lastTransactionTime(address)":"e75b2073","mint(address,uint256)":"40c10f19","name()":"06fdde03","owner()":"8da5cb5b","renounceOwnership()":"715018a6","setTaxExempt(address,bool)":"1dc61040","setTradingTax(uint256)":"c3b240b6","symbol()":"95d89b41","totalSupply()":"18160ddd","totalYieldClaimed(address)":"06ac7aed","tradingTaxBP()":"3372d996","transfer(address,uint256)":"a9059cbb","transferFrom(address,address,uint256)":"23b872dd","transferOwnership(address)":"f2fde38b","treasury()":"61d027b3","yieldPool()":"8f188dd4"}}}}}