{
  "_format": "hh-sol-artifact-1",
  "contractName": "GTTToken",
  "sourceName": "solidity/contracts/GTTToken.sol",
  "abi": [
    {
      "inputs": [],
      "stateMutability": "nonpayable",
      "type": "constructor"
    },
    {
      "inputs": [
        {
          "internalType": "address",
          "name": "spender",
          "type": "address"
        },
        {
          "internalType": "uint256",
          "name": "allowance",
          "type": "uint256"
        },
        {
          "internalType": "uint256",
          "name": "needed",
          "type": "uint256"
        }
      ],
      "name": "ERC20InsufficientAllowance",
      "type": "error"
    },
    {
      "inputs": [
        {
          "internalType": "address",
          "name": "sender",
          "type": "address"
        },
        {
          "internalType": "uint256",
          "name": "balance",
          "type": "uint256"
        },
        {
          "internalType": "uint256",
          "name": "needed",
          "type": "uint256"
        }
      ],
      "name": "ERC20InsufficientBalance",
      "type": "error"
    },
    {
      "inputs": [
        {
          "internalType": "address",
          "name": "approver",
          "type": "address"
        }
      ],
      "name": "ERC20InvalidApprover",
      "type": "error"
    },
    {
      "inputs": [
        {
          "internalType": "address",
          "name": "receiver",
          "type": "address"
        }
      ],
      "name": "ERC20InvalidReceiver",
      "type": "error"
    },
    {
      "inputs": [
        {
          "internalType": "address",
          "name": "sender",
          "type": "address"
        }
      ],
      "name": "ERC20InvalidSender",
      "type": "error"
    },
    {
      "inputs": [
        {
          "internalType": "address",
          "name": "spender",
          "type": "address"
        }
      ],
      "name": "ERC20InvalidSpender",
      "type": "error"
    },
    {
      "inputs": [],
      "name": "EnforcedPause",
      "type": "error"
    },
    {
      "inputs": [],
      "name": "ExpectedPause",
      "type": "error"
    },
    {
      "inputs": [
        {
          "internalType": "address",
          "name": "owner",
          "type": "address"
        }
      ],
      "name": "OwnableInvalidOwner",
      "type": "error"
    },
    {
      "inputs": [
        {
          "internalType": "address",
          "name": "account",
          "type": "address"
        }
      ],
      "name": "OwnableUnauthorizedAccount",
      "type": "error"
    },
    {
      "anonymous": false,
      "inputs": [
        {
          "indexed": true,
          "internalType": "address",
          "name": "owner",
          "type": "address"
        },
        {
          "indexed": true,
          "internalType": "address",
          "name": "spender",
          "type": "address"
        },
        {
          "indexed": false,
          "internalType": "uint256",
          "name": "value",
          "type": "uint256"
        }
      ],
      "name": "Approval",
      "type": "event"
    },
    {
      "anonymous": false,
      "inputs": [
        {
          "indexed": true,
          "internalType": "address",
          "name": "previousOwner",
          "type": "address"
        },
        {
          "indexed": true,
          "internalType": "address",
          "name": "newOwner",
          "type": "address"
        }
      ],
      "name": "OwnershipTransferred",
      "type": "event"
    },
    {
      "anonymous": false,
      "inputs": [
        {
          "indexed": false,
          "internalType": "address",
          "name": "account",
          "type": "address"
        }
      ],
      "name": "Paused",
      "type": "event"
    },
    {
      "anonymous": false,
      "inputs": [
        {
          "indexed": true,
          "internalType": "address",
          "name": "to",
          "type": "address"
        },
        {
          "indexed": false,
          "internalType": "uint256",
          "name": "amount",
          "type": "uint256"
        },
        {
          "indexed": false,
          "internalType": "string",
          "name": "reason",
          "type": "string"
        }
      ],
      "name": "TokensMinted",
      "type": "event"
    },
    {
      "anonymous": false,
      "inputs": [
        {
          "indexed": true,
          "internalType": "address",
          "name": "from",
          "type": "address"
        },
        {
          "indexed": true,
          "internalType": "address",
          "name": "to",
          "type": "address"
        },
        {
          "indexed": false,
          "internalType": "uint256",
          "name": "value",
          "type": "uint256"
        }
      ],
      "name": "Transfer",
      "type": "event"
    },
    {
      "anonymous": false,
      "inputs": [
        {
          "indexed": true,
          "internalType": "address",
          "name": "oldVault",
          "type": "address"
        },
        {
          "indexed": true,
          "internalType": "address",
          "name": "newVault",
          "type": "address"
        }
      ],
      "name": "TruthVaultSet",
      "type": "event"
    },
    {
      "anonymous": false,
      "inputs": [
        {
          "indexed": false,
          "internalType": "address",
          "name": "account",
          "type": "address"
        }
      ],
      "name": "Unpaused",
      "type": "event"
    },
    {
      "inputs": [],
      "name": "MAX_SUPPLY",
      "outputs": [
        {
          "internalType": "uint256",
          "name": "",
          "type": "uint256"
        }
      ],
      "stateMutability": "view",
      "type": "function"
    },
    {
      "inputs": [
        {
          "internalType": "address",
          "name": "owner",
          "type": "address"
        },
        {
          "internalType": "address",
          "name": "spender",
          "type": "address"
        }
      ],
      "name": "allowance",
      "outputs": [
        {
          "internalType": "uint256",
          "name": "",
          "type": "uint256"
        }
      ],
      "stateMutability": "view",
      "type": "function"
    },
    {
      "inputs": [
        {
          "internalType": "address",
          "name": "spender",
          "type": "address"
        },
        {
          "internalType": "uint256",
          "name": "value",
          "type": "uint256"
        }
      ],
      "name": "approve",
      "outputs": [
        {
          "internalType": "bool",
          "name": "",
          "type": "bool"
        }
      ],
      "stateMutability": "nonpayable",
      "type": "function"
    },
    {
      "inputs": [
        {
          "internalType": "address",
          "name": "account",
          "type": "address"
        }
      ],
      "name": "balanceOf",
      "outputs": [
        {
          "internalType": "uint256",
          "name": "",
          "type": "uint256"
        }
      ],
      "stateMutability": "view",
      "type": "function"
    },
    {
      "inputs": [
        {
          "internalType": "uint256",
          "name": "amount",
          "type": "uint256"
        }
      ],
      "name": "burn",
      "outputs": [],
      "stateMutability": "nonpayable",
      "type": "function"
    },
    {
      "inputs": [
        {
          "internalType": "address",
          "name": "from",
          "type": "address"
        },
        {
          "internalType": "uint256",
          "name": "amount",
          "type": "uint256"
        }
      ],
      "name": "burnFrom",
      "outputs": [],
      "stateMutability": "nonpayable",
      "type": "function"
    },
    {
      "inputs": [],
      "name": "decimals",
      "outputs": [
        {
          "internalType": "uint8",
          "name": "",
          "type": "uint8"
        }
      ],
      "stateMutability": "view",
      "type": "function"
    },
    {
      "inputs": [
        {
          "internalType": "address",
          "name": "to",
          "type": "address"
        },
        {
          "internalType": "uint256",
          "name": "amount",
          "type": "uint256"
        },
        {
          "internalType": "string",
          "name": "reason",
          "type": "string"
        }
      ],
      "name": "mintYieldReward",
      "outputs": [],
      "stateMutability": "nonpayable",
      "type": "function"
    },
    {
      "inputs": [],
      "name": "name",
      "outputs": [
        {
          "internalType": "string",
          "name": "",
          "type": "string"
        }
      ],
      "stateMutability": "view",
      "type": "function"
    },
    {
      "inputs": [],
      "name": "owner",
      "outputs": [
        {
          "internalType": "address",
          "name": "",
          "type": "address"
        }
      ],
      "stateMutability": "view",
      "type": "function"
    },
    {
      "inputs": [],
      "name": "pause",
      "outputs": [],
      "stateMutability": "nonpayable",
      "type": "function"
    },
    {
      "inputs": [],
      "name": "paused",
      "outputs": [
        {
          "internalType": "bool",
          "name": "",
          "type": "bool"
        }
      ],
      "stateMutability": "view",
      "type": "function"
    },
    {
      "inputs": [],
      "name": "remainingSupply",
      "outputs": [
        {
          "internalType": "uint256",
          "name": "",
          "type": "uint256"
        }
      ],
      "stateMutability": "view",
      "type": "function"
    },
    {
      "inputs": [],
      "name": "renounceOwnership",
      "outputs": [],
      "stateMutability": "nonpayable",
      "type": "function"
    },
    {
      "inputs": [
        {
          "internalType": "address",
          "name": "_truthVault",
          "type": "address"
        }
      ],
      "name": "setVault",
      "outputs": [],
      "stateMutability": "nonpayable",
      "type": "function"
    },
    {
      "inputs": [],
      "name": "symbol",
      "outputs": [
        {
          "internalType": "string",
          "name": "",
          "type": "string"
        }
      ],
      "stateMutability": "view",
      "type": "function"
    },
    {
      "inputs": [],
      "name": "totalSupply",
      "outputs": [
        {
          "internalType": "uint256",
          "name": "",
          "type": "uint256"
        }
      ],
      "stateMutability": "view",
      "type": "function"
    },
    {
      "inputs": [
        {
          "internalType": "address",
          "name": "to",
          "type": "address"
        },
        {
          "internalType": "uint256",
          "name": "value",
          "type": "uint256"
        }
      ],
      "name": "transfer",
      "outputs": [
        {
          "internalType": "bool",
          "name": "",
          "type": "bool"
        }
      ],
      "stateMutability": "nonpayable",
      "type": "function"
    },
    {
      "inputs": [
        {
          "internalType": "address",
          "name": "from",
          "type": "address"
        },
        {
          "internalType": "address",
          "name": "to",
          "type": "address"
        },
        {
          "internalType": "uint256",
          "name": "value",
          "type": "uint256"
        }
      ],
      "name": "transferFrom",
      "outputs": [
        {
          "internalType": "bool",
          "name": "",
          "type": "bool"
        }
      ],
      "stateMutability": "nonpayable",
      "type": "function"
    },
    {
      "inputs": [
        {
          "internalType": "address",
          "name": "newOwner",
          "type": "address"
        }
      ],
      "name": "transferOwnership",
      "outputs": [],
      "stateMutability": "nonpayable",
      "type": "function"
    },
    {
      "inputs": [],
      "name": "truthVault",
      "outputs": [
        {
          "internalType": "address",
          "name": "",
          "type": "address"
        }
      ],
      "stateMutability": "view",
      "type": "function"
    },
    {
      "inputs": [],
      "name": "unpause",
      "outputs": [],
      "stateMutability": "nonpayable",
      "type": "function"
    }
  ],
  "bytecode": "0x60806040523480156200001157600080fd5b50336040518060400160405280601481526020017f477561726469616e20547275746820546f6b656e0000000000000000000000008152506040518060400160405280600381526020016211d51560ea1b8152508160039081620000769190620001c0565b506004620000858282620001c0565b5050506001600160a01b038116620000b757604051631e4fbdf760e01b81526000600482015260240160405180910390fd5b620000c281620000c9565b506200028c565b600580546001600160a01b038381166001600160a01b0319831681179093556040519116919082907f8be0079c531659141344cd1fd0a4f28419497f9722a3daafe3b4186f6b6457e090600090a35050565b634e487b7160e01b600052604160045260246000fd5b600181811c908216806200014657607f821691505b6020821081036200016757634e487b7160e01b600052602260045260246000fd5b50919050565b601f821115620001bb57600081815260208120601f850160051c81016020861015620001965750805b601f850160051c820191505b81811015620001b757828155600101620001a2565b5050505b505050565b81516001600160401b03811115620001dc57620001dc6200011b565b620001f481620001ed845462000131565b846200016d565b602080601f8311600181146200022c5760008415620002135750858301515b600019600386901b1c1916600185901b178555620001b7565b600085815260208120601f198616915b828110156200025d578886015182559484019460019091019084016200023c565b50858210156200027c5787850151600019600388901b60f8161c191681555b5050505050600190811b01905550565b610ee9806200029c6000396000f3fe608060405234801561001057600080fd5b50600436106101425760003560e01c8063715018a6116100b857806395d89b411161007c57806395d89b4114610295578063a9059cbb1461029d578063da0239a6146102b0578063dd62ed3e146102b8578063ef5a8c38146102f1578063f2fde38b1461030457600080fd5b8063715018a61461023a57806379cc6790146102425780638456cb59146102555780638b419b701461025d5780638da5cb5b1461027057600080fd5b806332cb6b0c1161010a57806332cb6b0c146101bc5780633f4ba83a146101cf57806342966c68146101d95780635c975abb146101ec5780636817031b146101fe57806370a082311461021157600080fd5b806306fdde0314610147578063095ea7b31461016557806318160ddd1461018857806323b872dd1461019a578063313ce567146101ad575b600080fd5b61014f610317565b60405161015c9190610c42565b60405180910390f35b610178610173366004610cac565b6103a9565b604051901515815260200161015c565b6002545b60405190815260200161015c565b6101786101a8366004610cd6565b6103c3565b6040516012815260200161015c565b61018c6b033b2e3c9fd0803ce800000081565b6101d76103e7565b005b6101d76101e7366004610d12565b6103f9565b600554600160a01b900460ff16610178565b6101d761020c366004610d2b565b610406565b61018c61021f366004610d2b565b6001600160a01b031660009081526020819052604090205490565b6101d76104ca565b6101d7610250366004610cac565b6104dc565b6101d76104f5565b6101d761026b366004610d4d565b610505565b6005546001600160a01b03165b6040516001600160a01b03909116815260200161015c565b61014f6106ea565b6101786102ab366004610cac565b6106f9565b61018c610707565b61018c6102c6366004610dd4565b6001600160a01b03918216600090815260016020908152604080832093909416825291909152205490565b60065461027d906001600160a01b031681565b6101d7610312366004610d2b565b61072d565b60606003805461032690610e07565b80601f016020809104026020016040519081016040528092919081815260200182805461035290610e07565b801561039f5780601f106103745761010080835404028352916020019161039f565b820191906000526020600020905b81548152906001019060200180831161038257829003601f168201915b5050505050905090565b6000336103b7818585610768565b60019150505b92915050565b6000336103d185828561077a565b6103dc8585856107f9565b506001949350505050565b6103ef610858565b6103f7610885565b565b61040333826108da565b50565b61040e610858565b6001600160a01b0381166104785760405162461bcd60e51b815260206004820152602660248201527f4754543a2054727574685661756c742063616e6e6f74206265207a65726f206160448201526564647265737360d01b60648201526084015b60405180910390fd5b600680546001600160a01b038381166001600160a01b0319831681179093556040519116919082907fa357bcaa109299962acf1afe813bd16e989d60a7ac7611b2e2747d6555d936fe90600090a35050565b6104d2610858565b6103f76000610910565b6104e782338361077a565b6104f182826108da565b5050565b6104fd610858565b6103f7610962565b6006546001600160a01b0316331461056a5760405162461bcd60e51b815260206004820152602260248201527f4754543a204f6e6c792054727574685661756c742063616e2063616c6c207468604482015261697360f01b606482015260840161046f565b6105726109a5565b6001600160a01b0384166105c85760405162461bcd60e51b815260206004820181905260248201527f4754543a2043616e6e6f74206d696e7420746f207a65726f2061646472657373604482015260640161046f565b600083116106265760405162461bcd60e51b815260206004820152602560248201527f4754543a20416d6f756e74206d7573742062652067726561746572207468616e604482015264207a65726f60d81b606482015260840161046f565b6b033b2e3c9fd0803ce80000008361063d60025490565b6106479190610e57565b11156106955760405162461bcd60e51b815260206004820152601c60248201527f4754543a20576f756c6420657863656564206d617820737570706c7900000000604482015260640161046f565b61069f84846109d0565b836001600160a01b03167f9d89e36eadf856db0ad9ffb5a569e07f95634dddd9501141ecf04820484ad0dc8484846040516106dc93929190610e6a565b60405180910390a250505050565b60606004805461032690610e07565b6000336103b78185856107f9565b600061071260025490565b610728906b033b2e3c9fd0803ce8000000610ea0565b905090565b610735610858565b6001600160a01b03811661075f57604051631e4fbdf760e01b81526000600482015260240161046f565b61040381610910565b6107758383836001610a06565b505050565b6001600160a01b038381166000908152600160209081526040808320938616835292905220546000198110156107f357818110156107e457604051637dc7a0d960e11b81526001600160a01b0384166004820152602481018290526044810183905260640161046f565b6107f384848484036000610a06565b50505050565b6001600160a01b03831661082357604051634b637e8f60e11b81526000600482015260240161046f565b6001600160a01b03821661084d5760405163ec442f0560e01b81526000600482015260240161046f565b610775838383610adb565b6005546001600160a01b031633146103f75760405163118cdaa760e01b815233600482015260240161046f565b61088d610aee565b6005805460ff60a01b191690557f5db9ee0a495bf2e6ff9c91a7834c1ba4fdd244a5e8aa4e537bd38aeae4b073aa335b6040516001600160a01b03909116815260200160405180910390a1565b6001600160a01b03821661090457604051634b637e8f60e11b81526000600482015260240161046f565b6104f182600083610adb565b600580546001600160a01b038381166001600160a01b0319831681179093556040519116919082907f8be0079c531659141344cd1fd0a4f28419497f9722a3daafe3b4186f6b6457e090600090a35050565b61096a6109a5565b6005805460ff60a01b1916600160a01b1790557f62e78cea01bee320cd4e420270b5ea74000d11b0c9f74754ebdbfc544b05a2586108bd3390565b600554600160a01b900460ff16156103f75760405163d93c066560e01b815260040160405180910390fd5b6001600160a01b0382166109fa5760405163ec442f0560e01b81526000600482015260240161046f565b6104f160008383610adb565b6001600160a01b038416610a305760405163e602df0560e01b81526000600482015260240161046f565b6001600160a01b038316610a5a57604051634a1406b160e11b81526000600482015260240161046f565b6001600160a01b03808516600090815260016020908152604080832093871683529290522082905580156107f357826001600160a01b0316846001600160a01b03167f8c5be1e5ebec7d5bd14f71427d1e84f3dd0314c0f7b2291e5b200ac8c7c3b92584604051610acd91815260200190565b60405180910390a350505050565b610ae36109a5565b610775838383610b18565b600554600160a01b900460ff166103f757604051638dfc202b60e01b815260040160405180910390fd5b6001600160a01b038316610b43578060026000828254610b389190610e57565b90915550610bb59050565b6001600160a01b03831660009081526020819052604090205481811015610b965760405163391434e360e21b81526001600160a01b0385166004820152602481018290526044810183905260640161046f565b6001600160a01b03841660009081526020819052604090209082900390555b6001600160a01b038216610bd157600280548290039055610bf0565b6001600160a01b03821660009081526020819052604090208054820190555b816001600160a01b0316836001600160a01b03167fddf252ad1be2c89b69c2b068fc378daa952ba7f163c4a11628f55a4df523b3ef83604051610c3591815260200190565b60405180910390a3505050565b600060208083528351808285015260005b81811015610c6f57858101830151858201604001528201610c53565b506000604082860101526040601f19601f8301168501019250505092915050565b80356001600160a01b0381168114610ca757600080fd5b919050565b60008060408385031215610cbf57600080fd5b610cc883610c90565b946020939093013593505050565b600080600060608486031215610ceb57600080fd5b610cf484610c90565b9250610d0260208501610c90565b9150604084013590509250925092565b600060208284031215610d2457600080fd5b5035919050565b600060208284031215610d3d57600080fd5b610d4682610c90565b9392505050565b60008060008060608587031215610d6357600080fd5b610d6c85610c90565b935060208501359250604085013567ffffffffffffffff80821115610d9057600080fd5b818701915087601f830112610da457600080fd5b813581811115610db357600080fd5b886020828501011115610dc557600080fd5b95989497505060200194505050565b60008060408385031215610de757600080fd5b610df083610c90565b9150610dfe60208401610c90565b90509250929050565b600181811c90821680610e1b57607f821691505b602082108103610e3b57634e487b7160e01b600052602260045260246000fd5b50919050565b634e487b7160e01b600052601160045260246000fd5b808201808211156103bd576103bd610e41565b83815260406020820152816040820152818360608301376000818301606090810191909152601f909201601f1916010192915050565b818103818111156103bd576103bd610e4156fea2646970667358221220f18c55bd7cd539e28eff2a12d828e59b1f18b074000354b822c34f61ddbbf89a64736f6c63430008140033",
  "linkReferences": {},
  "deployedLinkReferences": {}
}