{
  "_format": "hh-sol-artifact-1",
  "contractName": "TruthDAO",
  "sourceName": "solidity/contracts/TruthDAO.sol",
  "abi": [
    {
      "inputs": [
        {
          "internalType": "address",
          "name": "_gttToken",
          "type": "address"
        }
      ],
      "stateMutability": "nonpayable",
      "type": "constructor"
    },
    {
      "anonymous": false,
      "inputs": [
        {
          "indexed": true,
          "internalType": "uint256",
          "name": "id",
          "type": "uint256"
        },
        {
          "indexed": true,
          "internalType": "address",
          "name": "proposer",
          "type": "address"
        },
        {
          "indexed": false,
          "internalType": "string",
          "name": "title",
          "type": "string"
        },
        {
          "indexed": false,
          "internalType": "string",
          "name": "description",
          "type": "string"
        }
      ],
      "name": "ProposalCreated",
      "type": "event"
    },
    {
      "anonymous": false,
      "inputs": [
        {
          "indexed": true,
          "internalType": "uint256",
          "name": "id",
          "type": "uint256"
        },
        {
          "indexed": false,
          "internalType": "bool",
          "name": "passed",
          "type": "bool"
        }
      ],
      "name": "ProposalExecuted",
      "type": "event"
    },
    {
      "anonymous": false,
      "inputs": [
        {
          "indexed": true,
          "internalType": "uint256",
          "name": "id",
          "type": "uint256"
        },
        {
          "indexed": true,
          "internalType": "address",
          "name": "voter",
          "type": "address"
        },
        {
          "indexed": false,
          "internalType": "bool",
          "name": "support",
          "type": "bool"
        },
        {
          "indexed": false,
          "internalType": "uint256",
          "name": "weight",
          "type": "uint256"
        }
      ],
      "name": "Voted",
      "type": "event"
    },
    {
      "inputs": [
        {
          "internalType": "string",
          "name": "_title",
          "type": "string"
        },
        {
          "internalType": "string",
          "name": "_description",
          "type": "string"
        }
      ],
      "name": "createProposal",
      "outputs": [],
      "stateMutability": "nonpayable",
      "type": "function"
    },
    {
      "inputs": [
        {
          "internalType": "uint256",
          "name": "_id",
          "type": "uint256"
        }
      ],
      "name": "executeProposal",
      "outputs": [],
      "stateMutability": "nonpayable",
      "type": "function"
    },
    {
      "inputs": [
        {
          "internalType": "uint256",
          "name": "_id",
          "type": "uint256"
        }
      ],
      "name": "getProposal",
      "outputs": [
        {
          "internalType": "uint256",
          "name": "id",
          "type": "uint256"
        },
        {
          "internalType": "address",
          "name": "proposer",
          "type": "address"
        },
        {
          "internalType": "string",
          "name": "title",
          "type": "string"
        },
        {
          "internalType": "string",
          "name": "description",
          "type": "string"
        },
        {
          "internalType": "uint256",
          "name": "votesFor",
          "type": "uint256"
        },
        {
          "internalType": "uint256",
          "name": "votesAgainst",
          "type": "uint256"
        },
        {
          "internalType": "uint256",
          "name": "deadline",
          "type": "uint256"
        },
        {
          "internalType": "bool",
          "name": "executed",
          "type": "bool"
        },
        {
          "internalType": "uint256",
          "name": "createdAt",
          "type": "uint256"
        }
      ],
      "stateMutability": "view",
      "type": "function"
    },
    {
      "inputs": [
        {
          "internalType": "uint256",
          "name": "_id",
          "type": "uint256"
        }
      ],
      "name": "getProposalStatus",
      "outputs": [
        {
          "internalType": "bool",
          "name": "active",
          "type": "bool"
        },
        {
          "internalType": "bool",
          "name": "passed",
          "type": "bool"
        },
        {
          "internalType": "uint256",
          "name": "totalVotes",
          "type": "uint256"
        },
        {
          "internalType": "uint256",
          "name": "timeRemaining",
          "type": "uint256"
        }
      ],
      "stateMutability": "view",
      "type": "function"
    },
    {
      "inputs": [
        {
          "internalType": "uint256",
          "name": "_id",
          "type": "uint256"
        },
        {
          "internalType": "address",
          "name": "_user",
          "type": "address"
        }
      ],
      "name": "getUserVoteWeight",
      "outputs": [
        {
          "internalType": "uint256",
          "name": "",
          "type": "uint256"
        }
      ],
      "stateMutability": "view",
      "type": "function"
    },
    {
      "inputs": [],
      "name": "gttToken",
      "outputs": [
        {
          "internalType": "contract IGTTToken",
          "name": "",
          "type": "address"
        }
      ],
      "stateMutability": "view",
      "type": "function"
    },
    {
      "inputs": [
        {
          "internalType": "uint256",
          "name": "_id",
          "type": "uint256"
        },
        {
          "internalType": "address",
          "name": "_user",
          "type": "address"
        }
      ],
      "name": "hasUserVoted",
      "outputs": [
        {
          "internalType": "bool",
          "name": "",
          "type": "bool"
        }
      ],
      "stateMutability": "view",
      "type": "function"
    },
    {
      "inputs": [
        {
          "internalType": "uint256",
          "name": "",
          "type": "uint256"
        },
        {
          "internalType": "address",
          "name": "",
          "type": "address"
        }
      ],
      "name": "hasVoted",
      "outputs": [
        {
          "internalType": "bool",
          "name": "",
          "type": "bool"
        }
      ],
      "stateMutability": "view",
      "type": "function"
    },
    {
      "inputs": [],
      "name": "minProposalBalance",
      "outputs": [
        {
          "internalType": "uint256",
          "name": "",
          "type": "uint256"
        }
      ],
      "stateMutability": "view",
      "type": "function"
    },
    {
      "inputs": [],
      "name": "proposalCount",
      "outputs": [
        {
          "internalType": "uint256",
          "name": "",
          "type": "uint256"
        }
      ],
      "stateMutability": "view",
      "type": "function"
    },
    {
      "inputs": [
        {
          "internalType": "uint256",
          "name": "",
          "type": "uint256"
        }
      ],
      "name": "proposals",
      "outputs": [
        {
          "internalType": "uint256",
          "name": "id",
          "type": "uint256"
        },
        {
          "internalType": "address",
          "name": "proposer",
          "type": "address"
        },
        {
          "internalType": "string",
          "name": "title",
          "type": "string"
        },
        {
          "internalType": "string",
          "name": "description",
          "type": "string"
        },
        {
          "internalType": "uint256",
          "name": "votesFor",
          "type": "uint256"
        },
        {
          "internalType": "uint256",
          "name": "votesAgainst",
          "type": "uint256"
        },
        {
          "internalType": "uint256",
          "name": "deadline",
          "type": "uint256"
        },
        {
          "internalType": "bool",
          "name": "executed",
          "type": "bool"
        },
        {
          "internalType": "uint256",
          "name": "createdAt",
          "type": "uint256"
        }
      ],
      "stateMutability": "view",
      "type": "function"
    },
    {
      "inputs": [
        {
          "internalType": "uint256",
          "name": "_id",
          "type": "uint256"
        },
        {
          "internalType": "bool",
          "name": "_support",
          "type": "bool"
        }
      ],
      "name": "vote",
      "outputs": [],
      "stateMutability": "nonpayable",
      "type": "function"
    },
    {
      "inputs": [
        {
          "internalType": "uint256",
          "name": "",
          "type": "uint256"
        },
        {
          "internalType": "address",
          "name": "",
          "type": "address"
        }
      ],
      "name": "voteWeight",
      "outputs": [
        {
          "internalType": "uint256",
          "name": "",
          "type": "uint256"
        }
      ],
      "stateMutability": "view",
      "type": "function"
    },
    {
      "inputs": [],
      "name": "votingDuration",
      "outputs": [
        {
          "internalType": "uint256",
          "name": "",
          "type": "uint256"
        }
      ],
      "stateMutability": "view",
      "type": "function"
    }
  ],
  "bytecode": "0x60806040526203f480600255683635c9adc5dea0000060035534801561002457600080fd5b506040516111c93803806111c983398101604081905261004391610068565b600080546001600160a01b0319166001600160a01b0392909216919091179055610098565b60006020828403121561007a57600080fd5b81516001600160a01b038116811461009157600080fd5b9392505050565b611122806100a76000396000f3fe608060405234801561001057600080fd5b50600436106100ea5760003560e01c80634dc2deb81161008c578063c9d27afe11610066578063c9d27afe1461024e578063da35c66414610261578063dc296ae11461026a578063f6a825d2146102a357600080fd5b80634dc2deb81461021557806365e481e214610228578063c7f758a81461023b57600080fd5b80631712c524116100c85780631712c5241461014c5780632b0a999d14610177578063401853b7146101a257806343859632146101d757600080fd5b8063013cf08b146100ef5780630d61b51914610120578063132002fc14610135575b600080fd5b6101026100fd366004610ccc565b6102ac565b60405161011799989796959493929190610d2b565b60405180910390f35b61013361012e366004610ccc565b610412565b005b61013e60025481565b604051908152602001610117565b60005461015f906001600160a01b031681565b6040516001600160a01b039091168152602001610117565b61013e610185366004610d9a565b600660209081526000928352604080842090915290825290205481565b6101b56101b0366004610ccc565b61056a565b6040805194151585529215156020850152918301526060820152608001610117565b6102056101e5366004610d9a565b600560209081526000928352604080842090915290825290205460ff1681565b6040519015158152602001610117565b61013e610223366004610d9a565b6105da565b610133610236366004610e79565b610604565b610102610249366004610ccc565b6108b5565b61013361025c366004610edd565b610a5c565b61013e60015481565b610205610278366004610d9a565b60009182526005602090815260408084206001600160a01b0393909316845291905290205460ff1690565b61013e60035481565b60046020526000908152604090208054600182015460028301805492936001600160a01b03909216926102de90610f07565b80601f016020809104026020016040519081016040528092919081815260200182805461030a90610f07565b80156103575780601f1061032c57610100808354040283529160200191610357565b820191906000526020600020905b81548152906001019060200180831161033a57829003601f168201915b50505050509080600301805461036c90610f07565b80601f016020809104026020016040519081016040528092919081815260200182805461039890610f07565b80156103e55780601f106103ba576101008083540402835291602001916103e5565b820191906000526020600020905b8154815290600101906020018083116103c857829003601f168201915b505050506004830154600584015460068501546007860154600890960154949592949193509160ff169089565b6000818152600460205260409020811580159061043157506001548211155b6104785760405162461bcd60e51b8152602060048201526013602482015272125b9d985b1a59081c1c9bdc1bdcd85b081251606a1b60448201526064015b60405180910390fd5b80600601544210156104cc5760405162461bcd60e51b815260206004820152601760248201527f566f74696e6720706572696f64206e6f7420656e646564000000000000000000604482015260640161046f565b600781015460ff16156105145760405162461bcd60e51b815260206004820152601060248201526f105b1c9958591e48195e1958dd5d195960821b604482015260640161046f565b60078101805460ff191660011790556005810154600482015460405191108082529083907f948f4a9cd986f1118c3fbd459f7a22b23c0693e1ca3ef06a6a8be5aa7d39cc039060200160405180910390a2505050565b6000818152600460205260408120600681015482918291829190421080156105975750600781015460ff16155b6005820154600483015491965080821195506105b291610f57565b9250846105c05760006105d0565b4281600601546105d09190610f6a565b9150509193509193565b60008281526006602090815260408083206001600160a01b03851684529091529020545b92915050565b6003546000546040516370a0823160e01b81523360048201526001600160a01b03909116906370a0823190602401602060405180830381865afa15801561064f573d6000803e3d6000fd5b505050506040513d601f19601f820116820180604052508101906106739190610f7d565b10156106c15760405162461bcd60e51b815260206004820152601860248201527f496e73756666696369656e74204754542062616c616e63650000000000000000604482015260640161046f565b600082511161070a5760405162461bcd60e51b81526020600482015260156024820152745469746c652063616e6e6f7420626520656d70747960581b604482015260640161046f565b600081511161075b5760405162461bcd60e51b815260206004820152601b60248201527f4465736372697074696f6e2063616e6e6f7420626520656d7074790000000000604482015260640161046f565b6001805490600061076b83610f96565b91905055506040518061012001604052806001548152602001336001600160a01b031681526020018381526020018281526020016000815260200160008152602001600254426107bb9190610f57565b815260006020808301829052426040938401526001805483526004825291839020845181559084015191810180546001600160a01b0319166001600160a01b03909316929092179091559082015160028201906108189082610ffe565b506060820151600382019061082d9082610ffe565b506080820151600482015560a0820151600582015560c0820151600682015560e082015160078201805460ff1916911515919091179055610100909101516008909101556001546040513391907fe1a39bb955c12c02b24074e4d2e09a80ed84a64ce9b4454b47456e8a26f96e75906108a990869086906110be565b60405180910390a35050565b600080606080600080600080600080600460008c8152602001908152602001600020905080600001548160010160009054906101000a90046001600160a01b031682600201836003018460040154856005015486600601548760070160009054906101000a900460ff16886008015486805461093090610f07565b80601f016020809104026020016040519081016040528092919081815260200182805461095c90610f07565b80156109a95780601f1061097e576101008083540402835291602001916109a9565b820191906000526020600020905b81548152906001019060200180831161098c57829003601f168201915b505050505096508580546109bc90610f07565b80601f01602080910402602001604051908101604052809291908181526020018280546109e890610f07565b8015610a355780601f10610a0a57610100808354040283529160200191610a35565b820191906000526020600020905b815481529060010190602001808311610a1857829003601f168201915b50505050509550995099509950995099509950995099509950509193959799909294969850565b60008281526004602052604090208215801590610a7b57506001548311155b610abd5760405162461bcd60e51b8152602060048201526013602482015272125b9d985b1a59081c1c9bdc1bdcd85b081251606a1b604482015260640161046f565b80600601544210610b065760405162461bcd60e51b8152602060048201526013602482015272159bdd1a5b99c81c195c9a5bd908195b991959606a1b604482015260640161046f565b600083815260056020908152604080832033845290915290205460ff1615610b605760405162461bcd60e51b815260206004820152600d60248201526c105b1c9958591e481d9bdd1959609a1b604482015260640161046f565b600080546040516370a0823160e01b81523360048201526001600160a01b03909116906370a0823190602401602060405180830381865afa158015610ba9573d6000803e3d6000fd5b505050506040513d601f19601f82011682018060405250810190610bcd9190610f7d565b905060008111610c115760405162461bcd60e51b815260206004820152600f60248201526e2737903b37ba34b733903837bbb2b960891b604482015260640161046f565b8215610c365780826004016000828254610c2b9190610f57565b90915550610c509050565b80826005016000828254610c4a9190610f57565b90915550505b600084815260056020908152604080832033808552908352818420805460ff19166001179055878452600683528184208185528352928190208490558051861515815291820184905286917f7c2de587c00d75474a0c6c6fa96fd3b45dc974cd4e8a75f712bb84c950dce1b5910160405180910390a350505050565b600060208284031215610cde57600080fd5b5035919050565b6000815180845260005b81811015610d0b57602081850181015186830182015201610cef565b506000602082860101526020601f19601f83011685010191505092915050565b8981526001600160a01b038916602082015261012060408201819052600090610d568382018b610ce5565b90508281036060840152610d6a818a610ce5565b6080840198909852505060a081019490945260c0840192909252151560e083015261010090910152949350505050565b60008060408385031215610dad57600080fd5b8235915060208301356001600160a01b0381168114610dcb57600080fd5b809150509250929050565b634e487b7160e01b600052604160045260246000fd5b600082601f830112610dfd57600080fd5b813567ffffffffffffffff80821115610e1857610e18610dd6565b604051601f8301601f19908116603f01168101908282118183101715610e4057610e40610dd6565b81604052838152866020858801011115610e5957600080fd5b836020870160208301376000602085830101528094505050505092915050565b60008060408385031215610e8c57600080fd5b823567ffffffffffffffff80821115610ea457600080fd5b610eb086838701610dec565b93506020850135915080821115610ec657600080fd5b50610ed385828601610dec565b9150509250929050565b60008060408385031215610ef057600080fd5b8235915060208301358015158114610dcb57600080fd5b600181811c90821680610f1b57607f821691505b602082108103610f3b57634e487b7160e01b600052602260045260246000fd5b50919050565b634e487b7160e01b600052601160045260246000fd5b808201808211156105fe576105fe610f41565b818103818111156105fe576105fe610f41565b600060208284031215610f8f57600080fd5b5051919050565b600060018201610fa857610fa8610f41565b5060010190565b601f821115610ff957600081815260208120601f850160051c81016020861015610fd65750805b601f850160051c820191505b81811015610ff557828155600101610fe2565b5050505b505050565b815167ffffffffffffffff81111561101857611018610dd6565b61102c816110268454610f07565b84610faf565b602080601f83116001811461106157600084156110495750858301515b600019600386901b1c1916600185901b178555610ff5565b600085815260208120601f198616915b8281101561109057888601518255948401946001909101908401611071565b50858210156110ae5787850151600019600388901b60f8161c191681555b5050505050600190811b01905550565b6040815260006110d16040830185610ce5565b82810360208401526110e38185610ce5565b9594505050505056fea26469706673582212202f1e2ec6fc50532bfe9bcdd5edfae0f1d8dad58b623b25a29e71105b6bca745564736f6c63430008140033",
  "linkReferences": {},
  "deployedLinkReferences": {}
}