{
  "_format": "hh-sol-artifact-1",
  "contractName": "BillingOracle",
  "sourceName": "solidity/contracts/BillingOracle.sol",
  "abi": [
    {
      "inputs": [
        {
          "internalType": "address",
          "name": "_treasuryDAO",
          "type": "address"
        }
      ],
      "stateMutability": "nonpayable",
      "type": "constructor"
    },
    {
      "anonymous": false,
      "inputs": [
        {
          "indexed": true,
          "internalType": "address",
          "name": "user",
          "type": "address"
        },
        {
          "indexed": false,
          "internalType": "uint256",
          "name": "amount",
          "type": "uint256"
        },
        {
          "indexed": false,
          "internalType": "string",
          "name": "reason",
          "type": "string"
        },
        {
          "indexed": false,
          "internalType": "uint256",
          "name": "timestamp",
          "type": "uint256"
        }
      ],
      "name": "CreditAdded",
      "type": "event"
    },
    {
      "anonymous": false,
      "inputs": [
        {
          "indexed": false,
          "internalType": "uint256",
          "name": "timestamp",
          "type": "uint256"
        }
      ],
      "name": "EmergencyPause",
      "type": "event"
    },
    {
      "anonymous": false,
      "inputs": [
        {
          "indexed": false,
          "internalType": "uint256",
          "name": "timestamp",
          "type": "uint256"
        }
      ],
      "name": "EmergencyUnpause",
      "type": "event"
    },
    {
      "anonymous": false,
      "inputs": [
        {
          "indexed": true,
          "internalType": "address",
          "name": "previousOwner",
          "type": "address"
        },
        {
          "indexed": true,
          "internalType": "address",
          "name": "newOwner",
          "type": "address"
        }
      ],
      "name": "OwnershipTransferred",
      "type": "event"
    },
    {
      "anonymous": false,
      "inputs": [
        {
          "indexed": true,
          "internalType": "address",
          "name": "previousDAO",
          "type": "address"
        },
        {
          "indexed": true,
          "internalType": "address",
          "name": "newDAO",
          "type": "address"
        }
      ],
      "name": "TreasuryDAOUpdated",
      "type": "event"
    },
    {
      "anonymous": false,
      "inputs": [
        {
          "indexed": true,
          "internalType": "address",
          "name": "vendor",
          "type": "address"
        },
        {
          "indexed": false,
          "internalType": "uint256",
          "name": "timestamp",
          "type": "uint256"
        }
      ],
      "name": "VendorAuthorized",
      "type": "event"
    },
    {
      "anonymous": false,
      "inputs": [
        {
          "indexed": true,
          "internalType": "address",
          "name": "vendor",
          "type": "address"
        },
        {
          "indexed": false,
          "internalType": "uint256",
          "name": "timestamp",
          "type": "uint256"
        }
      ],
      "name": "VendorDeauthorized",
      "type": "event"
    },
    {
      "anonymous": false,
      "inputs": [
        {
          "indexed": true,
          "internalType": "address",
          "name": "vendor",
          "type": "address"
        },
        {
          "indexed": false,
          "internalType": "uint256",
          "name": "amount",
          "type": "uint256"
        },
        {
          "indexed": false,
          "internalType": "string",
          "name": "invoiceId",
          "type": "string"
        },
        {
          "indexed": false,
          "internalType": "uint256",
          "name": "timestamp",
          "type": "uint256"
        }
      ],
      "name": "VendorPaid",
      "type": "event"
    },
    {
      "stateMutability": "payable",
      "type": "fallback"
    },
    {
      "inputs": [
        {
          "internalType": "address",
          "name": "user",
          "type": "address"
        },
        {
          "internalType": "uint256",
          "name": "amount",
          "type": "uint256"
        },
        {
          "internalType": "string",
          "name": "reason",
          "type": "string"
        }
      ],
      "name": "addCredit",
      "outputs": [],
      "stateMutability": "nonpayable",
      "type": "function"
    },
    {
      "inputs": [
        {
          "internalType": "address",
          "name": "vendor",
          "type": "address"
        }
      ],
      "name": "authorizeVendor",
      "outputs": [],
      "stateMutability": "nonpayable",
      "type": "function"
    },
    {
      "inputs": [
        {
          "internalType": "address",
          "name": "",
          "type": "address"
        }
      ],
      "name": "authorizedVendors",
      "outputs": [
        {
          "internalType": "bool",
          "name": "",
          "type": "bool"
        }
      ],
      "stateMutability": "view",
      "type": "function"
    },
    {
      "inputs": [
        {
          "internalType": "address",
          "name": "vendor",
          "type": "address"
        }
      ],
      "name": "deauthorizeVendor",
      "outputs": [],
      "stateMutability": "nonpayable",
      "type": "function"
    },
    {
      "inputs": [],
      "name": "getFinancialSummary",
      "outputs": [
        {
          "internalType": "uint256",
          "name": "contractBalance",
          "type": "uint256"
        },
        {
          "internalType": "uint256",
          "name": "totalCredits",
          "type": "uint256"
        },
        {
          "internalType": "uint256",
          "name": "totalPayouts",
          "type": "uint256"
        },
        {
          "internalType": "uint256",
          "name": "transactionCount",
          "type": "uint256"
        }
      ],
      "stateMutability": "view",
      "type": "function"
    },
    {
      "inputs": [
        {
          "internalType": "uint256",
          "name": "index",
          "type": "uint256"
        }
      ],
      "name": "getTransaction",
      "outputs": [
        {
          "components": [
            {
              "internalType": "address",
              "name": "recipient",
              "type": "address"
            },
            {
              "internalType": "uint256",
              "name": "amount",
              "type": "uint256"
            },
            {
              "internalType": "uint256",
              "name": "timestamp",
              "type": "uint256"
            },
            {
              "internalType": "string",
              "name": "invoiceId",
              "type": "string"
            },
            {
              "internalType": "string",
              "name": "purpose",
              "type": "string"
            }
          ],
          "internalType": "struct BillingOracle.Transaction",
          "name": "",
          "type": "tuple"
        }
      ],
      "stateMutability": "view",
      "type": "function"
    },
    {
      "inputs": [],
      "name": "getTransactionCount",
      "outputs": [
        {
          "internalType": "uint256",
          "name": "",
          "type": "uint256"
        }
      ],
      "stateMutability": "view",
      "type": "function"
    },
    {
      "inputs": [
        {
          "internalType": "string",
          "name": "invoiceId",
          "type": "string"
        }
      ],
      "name": "isInvoiceProcessed",
      "outputs": [
        {
          "internalType": "bool",
          "name": "",
          "type": "bool"
        }
      ],
      "stateMutability": "view",
      "type": "function"
    },
    {
      "inputs": [],
      "name": "owner",
      "outputs": [
        {
          "internalType": "address",
          "name": "",
          "type": "address"
        }
      ],
      "stateMutability": "view",
      "type": "function"
    },
    {
      "inputs": [],
      "name": "pause",
      "outputs": [],
      "stateMutability": "nonpayable",
      "type": "function"
    },
    {
      "inputs": [],
      "name": "paused",
      "outputs": [
        {
          "internalType": "bool",
          "name": "",
          "type": "bool"
        }
      ],
      "stateMutability": "view",
      "type": "function"
    },
    {
      "inputs": [
        {
          "internalType": "address",
          "name": "vendor",
          "type": "address"
        },
        {
          "internalType": "uint256",
          "name": "amount",
          "type": "uint256"
        },
        {
          "internalType": "string",
          "name": "invoiceId",
          "type": "string"
        },
        {
          "internalType": "string",
          "name": "purpose",
          "type": "string"
        }
      ],
      "name": "payVendor",
      "outputs": [],
      "stateMutability": "nonpayable",
      "type": "function"
    },
    {
      "inputs": [
        {
          "internalType": "bytes32",
          "name": "",
          "type": "bytes32"
        }
      ],
      "name": "processedInvoices",
      "outputs": [
        {
          "internalType": "bool",
          "name": "",
          "type": "bool"
        }
      ],
      "stateMutability": "view",
      "type": "function"
    },
    {
      "inputs": [],
      "name": "totalCreditsIssued",
      "outputs": [
        {
          "internalType": "uint256",
          "name": "",
          "type": "uint256"
        }
      ],
      "stateMutability": "view",
      "type": "function"
    },
    {
      "inputs": [],
      "name": "totalVendorPayouts",
      "outputs": [
        {
          "internalType": "uint256",
          "name": "",
          "type": "uint256"
        }
      ],
      "stateMutability": "view",
      "type": "function"
    },
    {
      "inputs": [
        {
          "internalType": "uint256",
          "name": "",
          "type": "uint256"
        }
      ],
      "name": "transactionHistory",
      "outputs": [
        {
          "internalType": "address",
          "name": "recipient",
          "type": "address"
        },
        {
          "internalType": "uint256",
          "name": "amount",
          "type": "uint256"
        },
        {
          "internalType": "uint256",
          "name": "timestamp",
          "type": "uint256"
        },
        {
          "internalType": "string",
          "name": "invoiceId",
          "type": "string"
        },
        {
          "internalType": "string",
          "name": "purpose",
          "type": "string"
        }
      ],
      "stateMutability": "view",
      "type": "function"
    },
    {
      "inputs": [
        {
          "internalType": "address",
          "name": "newOwner",
          "type": "address"
        }
      ],
      "name": "transferOwnership",
      "outputs": [],
      "stateMutability": "nonpayable",
      "type": "function"
    },
    {
      "inputs": [],
      "name": "treasuryDAO",
      "outputs": [
        {
          "internalType": "address",
          "name": "",
          "type": "address"
        }
      ],
      "stateMutability": "view",
      "type": "function"
    },
    {
      "inputs": [],
      "name": "unpause",
      "outputs": [],
      "stateMutability": "nonpayable",
      "type": "function"
    },
    {
      "inputs": [
        {
          "internalType": "address",
          "name": "newDAO",
          "type": "address"
        }
      ],
      "name": "updateTreasuryDAO",
      "outputs": [],
      "stateMutability": "nonpayable",
      "type": "function"
    },
    {
      "inputs": [
        {
          "internalType": "address",
          "name": "",
          "type": "address"
        }
      ],
      "name": "userCredits",
      "outputs": [
        {
          "internalType": "uint256",
          "name": "",
          "type": "uint256"
        }
      ],
      "stateMutability": "view",
      "type": "function"
    },
    {
      "inputs": [
        {
          "internalType": "address",
          "name": "",
          "type": "address"
        }
      ],
      "name": "vendorBalances",
      "outputs": [
        {
          "internalType": "uint256",
          "name": "",
          "type": "uint256"
        }
      ],
      "stateMutability": "view",
      "type": "function"
    },
    {
      "inputs": [
        {
          "internalType": "address",
          "name": "",
          "type": "address"
        }
      ],
      "name": "vendorLifetimePayouts",
      "outputs": [
        {
          "internalType": "uint256",
          "name": "",
          "type": "uint256"
        }
      ],
      "stateMutability": "view",
      "type": "function"
    },
    {
      "stateMutability": "payable",
      "type": "receive"
    }
  ],
  "bytecode": "0x6080604052600a805460ff1916905534801561001a57600080fd5b50604051611ca7380380611ca7833981016040819052610039916100ca565b60008054336001600160a01b031991821681178355600180549092166001600160a01b038516179091556040519091907f8be0079c531659141344cd1fd0a4f28419497f9722a3daafe3b4186f6b6457e0908290a36040516001600160a01b038216906000907fb9d3426b219bf121a9e997936f14a5b22212bc25cfbf707f38abc94314a503ae908290a3506100fa565b6000602082840312156100dc57600080fd5b81516001600160a01b03811681146100f357600080fd5b9392505050565b611b9e806101096000396000f3fe6080604052600436106101445760003560e01c806385980dd8116100b6578063caca97e51161006f578063caca97e514610433578063d9bff4cc14610453578063e7a482cf14610473578063f2fde38b146104a0578063f4d611bf146104c0578063f7793862146104d65761014b565b806385980dd8146103315780638da5cb5b146103515780639837f0df14610389578063a76f7561146103c6578063ad18e97e146103f3578063ba21d0f8146104135761014b565b806333ea3dc81161010857806333ea3dc8146102605780633f4ba83a1461028d5780634ff0c087146102a25780635c975abb146102e257806367ac80fa146102fc5780638456cb591461031c5761014b565b80632008d7a0146101a257806320babb92146101cb578063243e7a87146101f85780632ad2f4db146102295780632e7700f01461024b5761014b565b3661014b57005b60405162461bcd60e51b815260206004820152602160248201527f42696c6c696e674f7261636c653a2046756e6374696f6e206e6f7420666f756e6044820152601960fa1b60648201526084015b60405180910390fd5b3480156101ae57600080fd5b506101b860025481565b6040519081526020015b60405180910390f35b3480156101d757600080fd5b506101b86101e6366004611563565b60056020526000908152604090205481565b34801561020457600080fd5b50610218610213366004611585565b610506565b6040516101c29594939291906115ee565b34801561023557600080fd5b50610249610244366004611563565b610666565b005b34801561025757600080fd5b506009546101b8565b34801561026c57600080fd5b5061028061027b366004611585565b610725565b6040516101c29190611639565b34801561029957600080fd5b50610249610962565b3480156102ae57600080fd5b506102d26102bd366004611585565b60086020526000908152604090205460ff1681565b60405190151581526020016101c2565b3480156102ee57600080fd5b50600a546102d29060ff1681565b34801561030857600080fd5b506102d2610317366004611744565b6109cc565b34801561032857600080fd5b50610249610a0f565b34801561033d57600080fd5b5061024961034c366004611563565b610a78565b34801561035d57600080fd5b50600054610371906001600160a01b031681565b6040516001600160a01b0390911681526020016101c2565b34801561039557600080fd5b506103a66002546003546009544793565b6040805194855260208501939093529183015260608201526080016101c2565b3480156103d257600080fd5b506101b86103e1366004611563565b60046020526000908152604090205481565b3480156103ff57600080fd5b50600154610371906001600160a01b031681565b34801561041f57600080fd5b5061024961042e366004611781565b610b60565b34801561043f57600080fd5b5061024961044e366004611563565b610e27565b34801561045f57600080fd5b5061024961046e3660046117d8565b610f46565b34801561047f57600080fd5b506101b861048e366004611563565b60076020526000908152604090205481565b3480156104ac57600080fd5b506102496104bb366004611563565b6113ee565b3480156104cc57600080fd5b506101b860035481565b3480156104e257600080fd5b506102d26104f1366004611563565b60066020526000908152604090205460ff1681565b6009818154811061051657600080fd5b600091825260209091206005909102018054600182015460028301546003840180546001600160a01b0390941695509193909290919061055590611856565b80601f016020809104026020016040519081016040528092919081815260200182805461058190611856565b80156105ce5780601f106105a3576101008083540402835291602001916105ce565b820191906000526020600020905b8154815290600101906020018083116105b157829003601f168201915b5050505050908060040180546105e390611856565b80601f016020809104026020016040519081016040528092919081815260200182805461060f90611856565b801561065c5780601f106106315761010080835404028352916020019161065c565b820191906000526020600020905b81548152906001019060200180831161063f57829003601f168201915b5050505050905085565b6000546001600160a01b031633146106905760405162461bcd60e51b815260040161019990611890565b6001600160a01b03811660009081526006602052604090205460ff166106c85760405162461bcd60e51b8152600401610199906118c7565b6001600160a01b03811660008181526006602052604090819020805460ff19169055517fdec59bc32e506480a247493e9839b548acfcc446289183799311ec3b6f2d83579061071a9042815260200190565b60405180910390a250565b6107606040518060a0016040528060006001600160a01b03168152602001600081526020016000815260200160608152602001606081525090565b60095482106107c85760405162461bcd60e51b815260206004820152602e60248201527f42696c6c696e674f7261636c653a205472616e73616374696f6e20696e64657860448201526d206f7574206f6620626f756e647360901b6064820152608401610199565b600982815481106107db576107db61190b565b90600052602060002090600502016040518060a00160405290816000820160009054906101000a90046001600160a01b03166001600160a01b03166001600160a01b03168152602001600182015481526020016002820154815260200160038201805461084790611856565b80601f016020809104026020016040519081016040528092919081815260200182805461087390611856565b80156108c05780601f10610895576101008083540402835291602001916108c0565b820191906000526020600020905b8154815290600101906020018083116108a357829003601f168201915b505050505081526020016004820180546108d990611856565b80601f016020809104026020016040519081016040528092919081815260200182805461090590611856565b80156109525780601f1061092757610100808354040283529160200191610952565b820191906000526020600020905b81548152906001019060200180831161093557829003601f168201915b5050505050815250509050919050565b6000546001600160a01b0316331461098c5760405162461bcd60e51b815260040161019990611890565b600a805460ff191690556040514281527f1e7a8ac67210be5d6edb8a93048473305f40bd55241b6a205517452213cdb06f906020015b60405180910390a1565b600080826040516020016109e09190611921565b60408051601f1981840301815291815281516020928301206000908152600890925290205460ff169392505050565b6000546001600160a01b03163314610a395760405162461bcd60e51b815260040161019990611890565b600a805460ff191660011790556040517f587f3b25da67017c0da715067ea23a00ce02a7692dde05787d04b933a0688198906109c29042815260200190565b6000546001600160a01b03163314610aa25760405162461bcd60e51b815260040161019990611890565b6001600160a01b038116610b0e5760405162461bcd60e51b815260206004820152602d60248201527f42696c6c696e674f7261636c653a204e65772044414f2063616e6e6f7420626560448201526c207a65726f206164647265737360981b6064820152608401610199565b600180546001600160a01b038381166001600160a01b0319831681179093556040519116919082907fb9d3426b219bf121a9e997936f14a5b22212bc25cfbf707f38abc94314a503ae90600090a35050565b6000546001600160a01b0316331480610b8357506001546001600160a01b031633145b610bcf5760405162461bcd60e51b815260206004820181905260248201527f42696c6c696e674f7261636c653a204f6e6c79206f776e6572206f722044414f6044820152606401610199565b600a5460ff1615610bf25760405162461bcd60e51b81526004016101999061193d565b6001600160a01b038316610c545760405162461bcd60e51b815260206004820152602360248201527f42696c6c696e674f7261636c653a20496e76616c69642075736572206164647260448201526265737360e81b6064820152608401610199565b60008211610c745760405162461bcd60e51b81526004016101999061197e565b6001600160a01b03831660009081526005602052604081208054849290610c9c9084906119c4565b925050819055508160026000828254610cb591906119c4565b90915550506040805160a0810182526001600160a01b03858116825260208083018681524284860190815285519283019095526000808352606085019283526080850187905260098054600181018255915284517f6e1540171b6c0c960b71a7020d9f60077f6af931a8bbf590da0223dacf75c7af600590920291820180546001600160a01b0319169190951617845590517f6e1540171b6c0c960b71a7020d9f60077f6af931a8bbf590da0223dacf75c7b082015593517f6e1540171b6c0c960b71a7020d9f60077f6af931a8bbf590da0223dacf75c7b185015551919290917f6e1540171b6c0c960b71a7020d9f60077f6af931a8bbf590da0223dacf75c7b290910190610dc59082611a3a565b5060808201516004820190610dda9082611a3a565b505050826001600160a01b03167f977eaf4f7e517434fb974c44ebb7e7598fdc0fab3b8225704ca4b4c8047d682c838342604051610e1a93929190611afa565b60405180910390a2505050565b6000546001600160a01b03163314610e515760405162461bcd60e51b815260040161019990611890565b6001600160a01b038116610e775760405162461bcd60e51b815260040161019990611b23565b6001600160a01b03811660009081526006602052604090205460ff1615610ef15760405162461bcd60e51b815260206004820152602860248201527f42696c6c696e674f7261636c653a2056656e646f7220616c72656164792061756044820152671d1a1bdc9a5e995960c21b6064820152608401610199565b6001600160a01b03811660008181526006602052604090819020805460ff19166001179055517f84dbd802ca32bedb482b945451b603ece833e769d87b7e7c5d6ab5960abaef869061071a9042815260200190565b6000546001600160a01b0316331480610f6957506001546001600160a01b031633145b610fb55760405162461bcd60e51b815260206004820181905260248201527f42696c6c696e674f7261636c653a204f6e6c79206f776e6572206f722044414f6044820152606401610199565b600a5460ff1615610fd85760405162461bcd60e51b81526004016101999061193d565b6001600160a01b038416600090815260066020526040902054849060ff166110125760405162461bcd60e51b8152600401610199906118c7565b6001600160a01b0385166110385760405162461bcd60e51b815260040161019990611b23565b600084116110585760405162461bcd60e51b81526004016101999061197e565b834710156110bd5760405162461bcd60e51b815260206004820152602c60248201527f42696c6c696e674f7261636c653a20496e73756666696369656e7420636f6e7460448201526b726163742062616c616e636560a01b6064820152608401610199565b6000836040516020016110d09190611921565b60408051601f1981840301815291815281516020928301206000818152600890935291205490915060ff16156111595760405162461bcd60e51b815260206004820152602860248201527f42696c6c696e674f7261636c653a20496e766f69636520616c726561647920706044820152671c9bd8d95cdcd95960c21b6064820152608401610199565b6000818152600860209081526040808320805460ff191660011790556001600160a01b03891683526004909152812080548792906111989084906119c4565b90915550506001600160a01b038616600090815260076020526040812080548792906111c59084906119c4565b9250508190555084600360008282546111de91906119c4565b90915550506040805160a0810182526001600160a01b038881168252602082018881524293830193845260608301888152608084018890526009805460018101825560009190915284517f6e1540171b6c0c960b71a7020d9f60077f6af931a8bbf590da0223dacf75c7af600590920291820180546001600160a01b0319169190951617845591517f6e1540171b6c0c960b71a7020d9f60077f6af931a8bbf590da0223dacf75c7b083015593517f6e1540171b6c0c960b71a7020d9f60077f6af931a8bbf590da0223dacf75c7b18201559251919290917f6e1540171b6c0c960b71a7020d9f60077f6af931a8bbf590da0223dacf75c7b2909101906112e59082611a3a565b50608082015160048201906112fa9082611a3a565b5050506000866001600160a01b03168660405160006040518083038185875af1925050503d806000811461134a576040519150601f19603f3d011682016040523d82523d6000602084013e61134f565b606091505b50509050806113a05760405162461bcd60e51b815260206004820152601d60248201527f42696c6c696e674f7261636c653a205061796d656e74206661696c65640000006044820152606401610199565b866001600160a01b03167f372acf7637cc7976d34d0a63b3b6549a5397c4167170635ec95dd210388992298787426040516113dd93929190611afa565b60405180910390a250505050505050565b6000546001600160a01b031633146114185760405162461bcd60e51b815260040161019990611890565b6001600160a01b0381166114865760405162461bcd60e51b815260206004820152602f60248201527f42696c6c696e674f7261636c653a204e6577206f776e65722063616e6e6f742060448201526e6265207a65726f206164647265737360881b6064820152608401610199565b6000546001600160a01b03908116908216036114f75760405162461bcd60e51b815260206004820152602a60248201527f42696c6c696e674f7261636c653a204e6577206f776e6572206d75737420626560448201526908191a5999995c995b9d60b21b6064820152608401610199565b600080546001600160a01b038381166001600160a01b0319831681178455604051919092169283917f8be0079c531659141344cd1fd0a4f28419497f9722a3daafe3b4186f6b6457e09190a35050565b80356001600160a01b038116811461155e57600080fd5b919050565b60006020828403121561157557600080fd5b61157e82611547565b9392505050565b60006020828403121561159757600080fd5b5035919050565b60005b838110156115b95781810151838201526020016115a1565b50506000910152565b600081518084526115da81602086016020860161159e565b601f01601f19169290920160200192915050565b60018060a01b038616815284602082015283604082015260a06060820152600061161b60a08301856115c2565b828103608084015261162d81856115c2565b98975050505050505050565b6020815260018060a01b03825116602082015260208201516040820152604082015160608201526000606083015160a0608084015261167b60c08401826115c2565b90506080840151601f198483030160a085015261169882826115c2565b95945050505050565b634e487b7160e01b600052604160045260246000fd5b600082601f8301126116c857600080fd5b813567ffffffffffffffff808211156116e3576116e36116a1565b604051601f8301601f19908116603f0116810190828211818310171561170b5761170b6116a1565b8160405283815286602085880101111561172457600080fd5b836020870160208301376000602085830101528094505050505092915050565b60006020828403121561175657600080fd5b813567ffffffffffffffff81111561176d57600080fd5b611779848285016116b7565b949350505050565b60008060006060848603121561179657600080fd5b61179f84611547565b925060208401359150604084013567ffffffffffffffff8111156117c257600080fd5b6117ce868287016116b7565b9150509250925092565b600080600080608085870312156117ee57600080fd5b6117f785611547565b935060208501359250604085013567ffffffffffffffff8082111561181b57600080fd5b611827888389016116b7565b9350606087013591508082111561183d57600080fd5b5061184a878288016116b7565b91505092959194509250565b600181811c9082168061186a57607f821691505b60208210810361188a57634e487b7160e01b600052602260045260246000fd5b50919050565b60208082526019908201527f42696c6c696e674f7261636c653a204f6e6c79206f776e657200000000000000604082015260600190565b60208082526024908201527f42696c6c696e674f7261636c653a2056656e646f72206e6f7420617574686f726040820152631a5e995960e21b606082015260800190565b634e487b7160e01b600052603260045260246000fd5b6000825161193381846020870161159e565b9190910192915050565b60208082526021908201527f42696c6c696e674f7261636c653a20436f6e74726163742069732070617573656040820152601960fa1b606082015260800190565b60208082526026908201527f42696c6c696e674f7261636c653a20416d6f756e74206d75737420626520706f60408201526573697469766560d01b606082015260800190565b808201808211156119e557634e487b7160e01b600052601160045260246000fd5b92915050565b601f821115611a3557600081815260208120601f850160051c81016020861015611a125750805b601f850160051c820191505b81811015611a3157828155600101611a1e565b5050505b505050565b815167ffffffffffffffff811115611a5457611a546116a1565b611a6881611a628454611856565b846119eb565b602080601f831160018114611a9d5760008415611a855750858301515b600019600386901b1c1916600185901b178555611a31565b600085815260208120601f198616915b82811015611acc57888601518255948401946001909101908401611aad565b5085821015611aea5787850151600019600388901b60f8161c191681555b5050505050600190811b01905550565b838152606060208201526000611b1360608301856115c2565b9050826040830152949350505050565b60208082526025908201527f42696c6c696e674f7261636c653a20496e76616c69642076656e646f72206164604082015264647265737360d81b60608201526080019056fea2646970667358221220d3541ee58a7ff3cf83ecdd9d11b0a404f4bc2b59b97c554823120657afaa337b64736f6c63430008140033",
  "linkReferences": {},
  "deployedLinkReferences": {}
}