{
  "_format": "hh-sol-artifact-1",
  "contractName": "FeeManager",
  "sourceName": "solidity/contracts/FeeManager.sol",
  "abi": [
    {
      "inputs": [
        {
          "internalType": "address",
          "name": "_gtt",
          "type": "address"
        },
        {
          "internalType": "address",
          "name": "_treasury",
          "type": "address"
        }
      ],
      "stateMutability": "nonpayable",
      "type": "constructor"
    },
    {
      "anonymous": false,
      "inputs": [
        {
          "indexed": true,
          "internalType": "address",
          "name": "user",
          "type": "address"
        },
        {
          "indexed": true,
          "internalType": "string",
          "name": "action",
          "type": "string"
        },
        {
          "indexed": false,
          "internalType": "uint256",
          "name": "amount",
          "type": "uint256"
        }
      ],
      "name": "FeePaid",
      "type": "event"
    },
    {
      "anonymous": false,
      "inputs": [
        {
          "indexed": true,
          "internalType": "string",
          "name": "action",
          "type": "string"
        },
        {
          "indexed": false,
          "internalType": "uint256",
          "name": "oldAmount",
          "type": "uint256"
        },
        {
          "indexed": false,
          "internalType": "uint256",
          "name": "newAmount",
          "type": "uint256"
        }
      ],
      "name": "FeeUpdated",
      "type": "event"
    },
    {
      "anonymous": false,
      "inputs": [
        {
          "indexed": true,
          "internalType": "address",
          "name": "oldTreasury",
          "type": "address"
        },
        {
          "indexed": true,
          "internalType": "address",
          "name": "newTreasury",
          "type": "address"
        }
      ],
      "name": "TreasuryUpdated",
      "type": "event"
    },
    {
      "inputs": [],
      "name": "getAllFees",
      "outputs": [
        {
          "internalType": "uint256",
          "name": "",
          "type": "uint256"
        },
        {
          "internalType": "uint256",
          "name": "",
          "type": "uint256"
        },
        {
          "internalType": "uint256",
          "name": "",
          "type": "uint256"
        },
        {
          "internalType": "uint256",
          "name": "",
          "type": "uint256"
        }
      ],
      "stateMutability": "view",
      "type": "function"
    },
    {
      "inputs": [
        {
          "internalType": "string",
          "name": "action",
          "type": "string"
        }
      ],
      "name": "getFee",
      "outputs": [
        {
          "internalType": "uint256",
          "name": "",
          "type": "uint256"
        }
      ],
      "stateMutability": "view",
      "type": "function"
    },
    {
      "inputs": [
        {
          "internalType": "string",
          "name": "action",
          "type": "string"
        }
      ],
      "name": "getTotalFeesCollected",
      "outputs": [
        {
          "internalType": "uint256",
          "name": "",
          "type": "uint256"
        }
      ],
      "stateMutability": "view",
      "type": "function"
    },
    {
      "inputs": [
        {
          "internalType": "address",
          "name": "user",
          "type": "address"
        },
        {
          "internalType": "string",
          "name": "action",
          "type": "string"
        }
      ],
      "name": "getUserFeePaid",
      "outputs": [
        {
          "internalType": "uint256",
          "name": "",
          "type": "uint256"
        }
      ],
      "stateMutability": "view",
      "type": "function"
    },
    {
      "inputs": [
        {
          "internalType": "address",
          "name": "user",
          "type": "address"
        }
      ],
      "name": "getUserTotalFeePaid",
      "outputs": [
        {
          "internalType": "uint256",
          "name": "",
          "type": "uint256"
        }
      ],
      "stateMutability": "view",
      "type": "function"
    },
    {
      "inputs": [],
      "name": "gtt",
      "outputs": [
        {
          "internalType": "contract IGTT",
          "name": "",
          "type": "address"
        }
      ],
      "stateMutability": "view",
      "type": "function"
    },
    {
      "inputs": [],
      "name": "mintFee",
      "outputs": [
        {
          "internalType": "uint256",
          "name": "",
          "type": "uint256"
        }
      ],
      "stateMutability": "view",
      "type": "function"
    },
    {
      "inputs": [],
      "name": "owner",
      "outputs": [
        {
          "internalType": "address",
          "name": "",
          "type": "address"
        }
      ],
      "stateMutability": "view",
      "type": "function"
    },
    {
      "inputs": [
        {
          "internalType": "string",
          "name": "action",
          "type": "string"
        }
      ],
      "name": "payFee",
      "outputs": [],
      "stateMutability": "nonpayable",
      "type": "function"
    },
    {
      "inputs": [],
      "name": "proposalFee",
      "outputs": [
        {
          "internalType": "uint256",
          "name": "",
          "type": "uint256"
        }
      ],
      "stateMutability": "view",
      "type": "function"
    },
    {
      "inputs": [],
      "name": "sealFee",
      "outputs": [
        {
          "internalType": "uint256",
          "name": "",
          "type": "uint256"
        }
      ],
      "stateMutability": "view",
      "type": "function"
    },
    {
      "inputs": [
        {
          "internalType": "string",
          "name": "action",
          "type": "string"
        },
        {
          "internalType": "uint256",
          "name": "amount",
          "type": "uint256"
        }
      ],
      "name": "setFee",
      "outputs": [],
      "stateMutability": "nonpayable",
      "type": "function"
    },
    {
      "inputs": [
        {
          "internalType": "string",
          "name": "",
          "type": "string"
        }
      ],
      "name": "totalFeesCollected",
      "outputs": [
        {
          "internalType": "uint256",
          "name": "",
          "type": "uint256"
        }
      ],
      "stateMutability": "view",
      "type": "function"
    },
    {
      "inputs": [
        {
          "internalType": "address",
          "name": "newOwner",
          "type": "address"
        }
      ],
      "name": "transferOwnership",
      "outputs": [],
      "stateMutability": "nonpayable",
      "type": "function"
    },
    {
      "inputs": [],
      "name": "treasury",
      "outputs": [
        {
          "internalType": "address",
          "name": "",
          "type": "address"
        }
      ],
      "stateMutability": "view",
      "type": "function"
    },
    {
      "inputs": [
        {
          "internalType": "address",
          "name": "newTreasury",
          "type": "address"
        }
      ],
      "name": "updateTreasury",
      "outputs": [],
      "stateMutability": "nonpayable",
      "type": "function"
    },
    {
      "inputs": [
        {
          "internalType": "address",
          "name": "",
          "type": "address"
        },
        {
          "internalType": "string",
          "name": "",
          "type": "string"
        }
      ],
      "name": "userFeePaid",
      "outputs": [
        {
          "internalType": "uint256",
          "name": "",
          "type": "uint256"
        }
      ],
      "stateMutability": "view",
      "type": "function"
    },
    {
      "inputs": [
        {
          "internalType": "address",
          "name": "",
          "type": "address"
        }
      ],
      "name": "userTotalFeePaid",
      "outputs": [
        {
          "internalType": "uint256",
          "name": "",
          "type": "uint256"
        }
      ],
      "stateMutability": "view",
      "type": "function"
    },
    {
      "inputs": [],
      "name": "verificationFee",
      "outputs": [
        {
          "internalType": "uint256",
          "name": "",
          "type": "uint256"
        }
      ],
      "stateMutability": "view",
      "type": "function"
    }
  ],
  "bytecode": "0x60806040526802b5e3af16b188000060035568056bc75e2d63100000600455681b1ae4d6e2ef50000060055568015af1d78b58c4000060065534801561004457600080fd5b50604051610d9d380380610d9d833981016040819052610063916100bb565b600280546001600160a01b03199081163317909155600180546001600160a01b03948516908316179055600080549290931691161790556100ee565b80516001600160a01b03811681146100b657600080fd5b919050565b600080604083850312156100ce57600080fd5b6100d78361009f565b91506100e56020840161009f565b90509250929050565b610ca0806100fd6000396000f3fe608060405234801561001057600080fd5b50600436106101215760003560e01c8063a8c278a2116100ad578063cafe0e9011610071578063cafe0e90146102bc578063ed1eee68146102cf578063f2fde38b146102e2578063f84acddb146102f5578063fd41267f1461030857600080fd5b8063a8c278a214610258578063a958ab4114610261578063b20feaaf14610274578063b23bf443146102a0578063c27cabb5146102b357600080fd5b806361d027b3116100f457806361d027b3146101c95780637a52c1a1146101dc5780637f51bb1f146102075780638da5cb5b1461021c5780639934675b1461022f57600080fd5b806313966db514610126578063389f40f41461014257806341befc24146101625780635c6afd001461019e575b600080fd5b61012f60035481565b6040519081526020015b60405180910390f35b61012f610150366004610a22565b60096020526000908152604090205481565b61012f610170366004610ae7565b6008602090815260009283526040909220815180830184018051928152908401929093019190912091525481565b6001546101b1906001600160a01b031681565b6040516001600160a01b039091168152602001610139565b6000546101b1906001600160a01b031681565b61012f6101ea366004610b35565b805160208183018101805160078252928201919093012091525481565b61021a610215366004610a22565b610311565b005b6002546101b1906001600160a01b031681565b61012f61023d366004610a22565b6001600160a01b031660009081526009602052604090205490565b61012f60065481565b61012f61026f366004610b35565b6103ea565b600354600454600554600654604080519485526020850193909352918301526060820152608001610139565b61021a6102ae366004610b35565b610412565b61012f60055481565b61021a6102ca366004610b72565b6106c5565b61012f6102dd366004610b35565b610857565b61021a6102f0366004610a22565b61092e565b61012f610303366004610ae7565b6109c8565b61012f60045481565b6002546001600160a01b031633146103445760405162461bcd60e51b815260040161033b90610bb7565b60405180910390fd5b6001600160a01b03811661039a5760405162461bcd60e51b815260206004820152601860248201527f496e76616c696420747265617375727920616464726573730000000000000000604482015260640161033b565b600080546001600160a01b038381166001600160a01b0319831681178455604051919092169283917f4ab5be82436d353e61ca18726e984e561f5c1cc7c6d38b29d2553c790434705a9190a35050565b60006007826040516103fc9190610bdf565b9081526020016040518091039020549050919050565b600061041d82610857565b9050600081116104625760405162461bcd60e51b815260206004820152601060248201526f496e76616c696420666565207479706560801b604482015260640161033b565b6001546040516370a0823160e01b815233600482015282916001600160a01b0316906370a0823190602401602060405180830381865afa1580156104aa573d6000803e3d6000fd5b505050506040513d601f19601f820116820180604052508101906104ce9190610c0e565b101561051c5760405162461bcd60e51b815260206004820152601860248201527f496e73756666696369656e74204754542062616c616e63650000000000000000604482015260640161033b565b6001546000546040516323b872dd60e01b81523360048201526001600160a01b039182166024820152604481018490529116906323b872dd906064016020604051808303816000875af1158015610577573d6000803e3d6000fd5b505050506040513d601f19601f8201168201806040525081019061059b9190610c27565b6105dd5760405162461bcd60e51b815260206004820152601360248201527211d515081d1c985b9cd9995c8819985a5b1959606a1b604482015260640161033b565b806007836040516105ee9190610bdf565b9081526020016040518091039020600082825461060b9190610c49565b909155505033600090815260086020526040908190209051829190610631908590610bdf565b9081526020016040518091039020600082825461064e9190610c49565b90915550503360009081526009602052604081208054839290610672908490610c49565b9091555050604051610685908390610bdf565b6040519081900381208282529033907ff8efcbf5e7b234324bfe1597e03e47097873931b75004b6b223f7b1018c7fc3d9060200160405180910390a35050565b6002546001600160a01b031633146106ef5760405162461bcd60e51b815260040161033b90610bb7565b60006106fa83610857565b835160208501209091507f250f4c3a8efc869f614ab6a0e132cb734d7e988ee48c9f601a9a58d8cbaafcac8101610735576003839055610803565b7f2558f7ceaebc63887b5bd1e58b0529aab8f95ab832ea2b64ddf977e3eedb53dc8103610766576004839055610803565b7fb6d2dc83590271a7c0a5ab5fbf6a2dad418bbfd533c253e3d69a6772712809c78103610797576005839055610803565b7fc5a869c17615f7b2c13a820954f10069a69200b197ffc10621945d13e22bc59d81036107c8576006839055610803565b60405162461bcd60e51b815260206004820152601060248201526f496e76616c696420666565207479706560801b604482015260640161033b565b836040516108119190610bdf565b6040805191829003822084835260208301869052917fa959d4d2b0cc07c4515dc6e929a0f9c8ade49c6edb5133ba973de9b8ad745861910160405180910390a250505050565b805160208201206000907f250f4c3a8efc869f614ab6a0e132cb734d7e988ee48c9f601a9a58d8cbaafcac8101610892575050600354919050565b7f2558f7ceaebc63887b5bd1e58b0529aab8f95ab832ea2b64ddf977e3eedb53dc81036108c3575050600454919050565b7fb6d2dc83590271a7c0a5ab5fbf6a2dad418bbfd533c253e3d69a6772712809c781036108f4575050600554919050565b7fc5a869c17615f7b2c13a820954f10069a69200b197ffc10621945d13e22bc59d8103610925575050600654919050565b50600092915050565b6002546001600160a01b031633146109585760405162461bcd60e51b815260040161033b90610bb7565b6001600160a01b0381166109a65760405162461bcd60e51b8152602060048201526015602482015274496e76616c6964206f776e6572206164647265737360581b604482015260640161033b565b600280546001600160a01b0319166001600160a01b0392909216919091179055565b6001600160a01b03821660009081526008602052604080822090516109ee908490610bdf565b90815260200160405180910390205490505b92915050565b80356001600160a01b0381168114610a1d57600080fd5b919050565b600060208284031215610a3457600080fd5b610a3d82610a06565b9392505050565b634e487b7160e01b600052604160045260246000fd5b600082601f830112610a6b57600080fd5b813567ffffffffffffffff80821115610a8657610a86610a44565b604051601f8301601f19908116603f01168101908282118183101715610aae57610aae610a44565b81604052838152866020858801011115610ac757600080fd5b836020870160208301376000602085830101528094505050505092915050565b60008060408385031215610afa57600080fd5b610b0383610a06565b9150602083013567ffffffffffffffff811115610b1f57600080fd5b610b2b85828601610a5a565b9150509250929050565b600060208284031215610b4757600080fd5b813567ffffffffffffffff811115610b5e57600080fd5b610b6a84828501610a5a565b949350505050565b60008060408385031215610b8557600080fd5b823567ffffffffffffffff811115610b9c57600080fd5b610ba885828601610a5a565b95602094909401359450505050565b6020808252600e908201526d139bdd08185d5d1a1bdc9a5e995960921b604082015260600190565b6000825160005b81811015610c005760208186018101518583015201610be6565b506000920191825250919050565b600060208284031215610c2057600080fd5b5051919050565b600060208284031215610c3957600080fd5b81518015158114610a3d57600080fd5b80820180821115610a0057634e487b7160e01b600052601160045260246000fdfea2646970667358221220fe524c9c84e5ec26bfa539134770f52109f0c7317c409d84404bb0ed477979d864736f6c63430008140033",
  "linkReferences": {},
  "deployedLinkReferences": {}
}