{
  "_format": "hh-sol-artifact-1",
  "contractName": "YieldVault",
  "sourceName": "solidity/contracts/YieldVault.sol",
  "abi": [
    {
      "inputs": [
        {
          "internalType": "address",
          "name": "gttToken",
          "type": "address"
        }
      ],
      "stateMutability": "nonpayable",
      "type": "constructor"
    },
    {
      "inputs": [
        {
          "internalType": "address",
          "name": "owner",
          "type": "address"
        }
      ],
      "name": "OwnableInvalidOwner",
      "type": "error"
    },
    {
      "inputs": [
        {
          "internalType": "address",
          "name": "account",
          "type": "address"
        }
      ],
      "name": "OwnableUnauthorizedAccount",
      "type": "error"
    },
    {
      "inputs": [],
      "name": "ReentrancyGuardReentrantCall",
      "type": "error"
    },
    {
      "anonymous": false,
      "inputs": [
        {
          "indexed": false,
          "internalType": "uint256",
          "name": "totalAmount",
          "type": "uint256"
        },
        {
          "indexed": false,
          "internalType": "uint256",
          "name": "recipientCount",
          "type": "uint256"
        },
        {
          "indexed": false,
          "internalType": "uint256",
          "name": "timestamp",
          "type": "uint256"
        }
      ],
      "name": "BulkDistribution",
      "type": "event"
    },
    {
      "anonymous": false,
      "inputs": [
        {
          "indexed": true,
          "internalType": "address",
          "name": "previousOwner",
          "type": "address"
        },
        {
          "indexed": true,
          "internalType": "address",
          "name": "newOwner",
          "type": "address"
        }
      ],
      "name": "OwnershipTransferred",
      "type": "event"
    },
    {
      "anonymous": false,
      "inputs": [
        {
          "indexed": true,
          "internalType": "address",
          "name": "user",
          "type": "address"
        },
        {
          "indexed": false,
          "internalType": "uint256",
          "name": "amount",
          "type": "uint256"
        },
        {
          "indexed": false,
          "internalType": "uint256",
          "name": "timestamp",
          "type": "uint256"
        }
      ],
      "name": "YieldClaimed",
      "type": "event"
    },
    {
      "anonymous": false,
      "inputs": [
        {
          "indexed": true,
          "internalType": "address",
          "name": "capsuleOwner",
          "type": "address"
        },
        {
          "indexed": false,
          "internalType": "uint256",
          "name": "amount",
          "type": "uint256"
        },
        {
          "indexed": false,
          "internalType": "uint256",
          "name": "timestamp",
          "type": "uint256"
        }
      ],
      "name": "YieldDeposited",
      "type": "event"
    },
    {
      "inputs": [
        {
          "internalType": "address[]",
          "name": "capsuleOwners",
          "type": "address[]"
        },
        {
          "internalType": "uint256[]",
          "name": "amounts",
          "type": "uint256[]"
        }
      ],
      "name": "bulkDepositYield",
      "outputs": [],
      "stateMutability": "nonpayable",
      "type": "function"
    },
    {
      "inputs": [],
      "name": "claimYield",
      "outputs": [],
      "stateMutability": "nonpayable",
      "type": "function"
    },
    {
      "inputs": [
        {
          "internalType": "address",
          "name": "capsuleOwner",
          "type": "address"
        },
        {
          "internalType": "uint256",
          "name": "amount",
          "type": "uint256"
        }
      ],
      "name": "depositYield",
      "outputs": [],
      "stateMutability": "nonpayable",
      "type": "function"
    },
    {
      "inputs": [],
      "name": "distributionCount",
      "outputs": [
        {
          "internalType": "uint256",
          "name": "",
          "type": "uint256"
        }
      ],
      "stateMutability": "view",
      "type": "function"
    },
    {
      "inputs": [
        {
          "internalType": "address",
          "name": "",
          "type": "address"
        }
      ],
      "name": "earnedYield",
      "outputs": [
        {
          "internalType": "uint256",
          "name": "",
          "type": "uint256"
        }
      ],
      "stateMutability": "view",
      "type": "function"
    },
    {
      "inputs": [
        {
          "internalType": "uint256",
          "name": "amount",
          "type": "uint256"
        }
      ],
      "name": "emergencyWithdraw",
      "outputs": [],
      "stateMutability": "nonpayable",
      "type": "function"
    },
    {
      "inputs": [
        {
          "internalType": "address",
          "name": "user",
          "type": "address"
        }
      ],
      "name": "getClaimable",
      "outputs": [
        {
          "internalType": "uint256",
          "name": "",
          "type": "uint256"
        }
      ],
      "stateMutability": "view",
      "type": "function"
    },
    {
      "inputs": [
        {
          "internalType": "address",
          "name": "user",
          "type": "address"
        }
      ],
      "name": "getUserYieldInfo",
      "outputs": [
        {
          "internalType": "uint256",
          "name": "totalEarned_",
          "type": "uint256"
        },
        {
          "internalType": "uint256",
          "name": "totalWithdrawn",
          "type": "uint256"
        },
        {
          "internalType": "uint256",
          "name": "claimable",
          "type": "uint256"
        },
        {
          "internalType": "uint256",
          "name": "lastDistributionTime",
          "type": "uint256"
        }
      ],
      "stateMutability": "view",
      "type": "function"
    },
    {
      "inputs": [],
      "name": "getVaultStats",
      "outputs": [
        {
          "internalType": "uint256",
          "name": "totalEarned_",
          "type": "uint256"
        },
        {
          "internalType": "uint256",
          "name": "totalDistributed_",
          "type": "uint256"
        },
        {
          "internalType": "uint256",
          "name": "pendingClaims",
          "type": "uint256"
        },
        {
          "internalType": "uint256",
          "name": "vaultBalance",
          "type": "uint256"
        },
        {
          "internalType": "uint256",
          "name": "distributionCount_",
          "type": "uint256"
        }
      ],
      "stateMutability": "view",
      "type": "function"
    },
    {
      "inputs": [],
      "name": "gtt",
      "outputs": [
        {
          "internalType": "contract IERC20",
          "name": "",
          "type": "address"
        }
      ],
      "stateMutability": "view",
      "type": "function"
    },
    {
      "inputs": [
        {
          "internalType": "address",
          "name": "",
          "type": "address"
        }
      ],
      "name": "lastDistribution",
      "outputs": [
        {
          "internalType": "uint256",
          "name": "",
          "type": "uint256"
        }
      ],
      "stateMutability": "view",
      "type": "function"
    },
    {
      "inputs": [],
      "name": "owner",
      "outputs": [
        {
          "internalType": "address",
          "name": "",
          "type": "address"
        }
      ],
      "stateMutability": "view",
      "type": "function"
    },
    {
      "inputs": [],
      "name": "renounceOwnership",
      "outputs": [],
      "stateMutability": "nonpayable",
      "type": "function"
    },
    {
      "inputs": [],
      "name": "totalDistributed",
      "outputs": [
        {
          "internalType": "uint256",
          "name": "",
          "type": "uint256"
        }
      ],
      "stateMutability": "view",
      "type": "function"
    },
    {
      "inputs": [],
      "name": "totalEarned",
      "outputs": [
        {
          "internalType": "uint256",
          "name": "",
          "type": "uint256"
        }
      ],
      "stateMutability": "view",
      "type": "function"
    },
    {
      "inputs": [
        {
          "internalType": "address",
          "name": "newOwner",
          "type": "address"
        }
      ],
      "name": "transferOwnership",
      "outputs": [],
      "stateMutability": "nonpayable",
      "type": "function"
    },
    {
      "inputs": [
        {
          "internalType": "address",
          "name": "",
          "type": "address"
        }
      ],
      "name": "withdrawnYield",
      "outputs": [
        {
          "internalType": "uint256",
          "name": "",
          "type": "uint256"
        }
      ],
      "stateMutability": "view",
      "type": "function"
    }
  ],
  "bytecode": "0x60a060405234801561001057600080fd5b5060405161126538038061126583398101604081905261002f916100c4565b338061005557604051631e4fbdf760e01b81526000600482015260240160405180910390fd5b61005e81610074565b50600180556001600160a01b03166080526100f4565b600080546001600160a01b038381166001600160a01b0319831681178455604051919092169283917f8be0079c531659141344cd1fd0a4f28419497f9722a3daafe3b4186f6b6457e09190a35050565b6000602082840312156100d657600080fd5b81516001600160a01b03811681146100ed57600080fd5b9392505050565b60805161112c61013960003960008181610198015281816103b9015281816107f20152818161090e015281816109c901528181610b3a0152610c83015261112c6000f3fe608060405234801561001057600080fd5b506004361061010b5760003560e01c80638da5cb5b116100a2578063d699618511610071578063d699618514610240578063d970bf7f14610253578063e595dbc714610286578063efca2eed146102a6578063f2fde38b146102af57600080fd5b80638da5cb5b146101e3578063a583024b146101f4578063a59aa5a614610207578063c65c3d951461023757600080fd5b80635312ea8e116100de5780635312ea8e146101805780635c6afd00146101935780636dfa8d99146101d2578063715018a6146101db57600080fd5b80630d85f1891461011057806327c76af114610143578063406cf2291461015857806344b50bfc14610160575b600080fd5b61013061011e366004610f33565b60026020526000908152604090205481565b6040519081526020015b60405180910390f35b610156610151366004610fa1565b6102c2565b005b610156610741565b61013061016e366004610f33565b60046020526000908152604090205481565b61015661018e36600461100d565b6108f1565b6101ba7f000000000000000000000000000000000000000000000000000000000000000081565b6040516001600160a01b03909116815260200161013a565b61013060065481565b610156610ac8565b6000546001600160a01b03166101ba565b610130610202366004610f33565b610ada565b61020f610b0e565b604080519586526020860194909452928401919091526060830152608082015260a00161013a565b61013060075481565b61015661024e366004611026565b610bbb565b610266610261366004610f33565b610de0565b60408051948552602085019390935291830152606082015260800161013a565b610130610294366004610f33565b60036020526000908152604090205481565b61013060055481565b6101566102bd366004610f33565b610e35565b6102ca610e70565b8281146103165760405162461bcd60e51b8152602060048201526015602482015274082e4e4c2f240d8cadccee8d040dad2e6dac2e8c6d605b1b60448201526064015b60405180910390fd5b826103525760405162461bcd60e51b815260206004820152600c60248201526b456d7074792061727261797360a01b604482015260640161030d565b6000805b828110156103965783838281811061037057610370611050565b9050602002013582610382919061107c565b91508061038e8161108f565b915050610356565b506040516323b872dd60e01b8152336004820152306024820152604481018290527f00000000000000000000000000000000000000000000000000000000000000006001600160a01b0316906323b872dd906064016020604051808303816000875af115801561040a573d6000803e3d6000fd5b505050506040513d601f19601f8201168201806040525081019061042e91906110a8565b6104705760405162461bcd60e51b815260206004820152601360248201527211d515081d1c985b9cd9995c8819985a5b1959606a1b604482015260640161030d565b60005b848110156106e557600086868381811061048f5761048f611050565b90506020020160208101906104a49190610f33565b6001600160a01b0316036104f25760405162461bcd60e51b815260206004820152601560248201527424b73b30b634b21031b0b839bab6329037bbb732b960591b604482015260640161030d565b600084848381811061050657610506611050565b905060200201351161055a5760405162461bcd60e51b815260206004820152601d60248201527f416d6f756e74206d7573742062652067726561746572207468616e2030000000604482015260640161030d565b83838281811061056c5761056c611050565b905060200201356002600088888581811061058957610589611050565b905060200201602081019061059e9190610f33565b6001600160a01b03166001600160a01b0316815260200190815260200160002060008282546105cd919061107c565b90915550429050600460008888858181106105ea576105ea611050565b90506020020160208101906105ff9190610f33565b6001600160a01b0316815260208101919091526040016000205583838281811061062b5761062b611050565b9050602002013560066000828254610643919061107c565b90915550869050858281811061065b5761065b611050565b90506020020160208101906106709190610f33565b6001600160a01b03167fb24442c467cfb2dbd9bcf3c4591b5136dd8aea12ac4dbf019c5be97b1bc0a64a8585848181106106ac576106ac611050565b90506020020135426040516106cb929190918252602082015260400190565b60405180910390a2806106dd8161108f565b915050610473565b50600780549060006106f68361108f565b90915550506040805182815260208101869052428183015290517fdf9e1978c8b90a95992e26777344327a067ac0bcce73c91c9b59f57300e9e0a29181900360600190a15050505050565b610749610e9d565b600061075433610ada565b9050600081116107995760405162461bcd60e51b815260206004820152601060248201526f4e6f7468696e6720746f20636c61696d60801b604482015260640161030d565b33600090815260036020526040812080548392906107b890849061107c565b9250508190555080600560008282546107d1919061107c565b909155505060405163a9059cbb60e01b8152336004820152602481018290527f00000000000000000000000000000000000000000000000000000000000000006001600160a01b03169063a9059cbb906044016020604051808303816000875af1158015610843573d6000803e3d6000fd5b505050506040513d601f19601f8201168201806040525081019061086791906110a8565b6108ab5760405162461bcd60e51b815260206004820152601560248201527410db185a5b481d1c985b9cd9995c8819985a5b1959605a1b604482015260640161030d565b6040805182815242602082015233917f10d8dedfc0745b8c25ba10b06e304138b251c18dcaadf2d71c7f3214719dc4d1910160405180910390a2506108ef60018055565b565b6108f9610e70565b6040516370a0823160e01b81523060048201527f00000000000000000000000000000000000000000000000000000000000000006001600160a01b0316906370a0823190602401602060405180830381865afa15801561095d573d6000803e3d6000fd5b505050506040513d601f19601f8201168201806040525081019061098191906110ca565b8111156109c75760405162461bcd60e51b8152602060048201526014602482015273496e73756666696369656e742062616c616e636560601b604482015260640161030d565b7f00000000000000000000000000000000000000000000000000000000000000006001600160a01b031663a9059cbb610a086000546001600160a01b031690565b6040516001600160e01b031960e084901b1681526001600160a01b039091166004820152602481018490526044016020604051808303816000875af1158015610a55573d6000803e3d6000fd5b505050506040513d601f19601f82011682018060405250810190610a7991906110a8565b610ac55760405162461bcd60e51b815260206004820152601960248201527f456d657267656e6379207769746864726177206661696c656400000000000000604482015260640161030d565b50565b610ad0610e70565b6108ef6000610ec7565b6001600160a01b0381166000908152600360209081526040808320546002909252822054610b0891906110e3565b92915050565b60065460055460008080610b2284866110e3565b6040516370a0823160e01b81523060048201529093507f00000000000000000000000000000000000000000000000000000000000000006001600160a01b0316906370a0823190602401602060405180830381865afa158015610b89573d6000803e3d6000fd5b505050506040513d601f19601f82011682018060405250810190610bad91906110ca565b915060075490509091929394565b610bc3610e70565b6001600160a01b038216610c115760405162461bcd60e51b815260206004820152601560248201527424b73b30b634b21031b0b839bab6329037bbb732b960591b604482015260640161030d565b60008111610c615760405162461bcd60e51b815260206004820152601d60248201527f416d6f756e74206d7573742062652067726561746572207468616e2030000000604482015260640161030d565b6040516323b872dd60e01b8152336004820152306024820152604481018290527f00000000000000000000000000000000000000000000000000000000000000006001600160a01b0316906323b872dd906064016020604051808303816000875af1158015610cd4573d6000803e3d6000fd5b505050506040513d601f19601f82011682018060405250810190610cf891906110a8565b610d3a5760405162461bcd60e51b815260206004820152601360248201527211d515081d1c985b9cd9995c8819985a5b1959606a1b604482015260640161030d565b6001600160a01b03821660009081526002602052604081208054839290610d6290849061107c565b90915550506001600160a01b038216600090815260046020526040812042905560068054839290610d9490849061107c565b9091555050604080518281524260208201526001600160a01b038416917fb24442c467cfb2dbd9bcf3c4591b5136dd8aea12ac4dbf019c5be97b1bc0a64a910160405180910390a25050565b6001600160a01b0381166000908152600260209081526040808320546003909252822054909180610e1085610ada565b6001600160a01b03909516600090815260046020526040902054939592949392915050565b610e3d610e70565b6001600160a01b038116610e6757604051631e4fbdf760e01b81526000600482015260240161030d565b610ac581610ec7565b6000546001600160a01b031633146108ef5760405163118cdaa760e01b815233600482015260240161030d565b600260015403610ec057604051633ee5aeb560e01b815260040160405180910390fd5b6002600155565b600080546001600160a01b038381166001600160a01b0319831681178455604051919092169283917f8be0079c531659141344cd1fd0a4f28419497f9722a3daafe3b4186f6b6457e09190a35050565b80356001600160a01b0381168114610f2e57600080fd5b919050565b600060208284031215610f4557600080fd5b610f4e82610f17565b9392505050565b60008083601f840112610f6757600080fd5b50813567ffffffffffffffff811115610f7f57600080fd5b6020830191508360208260051b8501011115610f9a57600080fd5b9250929050565b60008060008060408587031215610fb757600080fd5b843567ffffffffffffffff80821115610fcf57600080fd5b610fdb88838901610f55565b90965094506020870135915080821115610ff457600080fd5b5061100187828801610f55565b95989497509550505050565b60006020828403121561101f57600080fd5b5035919050565b6000806040838503121561103957600080fd5b61104283610f17565b946020939093013593505050565b634e487b7160e01b600052603260045260246000fd5b634e487b7160e01b600052601160045260246000fd5b80820180821115610b0857610b08611066565b6000600182016110a1576110a1611066565b5060010190565b6000602082840312156110ba57600080fd5b81518015158114610f4e57600080fd5b6000602082840312156110dc57600080fd5b5051919050565b81810381811115610b0857610b0861106656fea26469706673582212204acd0a3742e6d4f804fd4dc664893f43d9639110c13e71e3fbb3609b01bfa32364736f6c63430008140033",
  "linkReferences": {},
  "deployedLinkReferences": {}
}