{
  "_format": "hh-sol-artifact-1",
  "contractName": "TruthVault",
  "sourceName": "contracts/TruthVault.sol",
  "abi": [
    {
      "inputs": [
        {
          "internalType": "address",
          "name": "_gttToken",
          "type": "address"
        }
      ],
      "stateMutability": "nonpayable",
      "type": "constructor"
    },
    {
      "inputs": [],
      "name": "EnforcedPause",
      "type": "error"
    },
    {
      "inputs": [],
      "name": "ExpectedPause",
      "type": "error"
    },
    {
      "inputs": [
        {
          "internalType": "address",
          "name": "owner",
          "type": "address"
        }
      ],
      "name": "OwnableInvalidOwner",
      "type": "error"
    },
    {
      "inputs": [
        {
          "internalType": "address",
          "name": "account",
          "type": "address"
        }
      ],
      "name": "OwnableUnauthorizedAccount",
      "type": "error"
    },
    {
      "inputs": [],
      "name": "ReentrancyGuardReentrantCall",
      "type": "error"
    },
    {
      "anonymous": false,
      "inputs": [
        {
          "indexed": true,
          "internalType": "bytes32",
          "name": "capsuleId",
          "type": "bytes32"
        },
        {
          "indexed": true,
          "internalType": "address",
          "name": "creator",
          "type": "address"
        },
        {
          "indexed": false,
          "internalType": "uint256",
          "name": "timestamp",
          "type": "uint256"
        }
      ],
      "name": "CapsuleCreated",
      "type": "event"
    },
    {
      "anonymous": false,
      "inputs": [
        {
          "indexed": true,
          "internalType": "bytes32",
          "name": "capsuleId",
          "type": "bytes32"
        },
        {
          "indexed": true,
          "internalType": "address",
          "name": "verifier",
          "type": "address"
        },
        {
          "indexed": false,
          "internalType": "uint256",
          "name": "yieldAmount",
          "type": "uint256"
        }
      ],
      "name": "CapsuleVerified",
      "type": "event"
    },
    {
      "anonymous": false,
      "inputs": [
        {
          "indexed": true,
          "internalType": "address",
          "name": "previousOwner",
          "type": "address"
        },
        {
          "indexed": true,
          "internalType": "address",
          "name": "newOwner",
          "type": "address"
        }
      ],
      "name": "OwnershipTransferred",
      "type": "event"
    },
    {
      "anonymous": false,
      "inputs": [
        {
          "indexed": false,
          "internalType": "address",
          "name": "account",
          "type": "address"
        }
      ],
      "name": "Paused",
      "type": "event"
    },
    {
      "anonymous": false,
      "inputs": [
        {
          "indexed": false,
          "internalType": "address",
          "name": "account",
          "type": "address"
        }
      ],
      "name": "Unpaused",
      "type": "event"
    },
    {
      "anonymous": false,
      "inputs": [
        {
          "indexed": true,
          "internalType": "address",
          "name": "user",
          "type": "address"
        },
        {
          "indexed": true,
          "internalType": "bytes32",
          "name": "capsuleId",
          "type": "bytes32"
        },
        {
          "indexed": false,
          "internalType": "uint256",
          "name": "amount",
          "type": "uint256"
        }
      ],
      "name": "YieldClaimed",
      "type": "event"
    },
    {
      "anonymous": false,
      "inputs": [
        {
          "indexed": false,
          "internalType": "uint256",
          "name": "baseAmount",
          "type": "uint256"
        },
        {
          "indexed": false,
          "internalType": "uint256",
          "name": "verificationBonus",
          "type": "uint256"
        },
        {
          "indexed": false,
          "internalType": "uint256",
          "name": "shareBonus",
          "type": "uint256"
        }
      ],
      "name": "YieldConfigUpdated",
      "type": "event"
    },
    {
      "inputs": [],
      "name": "baseYieldAmount",
      "outputs": [
        {
          "internalType": "uint256",
          "name": "",
          "type": "uint256"
        }
      ],
      "stateMutability": "view",
      "type": "function"
    },
    {
      "inputs": [
        {
          "internalType": "bytes32[]",
          "name": "capsuleIds",
          "type": "bytes32[]"
        }
      ],
      "name": "batchClaimYield",
      "outputs": [],
      "stateMutability": "nonpayable",
      "type": "function"
    },
    {
      "inputs": [
        {
          "internalType": "bytes32",
          "name": "",
          "type": "bytes32"
        }
      ],
      "name": "capsuleCreator",
      "outputs": [
        {
          "internalType": "address",
          "name": "",
          "type": "address"
        }
      ],
      "stateMutability": "view",
      "type": "function"
    },
    {
      "inputs": [
        {
          "internalType": "bytes32",
          "name": "",
          "type": "bytes32"
        }
      ],
      "name": "capsuleVerified",
      "outputs": [
        {
          "internalType": "bool",
          "name": "",
          "type": "bool"
        }
      ],
      "stateMutability": "view",
      "type": "function"
    },
    {
      "inputs": [
        {
          "internalType": "bytes32",
          "name": "",
          "type": "bytes32"
        }
      ],
      "name": "capsuleYield",
      "outputs": [
        {
          "internalType": "uint256",
          "name": "",
          "type": "uint256"
        }
      ],
      "stateMutability": "view",
      "type": "function"
    },
    {
      "inputs": [
        {
          "internalType": "bytes32",
          "name": "capsuleId",
          "type": "bytes32"
        }
      ],
      "name": "claimYield",
      "outputs": [],
      "stateMutability": "nonpayable",
      "type": "function"
    },
    {
      "inputs": [
        {
          "internalType": "bytes32",
          "name": "capsuleId",
          "type": "bytes32"
        },
        {
          "internalType": "address",
          "name": "creator",
          "type": "address"
        }
      ],
      "name": "createCapsule",
      "outputs": [],
      "stateMutability": "nonpayable",
      "type": "function"
    },
    {
      "inputs": [
        {
          "internalType": "bytes32",
          "name": "capsuleId",
          "type": "bytes32"
        }
      ],
      "name": "getCapsuleInfo",
      "outputs": [
        {
          "internalType": "address",
          "name": "creator",
          "type": "address"
        },
        {
          "internalType": "bool",
          "name": "verified",
          "type": "bool"
        },
        {
          "internalType": "uint256",
          "name": "yieldAmount",
          "type": "uint256"
        }
      ],
      "stateMutability": "view",
      "type": "function"
    },
    {
      "inputs": [
        {
          "internalType": "address",
          "name": "user",
          "type": "address"
        }
      ],
      "name": "getClaimableYield",
      "outputs": [
        {
          "internalType": "uint256",
          "name": "totalClaimable",
          "type": "uint256"
        }
      ],
      "stateMutability": "view",
      "type": "function"
    },
    {
      "inputs": [],
      "name": "getSystemStats",
      "outputs": [
        {
          "internalType": "uint256",
          "name": "totalCapsules",
          "type": "uint256"
        },
        {
          "internalType": "uint256",
          "name": "verifiedCapsules",
          "type": "uint256"
        },
        {
          "internalType": "uint256",
          "name": "totalYield",
          "type": "uint256"
        },
        {
          "internalType": "uint256",
          "name": "baseYield",
          "type": "uint256"
        },
        {
          "internalType": "uint256",
          "name": "verificationBonus_",
          "type": "uint256"
        },
        {
          "internalType": "uint256",
          "name": "shareBonus_",
          "type": "uint256"
        }
      ],
      "stateMutability": "view",
      "type": "function"
    },
    {
      "inputs": [
        {
          "internalType": "address",
          "name": "user",
          "type": "address"
        }
      ],
      "name": "getUserCapsules",
      "outputs": [
        {
          "internalType": "bytes32[]",
          "name": "",
          "type": "bytes32[]"
        }
      ],
      "stateMutability": "view",
      "type": "function"
    },
    {
      "inputs": [],
      "name": "gttToken",
      "outputs": [
        {
          "internalType": "contract SimpleGTTToken",
          "name": "",
          "type": "address"
        }
      ],
      "stateMutability": "view",
      "type": "function"
    },
    {
      "inputs": [],
      "name": "owner",
      "outputs": [
        {
          "internalType": "address",
          "name": "",
          "type": "address"
        }
      ],
      "stateMutability": "view",
      "type": "function"
    },
    {
      "inputs": [],
      "name": "pause",
      "outputs": [],
      "stateMutability": "nonpayable",
      "type": "function"
    },
    {
      "inputs": [],
      "name": "paused",
      "outputs": [
        {
          "internalType": "bool",
          "name": "",
          "type": "bool"
        }
      ],
      "stateMutability": "view",
      "type": "function"
    },
    {
      "inputs": [],
      "name": "renounceOwnership",
      "outputs": [],
      "stateMutability": "nonpayable",
      "type": "function"
    },
    {
      "inputs": [],
      "name": "shareBonus",
      "outputs": [
        {
          "internalType": "uint256",
          "name": "",
          "type": "uint256"
        }
      ],
      "stateMutability": "view",
      "type": "function"
    },
    {
      "inputs": [],
      "name": "totalCapsulesCreated",
      "outputs": [
        {
          "internalType": "uint256",
          "name": "",
          "type": "uint256"
        }
      ],
      "stateMutability": "view",
      "type": "function"
    },
    {
      "inputs": [],
      "name": "totalCapsulesVerified",
      "outputs": [
        {
          "internalType": "uint256",
          "name": "",
          "type": "uint256"
        }
      ],
      "stateMutability": "view",
      "type": "function"
    },
    {
      "inputs": [],
      "name": "totalYieldDistributed",
      "outputs": [
        {
          "internalType": "uint256",
          "name": "",
          "type": "uint256"
        }
      ],
      "stateMutability": "view",
      "type": "function"
    },
    {
      "inputs": [
        {
          "internalType": "address",
          "name": "newOwner",
          "type": "address"
        }
      ],
      "name": "transferOwnership",
      "outputs": [],
      "stateMutability": "nonpayable",
      "type": "function"
    },
    {
      "inputs": [],
      "name": "unpause",
      "outputs": [],
      "stateMutability": "nonpayable",
      "type": "function"
    },
    {
      "inputs": [
        {
          "internalType": "uint256",
          "name": "_baseYieldAmount",
          "type": "uint256"
        },
        {
          "internalType": "uint256",
          "name": "_verificationBonus",
          "type": "uint256"
        },
        {
          "internalType": "uint256",
          "name": "_shareBonus",
          "type": "uint256"
        }
      ],
      "name": "updateYieldConfig",
      "outputs": [],
      "stateMutability": "nonpayable",
      "type": "function"
    },
    {
      "inputs": [
        {
          "internalType": "address",
          "name": "",
          "type": "address"
        },
        {
          "internalType": "uint256",
          "name": "",
          "type": "uint256"
        }
      ],
      "name": "userCapsules",
      "outputs": [
        {
          "internalType": "bytes32",
          "name": "",
          "type": "bytes32"
        }
      ],
      "stateMutability": "view",
      "type": "function"
    },
    {
      "inputs": [
        {
          "internalType": "address",
          "name": "",
          "type": "address"
        }
      ],
      "name": "userTotalYield",
      "outputs": [
        {
          "internalType": "uint256",
          "name": "",
          "type": "uint256"
        }
      ],
      "stateMutability": "view",
      "type": "function"
    },
    {
      "inputs": [],
      "name": "verificationBonus",
      "outputs": [
        {
          "internalType": "uint256",
          "name": "",
          "type": "uint256"
        }
      ],
      "stateMutability": "view",
      "type": "function"
    },
    {
      "inputs": [
        {
          "internalType": "bytes32",
          "name": "capsuleId",
          "type": "bytes32"
        },
        {
          "internalType": "uint256",
          "name": "views",
          "type": "uint256"
        },
        {
          "internalType": "uint256",
          "name": "shares",
          "type": "uint256"
        },
        {
          "internalType": "uint256",
          "name": "verifications",
          "type": "uint256"
        }
      ],
      "name": "verifyCapsule",
      "outputs": [],
      "stateMutability": "nonpayable",
      "type": "function"
    }
  ],
  "bytecode": "0x60a060405268056bc75e2d631000006008556802b5e3af16b188000060095568015af1d78b58c40000600a5534801561003757600080fd5b506040516113b13803806113b183398101604081905261005691610142565b338061007d57604051631e4fbdf760e01b8152600060048201526024015b60405180910390fd5b610086816100f2565b50600180556001600160a01b0381166100e15760405162461bcd60e51b815260206004820152601960248201527f496e76616c69642047545420746f6b656e2061646472657373000000000000006044820152606401610074565b6001600160a01b0316608052610172565b600080546001600160a01b038381166001600160a01b0319831681178455604051919092169283917f8be0079c531659141344cd1fd0a4f28419497f9722a3daafe3b4186f6b6457e09190a35050565b60006020828403121561015457600080fd5b81516001600160a01b038116811461016b57600080fd5b9392505050565b60805161121661019b600039600081816102040152818161082e0152610c2801526112166000f3fe608060405234801561001057600080fd5b50600436106101a95760003560e01c80638da5cb5b116100f9578063c838f6b311610097578063df7adf0211610071578063df7adf02146103d0578063df9970b4146103d9578063ec797fc214610443578063f2fde38b1461045657600080fd5b8063c838f6b314610375578063d1ce59a71461037e578063dc227a3a146103bd57600080fd5b8063a0d79fb5116100d3578063a0d79fb514610310578063a7609f7414610323578063b26695f61461032c578063b97b04a21461034c57600080fd5b80638da5cb5b146102ed57806396f9cffa146102fe57806397206bd51461030757600080fd5b80633f4ba83a116101665780635cc1b404116101405780635cc1b404146102b7578063715018a6146102ca5780638456cb59146102d2578063864f8828146102da57600080fd5b80633f4ba83a146102915780635bdb8beb146102995780635c975abb146102ac57600080fd5b806308ab7f86146101ae57806311cdf856146101ca5780631502370e146101ea5780631712c524146101ff578063295ba6781461023e578063366636f714610271575b600080fd5b6101b760095481565b6040519081526020015b60405180910390f35b6101b76101d8366004610fa1565b60066020526000908152604090205481565b6101fd6101f8366004610fc3565b610469565b005b6102267f000000000000000000000000000000000000000000000000000000000000000081565b6040516001600160a01b0390911681526020016101c1565b61026161024c366004610fef565b60046020526000908152604090205460ff1681565b60405190151581526020016101c1565b61028461027f366004610fa1565b6105cc565b6040516101c19190611008565b6101fd610638565b6101fd6102a736600461104c565b61064a565b60025460ff16610261565b6101fd6102c5366004611078565b6106a7565b6101fd6108a0565b6101fd6108b2565b6101fd6102e83660046110ed565b6108c2565b6000546001600160a01b0316610226565b6101b7600a5481565b6101b7600d5481565b6101b761031e36600461111f565b610ab9565b6101b7600c5481565b6101b761033a366004610fef565b60036020526000908152604090205481565b61022661035a366004610fef565b6005602052600090815260409020546001600160a01b031681565b6101b760085481565b600b54600c54600d54600854600954600a54604080519687526020870195909552938501929092526060840152608083015260a082015260c0016101c1565b6101fd6103cb366004610fef565b610aea565b6101b7600b5481565b61041e6103e7366004610fef565b600090815260056020908152604080832054600483528184205460039093529220546001600160a01b039092169260ff9091169190565b604080516001600160a01b0390941684529115156020840152908201526060016101c1565b6101b7610451366004610fa1565b610cd0565b6101fd610464366004610fa1565b610dcd565b610471610e08565b6001600160a01b0381166104cc5760405162461bcd60e51b815260206004820152601760248201527f496e76616c69642063726561746f72206164647265737300000000000000000060448201526064015b60405180910390fd5b6000828152600560205260409020546001600160a01b03161561052a5760405162461bcd60e51b815260206004820152601660248201527543617073756c6520616c72656164792065786973747360501b60448201526064016104c3565b600082815260056020908152604080832080546001600160a01b0319166001600160a01b0386169081179091558352600782528220805460018101825590835290822001839055600b80549161057f8361115f565b9190505550806001600160a01b0316827f79ea3ac4dd49962c08d84a60983e7fc6d2644a0bfa00ad45c39bb482330278cb426040516105c091815260200190565b60405180910390a35050565b6001600160a01b03811660009081526007602090815260409182902080548351818402810184019094528084526060939283018282801561062c57602002820191906000526020600020905b815481526020019060010190808311610618575b50505050509050919050565b610640610e08565b610648610e35565b565b610652610e08565b60088390556009829055600a81905560408051848152602081018490529081018290527f0d467a7494b9e0f784db7ceebca95962dd19a123851b032bafdda6ec89f490a79060600160405180910390a1505050565b6106af610e87565b6106b7610eb1565b6000805b828110156107cd5760008484838181106106d7576106d7611178565b6020908102929092013560008181526005909352604090922054919250506001600160a01b03163314801561071a575060008181526004602052604090205460ff165b8015610733575060008181526003602052604090205415155b156107ba57600081815260036020526040902054610751908461118e565b925080336001600160a01b03167fddc2b0721b847b3102b25c210199ed62baa85a9731241a785e55bb06d6c53c3360036000858152602001908152602001600020546040516107a291815260200190565b60405180910390a36000818152600360205260408120555b50806107c58161115f565b9150506106bb565b50600081116108125760405162461bcd60e51b81526020600482015260116024820152704e6f207969656c6420746f20636c61696d60781b60448201526064016104c3565b6040516302f52ea760e61b8152336004820152602481018290527f00000000000000000000000000000000000000000000000000000000000000006001600160a01b03169063bd4ba9c090604401600060405180830381600087803b15801561087a57600080fd5b505af115801561088e573d6000803e3d6000fd5b505050505061089c60018055565b5050565b6108a8610e08565b6106486000610ed5565b6108ba610e08565b610648610f25565b6108ca610e08565b6000848152600560205260409020546001600160a01b03166109275760405162461bcd60e51b815260206004820152601660248201527510d85c1cdd5b1948191bd95cc81b9bdd08195e1a5cdd60521b60448201526064016104c3565b60008481526004602052604090205460ff16156109865760405162461bcd60e51b815260206004820152601860248201527f43617073756c6520616c7265616479207665726966696564000000000000000060448201526064016104c3565b600854811561099f5760095461099c908261118e565b90505b60006109ac600a856111a7565b9050600a54816109bc91906111c9565b6109c6908361118e565b915060006109d56064876111a7565b6109e790670de0b6b3a76400006111c9565b90506109f3818461118e565b600088815260036020908152604080832084905560048252808320805460ff1916600117905560058252808320546001600160a01b031683526006909152812080549295508592909190610a4890849061118e565b9091555050600c8054906000610a5d8361115f565b919050555082600d6000828254610a74919061118e565b9091555050604051838152339088907fe59b013893a7fe6936a7b155628c6c199298d08c774b5ca62ff114012d04f2fd9060200160405180910390a350505050505050565b60076020528160005260406000208181548110610ad557600080fd5b90600052602060002001600091509150505481565b610af2610e87565b610afa610eb1565b6000818152600560205260409020546001600160a01b03163314610b565760405162461bcd60e51b81526020600482015260136024820152722737ba1031b0b839bab6329031b932b0ba37b960691b60448201526064016104c3565b60008181526004602052604090205460ff16610bab5760405162461bcd60e51b815260206004820152601460248201527310d85c1cdd5b19481b9bdd081d995c9a599a595960621b60448201526064016104c3565b600081815260036020526040902054610bfa5760405162461bcd60e51b81526020600482015260116024820152704e6f207969656c6420746f20636c61696d60781b60448201526064016104c3565b6000818152600360205260408082208054929055516302f52ea760e61b8152336004820152602481018290527f00000000000000000000000000000000000000000000000000000000000000006001600160a01b03169063bd4ba9c090604401600060405180830381600087803b158015610c7457600080fd5b505af1158015610c88573d6000803e3d6000fd5b50506040518381528492503391507fddc2b0721b847b3102b25c210199ed62baa85a9731241a785e55bb06d6c53c339060200160405180910390a350610ccd60018055565b50565b6001600160a01b038116600090815260076020908152604080832080548251818502810185019093528083528493830182828015610d2d57602002820191906000526020600020905b815481526020019060010190808311610d19575b5050505050905060005b8151811015610dc65760046000838381518110610d5657610d56611178565b60209081029190910181015182528101919091526040016000205460ff1615610db45760036000838381518110610d8f57610d8f611178565b602002602001015181526020019081526020016000205483610db1919061118e565b92505b80610dbe8161115f565b915050610d37565b5050919050565b610dd5610e08565b6001600160a01b038116610dff57604051631e4fbdf760e01b8152600060048201526024016104c3565b610ccd81610ed5565b6000546001600160a01b031633146106485760405163118cdaa760e01b81523360048201526024016104c3565b610e3d610f62565b6002805460ff191690557f5db9ee0a495bf2e6ff9c91a7834c1ba4fdd244a5e8aa4e537bd38aeae4b073aa335b6040516001600160a01b03909116815260200160405180910390a1565b600260015403610eaa57604051633ee5aeb560e01b815260040160405180910390fd5b6002600155565b60025460ff16156106485760405163d93c066560e01b815260040160405180910390fd5b600080546001600160a01b038381166001600160a01b0319831681178455604051919092169283917f8be0079c531659141344cd1fd0a4f28419497f9722a3daafe3b4186f6b6457e09190a35050565b610f2d610eb1565b6002805460ff191660011790557f62e78cea01bee320cd4e420270b5ea74000d11b0c9f74754ebdbfc544b05a258610e6a3390565b60025460ff1661064857604051638dfc202b60e01b815260040160405180910390fd5b80356001600160a01b0381168114610f9c57600080fd5b919050565b600060208284031215610fb357600080fd5b610fbc82610f85565b9392505050565b60008060408385031215610fd657600080fd5b82359150610fe660208401610f85565b90509250929050565b60006020828403121561100157600080fd5b5035919050565b6020808252825182820181905260009190848201906040850190845b8181101561104057835183529284019291840191600101611024565b50909695505050505050565b60008060006060848603121561106157600080fd5b505081359360208301359350604090920135919050565b6000806020838503121561108b57600080fd5b823567ffffffffffffffff808211156110a357600080fd5b818501915085601f8301126110b757600080fd5b8135818111156110c657600080fd5b8660208260051b85010111156110db57600080fd5b60209290920196919550909350505050565b6000806000806080858703121561110357600080fd5b5050823594602084013594506040840135936060013592509050565b6000806040838503121561113257600080fd5b61113b83610f85565b946020939093013593505050565b634e487b7160e01b600052601160045260246000fd5b60006001820161117157611171611149565b5060010190565b634e487b7160e01b600052603260045260246000fd5b808201808211156111a1576111a1611149565b92915050565b6000826111c457634e487b7160e01b600052601260045260246000fd5b500490565b80820281158282048414176111a1576111a161114956fea2646970667358221220a529cff98fdcb99749d2a35b833fde8b82cf2d2e80ed23de5630f66e0c3ac9cf64736f6c63430008140033",
  "linkReferences": {},
  "deployedLinkReferences": {}
}