{
  "_format": "hh-sol-artifact-1",
  "contractName": "VeritasCapsuleNFT",
  "sourceName": "solidity/contracts/VeritasCapsuleNFT.sol",
  "abi": [
    {
      "inputs": [],
      "stateMutability": "nonpayable",
      "type": "constructor"
    },
    {
      "inputs": [
        {
          "internalType": "address",
          "name": "sender",
          "type": "address"
        },
        {
          "internalType": "uint256",
          "name": "tokenId",
          "type": "uint256"
        },
        {
          "internalType": "address",
          "name": "owner",
          "type": "address"
        }
      ],
      "name": "ERC721IncorrectOwner",
      "type": "error"
    },
    {
      "inputs": [
        {
          "internalType": "address",
          "name": "operator",
          "type": "address"
        },
        {
          "internalType": "uint256",
          "name": "tokenId",
          "type": "uint256"
        }
      ],
      "name": "ERC721InsufficientApproval",
      "type": "error"
    },
    {
      "inputs": [
        {
          "internalType": "address",
          "name": "approver",
          "type": "address"
        }
      ],
      "name": "ERC721InvalidApprover",
      "type": "error"
    },
    {
      "inputs": [
        {
          "internalType": "address",
          "name": "operator",
          "type": "address"
        }
      ],
      "name": "ERC721InvalidOperator",
      "type": "error"
    },
    {
      "inputs": [
        {
          "internalType": "address",
          "name": "owner",
          "type": "address"
        }
      ],
      "name": "ERC721InvalidOwner",
      "type": "error"
    },
    {
      "inputs": [
        {
          "internalType": "address",
          "name": "receiver",
          "type": "address"
        }
      ],
      "name": "ERC721InvalidReceiver",
      "type": "error"
    },
    {
      "inputs": [
        {
          "internalType": "address",
          "name": "sender",
          "type": "address"
        }
      ],
      "name": "ERC721InvalidSender",
      "type": "error"
    },
    {
      "inputs": [
        {
          "internalType": "uint256",
          "name": "tokenId",
          "type": "uint256"
        }
      ],
      "name": "ERC721NonexistentToken",
      "type": "error"
    },
    {
      "inputs": [
        {
          "internalType": "address",
          "name": "owner",
          "type": "address"
        }
      ],
      "name": "OwnableInvalidOwner",
      "type": "error"
    },
    {
      "inputs": [
        {
          "internalType": "address",
          "name": "account",
          "type": "address"
        }
      ],
      "name": "OwnableUnauthorizedAccount",
      "type": "error"
    },
    {
      "anonymous": false,
      "inputs": [
        {
          "indexed": true,
          "internalType": "address",
          "name": "owner",
          "type": "address"
        },
        {
          "indexed": true,
          "internalType": "address",
          "name": "approved",
          "type": "address"
        },
        {
          "indexed": true,
          "internalType": "uint256",
          "name": "tokenId",
          "type": "uint256"
        }
      ],
      "name": "Approval",
      "type": "event"
    },
    {
      "anonymous": false,
      "inputs": [
        {
          "indexed": true,
          "internalType": "address",
          "name": "owner",
          "type": "address"
        },
        {
          "indexed": true,
          "internalType": "address",
          "name": "operator",
          "type": "address"
        },
        {
          "indexed": false,
          "internalType": "bool",
          "name": "approved",
          "type": "bool"
        }
      ],
      "name": "ApprovalForAll",
      "type": "event"
    },
    {
      "anonymous": false,
      "inputs": [
        {
          "indexed": false,
          "internalType": "uint256",
          "name": "_fromTokenId",
          "type": "uint256"
        },
        {
          "indexed": false,
          "internalType": "uint256",
          "name": "_toTokenId",
          "type": "uint256"
        }
      ],
      "name": "BatchMetadataUpdate",
      "type": "event"
    },
    {
      "anonymous": false,
      "inputs": [
        {
          "indexed": false,
          "internalType": "uint256",
          "name": "_tokenId",
          "type": "uint256"
        }
      ],
      "name": "MetadataUpdate",
      "type": "event"
    },
    {
      "anonymous": false,
      "inputs": [
        {
          "indexed": true,
          "internalType": "address",
          "name": "previousOwner",
          "type": "address"
        },
        {
          "indexed": true,
          "internalType": "address",
          "name": "newOwner",
          "type": "address"
        }
      ],
      "name": "OwnershipTransferred",
      "type": "event"
    },
    {
      "anonymous": false,
      "inputs": [
        {
          "indexed": true,
          "internalType": "address",
          "name": "from",
          "type": "address"
        },
        {
          "indexed": true,
          "internalType": "address",
          "name": "to",
          "type": "address"
        },
        {
          "indexed": true,
          "internalType": "uint256",
          "name": "tokenId",
          "type": "uint256"
        }
      ],
      "name": "Transfer",
      "type": "event"
    },
    {
      "anonymous": false,
      "inputs": [
        {
          "indexed": true,
          "internalType": "address",
          "name": "minter",
          "type": "address"
        },
        {
          "indexed": true,
          "internalType": "uint256",
          "name": "tokenId",
          "type": "uint256"
        },
        {
          "indexed": true,
          "internalType": "uint256",
          "name": "capsuleId",
          "type": "uint256"
        },
        {
          "indexed": false,
          "internalType": "bool",
          "name": "soulbound",
          "type": "bool"
        },
        {
          "indexed": false,
          "internalType": "uint256",
          "name": "grief",
          "type": "uint256"
        },
        {
          "indexed": false,
          "internalType": "string",
          "name": "vault",
          "type": "string"
        },
        {
          "indexed": false,
          "internalType": "string",
          "name": "sig",
          "type": "string"
        }
      ],
      "name": "VeritasSealed",
      "type": "event"
    },
    {
      "inputs": [
        {
          "internalType": "address",
          "name": "to",
          "type": "address"
        },
        {
          "internalType": "uint256",
          "name": "tokenId",
          "type": "uint256"
        }
      ],
      "name": "approve",
      "outputs": [],
      "stateMutability": "nonpayable",
      "type": "function"
    },
    {
      "inputs": [
        {
          "internalType": "address",
          "name": "owner",
          "type": "address"
        }
      ],
      "name": "balanceOf",
      "outputs": [
        {
          "internalType": "uint256",
          "name": "",
          "type": "uint256"
        }
      ],
      "stateMutability": "view",
      "type": "function"
    },
    {
      "inputs": [
        {
          "internalType": "uint256",
          "name": "",
          "type": "uint256"
        }
      ],
      "name": "capsuleId",
      "outputs": [
        {
          "internalType": "uint256",
          "name": "",
          "type": "uint256"
        }
      ],
      "stateMutability": "view",
      "type": "function"
    },
    {
      "inputs": [
        {
          "internalType": "uint256",
          "name": "tokenId",
          "type": "uint256"
        }
      ],
      "name": "getApproved",
      "outputs": [
        {
          "internalType": "address",
          "name": "",
          "type": "address"
        }
      ],
      "stateMutability": "view",
      "type": "function"
    },
    {
      "inputs": [
        {
          "internalType": "uint256",
          "name": "tokenId",
          "type": "uint256"
        }
      ],
      "name": "getTokenMetadata",
      "outputs": [
        {
          "internalType": "bool",
          "name": "_isSoulbound",
          "type": "bool"
        },
        {
          "internalType": "uint256",
          "name": "_griefScore",
          "type": "uint256"
        },
        {
          "internalType": "string",
          "name": "_vaultLabel",
          "type": "string"
        },
        {
          "internalType": "string",
          "name": "_signature",
          "type": "string"
        },
        {
          "internalType": "uint256",
          "name": "_capsuleId",
          "type": "uint256"
        }
      ],
      "stateMutability": "view",
      "type": "function"
    },
    {
      "inputs": [],
      "name": "getTotalSupply",
      "outputs": [
        {
          "internalType": "uint256",
          "name": "",
          "type": "uint256"
        }
      ],
      "stateMutability": "view",
      "type": "function"
    },
    {
      "inputs": [
        {
          "internalType": "uint256",
          "name": "",
          "type": "uint256"
        }
      ],
      "name": "griefScore",
      "outputs": [
        {
          "internalType": "uint256",
          "name": "",
          "type": "uint256"
        }
      ],
      "stateMutability": "view",
      "type": "function"
    },
    {
      "inputs": [
        {
          "internalType": "address",
          "name": "owner",
          "type": "address"
        },
        {
          "internalType": "address",
          "name": "operator",
          "type": "address"
        }
      ],
      "name": "isApprovedForAll",
      "outputs": [
        {
          "internalType": "bool",
          "name": "",
          "type": "bool"
        }
      ],
      "stateMutability": "view",
      "type": "function"
    },
    {
      "inputs": [
        {
          "internalType": "uint256",
          "name": "",
          "type": "uint256"
        }
      ],
      "name": "isSoulbound",
      "outputs": [
        {
          "internalType": "bool",
          "name": "",
          "type": "bool"
        }
      ],
      "stateMutability": "view",
      "type": "function"
    },
    {
      "inputs": [
        {
          "internalType": "address",
          "name": "to",
          "type": "address"
        },
        {
          "internalType": "string",
          "name": "tokenUri",
          "type": "string"
        },
        {
          "internalType": "uint256",
          "name": "_capsuleId",
          "type": "uint256"
        },
        {
          "internalType": "bool",
          "name": "soulbound",
          "type": "bool"
        },
        {
          "internalType": "uint256",
          "name": "grief",
          "type": "uint256"
        },
        {
          "internalType": "string",
          "name": "vault",
          "type": "string"
        },
        {
          "internalType": "string",
          "name": "sig",
          "type": "string"
        }
      ],
      "name": "mintVeritasCapsule",
      "outputs": [
        {
          "internalType": "uint256",
          "name": "",
          "type": "uint256"
        }
      ],
      "stateMutability": "nonpayable",
      "type": "function"
    },
    {
      "inputs": [],
      "name": "name",
      "outputs": [
        {
          "internalType": "string",
          "name": "",
          "type": "string"
        }
      ],
      "stateMutability": "view",
      "type": "function"
    },
    {
      "inputs": [],
      "name": "owner",
      "outputs": [
        {
          "internalType": "address",
          "name": "",
          "type": "address"
        }
      ],
      "stateMutability": "view",
      "type": "function"
    },
    {
      "inputs": [
        {
          "internalType": "uint256",
          "name": "tokenId",
          "type": "uint256"
        }
      ],
      "name": "ownerOf",
      "outputs": [
        {
          "internalType": "address",
          "name": "",
          "type": "address"
        }
      ],
      "stateMutability": "view",
      "type": "function"
    },
    {
      "inputs": [],
      "name": "renounceOwnership",
      "outputs": [],
      "stateMutability": "nonpayable",
      "type": "function"
    },
    {
      "inputs": [
        {
          "internalType": "address",
          "name": "from",
          "type": "address"
        },
        {
          "internalType": "address",
          "name": "to",
          "type": "address"
        },
        {
          "internalType": "uint256",
          "name": "tokenId",
          "type": "uint256"
        }
      ],
      "name": "safeTransferFrom",
      "outputs": [],
      "stateMutability": "nonpayable",
      "type": "function"
    },
    {
      "inputs": [
        {
          "internalType": "address",
          "name": "from",
          "type": "address"
        },
        {
          "internalType": "address",
          "name": "to",
          "type": "address"
        },
        {
          "internalType": "uint256",
          "name": "tokenId",
          "type": "uint256"
        },
        {
          "internalType": "bytes",
          "name": "data",
          "type": "bytes"
        }
      ],
      "name": "safeTransferFrom",
      "outputs": [],
      "stateMutability": "nonpayable",
      "type": "function"
    },
    {
      "inputs": [
        {
          "internalType": "address",
          "name": "operator",
          "type": "address"
        },
        {
          "internalType": "bool",
          "name": "approved",
          "type": "bool"
        }
      ],
      "name": "setApprovalForAll",
      "outputs": [],
      "stateMutability": "nonpayable",
      "type": "function"
    },
    {
      "inputs": [
        {
          "internalType": "bytes4",
          "name": "interfaceId",
          "type": "bytes4"
        }
      ],
      "name": "supportsInterface",
      "outputs": [
        {
          "internalType": "bool",
          "name": "",
          "type": "bool"
        }
      ],
      "stateMutability": "view",
      "type": "function"
    },
    {
      "inputs": [],
      "name": "symbol",
      "outputs": [
        {
          "internalType": "string",
          "name": "",
          "type": "string"
        }
      ],
      "stateMutability": "view",
      "type": "function"
    },
    {
      "inputs": [
        {
          "internalType": "uint256",
          "name": "tokenId",
          "type": "uint256"
        }
      ],
      "name": "tokenURI",
      "outputs": [
        {
          "internalType": "string",
          "name": "",
          "type": "string"
        }
      ],
      "stateMutability": "view",
      "type": "function"
    },
    {
      "inputs": [
        {
          "internalType": "address",
          "name": "from",
          "type": "address"
        },
        {
          "internalType": "address",
          "name": "to",
          "type": "address"
        },
        {
          "internalType": "uint256",
          "name": "tokenId",
          "type": "uint256"
        }
      ],
      "name": "transferFrom",
      "outputs": [],
      "stateMutability": "nonpayable",
      "type": "function"
    },
    {
      "inputs": [
        {
          "internalType": "address",
          "name": "newOwner",
          "type": "address"
        }
      ],
      "name": "transferOwnership",
      "outputs": [],
      "stateMutability": "nonpayable",
      "type": "function"
    },
    {
      "inputs": [
        {
          "internalType": "uint256",
          "name": "",
          "type": "uint256"
        }
      ],
      "name": "vaultScoreLabel",
      "outputs": [
        {
          "internalType": "string",
          "name": "",
          "type": "string"
        }
      ],
      "stateMutability": "view",
      "type": "function"
    },
    {
      "inputs": [
        {
          "internalType": "uint256",
          "name": "",
          "type": "uint256"
        }
      ],
      "name": "verifierSignature",
      "outputs": [
        {
          "internalType": "string",
          "name": "",
          "type": "string"
        }
      ],
      "stateMutability": "view",
      "type": "function"
    }
  ],
  "bytecode": "0x60806040523480156200001157600080fd5b50336040518060400160405280601181526020017015995c9a5d185cd0d85c1cdd5b19539195607a1b815250604051806040016040528060058152602001641590d3919560da1b81525081600090816200006c9190620001b6565b5060016200007b8282620001b6565b5050506001600160a01b038116620000ad57604051631e4fbdf760e01b81526000600482015260240160405180910390fd5b620000b881620000bf565b5062000282565b600780546001600160a01b038381166001600160a01b0319831681179093556040519116919082907f8be0079c531659141344cd1fd0a4f28419497f9722a3daafe3b4186f6b6457e090600090a35050565b634e487b7160e01b600052604160045260246000fd5b600181811c908216806200013c57607f821691505b6020821081036200015d57634e487b7160e01b600052602260045260246000fd5b50919050565b601f821115620001b157600081815260208120601f850160051c810160208610156200018c5750805b601f850160051c820191505b81811015620001ad5782815560010162000198565b5050505b505050565b81516001600160401b03811115620001d257620001d262000111565b620001ea81620001e3845462000127565b8462000163565b602080601f831160018114620002225760008415620002095750858301515b600019600386901b1c1916600185901b178555620001ad565b600085815260208120601f198616915b82811015620002535788860151825594840194600190910190840162000232565b5085821015620002725787850151600019600388901b60f8161c191681555b5050505050600190811b01905550565b611a0680620002926000396000f3fe608060405234801561001057600080fd5b50600436106101585760003560e01c8063911ec470116100c3578063c87b56dd1161007c578063c87b56dd146102f0578063e926b69b14610303578063e985e9c514610316578063f2c4e9c414610329578063f2fde38b14610349578063ffce4cd01461035c57600080fd5b8063911ec4701461028457806395d89b41146102a7578063a22cb465146102af578063b88d4fde146102c2578063bc604e7d146102d5578063c4e41b22146102e857600080fd5b806342842e0e1161011557806342842e0e1461020057806360316801146102135780636352211e1461023757806370a082311461024a578063715018a61461026b5780638da5cb5b1461027357600080fd5b806301ffc9a71461015d57806306fdde0314610185578063081812fc1461019a578063095ea7b3146101c55780631d4f99b7146101da57806323b872dd146101ed575b600080fd5b61017061016b3660046113d4565b61037c565b60405190151581526020015b60405180910390f35b61018d6103a7565b60405161017c9190611441565b6101ad6101a8366004611454565b610439565b6040516001600160a01b03909116815260200161017c565b6101d86101d3366004611489565b610462565b005b61018d6101e8366004611454565b610471565b6101d86101fb3660046114b3565b61050b565b6101d861020e3660046114b3565b61059b565b610226610221366004611454565b6105bb565b60405161017c9594939291906114ef565b6101ad610245366004611454565b610795565b61025d610258366004611535565b6107a0565b60405190815260200161017c565b6101d86107e8565b6007546001600160a01b03166101ad565b610170610292366004611454565b60096020526000908152604090205460ff1681565b61018d6107fc565b6101d86102bd366004611560565b61080b565b6101d86102d036600461161f565b610816565b61018d6102e3366004611454565b61082e565b60085461025d565b61018d6102fe366004611454565b610847565b61025d6103113660046116bb565b610958565b610170610324366004611778565b610a4a565b61025d610337366004611454565b600a6020526000908152604090205481565b6101d8610357366004611535565b610a78565b61025d61036a366004611454565b600d6020526000908152604090205481565b60006001600160e01b03198216632483248360e11b14806103a157506103a182610ab6565b92915050565b6060600080546103b6906117a2565b80601f01602080910402602001604051908101604052809291908181526020018280546103e2906117a2565b801561042f5780601f106104045761010080835404028352916020019161042f565b820191906000526020600020905b81548152906001019060200180831161041257829003601f168201915b5050505050905090565b600061044482610b06565b506000828152600460205260409020546001600160a01b03166103a1565b61046d828233610b3f565b5050565b600c602052600090815260409020805461048a906117a2565b80601f01602080910402602001604051908101604052809291908181526020018280546104b6906117a2565b80156105035780601f106104d857610100808354040283529160200191610503565b820191906000526020600020905b8154815290600101906020018083116104e657829003601f168201915b505050505081565b6001600160a01b03821661053a57604051633250574960e11b8152600060048201526024015b60405180910390fd5b6000610547838333610b4c565b9050836001600160a01b0316816001600160a01b031614610595576040516364283d7b60e01b81526001600160a01b0380861660048301526024820184905282166044820152606401610531565b50505050565b6105b683838360405180602001604052806000815250610816565b505050565b60008060608082806105e2876000908152600260205260409020546001600160a01b031690565b6001600160a01b03160361062f5760405162461bcd60e51b8152602060048201526014602482015273151bdad95b88191bd95cc81b9bdd08195e1a5cdd60621b6044820152606401610531565b600086815260096020908152604080832054600a835281842054600b8452828520600c8552838620600d9095529290942054825460ff9092169493918390610676906117a2565b80601f01602080910402602001604051908101604052809291908181526020018280546106a2906117a2565b80156106ef5780601f106106c4576101008083540402835291602001916106ef565b820191906000526020600020905b8154815290600101906020018083116106d257829003601f168201915b50505050509250818054610702906117a2565b80601f016020809104026020016040519081016040528092919081815260200182805461072e906117a2565b801561077b5780601f106107505761010080835404028352916020019161077b565b820191906000526020600020905b81548152906001019060200180831161075e57829003601f168201915b505050505091509450945094509450945091939590929450565b60006103a182610b06565b60006001600160a01b0382166107cc576040516322718ad960e21b815260006004820152602401610531565b506001600160a01b031660009081526003602052604090205490565b6107f0610be8565b6107fa6000610c15565b565b6060600180546103b6906117a2565b61046d338383610c67565b61082184848461050b565b6105953385858585610d06565b600b602052600090815260409020805461048a906117a2565b606061085282610b06565b506000828152600660205260408120805461086c906117a2565b80601f0160208091040260200160405190810160405280929190818152602001828054610898906117a2565b80156108e55780601f106108ba576101008083540402835291602001916108e5565b820191906000526020600020905b8154815290600101906020018083116108c857829003601f168201915b50505050509050600061090360408051602081019091526000815290565b90508051600003610915575092915050565b81511561094757808260405160200161092f9291906117dc565b60405160208183030381529060405292505050919050565b61095084610e31565b949350505050565b6000610962610be8565b600880549060006109728361180b565b90915550506008546109848982610ea6565b61098e8189610ec0565b6000818152600960209081526040808320805460ff19168a1515179055600a8252808320889055600b90915290206109c68582611878565b506000818152600c602052604090206109df8482611878565b506000818152600d60205260409081902088905551879082906001600160a01b038c16907faa42118145ce107f30a8d80dc59393e5c35a31d383bd6688a6de8e513f808b1090610a36908b908b908b908b90611938565b60405180910390a498975050505050505050565b6001600160a01b03918216600090815260056020908152604080832093909416825291909152205460ff1690565b610a80610be8565b6001600160a01b038116610aaa57604051631e4fbdf760e01b815260006004820152602401610531565b610ab381610c15565b50565b60006001600160e01b031982166380ac58cd60e01b1480610ae757506001600160e01b03198216635b5e139f60e01b145b806103a157506301ffc9a760e01b6001600160e01b03198316146103a1565b6000818152600260205260408120546001600160a01b0316806103a157604051637e27328960e01b815260048101849052602401610531565b6105b68383836001610f10565b60008281526002602090815260408083205460099092528220546001600160a01b039091169060ff161580610b8857506001600160a01b038116155b610bd45760405162461bcd60e51b815260206004820152601a60248201527f536f756c626f756e643a2063616e6e6f74207472616e736665720000000000006044820152606401610531565b610bdf858585611016565b95945050505050565b6007546001600160a01b031633146107fa5760405163118cdaa760e01b8152336004820152602401610531565b600780546001600160a01b038381166001600160a01b0319831681179093556040519116919082907f8be0079c531659141344cd1fd0a4f28419497f9722a3daafe3b4186f6b6457e090600090a35050565b6001600160a01b038216610c9957604051630b61174360e31b81526001600160a01b0383166004820152602401610531565b6001600160a01b03838116600081815260056020908152604080832094871680845294825291829020805460ff191686151590811790915591519182527f17307eab39ab6107e8899845ad3d59bd9653f200f220920489ca2b5937696c31910160405180910390a3505050565b6001600160a01b0383163b15610e2a57604051630a85bd0160e11b81526001600160a01b0384169063150b7a0290610d48908890889087908790600401611976565b6020604051808303816000875af1925050508015610d83575060408051601f3d908101601f19168201909252610d80918101906119b3565b60015b610dec573d808015610db1576040519150601f19603f3d011682016040523d82523d6000602084013e610db6565b606091505b508051600003610de457604051633250574960e11b81526001600160a01b0385166004820152602401610531565b805181602001fd5b6001600160e01b03198116630a85bd0160e11b14610e2857604051633250574960e11b81526001600160a01b0385166004820152602401610531565b505b5050505050565b6060610e3c82610b06565b506000610e5460408051602081019091526000815290565b90506000815111610e745760405180602001604052806000815250610e9f565b80610e7e8461110f565b604051602001610e8f9291906117dc565b6040516020818303038152906040525b9392505050565b61046d8282604051806020016040528060008152506111a2565b6000828152600660205260409020610ed88282611878565b506040518281527ff8e1a15aba9398e019f0b49df1a4fde98ee17ae345cb5f6b5e2c27f5033e8ce79060200160405180910390a15050565b8080610f2457506001600160a01b03821615155b15610fe6576000610f3484610b06565b90506001600160a01b03831615801590610f605750826001600160a01b0316816001600160a01b031614155b8015610f735750610f718184610a4a565b155b15610f9c5760405163a9fbf51f60e01b81526001600160a01b0384166004820152602401610531565b8115610fe45783856001600160a01b0316826001600160a01b03167f8c5be1e5ebec7d5bd14f71427d1e84f3dd0314c0f7b2291e5b200ac8c7c3b92560405160405180910390a45b505b5050600090815260046020526040902080546001600160a01b0319166001600160a01b0392909216919091179055565b6000828152600260205260408120546001600160a01b0390811690831615611043576110438184866111ba565b6001600160a01b0381161561108157611060600085600080610f10565b6001600160a01b038116600090815260036020526040902080546000190190555b6001600160a01b038516156110b0576001600160a01b0385166000908152600360205260409020805460010190555b60008481526002602052604080822080546001600160a01b0319166001600160a01b0389811691821790925591518793918516917fddf252ad1be2c89b69c2b068fc378daa952ba7f163c4a11628f55a4df523b3ef91a4949350505050565b6060600061111c8361121e565b600101905060008167ffffffffffffffff81111561113c5761113c611593565b6040519080825280601f01601f191660200182016040528015611166576020820181803683370190505b5090508181016020015b600019016f181899199a1a9b1b9c1cb0b131b232b360811b600a86061a8153600a850494508461117057509392505050565b6111ac83836112f6565b6105b6336000858585610d06565b6111c583838361135b565b6105b6576001600160a01b0383166111f357604051637e27328960e01b815260048101829052602401610531565b60405163177e802f60e01b81526001600160a01b038316600482015260248101829052604401610531565b60008072184f03e93ff9f4daa797ed6e38ed64bf6a1f0160401b831061125d5772184f03e93ff9f4daa797ed6e38ed64bf6a1f0160401b830492506040015b6d04ee2d6d415b85acef81000000008310611289576d04ee2d6d415b85acef8100000000830492506020015b662386f26fc1000083106112a757662386f26fc10000830492506010015b6305f5e10083106112bf576305f5e100830492506008015b61271083106112d357612710830492506004015b606483106112e5576064830492506002015b600a83106103a15760010192915050565b6001600160a01b03821661132057604051633250574960e11b815260006004820152602401610531565b600061132e83836000610b4c565b90506001600160a01b038116156105b6576040516339e3563760e11b815260006004820152602401610531565b60006001600160a01b038316158015906109505750826001600160a01b0316846001600160a01b0316148061139557506113958484610a4a565b806109505750506000908152600460205260409020546001600160a01b03908116911614919050565b6001600160e01b031981168114610ab357600080fd5b6000602082840312156113e657600080fd5b8135610e9f816113be565b60005b8381101561140c5781810151838201526020016113f4565b50506000910152565b6000815180845261142d8160208601602086016113f1565b601f01601f19169290920160200192915050565b602081526000610e9f6020830184611415565b60006020828403121561146657600080fd5b5035919050565b80356001600160a01b038116811461148457600080fd5b919050565b6000806040838503121561149c57600080fd5b6114a58361146d565b946020939093013593505050565b6000806000606084860312156114c857600080fd5b6114d18461146d565b92506114df6020850161146d565b9150604084013590509250925092565b851515815284602082015260a06040820152600061151060a0830186611415565b82810360608401526115228186611415565b9150508260808301529695505050505050565b60006020828403121561154757600080fd5b610e9f8261146d565b8035801515811461148457600080fd5b6000806040838503121561157357600080fd5b61157c8361146d565b915061158a60208401611550565b90509250929050565b634e487b7160e01b600052604160045260246000fd5b600067ffffffffffffffff808411156115c4576115c4611593565b604051601f8501601f19908116603f011681019082821181831017156115ec576115ec611593565b8160405280935085815286868601111561160557600080fd5b858560208301376000602087830101525050509392505050565b6000806000806080858703121561163557600080fd5b61163e8561146d565b935061164c6020860161146d565b925060408501359150606085013567ffffffffffffffff81111561166f57600080fd5b8501601f8101871361168057600080fd5b61168f878235602084016115a9565b91505092959194509250565b600082601f8301126116ac57600080fd5b610e9f838335602085016115a9565b600080600080600080600060e0888a0312156116d657600080fd5b6116df8861146d565b9650602088013567ffffffffffffffff808211156116fc57600080fd5b6117088b838c0161169b565b975060408a0135965061171d60608b01611550565b955060808a0135945060a08a013591508082111561173a57600080fd5b6117468b838c0161169b565b935060c08a013591508082111561175c57600080fd5b506117698a828b0161169b565b91505092959891949750929550565b6000806040838503121561178b57600080fd5b6117948361146d565b915061158a6020840161146d565b600181811c908216806117b657607f821691505b6020821081036117d657634e487b7160e01b600052602260045260246000fd5b50919050565b600083516117ee8184602088016113f1565b8351908301906118028183602088016113f1565b01949350505050565b60006001820161182b57634e487b7160e01b600052601160045260246000fd5b5060010190565b601f8211156105b657600081815260208120601f850160051c810160208610156118595750805b601f850160051c820191505b81811015610e2857828155600101611865565b815167ffffffffffffffff81111561189257611892611593565b6118a6816118a084546117a2565b84611832565b602080601f8311600181146118db57600084156118c35750858301515b600019600386901b1c1916600185901b178555610e28565b600085815260208120601f198616915b8281101561190a578886015182559484019460019091019084016118eb565b50858210156119285787850151600019600388901b60f8161c191681555b5050505050600190811b01905550565b84151581528360208201526080604082015260006119596080830185611415565b828103606084015261196b8185611415565b979650505050505050565b6001600160a01b03858116825284166020820152604081018390526080606082018190526000906119a990830184611415565b9695505050505050565b6000602082840312156119c557600080fd5b8151610e9f816113be56fea26469706673582212200b7ee650812895b29e4a2235ccc14bbf9e6dd07d4720f2537bb5fda2910b8d1664736f6c63430008140033",
  "linkReferences": {},
  "deployedLinkReferences": {}
}