{
  "_format": "hh-sol-artifact-1",
  "contractName": "AutoCompoundVault",
  "sourceName": "contracts/AutoCompoundVault.sol",
  "abi": [
    {
      "inputs": [
        {
          "internalType": "address",
          "name": "_gttToken",
          "type": "address"
        }
      ],
      "stateMutability": "nonpayable",
      "type": "constructor"
    },
    {
      "inputs": [],
      "name": "EnforcedPause",
      "type": "error"
    },
    {
      "inputs": [],
      "name": "ExpectedPause",
      "type": "error"
    },
    {
      "inputs": [
        {
          "internalType": "address",
          "name": "owner",
          "type": "address"
        }
      ],
      "name": "OwnableInvalidOwner",
      "type": "error"
    },
    {
      "inputs": [
        {
          "internalType": "address",
          "name": "account",
          "type": "address"
        }
      ],
      "name": "OwnableUnauthorizedAccount",
      "type": "error"
    },
    {
      "inputs": [],
      "name": "ReentrancyGuardReentrantCall",
      "type": "error"
    },
    {
      "anonymous": false,
      "inputs": [
        {
          "indexed": false,
          "internalType": "uint256",
          "name": "oldAPY",
          "type": "uint256"
        },
        {
          "indexed": false,
          "internalType": "uint256",
          "name": "newAPY",
          "type": "uint256"
        }
      ],
      "name": "APYUpdated",
      "type": "event"
    },
    {
      "anonymous": false,
      "inputs": [
        {
          "indexed": false,
          "internalType": "uint256",
          "name": "totalRewards",
          "type": "uint256"
        },
        {
          "indexed": false,
          "internalType": "uint256",
          "name": "newShares",
          "type": "uint256"
        }
      ],
      "name": "Compounded",
      "type": "event"
    },
    {
      "anonymous": false,
      "inputs": [
        {
          "indexed": true,
          "internalType": "address",
          "name": "user",
          "type": "address"
        },
        {
          "indexed": false,
          "internalType": "uint256",
          "name": "amount",
          "type": "uint256"
        },
        {
          "indexed": false,
          "internalType": "uint256",
          "name": "shares",
          "type": "uint256"
        }
      ],
      "name": "Deposited",
      "type": "event"
    },
    {
      "anonymous": false,
      "inputs": [
        {
          "indexed": true,
          "internalType": "address",
          "name": "previousOwner",
          "type": "address"
        },
        {
          "indexed": true,
          "internalType": "address",
          "name": "newOwner",
          "type": "address"
        }
      ],
      "name": "OwnershipTransferred",
      "type": "event"
    },
    {
      "anonymous": false,
      "inputs": [
        {
          "indexed": false,
          "internalType": "address",
          "name": "account",
          "type": "address"
        }
      ],
      "name": "Paused",
      "type": "event"
    },
    {
      "anonymous": false,
      "inputs": [
        {
          "indexed": false,
          "internalType": "uint256",
          "name": "oldFee",
          "type": "uint256"
        },
        {
          "indexed": false,
          "internalType": "uint256",
          "name": "newFee",
          "type": "uint256"
        }
      ],
      "name": "PerformanceFeeUpdated",
      "type": "event"
    },
    {
      "anonymous": false,
      "inputs": [
        {
          "indexed": false,
          "internalType": "address",
          "name": "account",
          "type": "address"
        }
      ],
      "name": "Unpaused",
      "type": "event"
    },
    {
      "anonymous": false,
      "inputs": [
        {
          "indexed": true,
          "internalType": "address",
          "name": "user",
          "type": "address"
        },
        {
          "indexed": false,
          "internalType": "uint256",
          "name": "amount",
          "type": "uint256"
        },
        {
          "indexed": false,
          "internalType": "uint256",
          "name": "shares",
          "type": "uint256"
        }
      ],
      "name": "Withdrawn",
      "type": "event"
    },
    {
      "inputs": [],
      "name": "compound",
      "outputs": [],
      "stateMutability": "nonpayable",
      "type": "function"
    },
    {
      "inputs": [],
      "name": "compoundFrequency",
      "outputs": [
        {
          "internalType": "uint256",
          "name": "",
          "type": "uint256"
        }
      ],
      "stateMutability": "view",
      "type": "function"
    },
    {
      "inputs": [],
      "name": "currentAPY",
      "outputs": [
        {
          "internalType": "uint256",
          "name": "",
          "type": "uint256"
        }
      ],
      "stateMutability": "view",
      "type": "function"
    },
    {
      "inputs": [
        {
          "internalType": "uint256",
          "name": "amount",
          "type": "uint256"
        }
      ],
      "name": "deposit",
      "outputs": [],
      "stateMutability": "nonpayable",
      "type": "function"
    },
    {
      "inputs": [
        {
          "internalType": "address",
          "name": "token",
          "type": "address"
        },
        {
          "internalType": "uint256",
          "name": "amount",
          "type": "uint256"
        }
      ],
      "name": "emergencyWithdraw",
      "outputs": [],
      "stateMutability": "nonpayable",
      "type": "function"
    },
    {
      "inputs": [
        {
          "internalType": "address",
          "name": "user",
          "type": "address"
        }
      ],
      "name": "getPendingRewards",
      "outputs": [
        {
          "internalType": "uint256",
          "name": "",
          "type": "uint256"
        }
      ],
      "stateMutability": "view",
      "type": "function"
    },
    {
      "inputs": [],
      "name": "getSharePrice",
      "outputs": [
        {
          "internalType": "uint256",
          "name": "",
          "type": "uint256"
        }
      ],
      "stateMutability": "view",
      "type": "function"
    },
    {
      "inputs": [],
      "name": "getVaultStats",
      "outputs": [
        {
          "internalType": "uint256",
          "name": "tvl",
          "type": "uint256"
        },
        {
          "internalType": "uint256",
          "name": "apy",
          "type": "uint256"
        },
        {
          "internalType": "uint256",
          "name": "totalUsers",
          "type": "uint256"
        },
        {
          "internalType": "uint256",
          "name": "sharePrice",
          "type": "uint256"
        },
        {
          "internalType": "uint256",
          "name": "nextCompoundTime",
          "type": "uint256"
        }
      ],
      "stateMutability": "view",
      "type": "function"
    },
    {
      "inputs": [],
      "name": "gttToken",
      "outputs": [
        {
          "internalType": "contract IERC20",
          "name": "",
          "type": "address"
        }
      ],
      "stateMutability": "view",
      "type": "function"
    },
    {
      "inputs": [],
      "name": "lastCompoundTime",
      "outputs": [
        {
          "internalType": "uint256",
          "name": "",
          "type": "uint256"
        }
      ],
      "stateMutability": "view",
      "type": "function"
    },
    {
      "inputs": [],
      "name": "owner",
      "outputs": [
        {
          "internalType": "address",
          "name": "",
          "type": "address"
        }
      ],
      "stateMutability": "view",
      "type": "function"
    },
    {
      "inputs": [],
      "name": "pause",
      "outputs": [],
      "stateMutability": "nonpayable",
      "type": "function"
    },
    {
      "inputs": [],
      "name": "paused",
      "outputs": [
        {
          "internalType": "bool",
          "name": "",
          "type": "bool"
        }
      ],
      "stateMutability": "view",
      "type": "function"
    },
    {
      "inputs": [],
      "name": "performanceFee",
      "outputs": [
        {
          "internalType": "uint256",
          "name": "",
          "type": "uint256"
        }
      ],
      "stateMutability": "view",
      "type": "function"
    },
    {
      "inputs": [],
      "name": "renounceOwnership",
      "outputs": [],
      "stateMutability": "nonpayable",
      "type": "function"
    },
    {
      "inputs": [
        {
          "internalType": "uint256",
          "name": "newAPY",
          "type": "uint256"
        }
      ],
      "name": "setAPY",
      "outputs": [],
      "stateMutability": "nonpayable",
      "type": "function"
    },
    {
      "inputs": [
        {
          "internalType": "uint256",
          "name": "newFee",
          "type": "uint256"
        }
      ],
      "name": "setPerformanceFee",
      "outputs": [],
      "stateMutability": "nonpayable",
      "type": "function"
    },
    {
      "inputs": [],
      "name": "totalShares",
      "outputs": [
        {
          "internalType": "uint256",
          "name": "",
          "type": "uint256"
        }
      ],
      "stateMutability": "view",
      "type": "function"
    },
    {
      "inputs": [],
      "name": "totalValueLocked",
      "outputs": [
        {
          "internalType": "uint256",
          "name": "",
          "type": "uint256"
        }
      ],
      "stateMutability": "view",
      "type": "function"
    },
    {
      "inputs": [
        {
          "internalType": "address",
          "name": "newOwner",
          "type": "address"
        }
      ],
      "name": "transferOwnership",
      "outputs": [],
      "stateMutability": "nonpayable",
      "type": "function"
    },
    {
      "inputs": [],
      "name": "unpause",
      "outputs": [],
      "stateMutability": "nonpayable",
      "type": "function"
    },
    {
      "inputs": [
        {
          "internalType": "address",
          "name": "",
          "type": "address"
        }
      ],
      "name": "userInfo",
      "outputs": [
        {
          "internalType": "uint256",
          "name": "stakedAmount",
          "type": "uint256"
        },
        {
          "internalType": "uint256",
          "name": "shares",
          "type": "uint256"
        },
        {
          "internalType": "uint256",
          "name": "lastDepositTime",
          "type": "uint256"
        },
        {
          "internalType": "uint256",
          "name": "totalRewardsEarned",
          "type": "uint256"
        },
        {
          "internalType": "uint256",
          "name": "autoCompoundedAmount",
          "type": "uint256"
        }
      ],
      "stateMutability": "view",
      "type": "function"
    },
    {
      "inputs": [
        {
          "internalType": "uint256",
          "name": "shares",
          "type": "uint256"
        }
      ],
      "name": "withdraw",
      "outputs": [],
      "stateMutability": "nonpayable",
      "type": "function"
    }
  ],
  "bytecode": "0x60a06040526109c46004556201518060055560c8600755670de0b6b3a7640000600a5534801561002e57600080fd5b5060405161123138038061123183398101604081905261004d9161013d565b338061007457604051631e4fbdf760e01b8152600060048201526024015b60405180910390fd5b61007d816100ed565b50600180556001600160a01b0381166100d85760405162461bcd60e51b815260206004820152601960248201527f496e76616c69642047545420746f6b656e206164647265737300000000000000604482015260640161006b565b6001600160a01b03166080524260065561016d565b600080546001600160a01b038381166001600160a01b0319831681178455604051919092169283917f8be0079c531659141344cd1fd0a4f28419497f9722a3daafe3b4186f6b6457e09190a35050565b60006020828403121561014f57600080fd5b81516001600160a01b038116811461016657600080fd5b9392505050565b60805161108d6101a460003960008181610157015281816104c90152818161086901528181610b570152610bd4015261108d6000f3fe608060405234801561001057600080fd5b506004361061014d5760003560e01c806387788782116100c3578063bbfe5d7f1161007c578063bbfe5d7f146102d4578063dd7d4670146102dd578063ec18154e146102e6578063f2fde38b146102ef578063f69e204614610302578063f6ed20171461030a57600080fd5b806387788782146102835780638da5cb5b1461028c57806395ccea671461029d5780639a79d32b146102b0578063a59aa5a6146102b9578063b6b55f25146102c157600080fd5b80633f4ba83a116101155780633f4ba83a1461023a5780635b1dac60146102425780635c975abb1461024a57806370897b2314610260578063715018a6146102735780638456cb591461027b57600080fd5b80631712c524146101525780631959a0021461019657806324f45e67146101fb5780632e1a7d4d146102105780633a98ef3914610223575b600080fd5b6101797f000000000000000000000000000000000000000000000000000000000000000081565b6040516001600160a01b0390911681526020015b60405180910390f35b6101d36101a4366004610f3c565b600860205260009081526040902080546001820154600283015460038401546004909401549293919290919085565b604080519586526020860194909452928401919091526060830152608082015260a00161018d565b61020e610209366004610f5e565b61031d565b005b61020e61021e366004610f5e565b6103bb565b61022c60095481565b60405190815260200161018d565b61020e6105c6565b61022c6105d8565b60025460ff16604051901515815260200161018d565b61020e61026e366004610f5e565b610618565b61020e6106ba565b61020e6106cc565b61022c60075481565b6000546001600160a01b0316610179565b61020e6102ab366004610f77565b6106dc565b61022c60045481565b6101d361077b565b61020e6102cf366004610f5e565b6107e7565b61022c60055481565b61022c60065481565b61022c60035481565b61020e6102fd366004610f3c565b6109fe565b61020e610a39565b61022c610318366004610f3c565b610ccb565b610325610da3565b6127108111156103755760405162461bcd60e51b81526020600482015260166024820152754150592063616e6e6f7420657863656564203130302560501b60448201526064015b60405180910390fd5b600480549082905560408051828152602081018490527f787a1fca55641ce34a438271930bbb9401df20db2b4f510d4f252227d85df43d91015b60405180910390a15050565b6103c3610dd0565b33600090815260086020526040902081158015906103e5575080600101548211155b6104285760405162461bcd60e51b8152602060048201526014602482015273125b9d985b1a59081cda185c9948185b5bdd5b9d60621b604482015260640161036c565b60006009546003548461043b9190610fb7565b6104459190610fd4565b90508082600001600082825461045b9190610ff6565b92505081905550828260010160008282546104769190610ff6565b92505081905550806003600082825461048f9190610ff6565b9250508190555082600960008282546104a89190610ff6565b909155505060405163a9059cbb60e01b8152336004820152602481018290527f00000000000000000000000000000000000000000000000000000000000000006001600160a01b03169063a9059cbb906044016020604051808303816000875af115801561051a573d6000803e3d6000fd5b505050506040513d601f19601f8201168201806040525081019061053e9190611009565b61057c5760405162461bcd60e51b815260206004820152600f60248201526e151c985b9cd9995c8819985a5b1959608a1b604482015260640161036c565b604080518281526020810185905233917f92ccf450a286a957af52509bc1c9939d1a6a481783e142e41e2499f0bb66ebc691015b60405180910390a250506105c360018055565b50565b6105ce610da3565b6105d6610dfa565b565b60006009546000036105f15750670de0b6b3a764000090565b60095460035461060990670de0b6b3a7640000610fb7565b6106139190610fd4565b905090565b610620610da3565b6103e881111561067c5760405162461bcd60e51b815260206004820152602160248201527f506572666f726d616e6365206665652063616e6e6f74206578636565642031306044820152602560f81b606482015260840161036c565b600780549082905560408051828152602081018490527f607b1c943753982194530bf7133a5972ea2626e028005410efa54ab20035caf891016103af565b6106c2610da3565b6105d66000610e4c565b6106d4610da3565b6105d6610e9c565b6106e4610da3565b816001600160a01b031663a9059cbb6107056000546001600160a01b031690565b6040516001600160e01b031960e084901b1681526001600160a01b039091166004820152602481018490526044016020604051808303816000875af1158015610752573d6000803e3d6000fd5b505050506040513d601f19601f820116820180604052508101906107769190611009565b505050565b600080600080600060035460045460006009546000146107bc576009546003546107ad90670de0b6b3a7640000610fb7565b6107b79190610fd4565b6107c6565b670de0b6b3a76400005b6005546006546107d6919061102b565b945094509450945094509091929394565b6107ef610dd0565b6107f7610ed9565b600081116108475760405162461bcd60e51b815260206004820181905260248201527f416d6f756e74206d7573742062652067726561746572207468616e207a65726f604482015260640161036c565b6040516323b872dd60e01b8152336004820152306024820152604481018290527f00000000000000000000000000000000000000000000000000000000000000006001600160a01b0316906323b872dd906064016020604051808303816000875af11580156108ba573d6000803e3d6000fd5b505050506040513d601f19601f820116820180604052508101906108de9190611009565b61091c5760405162461bcd60e51b815260206004820152600f60248201526e151c985b9cd9995c8819985a5b1959608a1b604482015260640161036c565b6000600954600014610947576003546009546109389084610fb7565b6109429190610fd4565b610949565b815b3360009081526008602052604081208054929350918491839161096d90849061102b565b9250508190555081816001016000828254610988919061102b565b9091555050426002820155600380548491906000906109a890849061102b565b9250508190555081600960008282546109c1919061102b565b9091555050604080518481526020810184905233917f73a19dd210f1a7f902193214c0ee91dd35ee5b4d920cba8d519eca65a7b488ca91016105b0565b610a06610da3565b6001600160a01b038116610a3057604051631e4fbdf760e01b81526000600482015260240161036c565b6105c381610e4c565b600554600654610a49919061102b565b421015610a905760405162461bcd60e51b8152602060048201526015602482015274151bdbc819585c9b1e481d1bc818dbdb5c1bdd5b99605a1b604482015260640161036c565b600060065442610aa09190610ff6565b90506000612710600454600354610ab79190610fb7565b610ac19190610fd4565b905060006301e13380610ad48484610fb7565b610ade9190610fd4565b90508015610cc257600061271060075483610af99190610fb7565b610b039190610fd4565b90506000610b118284610ff6565b90508060036000828254610b25919061102b565b90915550508115801590610bcd575081600354610b42919061102b565b6040516370a0823160e01b81523060048201527f00000000000000000000000000000000000000000000000000000000000000006001600160a01b0316906370a0823190602401602060405180830381865afa158015610ba6573d6000803e3d6000fd5b505050506040513d601f19601f82011682018060405250810190610bca919061103e565b10155b15610c86577f00000000000000000000000000000000000000000000000000000000000000006001600160a01b031663a9059cbb610c136000546001600160a01b031690565b6040516001600160e01b031960e084901b1681526001600160a01b039091166004820152602481018590526044016020604051808303816000875af1158015610c60573d6000803e3d6000fd5b505050506040513d601f19601f82011682018060405250810190610c849190611009565b505b60408051828152600060208201527f8082b0dab6d73a8025e5f15e4fdd54b68197a613e361810d4a2446c634b98ada910160405180910390a150505b50504260065550565b6001600160a01b0381166000908152600860209081526040808320815160a08101835281548152600182015493810184905260028201549281019290925260038101546060830152600401546080820152908203610d2c5750600092915050565b600060065442610d3c9190610ff6565b90506000612710600454600354610d539190610fb7565b610d5d9190610fd4565b905060006301e13380610d708484610fb7565b610d7a9190610fd4565b9050600954846020015182610d8f9190610fb7565b610d999190610fd4565b9695505050505050565b6000546001600160a01b031633146105d65760405163118cdaa760e01b815233600482015260240161036c565b600260015403610df357604051633ee5aeb560e01b815260040160405180910390fd5b6002600155565b610e02610efd565b6002805460ff191690557f5db9ee0a495bf2e6ff9c91a7834c1ba4fdd244a5e8aa4e537bd38aeae4b073aa335b6040516001600160a01b03909116815260200160405180910390a1565b600080546001600160a01b038381166001600160a01b0319831681178455604051919092169283917f8be0079c531659141344cd1fd0a4f28419497f9722a3daafe3b4186f6b6457e09190a35050565b610ea4610ed9565b6002805460ff191660011790557f62e78cea01bee320cd4e420270b5ea74000d11b0c9f74754ebdbfc544b05a258610e2f3390565b60025460ff16156105d65760405163d93c066560e01b815260040160405180910390fd5b60025460ff166105d657604051638dfc202b60e01b815260040160405180910390fd5b80356001600160a01b0381168114610f3757600080fd5b919050565b600060208284031215610f4e57600080fd5b610f5782610f20565b9392505050565b600060208284031215610f7057600080fd5b5035919050565b60008060408385031215610f8a57600080fd5b610f9383610f20565b946020939093013593505050565b634e487b7160e01b600052601160045260246000fd5b8082028115828204841417610fce57610fce610fa1565b92915050565b600082610ff157634e487b7160e01b600052601260045260246000fd5b500490565b81810381811115610fce57610fce610fa1565b60006020828403121561101b57600080fd5b81518015158114610f5757600080fd5b80820180821115610fce57610fce610fa1565b60006020828403121561105057600080fd5b505191905056fea2646970667358221220acfefd69e8bce983f44682f20236e448e9b550417776e2160ecadda6a1a7cb9264736f6c63430008140033",
  "linkReferences": {},
  "deployedLinkReferences": {}
}