{
  "_format": "hh-sol-artifact-1",
  "contractName": "SimpleGTTToken",
  "sourceName": "contracts/SimpleGTTToken.sol",
  "abi": [
    {
      "inputs": [
        {
          "internalType": "address",
          "name": "_treasury",
          "type": "address"
        },
        {
          "internalType": "address",
          "name": "_yieldPool",
          "type": "address"
        }
      ],
      "stateMutability": "nonpayable",
      "type": "constructor"
    },
    {
      "inputs": [
        {
          "internalType": "address",
          "name": "spender",
          "type": "address"
        },
        {
          "internalType": "uint256",
          "name": "allowance",
          "type": "uint256"
        },
        {
          "internalType": "uint256",
          "name": "needed",
          "type": "uint256"
        }
      ],
      "name": "ERC20InsufficientAllowance",
      "type": "error"
    },
    {
      "inputs": [
        {
          "internalType": "address",
          "name": "sender",
          "type": "address"
        },
        {
          "internalType": "uint256",
          "name": "balance",
          "type": "uint256"
        },
        {
          "internalType": "uint256",
          "name": "needed",
          "type": "uint256"
        }
      ],
      "name": "ERC20InsufficientBalance",
      "type": "error"
    },
    {
      "inputs": [
        {
          "internalType": "address",
          "name": "approver",
          "type": "address"
        }
      ],
      "name": "ERC20InvalidApprover",
      "type": "error"
    },
    {
      "inputs": [
        {
          "internalType": "address",
          "name": "receiver",
          "type": "address"
        }
      ],
      "name": "ERC20InvalidReceiver",
      "type": "error"
    },
    {
      "inputs": [
        {
          "internalType": "address",
          "name": "sender",
          "type": "address"
        }
      ],
      "name": "ERC20InvalidSender",
      "type": "error"
    },
    {
      "inputs": [
        {
          "internalType": "address",
          "name": "spender",
          "type": "address"
        }
      ],
      "name": "ERC20InvalidSpender",
      "type": "error"
    },
    {
      "inputs": [
        {
          "internalType": "address",
          "name": "owner",
          "type": "address"
        }
      ],
      "name": "OwnableInvalidOwner",
      "type": "error"
    },
    {
      "inputs": [
        {
          "internalType": "address",
          "name": "account",
          "type": "address"
        }
      ],
      "name": "OwnableUnauthorizedAccount",
      "type": "error"
    },
    {
      "inputs": [],
      "name": "ReentrancyGuardReentrantCall",
      "type": "error"
    },
    {
      "anonymous": false,
      "inputs": [
        {
          "indexed": true,
          "internalType": "address",
          "name": "owner",
          "type": "address"
        },
        {
          "indexed": true,
          "internalType": "address",
          "name": "spender",
          "type": "address"
        },
        {
          "indexed": false,
          "internalType": "uint256",
          "name": "value",
          "type": "uint256"
        }
      ],
      "name": "Approval",
      "type": "event"
    },
    {
      "anonymous": false,
      "inputs": [
        {
          "indexed": true,
          "internalType": "address",
          "name": "previousOwner",
          "type": "address"
        },
        {
          "indexed": true,
          "internalType": "address",
          "name": "newOwner",
          "type": "address"
        }
      ],
      "name": "OwnershipTransferred",
      "type": "event"
    },
    {
      "anonymous": false,
      "inputs": [
        {
          "indexed": true,
          "internalType": "address",
          "name": "account",
          "type": "address"
        },
        {
          "indexed": false,
          "internalType": "bool",
          "name": "exempt",
          "type": "bool"
        }
      ],
      "name": "TaxExemptionChanged",
      "type": "event"
    },
    {
      "anonymous": false,
      "inputs": [
        {
          "indexed": true,
          "internalType": "address",
          "name": "from",
          "type": "address"
        },
        {
          "indexed": true,
          "internalType": "address",
          "name": "to",
          "type": "address"
        },
        {
          "indexed": false,
          "internalType": "uint256",
          "name": "amount",
          "type": "uint256"
        }
      ],
      "name": "TradingTaxCollected",
      "type": "event"
    },
    {
      "anonymous": false,
      "inputs": [
        {
          "indexed": false,
          "internalType": "uint256",
          "name": "oldRate",
          "type": "uint256"
        },
        {
          "indexed": false,
          "internalType": "uint256",
          "name": "newRate",
          "type": "uint256"
        }
      ],
      "name": "TradingTaxUpdated",
      "type": "event"
    },
    {
      "anonymous": false,
      "inputs": [
        {
          "indexed": true,
          "internalType": "address",
          "name": "from",
          "type": "address"
        },
        {
          "indexed": true,
          "internalType": "address",
          "name": "to",
          "type": "address"
        },
        {
          "indexed": false,
          "internalType": "uint256",
          "name": "value",
          "type": "uint256"
        }
      ],
      "name": "Transfer",
      "type": "event"
    },
    {
      "anonymous": false,
      "inputs": [
        {
          "indexed": true,
          "internalType": "address",
          "name": "recipient",
          "type": "address"
        },
        {
          "indexed": false,
          "internalType": "uint256",
          "name": "amount",
          "type": "uint256"
        }
      ],
      "name": "YieldDistributed",
      "type": "event"
    },
    {
      "inputs": [],
      "name": "INITIAL_SUPPLY",
      "outputs": [
        {
          "internalType": "uint256",
          "name": "",
          "type": "uint256"
        }
      ],
      "stateMutability": "view",
      "type": "function"
    },
    {
      "inputs": [],
      "name": "MAX_SUPPLY",
      "outputs": [
        {
          "internalType": "uint256",
          "name": "",
          "type": "uint256"
        }
      ],
      "stateMutability": "view",
      "type": "function"
    },
    {
      "inputs": [
        {
          "internalType": "address",
          "name": "owner",
          "type": "address"
        },
        {
          "internalType": "address",
          "name": "spender",
          "type": "address"
        }
      ],
      "name": "allowance",
      "outputs": [
        {
          "internalType": "uint256",
          "name": "",
          "type": "uint256"
        }
      ],
      "stateMutability": "view",
      "type": "function"
    },
    {
      "inputs": [
        {
          "internalType": "address",
          "name": "spender",
          "type": "address"
        },
        {
          "internalType": "uint256",
          "name": "value",
          "type": "uint256"
        }
      ],
      "name": "approve",
      "outputs": [
        {
          "internalType": "bool",
          "name": "",
          "type": "bool"
        }
      ],
      "stateMutability": "nonpayable",
      "type": "function"
    },
    {
      "inputs": [
        {
          "internalType": "address",
          "name": "account",
          "type": "address"
        }
      ],
      "name": "balanceOf",
      "outputs": [
        {
          "internalType": "uint256",
          "name": "",
          "type": "uint256"
        }
      ],
      "stateMutability": "view",
      "type": "function"
    },
    {
      "inputs": [
        {
          "internalType": "uint256",
          "name": "amount",
          "type": "uint256"
        }
      ],
      "name": "burn",
      "outputs": [],
      "stateMutability": "nonpayable",
      "type": "function"
    },
    {
      "inputs": [],
      "name": "decimals",
      "outputs": [
        {
          "internalType": "uint8",
          "name": "",
          "type": "uint8"
        }
      ],
      "stateMutability": "view",
      "type": "function"
    },
    {
      "inputs": [
        {
          "internalType": "address",
          "name": "recipient",
          "type": "address"
        },
        {
          "internalType": "uint256",
          "name": "amount",
          "type": "uint256"
        }
      ],
      "name": "distributeYield",
      "outputs": [],
      "stateMutability": "nonpayable",
      "type": "function"
    },
    {
      "inputs": [],
      "name": "getTokenInfo",
      "outputs": [
        {
          "internalType": "uint256",
          "name": "totalSupply_",
          "type": "uint256"
        },
        {
          "internalType": "uint256",
          "name": "maxSupply_",
          "type": "uint256"
        },
        {
          "internalType": "uint256",
          "name": "tradingTax_",
          "type": "uint256"
        },
        {
          "internalType": "address",
          "name": "treasury_",
          "type": "address"
        },
        {
          "internalType": "address",
          "name": "yieldPool_",
          "type": "address"
        }
      ],
      "stateMutability": "view",
      "type": "function"
    },
    {
      "inputs": [
        {
          "internalType": "address",
          "name": "user",
          "type": "address"
        }
      ],
      "name": "getUserStats",
      "outputs": [
        {
          "internalType": "uint256",
          "name": "balance_",
          "type": "uint256"
        },
        {
          "internalType": "uint256",
          "name": "lastTransaction_",
          "type": "uint256"
        },
        {
          "internalType": "uint256",
          "name": "totalYield_",
          "type": "uint256"
        },
        {
          "internalType": "bool",
          "name": "taxExempt_",
          "type": "bool"
        }
      ],
      "stateMutability": "view",
      "type": "function"
    },
    {
      "inputs": [
        {
          "internalType": "address",
          "name": "",
          "type": "address"
        }
      ],
      "name": "isTaxExempt",
      "outputs": [
        {
          "internalType": "bool",
          "name": "",
          "type": "bool"
        }
      ],
      "stateMutability": "view",
      "type": "function"
    },
    {
      "inputs": [
        {
          "internalType": "address",
          "name": "",
          "type": "address"
        }
      ],
      "name": "lastTransactionTime",
      "outputs": [
        {
          "internalType": "uint256",
          "name": "",
          "type": "uint256"
        }
      ],
      "stateMutability": "view",
      "type": "function"
    },
    {
      "inputs": [
        {
          "internalType": "address",
          "name": "to",
          "type": "address"
        },
        {
          "internalType": "uint256",
          "name": "amount",
          "type": "uint256"
        }
      ],
      "name": "mint",
      "outputs": [],
      "stateMutability": "nonpayable",
      "type": "function"
    },
    {
      "inputs": [],
      "name": "name",
      "outputs": [
        {
          "internalType": "string",
          "name": "",
          "type": "string"
        }
      ],
      "stateMutability": "view",
      "type": "function"
    },
    {
      "inputs": [],
      "name": "owner",
      "outputs": [
        {
          "internalType": "address",
          "name": "",
          "type": "address"
        }
      ],
      "stateMutability": "view",
      "type": "function"
    },
    {
      "inputs": [],
      "name": "renounceOwnership",
      "outputs": [],
      "stateMutability": "nonpayable",
      "type": "function"
    },
    {
      "inputs": [
        {
          "internalType": "address",
          "name": "account",
          "type": "address"
        },
        {
          "internalType": "bool",
          "name": "exempt",
          "type": "bool"
        }
      ],
      "name": "setTaxExempt",
      "outputs": [],
      "stateMutability": "nonpayable",
      "type": "function"
    },
    {
      "inputs": [
        {
          "internalType": "uint256",
          "name": "newTaxBP",
          "type": "uint256"
        }
      ],
      "name": "setTradingTax",
      "outputs": [],
      "stateMutability": "nonpayable",
      "type": "function"
    },
    {
      "inputs": [],
      "name": "symbol",
      "outputs": [
        {
          "internalType": "string",
          "name": "",
          "type": "string"
        }
      ],
      "stateMutability": "view",
      "type": "function"
    },
    {
      "inputs": [],
      "name": "totalSupply",
      "outputs": [
        {
          "internalType": "uint256",
          "name": "",
          "type": "uint256"
        }
      ],
      "stateMutability": "view",
      "type": "function"
    },
    {
      "inputs": [
        {
          "internalType": "address",
          "name": "",
          "type": "address"
        }
      ],
      "name": "totalYieldClaimed",
      "outputs": [
        {
          "internalType": "uint256",
          "name": "",
          "type": "uint256"
        }
      ],
      "stateMutability": "view",
      "type": "function"
    },
    {
      "inputs": [],
      "name": "tradingTaxBP",
      "outputs": [
        {
          "internalType": "uint256",
          "name": "",
          "type": "uint256"
        }
      ],
      "stateMutability": "view",
      "type": "function"
    },
    {
      "inputs": [
        {
          "internalType": "address",
          "name": "to",
          "type": "address"
        },
        {
          "internalType": "uint256",
          "name": "value",
          "type": "uint256"
        }
      ],
      "name": "transfer",
      "outputs": [
        {
          "internalType": "bool",
          "name": "",
          "type": "bool"
        }
      ],
      "stateMutability": "nonpayable",
      "type": "function"
    },
    {
      "inputs": [
        {
          "internalType": "address",
          "name": "from",
          "type": "address"
        },
        {
          "internalType": "address",
          "name": "to",
          "type": "address"
        },
        {
          "internalType": "uint256",
          "name": "value",
          "type": "uint256"
        }
      ],
      "name": "transferFrom",
      "outputs": [
        {
          "internalType": "bool",
          "name": "",
          "type": "bool"
        }
      ],
      "stateMutability": "nonpayable",
      "type": "function"
    },
    {
      "inputs": [
        {
          "internalType": "address",
          "name": "newOwner",
          "type": "address"
        }
      ],
      "name": "transferOwnership",
      "outputs": [],
      "stateMutability": "nonpayable",
      "type": "function"
    },
    {
      "inputs": [],
      "name": "treasury",
      "outputs": [
        {
          "internalType": "address",
          "name": "",
          "type": "address"
        }
      ],
      "stateMutability": "view",
      "type": "function"
    },
    {
      "inputs": [],
      "name": "yieldPool",
      "outputs": [
        {
          "internalType": "address",
          "name": "",
          "type": "address"
        }
      ],
      "stateMutability": "view",
      "type": "function"
    }
  ],
  "bytecode": "0x608060405260fa6009553480156200001657600080fd5b50604051620015e3380380620015e3833981016040819052620000399162000416565b336040518060400160405280601981526020017f475541524449414e434841494e20547275746820546f6b656e000000000000008152506040518060400160405280600381526020016211d51560ea1b81525081600390816200009d9190620004f3565b506004620000ac8282620004f3565b5050506001600160a01b038116620000df57604051631e4fbdf760e01b8152600060048201526024015b60405180910390fd5b620000ea8162000236565b5060016006556001600160a01b038216620001485760405162461bcd60e51b815260206004820152601860248201527f496e76616c6964207472656173757279206164647265737300000000000000006044820152606401620000d6565b6001600160a01b038116620001a05760405162461bcd60e51b815260206004820152601a60248201527f496e76616c6964207969656c6420706f6f6c20616464726573730000000000006044820152606401620000d6565b600880546001600160a01b038085166001600160a01b0319928316179092556007805492841692909116919091179055620001e7826a52b7d2dcc80cd2e400000062000288565b6001600160a01b039182166000908152600a60205260408082208054600160ff1991821681179092559390941682528082208054841685179055338252902080549091169091179055620005e7565b600580546001600160a01b038381166001600160a01b0319831681179093556040519116919082907f8be0079c531659141344cd1fd0a4f28419497f9722a3daafe3b4186f6b6457e090600090a35050565b6001600160a01b038216620002b45760405163ec442f0560e01b815260006004820152602401620000d6565b620002c260008383620002c6565b5050565b6001600160a01b038316620002f5578060026000828254620002e99190620005bf565b90915550620003699050565b6001600160a01b038316600090815260208190526040902054818110156200034a5760405163391434e360e21b81526001600160a01b03851660048201526024810182905260448101839052606401620000d6565b6001600160a01b03841660009081526020819052604090209082900390555b6001600160a01b0382166200038757600280548290039055620003a6565b6001600160a01b03821660009081526020819052604090208054820190555b816001600160a01b0316836001600160a01b03167fddf252ad1be2c89b69c2b068fc378daa952ba7f163c4a11628f55a4df523b3ef83604051620003ec91815260200190565b60405180910390a3505050565b80516001600160a01b03811681146200041157600080fd5b919050565b600080604083850312156200042a57600080fd5b6200043583620003f9565b91506200044560208401620003f9565b90509250929050565b634e487b7160e01b600052604160045260246000fd5b600181811c908216806200047957607f821691505b6020821081036200049a57634e487b7160e01b600052602260045260246000fd5b50919050565b601f821115620004ee57600081815260208120601f850160051c81016020861015620004c95750805b601f850160051c820191505b81811015620004ea57828155600101620004d5565b5050505b505050565b81516001600160401b038111156200050f576200050f6200044e565b620005278162000520845462000464565b84620004a0565b602080601f8311600181146200055f5760008415620005465750858301515b600019600386901b1c1916600185901b178555620004ea565b600085815260208120601f198616915b8281101562000590578886015182559484019460019091019084016200056f565b5085821015620005af5787850151600019600388901b60f8161c191681555b5050505050600190811b01905550565b80820180821115620005e157634e487b7160e01b600052601160045260246000fd5b92915050565b610fec80620005f76000396000f3fe608060405234801561001057600080fd5b50600436106101a95760003560e01c80634e43603a116100f9578063a9059cbb11610097578063c3b240b611610071578063c3b240b6146103ee578063dd62ed3e14610401578063e75b20731461043a578063f2fde38b1461045a57600080fd5b8063a9059cbb1461038c578063abb1dc441461039f578063bd4ba9c0146103db57600080fd5b8063715018a6116100d3578063715018a6146103585780638da5cb5b146103605780638f188dd41461037157806395d89b411461038457600080fd5b80634e43603a146102cf57806361d027b31461030457806370a082311461032f57600080fd5b806323b872dd1161016657806332cb6b0c1161014057806332cb6b0c1461028d5780633372d996146102a057806340c10f19146102a957806342966c68146102bc57600080fd5b806323b872dd146102595780632ff2e9dc1461026c578063313ce5671461027e57600080fd5b806306ac7aed146101ae57806306fdde03146101e1578063095ea7b3146101f657806316c2be6b1461021957806318160ddd1461023c5780631dc6104014610244575b600080fd5b6101ce6101bc366004610dfd565b600c6020526000908152604090205481565b6040519081526020015b60405180910390f35b6101e961046d565b6040516101d89190610e1f565b610209610204366004610e6d565b6104ff565b60405190151581526020016101d8565b610209610227366004610dfd565b600a6020526000908152604090205460ff1681565b6002546101ce565b610257610252366004610e97565b610519565b005b610209610267366004610ed3565b6105dc565b6101ce6a52b7d2dcc80cd2e400000081565b604051601281526020016101d8565b6101ce6b033b2e3c9fd0803ce800000081565b6101ce60095481565b6102576102b7366004610e6d565b610600565b6102576102ca366004610f0f565b6106d4565b6102e26102dd366004610dfd565b6106e1565b60408051948552602085019390935291830152151560608201526080016101d8565b600854610317906001600160a01b031681565b6040516001600160a01b0390911681526020016101d8565b6101ce61033d366004610dfd565b6001600160a01b031660009081526020819052604090205490565b610257610745565b6005546001600160a01b0316610317565b600754610317906001600160a01b031681565b6101e9610759565b61020961039a366004610e6d565b610768565b6103a7610776565b604080519586526020860194909452928401919091526001600160a01b03908116606084015216608082015260a0016101d8565b6102576103e9366004610e6d565b6107ba565b6102576103fc366004610f0f565b61092d565b6101ce61040f366004610f28565b6001600160a01b03918216600090815260016020908152604080832093909416825291909152205490565b6101ce610448366004610dfd565b600b6020526000908152604090205481565b610257610468366004610dfd565b6109cc565b60606003805461047c90610f5b565b80601f01602080910402602001604051908101604052809291908181526020018280546104a890610f5b565b80156104f55780601f106104ca576101008083540402835291602001916104f5565b820191906000526020600020905b8154815290600101906020018083116104d857829003601f168201915b5050505050905090565b60003361050d818585610a07565b60019150505b92915050565b610521610a19565b6001600160a01b03821661057c5760405162461bcd60e51b815260206004820152601760248201527f496e76616c6964206163636f756e74206164647265737300000000000000000060448201526064015b60405180910390fd5b6001600160a01b0382166000818152600a6020908152604091829020805460ff191685151590811790915591519182527ff683c34ac024bc3882d7544ca8f618433ba84e43d5a01ae90fadc141c45f2c5991015b60405180910390a25050565b6000336105ea858285610a46565b6105f5858585610ac5565b506001949350505050565b610608610a19565b6001600160a01b03821661065e5760405162461bcd60e51b815260206004820152601960248201527f496e76616c696420726563697069656e742061646472657373000000000000006044820152606401610573565b6b033b2e3c9fd0803ce80000008161067560025490565b61067f9190610f95565b11156106c65760405162461bcd60e51b815260206004820152601660248201527545786365656473206d6178696d756d20737570706c7960501b6044820152606401610573565b6106d08282610b24565b5050565b6106de3382610b5a565b50565b600080600080610706856001600160a01b031660009081526020819052604090205490565b6001600160a01b03959095166000908152600b6020908152604080832054600c835281842054600a9093529220549697919690955060ff169350915050565b61074d610a19565b6107576000610b90565b565b60606004805461047c90610f5b565b60003361050d818585610ac5565b600080600080600061078760025490565b60095460085460075492986b033b2e3c9fd0803ce800000098509196506001600160a01b03908116955090911692509050565b6007546001600160a01b031633146108145760405162461bcd60e51b815260206004820152601e60248201527f4f6e6c79207969656c6420706f6f6c2063616e206469737472696275746500006044820152606401610573565b6001600160a01b03821661085e5760405162461bcd60e51b8152602060048201526011602482015270125b9d985b1a59081c9958da5c1a595b9d607a1b6044820152606401610573565b600081116108ae5760405162461bcd60e51b815260206004820181905260248201527f416d6f756e74206d7573742062652067726561746572207468616e207a65726f6044820152606401610573565b6001600160a01b0382166000908152600c6020526040812080548392906108d6908490610f95565b90915550506007546108f2906001600160a01b03168383610ac5565b816001600160a01b03167f9d315883dbfe38532083c1e42c0d10fbf89ad1cabaa0c269f78b3beb892c101d826040516105d091815260200190565b610935610a19565b6103e88111156109875760405162461bcd60e51b815260206004820152601b60248201527f546178207261746520746f6f206869676820286d6178203130252900000000006044820152606401610573565b600980549082905560408051828152602081018490527f4a0a9731d057a57ad14dd19005bc294a7de48dbca51aee6eddf8e2cb64459578910160405180910390a15050565b6109d4610a19565b6001600160a01b0381166109fe57604051631e4fbdf760e01b815260006004820152602401610573565b6106de81610b90565b610a148383836001610be2565b505050565b6005546001600160a01b031633146107575760405163118cdaa760e01b8152336004820152602401610573565b6001600160a01b03838116600090815260016020908152604080832093861683529290522054600019811015610abf5781811015610ab057604051637dc7a0d960e11b81526001600160a01b03841660048201526024810182905260448101839052606401610573565b610abf84848484036000610be2565b50505050565b6001600160a01b038316610aef57604051634b637e8f60e11b815260006004820152602401610573565b6001600160a01b038216610b195760405163ec442f0560e01b815260006004820152602401610573565b610a14838383610cb7565b6001600160a01b038216610b4e5760405163ec442f0560e01b815260006004820152602401610573565b6106d060008383610cb7565b6001600160a01b038216610b8457604051634b637e8f60e11b815260006004820152602401610573565b6106d082600083610cb7565b600580546001600160a01b038381166001600160a01b0319831681179093556040519116919082907f8be0079c531659141344cd1fd0a4f28419497f9722a3daafe3b4186f6b6457e090600090a35050565b6001600160a01b038416610c0c5760405163e602df0560e01b815260006004820152602401610573565b6001600160a01b038316610c3657604051634a1406b160e11b815260006004820152602401610573565b6001600160a01b0380851660009081526001602090815260408083209387168352929052208290558015610abf57826001600160a01b0316846001600160a01b03167f8c5be1e5ebec7d5bd14f71427d1e84f3dd0314c0f7b2291e5b200ac8c7c3b92584604051610ca991815260200190565b60405180910390a350505050565b6001600160a01b038316610ce2578060026000828254610cd79190610f95565b90915550610d549050565b6001600160a01b03831660009081526020819052604090205481811015610d355760405163391434e360e21b81526001600160a01b03851660048201526024810182905260448101839052606401610573565b6001600160a01b03841660009081526020819052604090209082900390555b6001600160a01b038216610d7057600280548290039055610d8f565b6001600160a01b03821660009081526020819052604090208054820190555b816001600160a01b0316836001600160a01b03167fddf252ad1be2c89b69c2b068fc378daa952ba7f163c4a11628f55a4df523b3ef83604051610dd491815260200190565b60405180910390a3505050565b80356001600160a01b0381168114610df857600080fd5b919050565b600060208284031215610e0f57600080fd5b610e1882610de1565b9392505050565b600060208083528351808285015260005b81811015610e4c57858101830151858201604001528201610e30565b506000604082860101526040601f19601f8301168501019250505092915050565b60008060408385031215610e8057600080fd5b610e8983610de1565b946020939093013593505050565b60008060408385031215610eaa57600080fd5b610eb383610de1565b915060208301358015158114610ec857600080fd5b809150509250929050565b600080600060608486031215610ee857600080fd5b610ef184610de1565b9250610eff60208501610de1565b9150604084013590509250925092565b600060208284031215610f2157600080fd5b5035919050565b60008060408385031215610f3b57600080fd5b610f4483610de1565b9150610f5260208401610de1565b90509250929050565b600181811c90821680610f6f57607f821691505b602082108103610f8f57634e487b7160e01b600052602260045260246000fd5b50919050565b8082018082111561051357634e487b7160e01b600052601160045260246000fdfea26469706673582212208f4d6bc1f1227b34a76c16a8f5b7131fcb39b380459880f157f509e962b1f7be64736f6c63430008140033",
  "linkReferences": {},
  "deployedLinkReferences": {}
}