{
  "_format": "hh-sol-artifact-1",
  "contractName": "TruthAuctionEngine",
  "sourceName": "solidity/contracts/TruthAuctionEngine.sol",
  "abi": [
    {
      "inputs": [],
      "stateMutability": "nonpayable",
      "type": "constructor"
    },
    {
      "inputs": [
        {
          "internalType": "address",
          "name": "owner",
          "type": "address"
        }
      ],
      "name": "OwnableInvalidOwner",
      "type": "error"
    },
    {
      "inputs": [
        {
          "internalType": "address",
          "name": "account",
          "type": "address"
        }
      ],
      "name": "OwnableUnauthorizedAccount",
      "type": "error"
    },
    {
      "inputs": [],
      "name": "ReentrancyGuardReentrantCall",
      "type": "error"
    },
    {
      "anonymous": false,
      "inputs": [
        {
          "indexed": true,
          "internalType": "uint256",
          "name": "id",
          "type": "uint256"
        }
      ],
      "name": "AuctionCancelled",
      "type": "event"
    },
    {
      "anonymous": false,
      "inputs": [
        {
          "indexed": true,
          "internalType": "uint256",
          "name": "id",
          "type": "uint256"
        },
        {
          "indexed": false,
          "internalType": "string",
          "name": "capsuleHash",
          "type": "string"
        },
        {
          "indexed": false,
          "internalType": "uint256",
          "name": "reservePrice",
          "type": "uint256"
        },
        {
          "indexed": false,
          "internalType": "uint256",
          "name": "endTime",
          "type": "uint256"
        }
      ],
      "name": "AuctionCreated",
      "type": "event"
    },
    {
      "anonymous": false,
      "inputs": [
        {
          "indexed": true,
          "internalType": "uint256",
          "name": "id",
          "type": "uint256"
        },
        {
          "indexed": false,
          "internalType": "address",
          "name": "winner",
          "type": "address"
        },
        {
          "indexed": false,
          "internalType": "uint256",
          "name": "finalPrice",
          "type": "uint256"
        }
      ],
      "name": "AuctionSealed",
      "type": "event"
    },
    {
      "anonymous": false,
      "inputs": [
        {
          "indexed": true,
          "internalType": "uint256",
          "name": "id",
          "type": "uint256"
        },
        {
          "indexed": false,
          "internalType": "address",
          "name": "bidder",
          "type": "address"
        },
        {
          "indexed": false,
          "internalType": "uint256",
          "name": "amount",
          "type": "uint256"
        }
      ],
      "name": "BidPlaced",
      "type": "event"
    },
    {
      "anonymous": false,
      "inputs": [
        {
          "indexed": true,
          "internalType": "address",
          "name": "previousOwner",
          "type": "address"
        },
        {
          "indexed": true,
          "internalType": "address",
          "name": "newOwner",
          "type": "address"
        }
      ],
      "name": "OwnershipTransferred",
      "type": "event"
    },
    {
      "anonymous": false,
      "inputs": [
        {
          "indexed": false,
          "internalType": "uint256",
          "name": "newFee",
          "type": "uint256"
        }
      ],
      "name": "PlatformFeeUpdated",
      "type": "event"
    },
    {
      "anonymous": false,
      "inputs": [
        {
          "indexed": false,
          "internalType": "address",
          "name": "bidder",
          "type": "address"
        },
        {
          "indexed": false,
          "internalType": "uint256",
          "name": "amount",
          "type": "uint256"
        }
      ],
      "name": "Withdrawn",
      "type": "event"
    },
    {
      "inputs": [],
      "name": "AUCTION_DURATION",
      "outputs": [
        {
          "internalType": "uint256",
          "name": "",
          "type": "uint256"
        }
      ],
      "stateMutability": "view",
      "type": "function"
    },
    {
      "inputs": [],
      "name": "auctionCounter",
      "outputs": [
        {
          "internalType": "uint256",
          "name": "",
          "type": "uint256"
        }
      ],
      "stateMutability": "view",
      "type": "function"
    },
    {
      "inputs": [
        {
          "internalType": "uint256",
          "name": "",
          "type": "uint256"
        }
      ],
      "name": "auctions",
      "outputs": [
        {
          "internalType": "address",
          "name": "creator",
          "type": "address"
        },
        {
          "internalType": "string",
          "name": "capsuleHash",
          "type": "string"
        },
        {
          "internalType": "uint256",
          "name": "reservePrice",
          "type": "uint256"
        },
        {
          "internalType": "uint256",
          "name": "highestBid",
          "type": "uint256"
        },
        {
          "internalType": "address",
          "name": "highestBidder",
          "type": "address"
        },
        {
          "internalType": "uint256",
          "name": "endTime",
          "type": "uint256"
        },
        {
          "internalType": "bool",
          "name": "isSealed",
          "type": "bool"
        },
        {
          "internalType": "bool",
          "name": "complete",
          "type": "bool"
        },
        {
          "internalType": "bool",
          "name": "cancelled",
          "type": "bool"
        }
      ],
      "stateMutability": "view",
      "type": "function"
    },
    {
      "inputs": [
        {
          "internalType": "uint256",
          "name": "id",
          "type": "uint256"
        }
      ],
      "name": "cancelAuction",
      "outputs": [],
      "stateMutability": "nonpayable",
      "type": "function"
    },
    {
      "inputs": [
        {
          "internalType": "string",
          "name": "",
          "type": "string"
        }
      ],
      "name": "capsuleToAuction",
      "outputs": [
        {
          "internalType": "uint256",
          "name": "",
          "type": "uint256"
        }
      ],
      "stateMutability": "view",
      "type": "function"
    },
    {
      "inputs": [
        {
          "internalType": "string",
          "name": "capsuleHash",
          "type": "string"
        },
        {
          "internalType": "uint256",
          "name": "reservePrice",
          "type": "uint256"
        }
      ],
      "name": "createAuction",
      "outputs": [],
      "stateMutability": "nonpayable",
      "type": "function"
    },
    {
      "inputs": [],
      "name": "emergencyWithdraw",
      "outputs": [],
      "stateMutability": "nonpayable",
      "type": "function"
    },
    {
      "inputs": [
        {
          "internalType": "uint256",
          "name": "id",
          "type": "uint256"
        }
      ],
      "name": "getAuction",
      "outputs": [
        {
          "components": [
            {
              "internalType": "address",
              "name": "creator",
              "type": "address"
            },
            {
              "internalType": "string",
              "name": "capsuleHash",
              "type": "string"
            },
            {
              "internalType": "uint256",
              "name": "reservePrice",
              "type": "uint256"
            },
            {
              "internalType": "uint256",
              "name": "highestBid",
              "type": "uint256"
            },
            {
              "internalType": "address",
              "name": "highestBidder",
              "type": "address"
            },
            {
              "internalType": "uint256",
              "name": "endTime",
              "type": "uint256"
            },
            {
              "internalType": "bool",
              "name": "isSealed",
              "type": "bool"
            },
            {
              "internalType": "bool",
              "name": "complete",
              "type": "bool"
            },
            {
              "internalType": "bool",
              "name": "cancelled",
              "type": "bool"
            }
          ],
          "internalType": "struct TruthAuctionEngine.Auction",
          "name": "",
          "type": "tuple"
        }
      ],
      "stateMutability": "view",
      "type": "function"
    },
    {
      "inputs": [
        {
          "internalType": "string",
          "name": "capsuleHash",
          "type": "string"
        }
      ],
      "name": "getAuctionByCapsule",
      "outputs": [
        {
          "internalType": "uint256",
          "name": "",
          "type": "uint256"
        },
        {
          "components": [
            {
              "internalType": "address",
              "name": "creator",
              "type": "address"
            },
            {
              "internalType": "string",
              "name": "capsuleHash",
              "type": "string"
            },
            {
              "internalType": "uint256",
              "name": "reservePrice",
              "type": "uint256"
            },
            {
              "internalType": "uint256",
              "name": "highestBid",
              "type": "uint256"
            },
            {
              "internalType": "address",
              "name": "highestBidder",
              "type": "address"
            },
            {
              "internalType": "uint256",
              "name": "endTime",
              "type": "uint256"
            },
            {
              "internalType": "bool",
              "name": "isSealed",
              "type": "bool"
            },
            {
              "internalType": "bool",
              "name": "complete",
              "type": "bool"
            },
            {
              "internalType": "bool",
              "name": "cancelled",
              "type": "bool"
            }
          ],
          "internalType": "struct TruthAuctionEngine.Auction",
          "name": "",
          "type": "tuple"
        }
      ],
      "stateMutability": "view",
      "type": "function"
    },
    {
      "inputs": [
        {
          "internalType": "uint256",
          "name": "id",
          "type": "uint256"
        }
      ],
      "name": "isAuctionActive",
      "outputs": [
        {
          "internalType": "bool",
          "name": "",
          "type": "bool"
        }
      ],
      "stateMutability": "view",
      "type": "function"
    },
    {
      "inputs": [],
      "name": "owner",
      "outputs": [
        {
          "internalType": "address",
          "name": "",
          "type": "address"
        }
      ],
      "stateMutability": "view",
      "type": "function"
    },
    {
      "inputs": [
        {
          "internalType": "address",
          "name": "",
          "type": "address"
        }
      ],
      "name": "pendingReturns",
      "outputs": [
        {
          "internalType": "uint256",
          "name": "",
          "type": "uint256"
        }
      ],
      "stateMutability": "view",
      "type": "function"
    },
    {
      "inputs": [
        {
          "internalType": "uint256",
          "name": "id",
          "type": "uint256"
        }
      ],
      "name": "placeBid",
      "outputs": [],
      "stateMutability": "payable",
      "type": "function"
    },
    {
      "inputs": [],
      "name": "platformFee",
      "outputs": [
        {
          "internalType": "uint256",
          "name": "",
          "type": "uint256"
        }
      ],
      "stateMutability": "view",
      "type": "function"
    },
    {
      "inputs": [],
      "name": "renounceOwnership",
      "outputs": [],
      "stateMutability": "nonpayable",
      "type": "function"
    },
    {
      "inputs": [
        {
          "internalType": "uint256",
          "name": "id",
          "type": "uint256"
        }
      ],
      "name": "sealAuction",
      "outputs": [],
      "stateMutability": "nonpayable",
      "type": "function"
    },
    {
      "inputs": [
        {
          "internalType": "uint256",
          "name": "newFee",
          "type": "uint256"
        }
      ],
      "name": "setPlatformFee",
      "outputs": [],
      "stateMutability": "nonpayable",
      "type": "function"
    },
    {
      "inputs": [
        {
          "internalType": "address",
          "name": "newOwner",
          "type": "address"
        }
      ],
      "name": "transferOwnership",
      "outputs": [],
      "stateMutability": "nonpayable",
      "type": "function"
    },
    {
      "inputs": [],
      "name": "withdraw",
      "outputs": [],
      "stateMutability": "nonpayable",
      "type": "function"
    }
  ],
  "bytecode": "0x608060405260fa60065534801561001557600080fd5b506001600055338061004157604051631e4fbdf760e01b81526000600482015260240160405180910390fd5b61004a81610050565b506100a2565b600180546001600160a01b038381166001600160a01b0319831681179093556040519116919082907f8be0079c531659141344cd1fd0a4f28419497f9722a3daafe3b4186f6b6457e090600090a35050565b611b23806100b16000396000f3fe6080604052600436106101145760003560e01c80638da5cb5b116100a0578063a7e7664411610064578063a7e7664414610315578063db2e21bc1461032b578063e71f7b1514610340578063f2fde38b14610370578063ff8952391461039057600080fd5b80638da5cb5b146102835780638f97e81f146102ab57806396b5a755146102cb5780639979ef45146102eb578063a271e525146102fe57600080fd5b80634ac7ec14116100e75780634ac7ec14146101a6578063571a26a0146101de578063715018a61461021357806378bd7935146102285780638d0c58911461025557600080fd5b806312e8e2c31461011957806326232a2e1461013b57806326b387bb146101645780633ccfd60b14610191575b600080fd5b34801561012557600080fd5b5061013961013436600461156d565b6103b0565b005b34801561014757600080fd5b5061015160065481565b6040519081526020015b60405180910390f35b34801561017057600080fd5b5061015161017f366004611586565b60036020526000908152604090205481565b34801561019d57600080fd5b50610139610442565b3480156101b257600080fd5b506101516101c1366004611652565b805160208183018101805160048252928201919093012091525481565b3480156101ea57600080fd5b506101fe6101f936600461156d565b61051f565b60405161015b999897969594939291906116df565b34801561021f57600080fd5b5061013961060c565b34801561023457600080fd5b5061024861024336600461156d565b61061e565b60405161015b91906117e8565b34801561026157600080fd5b50610275610270366004611652565b61074b565b60405161015b9291906117fb565b34801561028f57600080fd5b506001546040516001600160a01b03909116815260200161015b565b3480156102b757600080fd5b506101396102c636600461156d565b6108a4565b3480156102d757600080fd5b506101396102e636600461156d565b610b68565b6101396102f936600461156d565b610d1d565b34801561030a57600080fd5b5061015162093a8081565b34801561032157600080fd5b5061015160055481565b34801561033757600080fd5b50610139610fdc565b34801561034c57600080fd5b5061036061035b36600461156d565b61101d565b604051901515815260200161015b565b34801561037c57600080fd5b5061013961038b366004611586565b611176565b34801561039c57600080fd5b506101396103ab366004611814565b6111b1565b6103b8611460565b6103e88111156104075760405162461bcd60e51b81526020600482015260156024820152744665652063616e6e6f74206578636565642031302560581b60448201526064015b60405180910390fd5b60068190556040518181527f45610d581145924dd7090a5017e5f2b1d6f42213bb2e95707ff86846bbfcb1ca9060200160405180910390a150565b61044a61148d565b336000908152600360205260409020548061049d5760405162461bcd60e51b81526020600482015260136024820152724e6f7468696e6720746f20776974686472617760681b60448201526064016103fe565b336000818152600360205260408082208290555183156108fc0291849190818181858888f193505050501580156104d8573d6000803e3d6000fd5b5060408051338152602081018390527f7084f5476618d8e60b11ef0d7d3f06914655adb8793e28ff7f018d4c76d505d5910160405180910390a15061051d6001600055565b565b600260205260009081526040902080546001820180546001600160a01b03909216929161054b90611859565b80601f016020809104026020016040519081016040528092919081815260200182805461057790611859565b80156105c45780601f10610599576101008083540402835291602001916105c4565b820191906000526020600020905b8154815290600101906020018083116105a757829003601f168201915b5050506002840154600385015460048601546005870154600690970154959692959194506001600160a01b0316925060ff808216916101008104821691620100009091041689565b610614611460565b61051d60006114b7565b610626611509565b6000828152600260209081526040918290208251610120810190935280546001600160a01b03168352600181018054919284019161066390611859565b80601f016020809104026020016040519081016040528092919081815260200182805461068f90611859565b80156106dc5780601f106106b1576101008083540402835291602001916106dc565b820191906000526020600020905b8154815290600101906020018083116106bf57829003601f168201915b5050509183525050600282015460208201526003820154604082015260048201546001600160a01b031660608201526005820154608082015260069091015460ff808216151560a084015261010082048116151560c08401526201000090910416151560e09091015292915050565b6000610755611509565b60006004846040516107679190611893565b908152604080516020928190038301812054600081815260028552839020610120830190935282546001600160a01b031682526001830180549195508594849290840191906107b590611859565b80601f01602080910402602001604051908101604052809291908181526020018280546107e190611859565b801561082e5780601f106108035761010080835404028352916020019161082e565b820191906000526020600020905b81548152906001019060200180831161081157829003601f168201915b5050509183525050600282015460208201526003820154604082015260048201546001600160a01b031660608201526005820154608082015260069091015460ff808216151560a084015261010082048116151560c08401526201000090910416151560e0909101529196919550909350505050565b6108ac61148d565b600081815260026020526040902080546001600160a01b0316331461090b5760405162461bcd60e51b815260206004820152601560248201527413db9b1e4818dc99585d1bdc8818d85b881cd9585b605a1b60448201526064016103fe565b600681015460ff16156109515760405162461bcd60e51b815260206004820152600e60248201526d105b1c9958591e481cd9585b195960921b60448201526064016103fe565b600681015462010000900460ff16156109a05760405162461bcd60e51b8152602060048201526011602482015270105d58dd1a5bdb8818d85b98d95b1b1959607a1b60448201526064016103fe565b8060020154816003015410156109ea5760405162461bcd60e51b815260206004820152600f60248201526e14995cd95c9d99481b9bdd081b595d608a1b60448201526064016103fe565b806005015442101580610a01575060008160030154115b610a445760405162461bcd60e51b815260206004820152601460248201527341756374696f6e207374696c6c2061637469766560601b60448201526064016103fe565b6006818101805461ffff191661010117905554600382015460009161271091610a6d91906118c5565b610a7791906118e2565b90506000818360030154610a8b9190611904565b83546040519192506001600160a01b03169082156108fc029083906000818181858888f19350505050158015610ac5573d6000803e3d6000fd5b508115610b08576001546040516001600160a01b039091169083156108fc029084906000818181858888f19350505050158015610b06573d6000803e3d6000fd5b505b60048301546003840154604080516001600160a01b039093168352602083019190915285917ff18e039742736a3460ade4671a74abfdb317eaeaf81bdf5a0255845771bfed7c910160405180910390a2505050610b656001600055565b50565b600081815260026020526040902080546001600160a01b03163314610bcf5760405162461bcd60e51b815260206004820152601760248201527f4f6e6c792063726561746f722063616e2063616e63656c00000000000000000060448201526064016103fe565b6006810154610100900460ff1615610c1c5760405162461bcd60e51b815260206004820152601060248201526f41756374696f6e20636f6d706c65746560801b60448201526064016103fe565b600681015460ff1615610c625760405162461bcd60e51b815260206004820152600e60248201526d105d58dd1a5bdb881cd9585b195960921b60448201526064016103fe565b600381015415610cb45760405162461bcd60e51b815260206004820152601760248201527f43616e6e6f742063616e63656c2077697468206269647300000000000000000060448201526064016103fe565b60068101805462ff0000191662010000179055604051600090600490610cde906001850190611917565b9081526040519081900360200181209190915582907f2809c7e17bf978fbc7194c0a694b638c4215e9140cacc6c38ca36010b45697df90600090a25050565b610d2561148d565b600081815260026020526040902080546001600160a01b0316610d825760405162461bcd60e51b8152602060048201526015602482015274105d58dd1a5bdb88191bd95cdb89dd08195e1a5cdd605a1b60448201526064016103fe565b6006810154610100900460ff1615610dcf5760405162461bcd60e51b815260206004820152601060248201526f41756374696f6e20636f6d706c65746560801b60448201526064016103fe565b600681015460ff1615610e155760405162461bcd60e51b815260206004820152600e60248201526d105d58dd1a5bdb881cd9585b195960921b60448201526064016103fe565b600681015462010000900460ff1615610e645760405162461bcd60e51b8152602060048201526011602482015270105d58dd1a5bdb8818d85b98d95b1b1959607a1b60448201526064016103fe565b80600501544210610ea75760405162461bcd60e51b815260206004820152600d60248201526c105d58dd1a5bdb88195b991959609a1b60448201526064016103fe565b80600301543411610ee85760405162461bcd60e51b815260206004820152600b60248201526a42696420746f6f206c6f7760a81b60448201526064016103fe565b8060020154341015610f325760405162461bcd60e51b815260206004820152601360248201527242656c6f77207265736572766520707269636560681b60448201526064016103fe565b600381015415610f765760038082015460048301546001600160a01b0316600090815260209290925260408220805491929091610f7090849061198d565b90915550505b34600382018190556004820180546001600160a01b0319163390811790915560408051918252602082019290925283917f0e54eff26401bf69b81b26f60bd85ef47f5d85275c1d268d84f68d6897431c47910160405180910390a250610b656001600055565b610fe4611460565b6001546040516001600160a01b03909116904780156108fc02916000818181858888f19350505050158015610b65573d6000803e3d6000fd5b60008181526002602090815260408083208151610120810190925280546001600160a01b0316825260018101805485948401919061105a90611859565b80601f016020809104026020016040519081016040528092919081815260200182805461108690611859565b80156110d35780601f106110a8576101008083540402835291602001916110d3565b820191906000526020600020905b8154815290600101906020018083116110b657829003601f168201915b5050509183525050600282015460208201526003820154604082015260048201546001600160a01b031660608201526005820154608082015260069091015460ff808216151560a084015261010082048116151560c08401526201000090910416151560e09182015281015190915015801561115157508060c00151155b80156111605750806101000151155b801561116f57508060a0015142105b9392505050565b61117e611460565b6001600160a01b0381166111a857604051631e4fbdf760e01b8152600060048201526024016103fe565b610b65816114b7565b60008251116111f95760405162461bcd60e51b8152602060048201526014602482015273092dcecc2d8d2c840c6c2e0e6ead8ca40d0c2e6d60631b60448201526064016103fe565b600081116112495760405162461bcd60e51b815260206004820152601960248201527f52657365727665207072696365206d757374206265203e20300000000000000060448201526064016103fe565b6004826040516112599190611893565b9081526020016040518091039020546000146112b75760405162461bcd60e51b815260206004820152601960248201527f43617073756c6520616c72656164792061756374696f6e65640000000000000060448201526064016103fe565b600580549060006112c7836119a0565b90915550600090506112dc62093a804261198d565b604080516101208101825233815260208082018781528284018790526000606084018190526080840181905260a0840186905260c0840181905260e08401819052610100840181905260055481526002909252929020815181546001600160a01b0319166001600160a01b0390911617815591519293509160018201906113639082611a08565b506040828101516002830155606083015160038301556080830151600480840180546001600160a01b0319166001600160a01b039093169290921790915560a084015160058085019190915560c08501516006909401805460e08701516101009788015161ffff1990921696151561ff001916969096179515159096029490941762ff000019166201000095151595909502949094179092559154915161140b908690611893565b9081526020016040518091039020819055506005547f5bf34ed94988e5dcdc7d1faaa54eb1d3b55f45d5f11457e235afb21a8ebbe73c84848460405161145393929190611ac8565b60405180910390a2505050565b6001546001600160a01b0316331461051d5760405163118cdaa760e01b81523360048201526024016103fe565b6002600054036114b057604051633ee5aeb560e01b815260040160405180910390fd5b6002600055565b600180546001600160a01b038381166001600160a01b0319831681179093556040519116919082907f8be0079c531659141344cd1fd0a4f28419497f9722a3daafe3b4186f6b6457e090600090a35050565b60405180610120016040528060006001600160a01b0316815260200160608152602001600081526020016000815260200160006001600160a01b03168152602001600081526020016000151581526020016000151581526020016000151581525090565b60006020828403121561157f57600080fd5b5035919050565b60006020828403121561159857600080fd5b81356001600160a01b038116811461116f57600080fd5b634e487b7160e01b600052604160045260246000fd5b600082601f8301126115d657600080fd5b813567ffffffffffffffff808211156115f1576115f16115af565b604051601f8301601f19908116603f01168101908282118183101715611619576116196115af565b8160405283815286602085880101111561163257600080fd5b836020870160208301376000602085830101528094505050505092915050565b60006020828403121561166457600080fd5b813567ffffffffffffffff81111561167b57600080fd5b611687848285016115c5565b949350505050565b60005b838110156116aa578181015183820152602001611692565b50506000910152565b600081518084526116cb81602086016020860161168f565b601f01601f19169290920160200192915050565b6001600160a01b038a81168252610120602083018190526000916117058483018d6116b3565b604085019b909b526060840199909952505094909516608085015260a0840192909252151560c0830152151560e08201529015156101009091015292915050565b600061012060018060a01b038351168452602083015181602086015261176e828601826116b3565b9150506040830151604085015260608301516060850152608083015161179f60808601826001600160a01b03169052565b5060a083015160a085015260c08301516117bd60c086018215159052565b5060e08301516117d160e086018215159052565b506101009283015115159390920192909252919050565b60208152600061116f6020830184611746565b8281526040602082015260006116876040830184611746565b6000806040838503121561182757600080fd5b823567ffffffffffffffff81111561183e57600080fd5b61184a858286016115c5565b95602094909401359450505050565b600181811c9082168061186d57607f821691505b60208210810361188d57634e487b7160e01b600052602260045260246000fd5b50919050565b600082516118a581846020870161168f565b9190910192915050565b634e487b7160e01b600052601160045260246000fd5b80820281158282048414176118dc576118dc6118af565b92915050565b6000826118ff57634e487b7160e01b600052601260045260246000fd5b500490565b818103818111156118dc576118dc6118af565b600080835461192581611859565b6001828116801561193d576001811461195257611981565b60ff1984168752821515830287019450611981565b8760005260208060002060005b858110156119785781548a82015290840190820161195f565b50505082870194505b50929695505050505050565b808201808211156118dc576118dc6118af565b6000600182016119b2576119b26118af565b5060010190565b601f821115611a0357600081815260208120601f850160051c810160208610156119e05750805b601f850160051c820191505b818110156119ff578281556001016119ec565b5050505b505050565b815167ffffffffffffffff811115611a2257611a226115af565b611a3681611a308454611859565b846119b9565b602080601f831160018114611a6b5760008415611a535750858301515b600019600386901b1c1916600185901b1785556119ff565b600085815260208120601f198616915b82811015611a9a57888601518255948401946001909101908401611a7b565b5085821015611ab85787850151600019600388901b60f8161c191681555b5050505050600190811b01905550565b606081526000611adb60608301866116b3565b6020830194909452506040015291905056fea2646970667358221220022107114cfbc3db0fe6b7046994d9f2fcc63ca0c72c617314c2818a1816707c64736f6c63430008140033",
  "linkReferences": {},
  "deployedLinkReferences": {}
}