{
  "_format": "hh-sol-artifact-1",
  "contractName": "CapsuleFactory",
  "sourceName": "solidity/contracts/CapsuleFactory.sol",
  "abi": [
    {
      "anonymous": false,
      "inputs": [
        {
          "indexed": false,
          "internalType": "uint256",
          "name": "id",
          "type": "uint256"
        },
        {
          "indexed": false,
          "internalType": "address",
          "name": "creator",
          "type": "address"
        }
      ],
      "name": "CapsuleCreated",
      "type": "event"
    },
    {
      "anonymous": false,
      "inputs": [
        {
          "indexed": false,
          "internalType": "uint256",
          "name": "id",
          "type": "uint256"
        }
      ],
      "name": "CapsuleSealed",
      "type": "event"
    },
    {
      "inputs": [],
      "name": "capsuleCounter",
      "outputs": [
        {
          "internalType": "uint256",
          "name": "",
          "type": "uint256"
        }
      ],
      "stateMutability": "view",
      "type": "function"
    },
    {
      "inputs": [
        {
          "internalType": "uint256",
          "name": "",
          "type": "uint256"
        }
      ],
      "name": "capsules",
      "outputs": [
        {
          "internalType": "uint256",
          "name": "id",
          "type": "uint256"
        },
        {
          "internalType": "string",
          "name": "contentHash",
          "type": "string"
        },
        {
          "internalType": "address",
          "name": "creator",
          "type": "address"
        },
        {
          "internalType": "bool",
          "name": "isSealed",
          "type": "bool"
        }
      ],
      "stateMutability": "view",
      "type": "function"
    },
    {
      "inputs": [
        {
          "internalType": "string",
          "name": "contentHash",
          "type": "string"
        }
      ],
      "name": "createCapsule",
      "outputs": [
        {
          "internalType": "uint256",
          "name": "",
          "type": "uint256"
        }
      ],
      "stateMutability": "nonpayable",
      "type": "function"
    },
    {
      "inputs": [
        {
          "internalType": "uint256",
          "name": "id",
          "type": "uint256"
        }
      ],
      "name": "sealCapsule",
      "outputs": [],
      "stateMutability": "nonpayable",
      "type": "function"
    }
  ],
  "bytecode": "0x608060405234801561001057600080fd5b50610615806100206000396000f3fe608060405234801561001057600080fd5b506004361061004c5760003560e01c80633b42125d14610051578063517bbf4614610066578063c088926414610092578063d2db53d7146100b3575b600080fd5b61006461005f366004610366565b6100bc565b005b610079610074366004610366565b610176565b604051610089949392919061037f565b60405180910390f35b6100a56100a03660046103ed565b610236565b604051908152602001610089565b6100a560005481565b6000818152600160205260409020600201546001600160a01b031633146101175760405162461bcd60e51b815260206004820152600b60248201526a2737ba1031b932b0ba37b960a91b604482015260640160405180910390fd5b60008181526001602052604090819020600201805460ff60a01b1916600160a01b179055517fbbe6a700095c5d5f8432c17f19894940189a96f4bfe1c8d2bfd5bf314da85c309061016b9083815260200190565b60405180910390a150565b6001602081905260009182526040909120805491810180546101979061045f565b80601f01602080910402602001604051908101604052809291908181526020018280546101c39061045f565b80156102105780601f106101e557610100808354040283529160200191610210565b820191906000526020600020905b8154815290600101906020018083116101f357829003601f168201915b505050600290930154919250506001600160a01b0381169060ff600160a01b9091041684565b6000600160008082825461024a9190610499565b925050819055506040518060800160405280600054815260200184848080601f0160208091040260200160405190810160405280939291908181526020018383808284376000920182905250938552505033602080850191909152604093840183905282548352600180825293909220845181559184015191928301916102d291508261051f565b50604082810151600290920180546060909401511515600160a01b026001600160a81b03199094166001600160a01b039093169290921792909217905560005490517f7f2fc24f69fc16073db18320d8f3c4a27067588e906b12be0abb81a7a4953f67916103539133909182526001600160a01b0316602082015260400190565b60405180910390a1506000545b92915050565b60006020828403121561037857600080fd5b5035919050565b84815260006020608081840152855180608085015260005b818110156103b35787810183015185820160a001528201610397565b50600060a08286018101919091526001600160a01b0396909616604085015293151560608401525050601f909101601f1916010192915050565b6000806020838503121561040057600080fd5b823567ffffffffffffffff8082111561041857600080fd5b818501915085601f83011261042c57600080fd5b81358181111561043b57600080fd5b86602082850101111561044d57600080fd5b60209290920196919550909350505050565b600181811c9082168061047357607f821691505b60208210810361049357634e487b7160e01b600052602260045260246000fd5b50919050565b8082018082111561036057634e487b7160e01b600052601160045260246000fd5b634e487b7160e01b600052604160045260246000fd5b601f82111561051a57600081815260208120601f850160051c810160208610156104f75750805b601f850160051c820191505b8181101561051657828155600101610503565b5050505b505050565b815167ffffffffffffffff811115610539576105396104ba565b61054d81610547845461045f565b846104d0565b602080601f831160018114610582576000841561056a5750858301515b600019600386901b1c1916600185901b178555610516565b600085815260208120601f198616915b828110156105b157888601518255948401946001909101908401610592565b50858210156105cf5787850151600019600388901b60f8161c191681555b5050505050600190811b0190555056fea2646970667358221220e5632021a2d6be8ca2b3a3a6d5d6c1d26bc760c65b57a5801133e7efedc2cf7764736f6c63430008140033",
  "linkReferences": {},
  "deployedLinkReferences": {}
}