{
  "_format": "hh-sol-artifact-1",
  "contractName": "GuardianPass",
  "sourceName": "contracts/GuardianPass.sol",
  "abi": [
    {
      "inputs": [
        {
          "internalType": "string",
          "name": "baseURI",
          "type": "string"
        }
      ],
      "stateMutability": "nonpayable",
      "type": "constructor"
    },
    {
      "inputs": [],
      "name": "ERC721EnumerableForbiddenBatchMint",
      "type": "error"
    },
    {
      "inputs": [
        {
          "internalType": "address",
          "name": "sender",
          "type": "address"
        },
        {
          "internalType": "uint256",
          "name": "tokenId",
          "type": "uint256"
        },
        {
          "internalType": "address",
          "name": "owner",
          "type": "address"
        }
      ],
      "name": "ERC721IncorrectOwner",
      "type": "error"
    },
    {
      "inputs": [
        {
          "internalType": "address",
          "name": "operator",
          "type": "address"
        },
        {
          "internalType": "uint256",
          "name": "tokenId",
          "type": "uint256"
        }
      ],
      "name": "ERC721InsufficientApproval",
      "type": "error"
    },
    {
      "inputs": [
        {
          "internalType": "address",
          "name": "approver",
          "type": "address"
        }
      ],
      "name": "ERC721InvalidApprover",
      "type": "error"
    },
    {
      "inputs": [
        {
          "internalType": "address",
          "name": "operator",
          "type": "address"
        }
      ],
      "name": "ERC721InvalidOperator",
      "type": "error"
    },
    {
      "inputs": [
        {
          "internalType": "address",
          "name": "owner",
          "type": "address"
        }
      ],
      "name": "ERC721InvalidOwner",
      "type": "error"
    },
    {
      "inputs": [
        {
          "internalType": "address",
          "name": "receiver",
          "type": "address"
        }
      ],
      "name": "ERC721InvalidReceiver",
      "type": "error"
    },
    {
      "inputs": [
        {
          "internalType": "address",
          "name": "sender",
          "type": "address"
        }
      ],
      "name": "ERC721InvalidSender",
      "type": "error"
    },
    {
      "inputs": [
        {
          "internalType": "uint256",
          "name": "tokenId",
          "type": "uint256"
        }
      ],
      "name": "ERC721NonexistentToken",
      "type": "error"
    },
    {
      "inputs": [
        {
          "internalType": "address",
          "name": "owner",
          "type": "address"
        },
        {
          "internalType": "uint256",
          "name": "index",
          "type": "uint256"
        }
      ],
      "name": "ERC721OutOfBoundsIndex",
      "type": "error"
    },
    {
      "inputs": [
        {
          "internalType": "address",
          "name": "owner",
          "type": "address"
        }
      ],
      "name": "OwnableInvalidOwner",
      "type": "error"
    },
    {
      "inputs": [
        {
          "internalType": "address",
          "name": "account",
          "type": "address"
        }
      ],
      "name": "OwnableUnauthorizedAccount",
      "type": "error"
    },
    {
      "inputs": [],
      "name": "ReentrancyGuardReentrantCall",
      "type": "error"
    },
    {
      "anonymous": false,
      "inputs": [
        {
          "indexed": true,
          "internalType": "address",
          "name": "owner",
          "type": "address"
        },
        {
          "indexed": true,
          "internalType": "address",
          "name": "approved",
          "type": "address"
        },
        {
          "indexed": true,
          "internalType": "uint256",
          "name": "tokenId",
          "type": "uint256"
        }
      ],
      "name": "Approval",
      "type": "event"
    },
    {
      "anonymous": false,
      "inputs": [
        {
          "indexed": true,
          "internalType": "address",
          "name": "owner",
          "type": "address"
        },
        {
          "indexed": true,
          "internalType": "address",
          "name": "operator",
          "type": "address"
        },
        {
          "indexed": false,
          "internalType": "bool",
          "name": "approved",
          "type": "bool"
        }
      ],
      "name": "ApprovalForAll",
      "type": "event"
    },
    {
      "anonymous": false,
      "inputs": [
        {
          "indexed": true,
          "internalType": "uint256",
          "name": "tokenId",
          "type": "uint256"
        },
        {
          "indexed": false,
          "internalType": "enum GuardianPass.RarityTier",
          "name": "rarity",
          "type": "uint8"
        }
      ],
      "name": "MetadataUpdated",
      "type": "event"
    },
    {
      "anonymous": false,
      "inputs": [
        {
          "indexed": true,
          "internalType": "address",
          "name": "previousOwner",
          "type": "address"
        },
        {
          "indexed": true,
          "internalType": "address",
          "name": "newOwner",
          "type": "address"
        }
      ],
      "name": "OwnershipTransferred",
      "type": "event"
    },
    {
      "anonymous": false,
      "inputs": [
        {
          "indexed": true,
          "internalType": "address",
          "name": "to",
          "type": "address"
        },
        {
          "indexed": true,
          "internalType": "uint256",
          "name": "tokenId",
          "type": "uint256"
        },
        {
          "indexed": false,
          "internalType": "enum GuardianPass.RarityTier",
          "name": "rarity",
          "type": "uint8"
        }
      ],
      "name": "PassMinted",
      "type": "event"
    },
    {
      "anonymous": false,
      "inputs": [
        {
          "indexed": true,
          "internalType": "address",
          "name": "from",
          "type": "address"
        },
        {
          "indexed": true,
          "internalType": "address",
          "name": "to",
          "type": "address"
        },
        {
          "indexed": true,
          "internalType": "uint256",
          "name": "tokenId",
          "type": "uint256"
        }
      ],
      "name": "Transfer",
      "type": "event"
    },
    {
      "inputs": [],
      "name": "MAX_SUPPLY",
      "outputs": [
        {
          "internalType": "uint256",
          "name": "",
          "type": "uint256"
        }
      ],
      "stateMutability": "view",
      "type": "function"
    },
    {
      "inputs": [
        {
          "internalType": "address",
          "name": "to",
          "type": "address"
        },
        {
          "internalType": "uint256",
          "name": "tokenId",
          "type": "uint256"
        }
      ],
      "name": "approve",
      "outputs": [],
      "stateMutability": "nonpayable",
      "type": "function"
    },
    {
      "inputs": [
        {
          "internalType": "address",
          "name": "owner",
          "type": "address"
        }
      ],
      "name": "balanceOf",
      "outputs": [
        {
          "internalType": "uint256",
          "name": "",
          "type": "uint256"
        }
      ],
      "stateMutability": "view",
      "type": "function"
    },
    {
      "inputs": [
        {
          "internalType": "address[]",
          "name": "recipients",
          "type": "address[]"
        },
        {
          "internalType": "enum GuardianPass.RarityTier[]",
          "name": "rarities",
          "type": "uint8[]"
        }
      ],
      "name": "batchMintPasses",
      "outputs": [],
      "stateMutability": "nonpayable",
      "type": "function"
    },
    {
      "inputs": [
        {
          "internalType": "uint256",
          "name": "tokenId",
          "type": "uint256"
        }
      ],
      "name": "getApproved",
      "outputs": [
        {
          "internalType": "address",
          "name": "",
          "type": "address"
        }
      ],
      "stateMutability": "view",
      "type": "function"
    },
    {
      "inputs": [
        {
          "internalType": "address",
          "name": "user",
          "type": "address"
        }
      ],
      "name": "getHighestRarityPass",
      "outputs": [
        {
          "internalType": "enum GuardianPass.RarityTier",
          "name": "",
          "type": "uint8"
        },
        {
          "internalType": "uint256",
          "name": "",
          "type": "uint256"
        }
      ],
      "stateMutability": "view",
      "type": "function"
    },
    {
      "inputs": [
        {
          "internalType": "uint256",
          "name": "tokenId",
          "type": "uint256"
        }
      ],
      "name": "getPassBenefits",
      "outputs": [
        {
          "internalType": "enum GuardianPass.RarityTier",
          "name": "rarity",
          "type": "uint8"
        },
        {
          "internalType": "uint256",
          "name": "boostedAPY",
          "type": "uint256"
        },
        {
          "internalType": "bool",
          "name": "earlyDAOAccess",
          "type": "bool"
        },
        {
          "internalType": "uint256",
          "name": "stakingMultiplier",
          "type": "uint256"
        },
        {
          "internalType": "string",
          "name": "tierName",
          "type": "string"
        }
      ],
      "stateMutability": "view",
      "type": "function"
    },
    {
      "inputs": [],
      "name": "getRaritySupplies",
      "outputs": [
        {
          "internalType": "uint256[5]",
          "name": "supplies",
          "type": "uint256[5]"
        }
      ],
      "stateMutability": "view",
      "type": "function"
    },
    {
      "inputs": [
        {
          "internalType": "address",
          "name": "user",
          "type": "address"
        }
      ],
      "name": "hasGuardianPass",
      "outputs": [
        {
          "internalType": "bool",
          "name": "",
          "type": "bool"
        }
      ],
      "stateMutability": "view",
      "type": "function"
    },
    {
      "inputs": [
        {
          "internalType": "address",
          "name": "owner",
          "type": "address"
        },
        {
          "internalType": "address",
          "name": "operator",
          "type": "address"
        }
      ],
      "name": "isApprovedForAll",
      "outputs": [
        {
          "internalType": "bool",
          "name": "",
          "type": "bool"
        }
      ],
      "stateMutability": "view",
      "type": "function"
    },
    {
      "inputs": [
        {
          "internalType": "address",
          "name": "to",
          "type": "address"
        }
      ],
      "name": "mintEarlyVerifierPass",
      "outputs": [],
      "stateMutability": "nonpayable",
      "type": "function"
    },
    {
      "inputs": [
        {
          "internalType": "address",
          "name": "to",
          "type": "address"
        },
        {
          "internalType": "enum GuardianPass.RarityTier",
          "name": "rarity",
          "type": "uint8"
        }
      ],
      "name": "mintPass",
      "outputs": [],
      "stateMutability": "nonpayable",
      "type": "function"
    },
    {
      "inputs": [],
      "name": "name",
      "outputs": [
        {
          "internalType": "string",
          "name": "",
          "type": "string"
        }
      ],
      "stateMutability": "view",
      "type": "function"
    },
    {
      "inputs": [],
      "name": "owner",
      "outputs": [
        {
          "internalType": "address",
          "name": "",
          "type": "address"
        }
      ],
      "stateMutability": "view",
      "type": "function"
    },
    {
      "inputs": [
        {
          "internalType": "uint256",
          "name": "tokenId",
          "type": "uint256"
        }
      ],
      "name": "ownerOf",
      "outputs": [
        {
          "internalType": "address",
          "name": "",
          "type": "address"
        }
      ],
      "stateMutability": "view",
      "type": "function"
    },
    {
      "inputs": [
        {
          "internalType": "uint256",
          "name": "",
          "type": "uint256"
        }
      ],
      "name": "passMetadata",
      "outputs": [
        {
          "internalType": "enum GuardianPass.RarityTier",
          "name": "rarity",
          "type": "uint8"
        },
        {
          "internalType": "uint256",
          "name": "boostedAPY",
          "type": "uint256"
        },
        {
          "internalType": "bool",
          "name": "earlyDAOAccess",
          "type": "bool"
        },
        {
          "internalType": "uint256",
          "name": "stakingMultiplier",
          "type": "uint256"
        },
        {
          "internalType": "string",
          "name": "tierName",
          "type": "string"
        },
        {
          "internalType": "uint256",
          "name": "mintTime",
          "type": "uint256"
        }
      ],
      "stateMutability": "view",
      "type": "function"
    },
    {
      "inputs": [
        {
          "internalType": "enum GuardianPass.RarityTier",
          "name": "",
          "type": "uint8"
        }
      ],
      "name": "rarityLimits",
      "outputs": [
        {
          "internalType": "uint256",
          "name": "",
          "type": "uint256"
        }
      ],
      "stateMutability": "view",
      "type": "function"
    },
    {
      "inputs": [
        {
          "internalType": "enum GuardianPass.RarityTier",
          "name": "",
          "type": "uint8"
        }
      ],
      "name": "rarityMinted",
      "outputs": [
        {
          "internalType": "uint256",
          "name": "",
          "type": "uint256"
        }
      ],
      "stateMutability": "view",
      "type": "function"
    },
    {
      "inputs": [
        {
          "internalType": "enum GuardianPass.RarityTier",
          "name": "",
          "type": "uint8"
        }
      ],
      "name": "raritySupply",
      "outputs": [
        {
          "internalType": "uint256",
          "name": "",
          "type": "uint256"
        }
      ],
      "stateMutability": "view",
      "type": "function"
    },
    {
      "inputs": [],
      "name": "renounceOwnership",
      "outputs": [],
      "stateMutability": "nonpayable",
      "type": "function"
    },
    {
      "inputs": [
        {
          "internalType": "address",
          "name": "from",
          "type": "address"
        },
        {
          "internalType": "address",
          "name": "to",
          "type": "address"
        },
        {
          "internalType": "uint256",
          "name": "tokenId",
          "type": "uint256"
        }
      ],
      "name": "safeTransferFrom",
      "outputs": [],
      "stateMutability": "nonpayable",
      "type": "function"
    },
    {
      "inputs": [
        {
          "internalType": "address",
          "name": "from",
          "type": "address"
        },
        {
          "internalType": "address",
          "name": "to",
          "type": "address"
        },
        {
          "internalType": "uint256",
          "name": "tokenId",
          "type": "uint256"
        },
        {
          "internalType": "bytes",
          "name": "data",
          "type": "bytes"
        }
      ],
      "name": "safeTransferFrom",
      "outputs": [],
      "stateMutability": "nonpayable",
      "type": "function"
    },
    {
      "inputs": [
        {
          "internalType": "address",
          "name": "operator",
          "type": "address"
        },
        {
          "internalType": "bool",
          "name": "approved",
          "type": "bool"
        }
      ],
      "name": "setApprovalForAll",
      "outputs": [],
      "stateMutability": "nonpayable",
      "type": "function"
    },
    {
      "inputs": [
        {
          "internalType": "string",
          "name": "baseURI",
          "type": "string"
        }
      ],
      "name": "setBaseURI",
      "outputs": [],
      "stateMutability": "nonpayable",
      "type": "function"
    },
    {
      "inputs": [
        {
          "internalType": "bytes4",
          "name": "interfaceId",
          "type": "bytes4"
        }
      ],
      "name": "supportsInterface",
      "outputs": [
        {
          "internalType": "bool",
          "name": "",
          "type": "bool"
        }
      ],
      "stateMutability": "view",
      "type": "function"
    },
    {
      "inputs": [],
      "name": "symbol",
      "outputs": [
        {
          "internalType": "string",
          "name": "",
          "type": "string"
        }
      ],
      "stateMutability": "view",
      "type": "function"
    },
    {
      "inputs": [
        {
          "internalType": "uint256",
          "name": "index",
          "type": "uint256"
        }
      ],
      "name": "tokenByIndex",
      "outputs": [
        {
          "internalType": "uint256",
          "name": "",
          "type": "uint256"
        }
      ],
      "stateMutability": "view",
      "type": "function"
    },
    {
      "inputs": [
        {
          "internalType": "address",
          "name": "owner",
          "type": "address"
        },
        {
          "internalType": "uint256",
          "name": "index",
          "type": "uint256"
        }
      ],
      "name": "tokenOfOwnerByIndex",
      "outputs": [
        {
          "internalType": "uint256",
          "name": "",
          "type": "uint256"
        }
      ],
      "stateMutability": "view",
      "type": "function"
    },
    {
      "inputs": [
        {
          "internalType": "uint256",
          "name": "tokenId",
          "type": "uint256"
        }
      ],
      "name": "tokenURI",
      "outputs": [
        {
          "internalType": "string",
          "name": "",
          "type": "string"
        }
      ],
      "stateMutability": "view",
      "type": "function"
    },
    {
      "inputs": [],
      "name": "totalSupply",
      "outputs": [
        {
          "internalType": "uint256",
          "name": "",
          "type": "uint256"
        }
      ],
      "stateMutability": "view",
      "type": "function"
    },
    {
      "inputs": [
        {
          "internalType": "address",
          "name": "from",
          "type": "address"
        },
        {
          "internalType": "address",
          "name": "to",
          "type": "address"
        },
        {
          "internalType": "uint256",
          "name": "tokenId",
          "type": "uint256"
        }
      ],
      "name": "transferFrom",
      "outputs": [],
      "stateMutability": "nonpayable",
      "type": "function"
    },
    {
      "inputs": [
        {
          "internalType": "address",
          "name": "newOwner",
          "type": "address"
        }
      ],
      "name": "transferOwnership",
      "outputs": [],
      "stateMutability": "nonpayable",
      "type": "function"
    }
  ],
  "bytecode": "0x608060405260016011553480156200001657600080fd5b50604051620030db380380620030db83398101604081905262000039916200022d565b336040518060400160405280601b81526020017f475541524449414e434841494e20477561726469616e205061737300000000008152506040518060400160405280600381526020016204747560ec1b81525081600090816200009d919062000391565b506001620000ac828262000391565b5050506001600160a01b038116620000de57604051631e4fbdf760e01b81526000600482015260240160405180910390fd5b620000e981620001c5565b506001600b556010620000fd828262000391565b5050600f6020526101f47ff4803e074bd026baaf6ed2e288c9515f68c72fb7216eebdd7cae1718a53ec3755561012c7f169f97de0d9a84d840042b17d3c6b9638b3d6fd9024c9eb0c7a306a17b49f88f5560967fa74ba3945261e09fde15ba3db55005b205e61eeb4ad811ac0faa2b315bffeead5560287f45f76dafbbad695564362934e24d72eedc57f9fc1a65f39bca62176cc8296828556004600052600a7f367ccd2d0ac16bf7110a5dffe0801fdc9452a95a1adb7e1a12fe97dd3e9a4edd556200045d565b600a80546001600160a01b038381166001600160a01b0319831681179093556040519116919082907f8be0079c531659141344cd1fd0a4f28419497f9722a3daafe3b4186f6b6457e090600090a35050565b634e487b7160e01b600052604160045260246000fd5b600060208083850312156200024157600080fd5b82516001600160401b03808211156200025957600080fd5b818501915085601f8301126200026e57600080fd5b81518181111562000283576200028362000217565b604051601f8201601f19908116603f01168101908382118183101715620002ae57620002ae62000217565b816040528281528886848701011115620002c757600080fd5b600093505b82841015620002eb5784840186015181850187015292850192620002cc565b600086848301015280965050505050505092915050565b600181811c908216806200031757607f821691505b6020821081036200033857634e487b7160e01b600052602260045260246000fd5b50919050565b601f8211156200038c57600081815260208120601f850160051c81016020861015620003675750805b601f850160051c820191505b81811015620003885782815560010162000373565b5050505b505050565b81516001600160401b03811115620003ad57620003ad62000217565b620003c581620003be845462000302565b846200033e565b602080601f831160018114620003fd5760008415620003e45750858301515b600019600386901b1c1916600185901b17855562000388565b600085815260208120601f198616915b828110156200042e578886015182559484019460019091019084016200040d565b50858210156200044d5787850151600019600388901b60f8161c191681555b5050505050600190811b01905550565b612c6e806200046d6000396000f3fe608060405234801561001057600080fd5b50600436106101f05760003560e01c8063715018a61161010f578063a22cb465116100a2578063c87b56dd11610071578063c87b56dd1461046f578063e32eec3614610482578063e985e9c514610497578063f2fde38b146104aa57600080fd5b8063a22cb46514610416578063b40587e114610429578063b88d4fde14610449578063c40390831461045c57600080fd5b806395d89b41116100de57806395d89b41146103b557806397fa0f97146103bd5780639ba9b29d146103de5780639e2535331461040357600080fd5b8063715018a61461035857806384c7fbb0146103605780638da5cb5b1461038457806392bf6ee11461039557600080fd5b80632f745c59116101875780634f6ccce7116101565780634f6ccce71461030c57806355f804b31461031f5780636352211e1461033257806370a082311461034557600080fd5b80632f745c59146102bd57806332cb6b0c146102d05780634099485b146102d957806342842e0e146102f957600080fd5b806318160ddd116101c357806318160ddd146102725780632105700e1461028457806323b872dd146102975780632f56a67d146102aa57600080fd5b806301ffc9a7146101f557806306fdde031461021d578063081812fc14610232578063095ea7b31461025d575b600080fd5b61020861020336600461235d565b6104bd565b60405190151581526020015b60405180910390f35b6102256104ce565b60405161021491906123ca565b6102456102403660046123dd565b610560565b6040516001600160a01b039091168152602001610214565b61027061026b36600461240d565b610589565b005b6008545b604051908152602001610214565b610270610292366004612446565b610598565b6102706102a5366004612479565b6107cd565b6102086102b83660046124b5565b610858565b6102766102cb36600461240d565b61086b565b6102766103e881565b6102766102e73660046124d0565b600d6020526000908152604090205481565b610270610307366004612479565b6108d0565b61027661031a3660046123dd565b6108f0565b61027061032d3660046124eb565b610949565b6102456103403660046123dd565b61095e565b6102766103533660046124b5565b610969565b6102706109b1565b61037361036e3660046123dd565b6109c5565b604051610214959493929190612595565b600a546001600160a01b0316610245565b6102766103a33660046124d0565b600f6020526000908152604090205481565b610225610b6a565b6103d06103cb3660046124b5565b610b79565b6040516102149291906125d4565b6103f16103ec3660046123dd565b610c1d565b604051610214969594939291906125ef565b6102706104113660046124b5565b610ce2565b610270610424366004612636565b61100f565b6102766104373660046124d0565b600e6020526000908152604090205481565b610270610457366004612688565b61101a565b61027061046a3660046127b0565b611032565b61022561047d3660046123dd565b611434565b61048a61149c565b604051610214919061281c565b6102086104a536600461284d565b611574565b6102706104b83660046124b5565b6115a2565b60006104c8826115e0565b92915050565b6060600080546104dd90612877565b80601f016020809104026020016040519081016040528092919081815260200182805461050990612877565b80156105565780601f1061052b57610100808354040283529160200191610556565b820191906000526020600020905b81548152906001019060200180831161053957829003601f168201915b5050505050905090565b600061056b82611605565b506000828152600460205260409020546001600160a01b03166104c8565b61059482823361163e565b5050565b6105a061164b565b6105a8611678565b6001600160a01b0382166105d75760405162461bcd60e51b81526004016105ce906128b1565b60405180910390fd5b6103e860115411156105fb5760405162461bcd60e51b81526004016105ce906128e8565b600f60008260048111156106115761061161255d565b60048111156106225761062261255d565b815260200190815260200160002054600e60008360048111156106475761064761255d565b60048111156106585761065861255d565b815260200190815260200160002054106106845760405162461bcd60e51b81526004016105ce90612914565b601180546000918261069583612961565b91905055905060006106a6836116a2565b6000838152600c60205260409020815181549293508392829060ff191660018360048111156106d7576106d761255d565b021790555060208201516001820155604082015160028201805460ff1916911515919091179055606082015160038201556080820151600482019061071c90826129c0565b5060a08201518160050155905050600e60008460048111156107405761074061255d565b60048111156107515761075161255d565b8152602001908152602001600020600081548092919061077090612961565b919050555061077f8483611985565b81846001600160a01b03167ff9188ffd3cfd4a7ac11288813d10332eba8da184d1dea52c64fc04bfa6027efe856040516107b99190612a80565b60405180910390a350506105946001600b55565b6001600160a01b0382166107f757604051633250574960e11b8152600060048201526024016105ce565b600061080483833361199f565b9050836001600160a01b0316816001600160a01b031614610852576040516364283d7b60e01b81526001600160a01b03808616600483015260248201849052821660448201526064016105ce565b50505050565b60008061086483610969565b1192915050565b600061087683610969565b82106108a75760405163295f44f760e21b81526001600160a01b0384166004820152602481018390526044016105ce565b506001600160a01b03919091166000908152600660209081526040808320938352929052205490565b6108eb8383836040518060200160405280600081525061101a565b505050565b60006108fb60085490565b82106109245760405163295f44f760e21b815260006004820152602481018390526044016105ce565b6008828154811061093757610937612a8e565b90600052602060002001549050919050565b61095161164b565b60106108eb828483612aa4565b60006104c882611605565b60006001600160a01b038216610995576040516322718ad960e21b8152600060048201526024016105ce565b506001600160a01b031660009081526003602052604090205490565b6109b961164b565b6109c360006119b4565b565b60008080806060816109ec876000908152600260205260409020546001600160a01b031690565b6001600160a01b031603610a395760405162461bcd60e51b8152602060048201526014602482015273151bdad95b88191bd95cc81b9bdd08195e1a5cdd60621b60448201526064016105ce565b6000868152600c6020526040808220815160c081019092528054829060ff166004811115610a6957610a6961255d565b6004811115610a7a57610a7a61255d565b815260018201546020820152600282015460ff161515604082015260038201546060820152600482018054608090920191610ab490612877565b80601f0160208091040260200160405190810160405280929190818152602001828054610ae090612877565b8015610b2d5780601f10610b0257610100808354040283529160200191610b2d565b820191906000526020600020905b815481529060010190602001808311610b1057829003601f168201915b50505091835250506005919091015460209182015281519082015160408301516060840151608090940151929b919a509850919650945092505050565b6060600180546104dd90612877565b6000806000610b8784610969565b905080600003610b9d5750600093849350915050565b60008060005b83811015610c11576000610bb7888361086b565b6000818152600c602052604090205490915060ff16846004811115610bde57610bde61255d565b816004811115610bf057610bf061255d565b10610bfc578094508193505b50508080610c0990612961565b915050610ba3565b50909590945092505050565b600c602052600090815260409020805460018201546002830154600384015460048501805460ff958616969495909316939192610c5990612877565b80601f0160208091040260200160405190810160405280929190818152602001828054610c8590612877565b8015610cd25780601f10610ca757610100808354040283529160200191610cd2565b820191906000526020600020905b815481529060010190602001808311610cb557829003601f168201915b5050505050908060050154905086565b610cea61164b565b600360009081527f45f76dafbbad695564362934e24d72eedc57f9fc1a65f39bca62176cc829682854600e6020527fe0283e559c29e31ee7f56467acc9dd307779c843a883aeeb3bf5c6128c90814454108015610d8c5750600a610d8060115460408051426020808301919091524482840152606080830194909452825180830390940184526080909101909152815191012090565b610d8a9190612b64565b155b15610d9957506003610df9565b60026000527fa74ba3945261e09fde15ba3db55005b205e61eeb4ad811ac0faa2b315bffeead54600e6020527f9adb202b1492743bc00c81d33cdc6423fa8c79109027eb6a845391e8fc1f0481541015610df557506002610df9565b5060015b6001600160a01b038216610e1f5760405162461bcd60e51b81526004016105ce906128b1565b6103e86011541115610e435760405162461bcd60e51b81526004016105ce906128e8565b600f6000826004811115610e5957610e5961255d565b6004811115610e6a57610e6a61255d565b815260200190815260200160002054600e6000836004811115610e8f57610e8f61255d565b6004811115610ea057610ea061255d565b81526020019081526020016000205410610ecc5760405162461bcd60e51b81526004016105ce90612914565b6011805460009182610edd83612961565b9190505590506000610eee836116a2565b6000838152600c60205260409020815181549293508392829060ff19166001836004811115610f1f57610f1f61255d565b021790555060208201516001820155604082015160028201805460ff19169115159190911790556060820151600382015560808201516004820190610f6490826129c0565b5060a08201518160050155905050600e6000846004811115610f8857610f8861255d565b6004811115610f9957610f9961255d565b81526020019081526020016000206000815480929190610fb890612961565b9190505550610fc78483611985565b81846001600160a01b03167ff9188ffd3cfd4a7ac11288813d10332eba8da184d1dea52c64fc04bfa6027efe856040516110019190612a80565b60405180910390a350505050565b610594338383611a06565b6110258484846107cd565b6108523385858585611aa5565b61103a61164b565b8281146110825760405162461bcd60e51b8152602060048201526016602482015275082e4e4c2f2e640d8cadccee8d040dad2e6dac2e8c6d60531b60448201526064016105ce565b60328311156110ca5760405162461bcd60e51b815260206004820152601460248201527342617463682073697a6520746f6f206c6172676560601b60448201526064016105ce565b60005b8381101561142d5760008585838181106110e9576110e9612a8e565b90506020020160208101906110fe91906124b5565b6001600160a01b0316036111245760405162461bcd60e51b81526004016105ce906128b1565b6103e860115411156111485760405162461bcd60e51b81526004016105ce906128e8565b600f600084848481811061115e5761115e612a8e565b905060200201602081019061117391906124d0565b60048111156111845761118461255d565b60048111156111955761119561255d565b815260200190815260200160002054600e60008585858181106111ba576111ba612a8e565b90506020020160208101906111cf91906124d0565b60048111156111e0576111e061255d565b60048111156111f1576111f161255d565b8152602001908152602001600020541061121d5760405162461bcd60e51b81526004016105ce90612914565b601180546000918261122e83612961565b919050559050600061126585858581811061124b5761124b612a8e565b905060200201602081019061126091906124d0565b6116a2565b6000838152600c60205260409020815181549293508392829060ff191660018360048111156112965761129661255d565b021790555060208201516001820155604082015160028201805460ff191691151591909117905560608201516003820155608082015160048201906112db90826129c0565b5060a08201518160050155905050600e60008686868181106112ff576112ff612a8e565b905060200201602081019061131491906124d0565b60048111156113255761132561255d565b60048111156113365761133661255d565b8152602001908152602001600020600081548092919061135590612961565b919050555061138a87878581811061136f5761136f612a8e565b905060200201602081019061138491906124b5565b83611985565b8187878581811061139d5761139d612a8e565b90506020020160208101906113b291906124b5565b6001600160a01b03167ff9188ffd3cfd4a7ac11288813d10332eba8da184d1dea52c64fc04bfa6027efe8787878181106113ee576113ee612a8e565b905060200201602081019061140391906124d0565b6040516114109190612a80565b60405180910390a35050808061142590612961565b9150506110cd565b5050505050565b606061143f82611605565b50600061144a611bcf565b9050600081511161146a5760405180602001604052806000815250611495565b8061147484611bde565b604051602001611485929190612b86565b6040516020818303038152906040525b9392505050565b6114a4612329565b7fe710864318d4a32f37d6ce54cb3fadbef648dd12d8dbdf53973564d56b7f881c5481527fa7c5ba7114a813b50159add3a36832908dc83db71d0b9a24c2ad0f83be958207546020808301919091527f9adb202b1492743bc00c81d33cdc6423fa8c79109027eb6a845391e8fc1f04815460408301527fe0283e559c29e31ee7f56467acc9dd307779c843a883aeeb3bf5c6128c9081445460608301526004600052600e90527fa1d6913cd9e08c872be3e7525cca82e4fc0fc298a783f19022be725b19be685a54608082015290565b6001600160a01b03918216600090815260056020908152604080832093909416825291909152205460ff1690565b6115aa61164b565b6001600160a01b0381166115d457604051631e4fbdf760e01b8152600060048201526024016105ce565b6115dd816119b4565b50565b60006001600160e01b0319821663780e9d6360e01b14806104c857506104c882611c71565b6000818152600260205260408120546001600160a01b0316806104c857604051637e27328960e01b8152600481018490526024016105ce565b6108eb8383836001611cc1565b600a546001600160a01b031633146109c35760405163118cdaa760e01b81523360048201526024016105ce565b6002600b540361169b57604051633ee5aeb560e01b815260040160405180910390fd5b6002600b55565b6116de6040805160c081019091528060008152602001600081526020016000151581526020016000815260200160608152602001600081525090565b60048260048111156116f2576116f261255d565b0361176d576040518060c001604052808360048111156117145761171461255d565b81526020016107d08152602001600115158152602001614e208152602001604051806040016040528060128152602001712632b3b2b73230b93c9023bab0b93234b0b760711b8152508152602001428152509050919050565b60038260048111156117815761178161255d565b036117f7576040518060c001604052808360048111156117a3576117a361255d565b81526020016103e88152602001600115158152602001613a9881526020016040518060400160405280600d81526020016c22b834b19023bab0b93234b0b760991b8152508152602001428152509050919050565b600282600481111561180b5761180b61255d565b03611881576040518060c0016040528083600481111561182d5761182d61255d565b81526020016101f48152602001600115158152602001612ee081526020016040518060400160405280600d81526020016c2930b9329023bab0b93234b0b760991b8152508152602001428152509050919050565b60018260048111156118955761189561255d565b0361190e576040518060c001604052808360048111156118b7576118b761255d565b815260200160fa8152602001600015158152602001612af88152602001604051806040016040528060118152602001702ab731b7b6b6b7b71023bab0b93234b0b760791b8152508152602001428152509050919050565b6040518060c0016040528083600481111561192b5761192b61255d565b81526020016064815260200160001515815260200161290481526020016040518060400160405280600f81526020016e21b7b6b6b7b71023bab0b93234b0b760891b8152508152602001428152509050919050565b919050565b610594828260405180602001604052806000815250611dc7565b60006119ac848484611ddf565b949350505050565b600a80546001600160a01b038381166001600160a01b0319831681179093556040519116919082907f8be0079c531659141344cd1fd0a4f28419497f9722a3daafe3b4186f6b6457e090600090a35050565b6001600160a01b038216611a3857604051630b61174360e31b81526001600160a01b03831660048201526024016105ce565b6001600160a01b03838116600081815260056020908152604080832094871680845294825291829020805460ff191686151590811790915591519182527f17307eab39ab6107e8899845ad3d59bd9653f200f220920489ca2b5937696c31910160405180910390a3505050565b6001600160a01b0383163b1561142d57604051630a85bd0160e11b81526001600160a01b0384169063150b7a0290611ae7908890889087908790600401612bb5565b6020604051808303816000875af1925050508015611b22575060408051601f3d908101601f19168201909252611b1f91810190612bf2565b60015b611b8b573d808015611b50576040519150601f19603f3d011682016040523d82523d6000602084013e611b55565b606091505b508051600003611b8357604051633250574960e11b81526001600160a01b03851660048201526024016105ce565b805160208201fd5b6001600160e01b03198116630a85bd0160e11b14611bc757604051633250574960e11b81526001600160a01b03851660048201526024016105ce565b505050505050565b6060601080546104dd90612877565b60606000611beb83611eac565b600101905060008167ffffffffffffffff811115611c0b57611c0b612672565b6040519080825280601f01601f191660200182016040528015611c35576020820181803683370190505b5090508181016020015b600019016f181899199a1a9b1b9c1cb0b131b232b360811b600a86061a8153600a8504945084611c3f57509392505050565b60006001600160e01b031982166380ac58cd60e01b1480611ca257506001600160e01b03198216635b5e139f60e01b145b806104c857506301ffc9a760e01b6001600160e01b03198316146104c8565b8080611cd557506001600160a01b03821615155b15611d97576000611ce584611605565b90506001600160a01b03831615801590611d115750826001600160a01b0316816001600160a01b031614155b8015611d245750611d228184611574565b155b15611d4d5760405163a9fbf51f60e01b81526001600160a01b03841660048201526024016105ce565b8115611d955783856001600160a01b0316826001600160a01b03167f8c5be1e5ebec7d5bd14f71427d1e84f3dd0314c0f7b2291e5b200ac8c7c3b92560405160405180910390a45b505b5050600090815260046020526040902080546001600160a01b0319166001600160a01b0392909216919091179055565b611dd18383611f84565b6108eb336000858585611aa5565b600080611ded858585611fe9565b90506001600160a01b038116611e4a57611e4584600880546000838152600960205260408120829055600182018355919091527ff3f7a9fe364faab93b216da50a3214154f22a0a2b415b23a84c8169e8b636ee30155565b611e6d565b846001600160a01b0316816001600160a01b031614611e6d57611e6d81856120e2565b6001600160a01b038516611e8957611e8484612163565b6119ac565b846001600160a01b0316816001600160a01b0316146119ac576119ac8585612212565b60008072184f03e93ff9f4daa797ed6e38ed64bf6a1f0160401b8310611eeb5772184f03e93ff9f4daa797ed6e38ed64bf6a1f0160401b830492506040015b6d04ee2d6d415b85acef81000000008310611f17576d04ee2d6d415b85acef8100000000830492506020015b662386f26fc100008310611f3557662386f26fc10000830492506010015b6305f5e1008310611f4d576305f5e100830492506008015b6127108310611f6157612710830492506004015b60648310611f73576064830492506002015b600a83106104c85760010192915050565b6001600160a01b038216611fae57604051633250574960e11b8152600060048201526024016105ce565b6000611fbc8383600061199f565b90506001600160a01b038116156108eb576040516339e3563760e11b8152600060048201526024016105ce565b6000828152600260205260408120546001600160a01b039081169083161561201657612016818486612262565b6001600160a01b0381161561205457612033600085600080611cc1565b6001600160a01b038116600090815260036020526040902080546000190190555b6001600160a01b03851615612083576001600160a01b0385166000908152600360205260409020805460010190555b60008481526002602052604080822080546001600160a01b0319166001600160a01b0389811691821790925591518793918516917fddf252ad1be2c89b69c2b068fc378daa952ba7f163c4a11628f55a4df523b3ef91a4949350505050565b60006120ed83610969565b6000838152600760209081526040808320546001600160a01b038816845260069092529091209192509081831461214457600083815260208281526040808320548584528184208190558352600790915290208290555b6000938452600760209081526040808620869055938552525081205550565b60085460009061217590600190612c0f565b6000838152600960205260408120546008805493945090928490811061219d5761219d612a8e565b9060005260206000200154905080600883815481106121be576121be612a8e565b60009182526020808320909101929092558281526009909152604080822084905585825281205560088054806121f6576121f6612c22565b6001900381819060005260206000200160009055905550505050565b6000600161221f84610969565b6122299190612c0f565b6001600160a01b039093166000908152600660209081526040808320868452825280832085905593825260079052919091209190915550565b61226d8383836122c6565b6108eb576001600160a01b03831661229b57604051637e27328960e01b8152600481018290526024016105ce565b60405163177e802f60e01b81526001600160a01b0383166004820152602481018290526044016105ce565b60006001600160a01b038316158015906119ac5750826001600160a01b0316846001600160a01b0316148061230057506123008484611574565b806119ac5750506000908152600460205260409020546001600160a01b03908116911614919050565b6040518060a001604052806005906020820280368337509192915050565b6001600160e01b0319811681146115dd57600080fd5b60006020828403121561236f57600080fd5b813561149581612347565b60005b8381101561239557818101518382015260200161237d565b50506000910152565b600081518084526123b681602086016020860161237a565b601f01601f19169290920160200192915050565b602081526000611495602083018461239e565b6000602082840312156123ef57600080fd5b5035919050565b80356001600160a01b038116811461198057600080fd5b6000806040838503121561242057600080fd5b612429836123f6565b946020939093013593505050565b80356005811061198057600080fd5b6000806040838503121561245957600080fd5b612462836123f6565b915061247060208401612437565b90509250929050565b60008060006060848603121561248e57600080fd5b612497846123f6565b92506124a5602085016123f6565b9150604084013590509250925092565b6000602082840312156124c757600080fd5b611495826123f6565b6000602082840312156124e257600080fd5b61149582612437565b600080602083850312156124fe57600080fd5b823567ffffffffffffffff8082111561251657600080fd5b818501915085601f83011261252a57600080fd5b81358181111561253957600080fd5b86602082850101111561254b57600080fd5b60209290920196919550909350505050565b634e487b7160e01b600052602160045260246000fd5b6005811061259157634e487b7160e01b600052602160045260246000fd5b9052565b61259f8187612573565b846020820152831515604082015282606082015260a0608082015260006125c960a083018461239e565b979650505050505050565b604081016125e28285612573565b8260208301529392505050565b6125f98188612573565b856020820152841515604082015283606082015260c06080820152600061262360c083018561239e565b90508260a0830152979650505050505050565b6000806040838503121561264957600080fd5b612652836123f6565b91506020830135801515811461266757600080fd5b809150509250929050565b634e487b7160e01b600052604160045260246000fd5b6000806000806080858703121561269e57600080fd5b6126a7856123f6565b93506126b5602086016123f6565b925060408501359150606085013567ffffffffffffffff808211156126d957600080fd5b818701915087601f8301126126ed57600080fd5b8135818111156126ff576126ff612672565b604051601f8201601f19908116603f0116810190838211818310171561272757612727612672565b816040528281528a602084870101111561274057600080fd5b82602086016020830137600060208483010152809550505050505092959194509250565b60008083601f84011261277657600080fd5b50813567ffffffffffffffff81111561278e57600080fd5b6020830191508360208260051b85010111156127a957600080fd5b9250929050565b600080600080604085870312156127c657600080fd5b843567ffffffffffffffff808211156127de57600080fd5b6127ea88838901612764565b9096509450602087013591508082111561280357600080fd5b5061281087828801612764565b95989497509550505050565b60a08101818360005b6005811015612844578151835260209283019290910190600101612825565b50505092915050565b6000806040838503121561286057600080fd5b612869836123f6565b9150612470602084016123f6565b600181811c9082168061288b57607f821691505b6020821081036128ab57634e487b7160e01b600052602260045260246000fd5b50919050565b60208082526019908201527f496e76616c696420726563697069656e74206164647265737300000000000000604082015260600190565b60208082526012908201527113585e081cdd5c1c1b1e481c995858da195960721b604082015260600190565b6020808252601c908201527f526172697479207469657220737570706c792065786861757374656400000000604082015260600190565b634e487b7160e01b600052601160045260246000fd5b6000600182016129735761297361294b565b5060010190565b601f8211156108eb57600081815260208120601f850160051c810160208610156129a15750805b601f850160051c820191505b81811015611bc7578281556001016129ad565b815167ffffffffffffffff8111156129da576129da612672565b6129ee816129e88454612877565b8461297a565b602080601f831160018114612a235760008415612a0b5750858301515b600019600386901b1c1916600185901b178555611bc7565b600085815260208120601f198616915b82811015612a5257888601518255948401946001909101908401612a33565b5085821015612a705787850151600019600388901b60f8161c191681555b5050505050600190811b01905550565b602081016104c88284612573565b634e487b7160e01b600052603260045260246000fd5b67ffffffffffffffff831115612abc57612abc612672565b612ad083612aca8354612877565b8361297a565b6000601f841160018114612b045760008515612aec5750838201355b600019600387901b1c1916600186901b17835561142d565b600083815260209020601f19861690835b82811015612b355786850135825560209485019460019092019101612b15565b5086821015612b525760001960f88860031b161c19848701351681555b505060018560011b0183555050505050565b600082612b8157634e487b7160e01b600052601260045260246000fd5b500690565b60008351612b9881846020880161237a565b835190830190612bac81836020880161237a565b01949350505050565b6001600160a01b0385811682528416602082015260408101839052608060608201819052600090612be89083018461239e565b9695505050505050565b600060208284031215612c0457600080fd5b815161149581612347565b818103818111156104c8576104c861294b565b634e487b7160e01b600052603160045260246000fdfea26469706673582212201522a161b340e9e7fee7c134e529c5639a84f7a930bdbd737329330a39e631c164736f6c63430008140033",
  "linkReferences": {},
  "deployedLinkReferences": {}
}