{
  "_format": "hh-sol-artifact-1",
  "contractName": "GTTTokenPlanB",
  "sourceName": "contracts/GTTTokenPlanB.sol",
  "abi": [
    {
      "inputs": [
        {
          "internalType": "address",
          "name": "_founderWallet",
          "type": "address"
        },
        {
          "internalType": "address",
          "name": "_communityPool",
          "type": "address"
        },
        {
          "internalType": "address",
          "name": "_protocolTreasury",
          "type": "address"
        }
      ],
      "stateMutability": "nonpayable",
      "type": "constructor"
    },
    {
      "inputs": [
        {
          "internalType": "address",
          "name": "spender",
          "type": "address"
        },
        {
          "internalType": "uint256",
          "name": "allowance",
          "type": "uint256"
        },
        {
          "internalType": "uint256",
          "name": "needed",
          "type": "uint256"
        }
      ],
      "name": "ERC20InsufficientAllowance",
      "type": "error"
    },
    {
      "inputs": [
        {
          "internalType": "address",
          "name": "sender",
          "type": "address"
        },
        {
          "internalType": "uint256",
          "name": "balance",
          "type": "uint256"
        },
        {
          "internalType": "uint256",
          "name": "needed",
          "type": "uint256"
        }
      ],
      "name": "ERC20InsufficientBalance",
      "type": "error"
    },
    {
      "inputs": [
        {
          "internalType": "address",
          "name": "approver",
          "type": "address"
        }
      ],
      "name": "ERC20InvalidApprover",
      "type": "error"
    },
    {
      "inputs": [
        {
          "internalType": "address",
          "name": "receiver",
          "type": "address"
        }
      ],
      "name": "ERC20InvalidReceiver",
      "type": "error"
    },
    {
      "inputs": [
        {
          "internalType": "address",
          "name": "sender",
          "type": "address"
        }
      ],
      "name": "ERC20InvalidSender",
      "type": "error"
    },
    {
      "inputs": [
        {
          "internalType": "address",
          "name": "spender",
          "type": "address"
        }
      ],
      "name": "ERC20InvalidSpender",
      "type": "error"
    },
    {
      "inputs": [
        {
          "internalType": "address",
          "name": "owner",
          "type": "address"
        }
      ],
      "name": "OwnableInvalidOwner",
      "type": "error"
    },
    {
      "inputs": [
        {
          "internalType": "address",
          "name": "account",
          "type": "address"
        }
      ],
      "name": "OwnableUnauthorizedAccount",
      "type": "error"
    },
    {
      "inputs": [],
      "name": "ReentrancyGuardReentrantCall",
      "type": "error"
    },
    {
      "anonymous": false,
      "inputs": [
        {
          "indexed": true,
          "internalType": "address",
          "name": "owner",
          "type": "address"
        },
        {
          "indexed": true,
          "internalType": "address",
          "name": "spender",
          "type": "address"
        },
        {
          "indexed": false,
          "internalType": "uint256",
          "name": "value",
          "type": "uint256"
        }
      ],
      "name": "Approval",
      "type": "event"
    },
    {
      "anonymous": false,
      "inputs": [
        {
          "indexed": true,
          "internalType": "address",
          "name": "creator",
          "type": "address"
        }
      ],
      "name": "CreatorVerified",
      "type": "event"
    },
    {
      "anonymous": false,
      "inputs": [
        {
          "indexed": false,
          "internalType": "uint256",
          "name": "amount",
          "type": "uint256"
        },
        {
          "indexed": true,
          "internalType": "address",
          "name": "from",
          "type": "address"
        },
        {
          "indexed": true,
          "internalType": "address",
          "name": "to",
          "type": "address"
        }
      ],
      "name": "FeesCollected",
      "type": "event"
    },
    {
      "anonymous": false,
      "inputs": [
        {
          "indexed": true,
          "internalType": "address",
          "name": "previousOwner",
          "type": "address"
        },
        {
          "indexed": true,
          "internalType": "address",
          "name": "newOwner",
          "type": "address"
        }
      ],
      "name": "OwnershipTransferred",
      "type": "event"
    },
    {
      "anonymous": false,
      "inputs": [
        {
          "indexed": true,
          "internalType": "address",
          "name": "user",
          "type": "address"
        },
        {
          "indexed": false,
          "internalType": "uint256",
          "name": "newScore",
          "type": "uint256"
        }
      ],
      "name": "ReputationUpdated",
      "type": "event"
    },
    {
      "anonymous": false,
      "inputs": [
        {
          "indexed": false,
          "internalType": "uint256",
          "name": "amount",
          "type": "uint256"
        }
      ],
      "name": "TokensBurned",
      "type": "event"
    },
    {
      "anonymous": false,
      "inputs": [
        {
          "indexed": true,
          "internalType": "address",
          "name": "from",
          "type": "address"
        },
        {
          "indexed": true,
          "internalType": "address",
          "name": "to",
          "type": "address"
        },
        {
          "indexed": false,
          "internalType": "uint256",
          "name": "value",
          "type": "uint256"
        }
      ],
      "name": "Transfer",
      "type": "event"
    },
    {
      "inputs": [],
      "name": "BURN_RATE",
      "outputs": [
        {
          "internalType": "uint256",
          "name": "",
          "type": "uint256"
        }
      ],
      "stateMutability": "view",
      "type": "function"
    },
    {
      "inputs": [],
      "name": "COMMUNITY_REWARDS",
      "outputs": [
        {
          "internalType": "uint256",
          "name": "",
          "type": "uint256"
        }
      ],
      "stateMutability": "view",
      "type": "function"
    },
    {
      "inputs": [],
      "name": "ENTERPRISE_PARTNERSHIPS",
      "outputs": [
        {
          "internalType": "uint256",
          "name": "",
          "type": "uint256"
        }
      ],
      "stateMutability": "view",
      "type": "function"
    },
    {
      "inputs": [],
      "name": "FOUNDER_ALLOCATION",
      "outputs": [
        {
          "internalType": "uint256",
          "name": "",
          "type": "uint256"
        }
      ],
      "stateMutability": "view",
      "type": "function"
    },
    {
      "inputs": [],
      "name": "PROTOCOL_DEVELOPMENT",
      "outputs": [
        {
          "internalType": "uint256",
          "name": "",
          "type": "uint256"
        }
      ],
      "stateMutability": "view",
      "type": "function"
    },
    {
      "inputs": [],
      "name": "TOTAL_SUPPLY",
      "outputs": [
        {
          "internalType": "uint256",
          "name": "",
          "type": "uint256"
        }
      ],
      "stateMutability": "view",
      "type": "function"
    },
    {
      "inputs": [],
      "name": "TRANSACTION_FEE_RATE",
      "outputs": [
        {
          "internalType": "uint256",
          "name": "",
          "type": "uint256"
        }
      ],
      "stateMutability": "view",
      "type": "function"
    },
    {
      "inputs": [
        {
          "internalType": "address",
          "name": "owner",
          "type": "address"
        },
        {
          "internalType": "address",
          "name": "spender",
          "type": "address"
        }
      ],
      "name": "allowance",
      "outputs": [
        {
          "internalType": "uint256",
          "name": "",
          "type": "uint256"
        }
      ],
      "stateMutability": "view",
      "type": "function"
    },
    {
      "inputs": [
        {
          "internalType": "address",
          "name": "spender",
          "type": "address"
        },
        {
          "internalType": "uint256",
          "name": "value",
          "type": "uint256"
        }
      ],
      "name": "approve",
      "outputs": [
        {
          "internalType": "bool",
          "name": "",
          "type": "bool"
        }
      ],
      "stateMutability": "nonpayable",
      "type": "function"
    },
    {
      "inputs": [
        {
          "internalType": "address",
          "name": "account",
          "type": "address"
        }
      ],
      "name": "balanceOf",
      "outputs": [
        {
          "internalType": "uint256",
          "name": "",
          "type": "uint256"
        }
      ],
      "stateMutability": "view",
      "type": "function"
    },
    {
      "inputs": [
        {
          "internalType": "uint256",
          "name": "value",
          "type": "uint256"
        }
      ],
      "name": "burn",
      "outputs": [],
      "stateMutability": "nonpayable",
      "type": "function"
    },
    {
      "inputs": [
        {
          "internalType": "address",
          "name": "account",
          "type": "address"
        },
        {
          "internalType": "uint256",
          "name": "value",
          "type": "uint256"
        }
      ],
      "name": "burnFrom",
      "outputs": [],
      "stateMutability": "nonpayable",
      "type": "function"
    },
    {
      "inputs": [],
      "name": "communityRewardsPool",
      "outputs": [
        {
          "internalType": "address",
          "name": "",
          "type": "address"
        }
      ],
      "stateMutability": "view",
      "type": "function"
    },
    {
      "inputs": [],
      "name": "decimals",
      "outputs": [
        {
          "internalType": "uint8",
          "name": "",
          "type": "uint8"
        }
      ],
      "stateMutability": "view",
      "type": "function"
    },
    {
      "inputs": [
        {
          "internalType": "address",
          "name": "",
          "type": "address"
        }
      ],
      "name": "exemptFromFees",
      "outputs": [
        {
          "internalType": "bool",
          "name": "",
          "type": "bool"
        }
      ],
      "stateMutability": "view",
      "type": "function"
    },
    {
      "inputs": [],
      "name": "founderWallet",
      "outputs": [
        {
          "internalType": "address",
          "name": "",
          "type": "address"
        }
      ],
      "stateMutability": "view",
      "type": "function"
    },
    {
      "inputs": [],
      "name": "getPlanBSummary",
      "outputs": [
        {
          "internalType": "uint256",
          "name": "supply",
          "type": "uint256"
        },
        {
          "internalType": "uint256",
          "name": "feeRate",
          "type": "uint256"
        },
        {
          "internalType": "uint256",
          "name": "burnRate",
          "type": "uint256"
        },
        {
          "internalType": "uint256",
          "name": "feesCollected",
          "type": "uint256"
        },
        {
          "internalType": "uint256",
          "name": "feesBurned",
          "type": "uint256"
        }
      ],
      "stateMutability": "view",
      "type": "function"
    },
    {
      "inputs": [],
      "name": "name",
      "outputs": [
        {
          "internalType": "string",
          "name": "",
          "type": "string"
        }
      ],
      "stateMutability": "view",
      "type": "function"
    },
    {
      "inputs": [],
      "name": "owner",
      "outputs": [
        {
          "internalType": "address",
          "name": "",
          "type": "address"
        }
      ],
      "stateMutability": "view",
      "type": "function"
    },
    {
      "inputs": [],
      "name": "protocolTreasury",
      "outputs": [
        {
          "internalType": "address",
          "name": "",
          "type": "address"
        }
      ],
      "stateMutability": "view",
      "type": "function"
    },
    {
      "inputs": [
        {
          "internalType": "address",
          "name": "partner",
          "type": "address"
        },
        {
          "internalType": "uint256",
          "name": "amount",
          "type": "uint256"
        }
      ],
      "name": "releasePartnershipTokens",
      "outputs": [],
      "stateMutability": "nonpayable",
      "type": "function"
    },
    {
      "inputs": [],
      "name": "renounceOwnership",
      "outputs": [],
      "stateMutability": "nonpayable",
      "type": "function"
    },
    {
      "inputs": [
        {
          "internalType": "address",
          "name": "",
          "type": "address"
        }
      ],
      "name": "reputationScores",
      "outputs": [
        {
          "internalType": "uint256",
          "name": "",
          "type": "uint256"
        }
      ],
      "stateMutability": "view",
      "type": "function"
    },
    {
      "inputs": [
        {
          "internalType": "address",
          "name": "account",
          "type": "address"
        },
        {
          "internalType": "bool",
          "name": "exempt",
          "type": "bool"
        }
      ],
      "name": "setFeeExemption",
      "outputs": [],
      "stateMutability": "nonpayable",
      "type": "function"
    },
    {
      "inputs": [
        {
          "internalType": "address",
          "name": "user",
          "type": "address"
        }
      ],
      "name": "stakingRewards",
      "outputs": [
        {
          "internalType": "uint256",
          "name": "",
          "type": "uint256"
        }
      ],
      "stateMutability": "view",
      "type": "function"
    },
    {
      "inputs": [],
      "name": "symbol",
      "outputs": [
        {
          "internalType": "string",
          "name": "",
          "type": "string"
        }
      ],
      "stateMutability": "view",
      "type": "function"
    },
    {
      "inputs": [],
      "name": "totalFeesBurned",
      "outputs": [
        {
          "internalType": "uint256",
          "name": "",
          "type": "uint256"
        }
      ],
      "stateMutability": "view",
      "type": "function"
    },
    {
      "inputs": [],
      "name": "totalFeesCollected",
      "outputs": [
        {
          "internalType": "uint256",
          "name": "",
          "type": "uint256"
        }
      ],
      "stateMutability": "view",
      "type": "function"
    },
    {
      "inputs": [],
      "name": "totalSupply",
      "outputs": [
        {
          "internalType": "uint256",
          "name": "",
          "type": "uint256"
        }
      ],
      "stateMutability": "view",
      "type": "function"
    },
    {
      "inputs": [
        {
          "internalType": "address",
          "name": "to",
          "type": "address"
        },
        {
          "internalType": "uint256",
          "name": "amount",
          "type": "uint256"
        }
      ],
      "name": "transfer",
      "outputs": [
        {
          "internalType": "bool",
          "name": "",
          "type": "bool"
        }
      ],
      "stateMutability": "nonpayable",
      "type": "function"
    },
    {
      "inputs": [
        {
          "internalType": "address",
          "name": "from",
          "type": "address"
        },
        {
          "internalType": "address",
          "name": "to",
          "type": "address"
        },
        {
          "internalType": "uint256",
          "name": "amount",
          "type": "uint256"
        }
      ],
      "name": "transferFrom",
      "outputs": [
        {
          "internalType": "bool",
          "name": "",
          "type": "bool"
        }
      ],
      "stateMutability": "nonpayable",
      "type": "function"
    },
    {
      "inputs": [
        {
          "internalType": "address",
          "name": "newOwner",
          "type": "address"
        }
      ],
      "name": "transferOwnership",
      "outputs": [],
      "stateMutability": "nonpayable",
      "type": "function"
    },
    {
      "inputs": [
        {
          "internalType": "address",
          "name": "newFounder",
          "type": "address"
        },
        {
          "internalType": "address",
          "name": "newCommunityPool",
          "type": "address"
        },
        {
          "internalType": "address",
          "name": "newTreasury",
          "type": "address"
        }
      ],
      "name": "updateAddresses",
      "outputs": [],
      "stateMutability": "nonpayable",
      "type": "function"
    },
    {
      "inputs": [
        {
          "internalType": "address",
          "name": "user",
          "type": "address"
        },
        {
          "internalType": "uint256",
          "name": "score",
          "type": "uint256"
        }
      ],
      "name": "updateReputation",
      "outputs": [],
      "stateMutability": "nonpayable",
      "type": "function"
    },
    {
      "inputs": [
        {
          "internalType": "address",
          "name": "user",
          "type": "address"
        }
      ],
      "name": "verificationRewards",
      "outputs": [
        {
          "internalType": "uint256",
          "name": "",
          "type": "uint256"
        }
      ],
      "stateMutability": "view",
      "type": "function"
    },
    {
      "inputs": [
        {
          "internalType": "address",
          "name": "",
          "type": "address"
        }
      ],
      "name": "verifiedCreators",
      "outputs": [
        {
          "internalType": "bool",
          "name": "",
          "type": "bool"
        }
      ],
      "stateMutability": "view",
      "type": "function"
    },
    {
      "inputs": [
        {
          "internalType": "address",
          "name": "creator",
          "type": "address"
        }
      ],
      "name": "verifyCreator",
      "outputs": [],
      "stateMutability": "nonpayable",
      "type": "function"
    }
  ],
  "bytecode": "0x60806040523480156200001157600080fd5b5060405162001917380380620019178339810160408190526200003491620004ce565b826040518060400160405280601381526020017f475541524449414e434841494e20546f6b656e000000000000000000000000008152506040518060400160405280600381526020016211d51560ea1b8152508160039081620000989190620005bd565b506004620000a78282620005bd565b5050506001600160a01b038116620000da57604051631e4fbdf760e01b8152600060048201526024015b60405180910390fd5b620000e581620002ee565b5060016006556001600160a01b038316620001435760405162461bcd60e51b815260206004820152601660248201527f496e76616c696420666f756e6465722077616c6c6574000000000000000000006044820152606401620000d1565b6001600160a01b0382166200019b5760405162461bcd60e51b815260206004820152601660248201527f496e76616c696420636f6d6d756e69747920706f6f6c000000000000000000006044820152606401620000d1565b6001600160a01b038116620001f35760405162461bcd60e51b815260206004820152601960248201527f496e76616c69642070726f746f636f6c207472656173757279000000000000006044820152606401620000d1565b600780546001600160a01b038086166001600160a01b03199283161790925560088054858416908316179055600980549284169290911691909117905562000247836aa56fa5b99019a5c800000062000340565b6200025f826b014adf4b7320334b9000000062000340565b62000276816acecb8f27f4200f3a00000062000340565b6200028d306a7c13bc4b2c133c5600000062000340565b6001600160a01b039283166000908152600c60205260408082208054600160ff1991821681179092559486168352818320805486168217905592909416815283812080548416831790553081529290922080549091169091179055620006b1565b600580546001600160a01b038381166001600160a01b0319831681179093556040519116919082907f8be0079c531659141344cd1fd0a4f28419497f9722a3daafe3b4186f6b6457e090600090a35050565b6001600160a01b0382166200036c5760405163ec442f0560e01b815260006004820152602401620000d1565b6200037a600083836200037e565b5050565b6001600160a01b038316620003ad578060026000828254620003a1919062000689565b90915550620004219050565b6001600160a01b03831660009081526020819052604090205481811015620004025760405163391434e360e21b81526001600160a01b03851660048201526024810182905260448101839052606401620000d1565b6001600160a01b03841660009081526020819052604090209082900390555b6001600160a01b0382166200043f576002805482900390556200045e565b6001600160a01b03821660009081526020819052604090208054820190555b816001600160a01b0316836001600160a01b03167fddf252ad1be2c89b69c2b068fc378daa952ba7f163c4a11628f55a4df523b3ef83604051620004a491815260200190565b60405180910390a3505050565b80516001600160a01b0381168114620004c957600080fd5b919050565b600080600060608486031215620004e457600080fd5b620004ef84620004b1565b9250620004ff60208501620004b1565b91506200050f60408501620004b1565b90509250925092565b634e487b7160e01b600052604160045260246000fd5b600181811c908216806200054357607f821691505b6020821081036200056457634e487b7160e01b600052602260045260246000fd5b50919050565b601f821115620005b857600081815260208120601f850160051c81016020861015620005935750805b601f850160051c820191505b81811015620005b4578281556001016200059f565b5050505b505050565b81516001600160401b03811115620005d957620005d962000518565b620005f181620005ea84546200052e565b846200056a565b602080601f831160018114620006295760008415620006105750858301515b600019600386901b1c1916600185901b178555620005b4565b600085815260208120601f198616915b828110156200065a5788860151825594840194600190910190840162000639565b5085821015620006795787850151600019600388901b60f8161c191681555b5050505050600190811b01905550565b80820180821115620006ab57634e487b7160e01b600052601160045260246000fd5b92915050565b61125680620006c16000396000f3fe608060405234801561001057600080fd5b50600436106102275760003560e01c8063803db96d11610130578063add150bc116100b8578063f2fde38b1161007c578063f2fde38b146104fc578063f574a1d61461050f578063f5c91a0814610522578063f846a88514610535578063fe0438b21461053d57600080fd5b8063add150bc1461044b578063afba2d551461046e578063d085d11e14610480578063dd62ed3e146104b0578063df2bc2b6146104e957600080fd5b806395d89b41116100ff57806395d89b411461040157806398dd1b6514610409578063994b03ea1461041c578063a23d3c3514610425578063a9059cbb1461043857600080fd5b8063803db96d146103a05780638da5cb5b146103cb578063902d55a5146103dc57806394d32a5d146103ef57600080fd5b806342966c68116101b357806370a082311161018257806370a0823114610340578063715018a61461036957806372ccd69e14610371578063751fd1791461037a57806379cc67901461038d57600080fd5b806342966c68146102ee578063499d7f96146103015780635a90a49e1461031457806360c6d8ae1461033757600080fd5b806323b872dd116101fa57806323b872dd146102925780632f3d7a66146102a5578063313ce567146102ba578063334c1439146102c957806341737979146102dc57600080fd5b806306fdde031461022c578063095ea7b31461024a57806318160ddd1461026d5780631cfe31c21461027f575b600080fd5b61023461055d565b6040516102419190610fb4565b60405180910390f35b61025d61025836600461101e565b6105ef565b6040519015158152602001610241565b6002545b604051908152602001610241565b6102716b014adf4b7320334b9000000081565b61025d6102a0366004611048565b610609565b6102b86102b336600461101e565b61062d565b005b60405160128152602001610241565b6102b86102d7366004611084565b6106fe565b6102716acecb8f27f4200f3a00000081565b6102b86102fc3660046110c7565b61078c565b61027161030f3660046110e0565b610799565b61025d6103223660046110e0565b600c6020526000908152604090205460ff1681565b610271600b5481565b61027161034e3660046110e0565b6001600160a01b031660009081526020819052604090205490565b6102b86107da565b610271600a5481565b6102b8610388366004611102565b6107ee565b6102b861039b36600461101e565b610821565b6009546103b3906001600160a01b031681565b6040516001600160a01b039091168152602001610241565b6005546001600160a01b03166103b3565b6102716b033b2e3c9fd0803ce800000081565b6102716aa56fa5b99019a5c800000081565b610234610836565b6102b86104173660046110e0565b610845565b61027161032081565b6007546103b3906001600160a01b031681565b61025d61044636600461101e565b610899565b61025d6104593660046110e0565b600e6020526000908152604090205460ff1681565b6102716a7c13bc4b2c133c5600000081565b6104886108a7565b604080519586526020860194909452928401919091526060830152608082015260a001610241565b6102716104be36600461113e565b6001600160a01b03918216600090815260016020908152604080832093909416825291909152205490565b6008546103b3906001600160a01b031681565b6102b861050a3660046110e0565b6108d3565b61027161051d3660046110e0565b61090e565b6102b861053036600461101e565b610962565b61027160fa81565b61027161054b3660046110e0565b600d6020526000908152604090205481565b60606003805461056c90611171565b80601f016020809104026020016040519081016040528092919081815260200182805461059890611171565b80156105e55780601f106105ba576101008083540402835291602001916105e5565b820191906000526020600020905b8154815290600101906020018083116105c857829003601f168201915b5050505050905090565b6000336105fd8185856109c3565b60019150505b92915050565b6000336106178582856109d0565b610622858585610a4f565b506001949350505050565b610635610ca1565b6001600160a01b0382166106905760405162461bcd60e51b815260206004820152601760248201527f496e76616c696420706172746e6572206164647265737300000000000000000060448201526064015b60405180910390fd5b306000908152602081905260409020548111156106ef5760405162461bcd60e51b815260206004820152601f60248201527f496e73756666696369656e7420706172746e65727368697020746f6b656e73006044820152606401610687565b6106fa308383610cce565b5050565b610706610ca1565b6001600160a01b0383161561073157600780546001600160a01b0319166001600160a01b0385161790555b6001600160a01b0382161561075c57600880546001600160a01b0319166001600160a01b0384161790555b6001600160a01b0381161561078757600980546001600160a01b0319166001600160a01b0383161790555b505050565b6107963382610d2d565b50565b6001600160a01b03811660009081526020818152604080832054600d9092528220546127106107c882846111c1565b6107d291906111d8565b949350505050565b6107e2610ca1565b6107ec6000610d63565b565b6107f6610ca1565b6001600160a01b03919091166000908152600c60205260409020805460ff1916911515919091179055565b61082c8233836109d0565b6106fa8282610d2d565b60606004805461056c90611171565b61084d610ca1565b6001600160a01b0381166000818152600e6020526040808220805460ff19166001179055517ff29712ea7553106dc04213b4a8b2d4bd706623bddf1d92ab875d278700e772259190a250565b6000336105fd818585610a4f565b60008060008060006108b860025490565b600b54600a549197610320975060fa96509094509092509050565b6108db610ca1565b6001600160a01b03811661090557604051631e4fbdf760e01b815260006004820152602401610687565b61079681610d63565b6001600160a01b0381166000908152600e602052604081205460ff161561095a576064610950836001600160a01b031660009081526020819052604090205490565b61060391906111d8565b506000919050565b61096a610ca1565b6001600160a01b0382166000818152600d602052604090819020839055517ffc577563f1b9a0461e24abef1e1fcc0d33d3d881f20b5df6dda59de4aae2c821906109b79084815260200190565b60405180910390a25050565b6107878383836001610db5565b6001600160a01b03838116600090815260016020908152604080832093861683529290522054600019811015610a495781811015610a3a57604051637dc7a0d960e11b81526001600160a01b03841660048201526024810182905260448101839052606401610687565b610a4984848484036000610db5565b50505050565b6001600160a01b038316610ab35760405162461bcd60e51b815260206004820152602560248201527f45524332303a207472616e736665722066726f6d20746865207a65726f206164604482015264647265737360d81b6064820152608401610687565b6001600160a01b038216610b155760405162461bcd60e51b815260206004820152602360248201527f45524332303a207472616e7366657220746f20746865207a65726f206164647260448201526265737360e81b6064820152608401610687565b6001600160a01b0383166000908152600c6020526040902054819060ff16158015610b5957506001600160a01b0383166000908152600c602052604090205460ff16155b15610c96576000612710610b6f610320856111c1565b610b7991906111d8565b90506000612710610b8b60fa846111c1565b610b9591906111d8565b90506000610ba382846111fa565b9050610baf83866111fa565b93508015610c2c57600754610bcf9088906001600160a01b031683610cce565b80600b6000828254610be1919061120d565b90915550506007546040518281526001600160a01b03918216918916907f6903ec52d12ad49ddbccaf338b3a978351af7a7fd39d758aa024582c5be6f7db9060200160405180910390a35b8115610c9257610c3d873084610cce565b610c473083610d2d565b81600a6000828254610c59919061120d565b90915550506040518281527f6ef4855b666dcc7884561072e4358b28dfe01feb1b7f4dcebc00e62d50394ac79060200160405180910390a15b5050505b610a49848483610cce565b6005546001600160a01b031633146107ec5760405163118cdaa760e01b8152336004820152602401610687565b6001600160a01b038316610cf857604051634b637e8f60e11b815260006004820152602401610687565b6001600160a01b038216610d225760405163ec442f0560e01b815260006004820152602401610687565b610787838383610e8a565b6001600160a01b038216610d5757604051634b637e8f60e11b815260006004820152602401610687565b6106fa82600083610e8a565b600580546001600160a01b038381166001600160a01b0319831681179093556040519116919082907f8be0079c531659141344cd1fd0a4f28419497f9722a3daafe3b4186f6b6457e090600090a35050565b6001600160a01b038416610ddf5760405163e602df0560e01b815260006004820152602401610687565b6001600160a01b038316610e0957604051634a1406b160e11b815260006004820152602401610687565b6001600160a01b0380851660009081526001602090815260408083209387168352929052208290558015610a4957826001600160a01b0316846001600160a01b03167f8c5be1e5ebec7d5bd14f71427d1e84f3dd0314c0f7b2291e5b200ac8c7c3b92584604051610e7c91815260200190565b60405180910390a350505050565b6001600160a01b038316610eb5578060026000828254610eaa919061120d565b90915550610f279050565b6001600160a01b03831660009081526020819052604090205481811015610f085760405163391434e360e21b81526001600160a01b03851660048201526024810182905260448101839052606401610687565b6001600160a01b03841660009081526020819052604090209082900390555b6001600160a01b038216610f4357600280548290039055610f62565b6001600160a01b03821660009081526020819052604090208054820190555b816001600160a01b0316836001600160a01b03167fddf252ad1be2c89b69c2b068fc378daa952ba7f163c4a11628f55a4df523b3ef83604051610fa791815260200190565b60405180910390a3505050565b600060208083528351808285015260005b81811015610fe157858101830151858201604001528201610fc5565b506000604082860101526040601f19601f8301168501019250505092915050565b80356001600160a01b038116811461101957600080fd5b919050565b6000806040838503121561103157600080fd5b61103a83611002565b946020939093013593505050565b60008060006060848603121561105d57600080fd5b61106684611002565b925061107460208501611002565b9150604084013590509250925092565b60008060006060848603121561109957600080fd5b6110a284611002565b92506110b060208501611002565b91506110be60408501611002565b90509250925092565b6000602082840312156110d957600080fd5b5035919050565b6000602082840312156110f257600080fd5b6110fb82611002565b9392505050565b6000806040838503121561111557600080fd5b61111e83611002565b91506020830135801515811461113357600080fd5b809150509250929050565b6000806040838503121561115157600080fd5b61115a83611002565b915061116860208401611002565b90509250929050565b600181811c9082168061118557607f821691505b6020821081036111a557634e487b7160e01b600052602260045260246000fd5b50919050565b634e487b7160e01b600052601160045260246000fd5b8082028115828204841417610603576106036111ab565b6000826111f557634e487b7160e01b600052601260045260246000fd5b500490565b81810381811115610603576106036111ab565b80820180821115610603576106036111ab56fea26469706673582212203ab69b5175db467047bc87767f1d4e342c66786cb8ae30ed4fd777860523b01664736f6c63430008140033",
  "linkReferences": {},
  "deployedLinkReferences": {}
}