{"solidity/contracts/CapsuleFactoryV2.sol":{"CapsuleFactoryV2":{"abi":[{"inputs":[{"internalType":"address","name":"_veritusNode","type":"address"}],"stateMutability":"nonpayable","type":"constructor"},{"anonymous":false,"inputs":[{"indexed":true,"internalType":"uint256","name":"capsuleId","type":"uint256"},{"indexed":true,"internalType":"address","name":"creator","type":"address"},{"indexed":false,"internalType":"string","name":"storyTitle","type":"string"},{"indexed":false,"internalType":"uint256","name":"yield","type":"uint256"}],"name":"CapsuleCreated","type":"event"},{"anonymous":false,"inputs":[{"indexed":true,"internalType":"uint256","name":"capsuleId","type":"uint256"},{"indexed":false,"internalType":"address","name":"sealedBy","type":"address"}],"name":"CapsuleSealed","type":"event"},{"anonymous":false,"inputs":[{"indexed":true,"internalType":"uint256","name":"capsuleId","type":"uint256"},{"indexed":false,"internalType":"uint256","name":"yieldValue","type":"uint256"}],"name":"YieldAssigned","type":"event"},{"inputs":[{"internalType":"uint256","name":"capsuleId","type":"uint256"},{"internalType":"uint256","name":"finalYield","type":"uint256"}],"name":"assignYield","outputs":[],"stateMutability":"nonpayable","type":"function"},{"inputs":[],"name":"capsuleCount","outputs":[{"internalType":"uint256","name":"","type":"uint256"}],"stateMutability":"view","type":"function"},{"inputs":[{"internalType":"uint256","name":"","type":"uint256"}],"name":"capsules","outputs":[{"internalType":"address","name":"creator","type":"address"},{"internalType":"string","name":"contentHash","type":"string"},{"internalType":"string","name":"storyTitle","type":"string"},{"internalType":"string","name":"storySummary","type":"string"},{"internalType":"uint256","name":"createdAt","type":"uint256"},{"internalType":"uint256","name":"emotionalYield","type":"uint256"},{"internalType":"enum CapsuleFactoryV2.CapsuleStatus","name":"status","type":"uint8"}],"stateMutability":"view","type":"function"},{"inputs":[{"internalType":"string","name":"contentHash","type":"string"},{"internalType":"string","name":"storyTitle","type":"string"},{"internalType":"string","name":"storySummary","type":"string"},{"internalType":"uint256","name":"yieldEstimate","type":"uint256"}],"name":"createCapsule","outputs":[],"stateMutability":"nonpayable","type":"function"},{"inputs":[{"internalType":"uint256","name":"capsuleId","type":"uint256"}],"name":"getCapsule","outputs":[{"components":[{"internalType":"address","name":"creator","type":"address"},{"internalType":"string","name":"contentHash","type":"string"},{"internalType":"string","name":"storyTitle","type":"string"},{"internalType":"string","name":"storySummary","type":"string"},{"internalType":"uint256","name":"createdAt","type":"uint256"},{"internalType":"uint256","name":"emotionalYield","type":"uint256"},{"internalType":"enum CapsuleFactoryV2.CapsuleStatus","name":"status","type":"uint8"}],"internalType":"struct CapsuleFactoryV2.Capsule","name":"","type":"tuple"}],"stateMutability":"view","type":"function"},{"inputs":[{"internalType":"uint256","name":"capsuleId","type":"uint256"}],"name":"sealCapsule","outputs":[],"stateMutability":"nonpayable","type":"function"},{"inputs":[{"internalType":"address","name":"newVeritusNode","type":"address"}],"name":"updateVeritus","outputs":[],"stateMutability":"nonpayable","type":"function"},{"inputs":[],"name":"veritusNode","outputs":[{"internalType":"address","name":"","type":"address"}],"stateMutability":"view","type":"function"}],"evm":{"bytecode":{"linkReferences":{},"object":"608060405234801561001057600080fd5b50604051610eae380380610eae83398101604081905261002f91610054565b600080546001600160a01b0319166001600160a01b0392909216919091179055610084565b60006020828403121561006657600080fd5b81516001600160a01b038116811461007d57600080fd5b9392505050565b610e1b806100936000396000f3fe608060405234801561001057600080fd5b50600436106100885760003560e01c8063434febb91161005b578063434febb914610109578063517bbf461461011c57806358466a44146101425780637aed504b1461015557600080fd5b806305dc03941461008d5780632de7036e146100a95780633aac3858146100d45780633b42125d146100f4575b600080fd5b61009660015481565b6040519081526020015b60405180910390f35b6000546100bc906001600160a01b031681565b6040516001600160a01b0390911681526020016100a0565b6100e76100e23660046108d5565b610168565b6040516100a0919061096c565b6101076101023660046108d5565b6103c9565b005b610107610117366004610a08565b61046a565b61012f61012a3660046108d5565b610514565b6040516100a09796959493929190610a2a565b610107610150366004610b3f565b6106f6565b610107610163366004610bcf565b610833565b61017061087f565b60015482111561019b5760405162461bcd60e51b815260040161019290610bff565b60405180910390fd5b600082815260026020908152604091829020825160e0810190935280546001600160a01b0316835260018101805491928401916101d790610c28565b80601f016020809104026020016040519081016040528092919081815260200182805461020390610c28565b80156102505780601f1061022557610100808354040283529160200191610250565b820191906000526020600020905b81548152906001019060200180831161023357829003601f168201915b5050505050815260200160028201805461026990610c28565b80601f016020809104026020016040519081016040528092919081815260200182805461029590610c28565b80156102e25780601f106102b7576101008083540402835291602001916102e2565b820191906000526020600020905b8154815290600101906020018083116102c557829003601f168201915b505050505081526020016003820180546102fb90610c28565b80601f016020809104026020016040519081016040528092919081815260200182805461032790610c28565b80156103745780601f1061034957610100808354040283529160200191610374565b820191906000526020600020905b81548152906001019060200180831161035757829003601f168201915b50505091835250506004820154602082015260058201546040820152600682015460609091019060ff1660028111156103af576103af610934565b60028111156103c0576103c0610934565b90525092915050565b6000546001600160a01b031633146103f35760405162461bcd60e51b815260040161019290610c62565b6001548111156104155760405162461bcd60e51b815260040161019290610bff565b600081815260026020908152604091829020600601805460ff19166001179055905133815282917f4b1ba33802ce330469edd735c6dda0c1a283dd954a17d8a3bf8836ee426ea0f8910160405180910390a250565b6000546001600160a01b031633146104945760405162461bcd60e51b815260040161019290610c62565b6001548211156104b65760405162461bcd60e51b815260040161019290610bff565b60008281526002602081815260409283902060058101859055600601805460ff1916909217909155905182815283917f6295ac759c076db61f2baff6c3a9b894fcab9d8f00b5fe1f22e337ee72495536910160405180910390a25050565b600260205260009081526040902080546001820180546001600160a01b03909216929161054090610c28565b80601f016020809104026020016040519081016040528092919081815260200182805461056c90610c28565b80156105b95780601f1061058e576101008083540402835291602001916105b9565b820191906000526020600020905b81548152906001019060200180831161059c57829003601f168201915b5050505050908060020180546105ce90610c28565b80601f01602080910402602001604051908101604052809291908181526020018280546105fa90610c28565b80156106475780601f1061061c57610100808354040283529160200191610647565b820191906000526020600020905b81548152906001019060200180831161062a57829003601f168201915b50505050509080600301805461065c90610c28565b80601f016020809104026020016040519081016040528092919081815260200182805461068890610c28565b80156106d55780601f106106aa576101008083540402835291602001916106d5565b820191906000526020600020905b8154815290600101906020018083116106b857829003601f168201915b50505050600483015460058401546006909401549293909290915060ff1687565b6001805490600061070683610c8d565b90915550506040805160e081018252338152602081018690529081018490526060810183905242608082015260a0810182905260c0810160009052600180546000908152600260209081526040909120835181546001600160a01b0319166001600160a01b039091161781559083015190918201906107859082610d03565b506040820151600282019061079a9082610d03565b50606082015160038201906107af9082610d03565b506080820151600482015560a0820151600582015560c082015160068201805460ff191660018360028111156107e7576107e7610934565b0217905550506001546040513392507f52123f5d858f84e2b97af25fb8d16a9b34b5efad3f2ec70bf6283761224bbcd7906108259087908690610dc3565b60405180910390a350505050565b6000546001600160a01b0316331461085d5760405162461bcd60e51b815260040161019290610c62565b600080546001600160a01b0319166001600160a01b0392909216919091179055565b6040518060e0016040528060006001600160a01b031681526020016060815260200160608152602001606081526020016000815260200160008152602001600060028111156108d0576108d0610934565b905290565b6000602082840312156108e757600080fd5b5035919050565b6000815180845260005b81811015610914576020818501810151868301820152016108f8565b506000602082860101526020601f19601f83011685010191505092915050565b634e487b7160e01b600052602160045260246000fd5b6003811061096857634e487b7160e01b600052602160045260246000fd5b9052565b602080825282516001600160a01b03168282015282015160e0604083015260009061099b6101008401826108ee565b90506040840151601f19808584030160608601526109b983836108ee565b92506060860151915080858403016080860152506109d782826108ee565b915050608084015160a084015260a084015160c084015260c0840151610a0060e085018261094a565b509392505050565b60008060408385031215610a1b57600080fd5b50508035926020909101359150565b6001600160a01b038816815260e060208201819052600090610a4e908301896108ee565b8281036040840152610a6081896108ee565b90508281036060840152610a7481886108ee565b9150508460808301528360a0830152610a9060c083018461094a565b98975050505050505050565b634e487b7160e01b600052604160045260246000fd5b600082601f830112610ac357600080fd5b813567ffffffffffffffff80821115610ade57610ade610a9c565b604051601f8301601f19908116603f01168101908282118183101715610b0657610b06610a9c565b81604052838152866020858801011115610b1f57600080fd5b836020870160208301376000602085830101528094505050505092915050565b60008060008060808587031215610b5557600080fd5b843567ffffffffffffffff80821115610b6d57600080fd5b610b7988838901610ab2565b95506020870135915080821115610b8f57600080fd5b610b9b88838901610ab2565b94506040870135915080821115610bb157600080fd5b50610bbe87828801610ab2565b949793965093946060013593505050565b600060208284031215610be157600080fd5b81356001600160a01b0381168114610bf857600080fd5b9392505050565b6020808252600f908201526e496e76616c69642063617073756c6560881b604082015260600190565b600181811c90821680610c3c57607f821691505b602082108103610c5c57634e487b7160e01b600052602260045260246000fd5b50919050565b6020808252601190820152704f6e6c792056657269747573206e6f646560781b604082015260600190565b600060018201610cad57634e487b7160e01b600052601160045260246000fd5b5060010190565b601f821115610cfe57600081815260208120601f850160051c81016020861015610cdb5750805b601f850160051c820191505b81811015610cfa57828155600101610ce7565b5050505b505050565b815167ffffffffffffffff811115610d1d57610d1d610a9c565b610d3181610d2b8454610c28565b84610cb4565b602080601f831160018114610d665760008415610d4e5750858301515b600019600386901b1c1916600185901b178555610cfa565b600085815260208120601f198616915b82811015610d9557888601518255948401946001909101908401610d76565b5085821015610db35787850151600019600388901b60f8161c191681555b5050505050600190811b01905550565b604081526000610dd660408301856108ee565b9050826020830152939250505056fea2646970667358221220cf1fa65b587ec2911ac647af3d6ffe596f5bad4376d586eacfe06f476f128c9664736f6c63430008140033","opcodes":"PUSH1 0x80 PUSH1 0x40 MSTORE CALLVALUE DUP1 ISZERO PUSH2 0x10 JUMPI PUSH1 0x0 DUP1 REVERT JUMPDEST POP PUSH1 0x40 MLOAD PUSH2 0xEAE CODESIZE SUB DUP1 PUSH2 0xEAE DUP4 CODECOPY DUP2 ADD PUSH1 0x40 DUP2 SWAP1 MSTORE PUSH2 0x2F SWAP2 PUSH2 0x54 JUMP JUMPDEST PUSH1 0x0 DUP1 SLOAD PUSH1 0x1 PUSH1 0x1 PUSH1 0xA0 SHL SUB NOT AND PUSH1 0x1 PUSH1 0x1 PUSH1 0xA0 SHL SUB SWAP3 SWAP1 SWAP3 AND SWAP2 SWAP1 SWAP2 OR SWAP1 SSTORE PUSH2 0x84 JUMP JUMPDEST PUSH1 0x0 PUSH1 0x20 DUP3 DUP5 SUB SLT ISZERO PUSH2 0x66 JUMPI PUSH1 0x0 DUP1 REVERT JUMPDEST DUP2 MLOAD PUSH1 0x1 PUSH1 0x1 PUSH1 0xA0 SHL SUB DUP2 AND DUP2 EQ PUSH2 0x7D JUMPI PUSH1 0x0 DUP1 REVERT JUMPDEST SWAP4 SWAP3 POP POP POP JUMP JUMPDEST PUSH2 0xE1B DUP1 PUSH2 0x93 PUSH1 0x0 CODECOPY PUSH1 0x0 RETURN INVALID PUSH1 0x80 PUSH1 0x40 MSTORE CALLVALUE DUP1 ISZERO PUSH2 0x10 JUMPI PUSH1 0x0 DUP1 REVERT JUMPDEST POP PUSH1 0x4 CALLDATASIZE LT PUSH2 0x88 JUMPI PUSH1 0x0 CALLDATALOAD PUSH1 0xE0 SHR DUP1 PUSH4 0x434FEBB9 GT PUSH2 0x5B JUMPI DUP1 PUSH4 0x434FEBB9 EQ PUSH2 0x109 JUMPI DUP1 PUSH4 0x517BBF46 EQ PUSH2 0x11C JUMPI DUP1 PUSH4 0x58466A44 EQ PUSH2 0x142 JUMPI DUP1 PUSH4 0x7AED504B EQ PUSH2 0x155 JUMPI PUSH1 0x0 DUP1 REVERT JUMPDEST DUP1 PUSH4 0x5DC0394 EQ PUSH2 0x8D JUMPI DUP1 PUSH4 0x2DE7036E EQ PUSH2 0xA9 JUMPI DUP1 PUSH4 0x3AAC3858 EQ PUSH2 0xD4 JUMPI DUP1 PUSH4 0x3B42125D EQ PUSH2 0xF4 JUMPI JUMPDEST PUSH1 0x0 DUP1 REVERT JUMPDEST PUSH2 0x96 PUSH1 0x1 SLOAD DUP2 JUMP JUMPDEST PUSH1 0x40 MLOAD SWAP1 DUP2 MSTORE PUSH1 0x20 ADD JUMPDEST PUSH1 0x40 MLOAD DUP1 SWAP2 SUB SWAP1 RETURN JUMPDEST PUSH1 0x0 SLOAD PUSH2 0xBC SWAP1 PUSH1 0x1 PUSH1 0x1 PUSH1 0xA0 SHL SUB AND DUP2 JUMP JUMPDEST PUSH1 0x40 MLOAD PUSH1 0x1 PUSH1 0x1 PUSH1 0xA0 SHL SUB SWAP1 SWAP2 AND DUP2 MSTORE PUSH1 0x20 ADD PUSH2 0xA0 JUMP JUMPDEST PUSH2 0xE7 PUSH2 0xE2 CALLDATASIZE PUSH1 0x4 PUSH2 0x8D5 JUMP JUMPDEST PUSH2 0x168 JUMP JUMPDEST PUSH1 0x40 MLOAD PUSH2 0xA0 SWAP2 SWAP1 PUSH2 0x96C JUMP JUMPDEST PUSH2 0x107 PUSH2 0x102 CALLDATASIZE PUSH1 0x4 PUSH2 0x8D5 JUMP JUMPDEST PUSH2 0x3C9 JUMP JUMPDEST STOP JUMPDEST PUSH2 0x107 PUSH2 0x117 CALLDATASIZE PUSH1 0x4 PUSH2 0xA08 JUMP JUMPDEST PUSH2 0x46A JUMP JUMPDEST PUSH2 0x12F PUSH2 0x12A CALLDATASIZE PUSH1 0x4 PUSH2 0x8D5 JUMP JUMPDEST PUSH2 0x514 JUMP JUMPDEST PUSH1 0x40 MLOAD PUSH2 0xA0 SWAP8 SWAP7 SWAP6 SWAP5 SWAP4 SWAP3 SWAP2 SWAP1 PUSH2 0xA2A JUMP JUMPDEST PUSH2 0x107 PUSH2 0x150 CALLDATASIZE PUSH1 0x4 PUSH2 0xB3F JUMP JUMPDEST PUSH2 0x6F6 JUMP JUMPDEST PUSH2 0x107 PUSH2 0x163 CALLDATASIZE PUSH1 0x4 PUSH2 0xBCF JUMP JUMPDEST PUSH2 0x833 JUMP JUMPDEST PUSH2 0x170 PUSH2 0x87F JUMP JUMPDEST PUSH1 0x1 SLOAD DUP3 GT ISZERO PUSH2 0x19B JUMPI PUSH1 0x40 MLOAD PUSH3 0x461BCD PUSH1 0xE5 SHL DUP2 MSTORE PUSH1 0x4 ADD PUSH2 0x192 SWAP1 PUSH2 0xBFF JUMP JUMPDEST PUSH1 0x40 MLOAD DUP1 SWAP2 SUB SWAP1 REVERT JUMPDEST PUSH1 0x0 DUP3 DUP2 MSTORE PUSH1 0x2 PUSH1 0x20 SWAP1 DUP2 MSTORE PUSH1 0x40 SWAP2 DUP3 SWAP1 KECCAK256 DUP3 MLOAD PUSH1 0xE0 DUP2 ADD SWAP1 SWAP4 MSTORE DUP1 SLOAD PUSH1 0x1 PUSH1 0x1 PUSH1 0xA0 SHL SUB AND DUP4 MSTORE PUSH1 0x1 DUP2 ADD DUP1 SLOAD SWAP2 SWAP3 DUP5 ADD SWAP2 PUSH2 0x1D7 SWAP1 PUSH2 0xC28 JUMP JUMPDEST DUP1 PUSH1 0x1F ADD PUSH1 0x20 DUP1 SWAP2 DIV MUL PUSH1 0x20 ADD PUSH1 0x40 MLOAD SWAP1 DUP2 ADD PUSH1 0x40 MSTORE DUP1 SWAP3 SWAP2 SWAP1 DUP2 DUP2 MSTORE PUSH1 0x20 ADD DUP3 DUP1 SLOAD PUSH2 0x203 SWAP1 PUSH2 0xC28 JUMP JUMPDEST DUP1 ISZERO PUSH2 0x250 JUMPI DUP1 PUSH1 0x1F LT PUSH2 0x225 JUMPI PUSH2 0x100 DUP1 DUP4 SLOAD DIV MUL DUP4 MSTORE SWAP2 PUSH1 0x20 ADD SWAP2 PUSH2 0x250 JUMP JUMPDEST DUP3 ADD SWAP2 SWAP1 PUSH1 0x0 MSTORE PUSH1 0x20 PUSH1 0x0 KECCAK256 SWAP1 JUMPDEST DUP2 SLOAD DUP2 MSTORE SWAP1 PUSH1 0x1 ADD SWAP1 PUSH1 0x20 ADD DUP1 DUP4 GT PUSH2 0x233 JUMPI DUP3 SWAP1 SUB PUSH1 0x1F AND DUP3 ADD SWAP2 JUMPDEST POP POP POP POP POP DUP2 MSTORE PUSH1 0x20 ADD PUSH1 0x2 DUP3 ADD DUP1 SLOAD PUSH2 0x269 SWAP1 PUSH2 0xC28 JUMP JUMPDEST DUP1 PUSH1 0x1F ADD PUSH1 0x20 DUP1 SWAP2 DIV MUL PUSH1 0x20 ADD PUSH1 0x40 MLOAD SWAP1 DUP2 ADD PUSH1 0x40 MSTORE DUP1 SWAP3 SWAP2 SWAP1 DUP2 DUP2 MSTORE PUSH1 0x20 ADD DUP3 DUP1 SLOAD PUSH2 0x295 SWAP1 PUSH2 0xC28 JUMP JUMPDEST DUP1 ISZERO PUSH2 0x2E2 JUMPI DUP1 PUSH1 0x1F LT PUSH2 0x2B7 JUMPI PUSH2 0x100 DUP1 DUP4 SLOAD DIV MUL DUP4 MSTORE SWAP2 PUSH1 0x20 ADD SWAP2 PUSH2 0x2E2 JUMP JUMPDEST DUP3 ADD SWAP2 SWAP1 PUSH1 0x0 MSTORE PUSH1 0x20 PUSH1 0x0 KECCAK256 SWAP1 JUMPDEST DUP2 SLOAD DUP2 MSTORE SWAP1 PUSH1 0x1 ADD SWAP1 PUSH1 0x20 ADD DUP1 DUP4 GT PUSH2 0x2C5 JUMPI DUP3 SWAP1 SUB PUSH1 0x1F AND DUP3 ADD SWAP2 JUMPDEST POP POP POP POP POP DUP2 MSTORE PUSH1 0x20 ADD PUSH1 0x3 DUP3 ADD DUP1 SLOAD PUSH2 0x2FB SWAP1 PUSH2 0xC28 JUMP JUMPDEST DUP1 PUSH1 0x1F ADD PUSH1 0x20 DUP1 SWAP2 DIV MUL PUSH1 0x20 ADD PUSH1 0x40 MLOAD SWAP1 DUP2 ADD PUSH1 0x40 MSTORE DUP1 SWAP3 SWAP2 SWAP1 DUP2 DUP2 MSTORE PUSH1 0x20 ADD DUP3 DUP1 SLOAD PUSH2 0x327 SWAP1 PUSH2 0xC28 JUMP JUMPDEST DUP1 ISZERO PUSH2 0x374 JUMPI DUP1 PUSH1 0x1F LT PUSH2 0x349 JUMPI PUSH2 0x100 DUP1 DUP4 SLOAD DIV MUL DUP4 MSTORE SWAP2 PUSH1 0x20 ADD SWAP2 PUSH2 0x374 JUMP JUMPDEST DUP3 ADD SWAP2 SWAP1 PUSH1 0x0 MSTORE PUSH1 0x20 PUSH1 0x0 KECCAK256 SWAP1 JUMPDEST DUP2 SLOAD DUP2 MSTORE SWAP1 PUSH1 0x1 ADD SWAP1 PUSH1 0x20 ADD DUP1 DUP4 GT PUSH2 0x357 JUMPI DUP3 SWAP1 SUB PUSH1 0x1F AND DUP3 ADD SWAP2 JUMPDEST POP POP POP SWAP2 DUP4 MSTORE POP POP PUSH1 0x4 DUP3 ADD SLOAD PUSH1 0x20 DUP3 ADD MSTORE PUSH1 0x5 DUP3 ADD SLOAD PUSH1 0x40 DUP3 ADD MSTORE PUSH1 0x6 DUP3 ADD SLOAD PUSH1 0x60 SWAP1 SWAP2 ADD SWAP1 PUSH1 0xFF AND PUSH1 0x2 DUP2 GT ISZERO PUSH2 0x3AF JUMPI PUSH2 0x3AF PUSH2 0x934 JUMP JUMPDEST PUSH1 0x2 DUP2 GT ISZERO PUSH2 0x3C0 JUMPI PUSH2 0x3C0 PUSH2 0x934 JUMP JUMPDEST SWAP1 MSTORE POP SWAP3 SWAP2 POP POP JUMP JUMPDEST PUSH1 0x0 SLOAD PUSH1 0x1 PUSH1 0x1 PUSH1 0xA0 SHL SUB AND CALLER EQ PUSH2 0x3F3 JUMPI PUSH1 0x40 MLOAD PUSH3 0x461BCD PUSH1 0xE5 SHL DUP2 MSTORE PUSH1 0x4 ADD PUSH2 0x192 SWAP1 PUSH2 0xC62 JUMP JUMPDEST PUSH1 0x1 SLOAD DUP2 GT ISZERO PUSH2 0x415 JUMPI PUSH1 0x40 MLOAD PUSH3 0x461BCD PUSH1 0xE5 SHL DUP2 MSTORE PUSH1 0x4 ADD PUSH2 0x192 SWAP1 PUSH2 0xBFF JUMP JUMPDEST PUSH1 0x0 DUP2 DUP2 MSTORE PUSH1 0x2 PUSH1 0x20 SWAP1 DUP2 MSTORE PUSH1 0x40 SWAP2 DUP3 SWAP1 KECCAK256 PUSH1 0x6 ADD DUP1 SLOAD PUSH1 0xFF NOT AND PUSH1 0x1 OR SWAP1 SSTORE SWAP1 MLOAD CALLER DUP2 MSTORE DUP3 SWAP2 PUSH32 0x4B1BA33802CE330469EDD735C6DDA0C1A283DD954A17D8A3BF8836EE426EA0F8 SWAP2 ADD PUSH1 0x40 MLOAD DUP1 SWAP2 SUB SWAP1 LOG2 POP JUMP JUMPDEST PUSH1 0x0 SLOAD PUSH1 0x1 PUSH1 0x1 PUSH1 0xA0 SHL SUB AND CALLER EQ PUSH2 0x494 JUMPI PUSH1 0x40 MLOAD PUSH3 0x461BCD PUSH1 0xE5 SHL DUP2 MSTORE PUSH1 0x4 ADD PUSH2 0x192 SWAP1 PUSH2 0xC62 JUMP JUMPDEST PUSH1 0x1 SLOAD DUP3 GT ISZERO PUSH2 0x4B6 JUMPI PUSH1 0x40 MLOAD PUSH3 0x461BCD PUSH1 0xE5 SHL DUP2 MSTORE PUSH1 0x4 ADD PUSH2 0x192 SWAP1 PUSH2 0xBFF JUMP JUMPDEST PUSH1 0x0 DUP3 DUP2 MSTORE PUSH1 0x2 PUSH1 0x20 DUP2 DUP2 MSTORE PUSH1 0x40 SWAP3 DUP4 SWAP1 KECCAK256 PUSH1 0x5 DUP2 ADD DUP6 SWAP1 SSTORE PUSH1 0x6 ADD DUP1 SLOAD PUSH1 0xFF NOT AND SWAP1 SWAP3 OR SWAP1 SWAP2 SSTORE SWAP1 MLOAD DUP3 DUP2 MSTORE DUP4 SWAP2 PUSH32 0x6295AC759C076DB61F2BAFF6C3A9B894FCAB9D8F00B5FE1F22E337EE72495536 SWAP2 ADD PUSH1 0x40 MLOAD DUP1 SWAP2 SUB SWAP1 LOG2 POP POP JUMP JUMPDEST PUSH1 0x2 PUSH1 0x20 MSTORE PUSH1 0x0 SWAP1 DUP2 MSTORE PUSH1 0x40 SWAP1 KECCAK256 DUP1 SLOAD PUSH1 0x1 DUP3 ADD DUP1 SLOAD PUSH1 0x1 PUSH1 0x1 PUSH1 0xA0 SHL SUB SWAP1 SWAP3 AND SWAP3 SWAP2 PUSH2 0x540 SWAP1 PUSH2 0xC28 JUMP JUMPDEST DUP1 PUSH1 0x1F ADD PUSH1 0x20 DUP1 SWAP2 DIV MUL PUSH1 0x20 ADD PUSH1 0x40 MLOAD SWAP1 DUP2 ADD PUSH1 0x40 MSTORE DUP1 SWAP3 SWAP2 SWAP1 DUP2 DUP2 MSTORE PUSH1 0x20 ADD DUP3 DUP1 SLOAD PUSH2 0x56C SWAP1 PUSH2 0xC28 JUMP JUMPDEST DUP1 ISZERO PUSH2 0x5B9 JUMPI DUP1 PUSH1 0x1F LT PUSH2 0x58E JUMPI PUSH2 0x100 DUP1 DUP4 SLOAD DIV MUL DUP4 MSTORE SWAP2 PUSH1 0x20 ADD SWAP2 PUSH2 0x5B9 JUMP JUMPDEST DUP3 ADD SWAP2 SWAP1 PUSH1 0x0 MSTORE PUSH1 0x20 PUSH1 0x0 KECCAK256 SWAP1 JUMPDEST DUP2 SLOAD DUP2 MSTORE SWAP1 PUSH1 0x1 ADD SWAP1 PUSH1 0x20 ADD DUP1 DUP4 GT PUSH2 0x59C JUMPI DUP3 SWAP1 SUB PUSH1 0x1F AND DUP3 ADD SWAP2 JUMPDEST POP POP POP POP POP SWAP1 DUP1 PUSH1 0x2 ADD DUP1 SLOAD PUSH2 0x5CE SWAP1 PUSH2 0xC28 JUMP JUMPDEST DUP1 PUSH1 0x1F ADD PUSH1 0x20 DUP1 SWAP2 DIV MUL PUSH1 0x20 ADD PUSH1 0x40 MLOAD SWAP1 DUP2 ADD PUSH1 0x40 MSTORE DUP1 SWAP3 SWAP2 SWAP1 DUP2 DUP2 MSTORE PUSH1 0x20 ADD DUP3 DUP1 SLOAD PUSH2 0x5FA SWAP1 PUSH2 0xC28 JUMP JUMPDEST DUP1 ISZERO PUSH2 0x647 JUMPI DUP1 PUSH1 0x1F LT PUSH2 0x61C JUMPI PUSH2 0x100 DUP1 DUP4 SLOAD DIV MUL DUP4 MSTORE SWAP2 PUSH1 0x20 ADD SWAP2 PUSH2 0x647 JUMP JUMPDEST DUP3 ADD SWAP2 SWAP1 PUSH1 0x0 MSTORE PUSH1 0x20 PUSH1 0x0 KECCAK256 SWAP1 JUMPDEST DUP2 SLOAD DUP2 MSTORE SWAP1 PUSH1 0x1 ADD SWAP1 PUSH1 0x20 ADD DUP1 DUP4 GT PUSH2 0x62A JUMPI DUP3 SWAP1 SUB PUSH1 0x1F AND DUP3 ADD SWAP2 JUMPDEST POP POP POP POP POP SWAP1 DUP1 PUSH1 0x3 ADD DUP1 SLOAD PUSH2 0x65C SWAP1 PUSH2 0xC28 JUMP JUMPDEST DUP1 PUSH1 0x1F ADD PUSH1 0x20 DUP1 SWAP2 DIV MUL PUSH1 0x20 ADD PUSH1 0x40 MLOAD SWAP1 DUP2 ADD PUSH1 0x40 MSTORE DUP1 SWAP3 SWAP2 SWAP1 DUP2 DUP2 MSTORE PUSH1 0x20 ADD DUP3 DUP1 SLOAD PUSH2 0x688 SWAP1 PUSH2 0xC28 JUMP JUMPDEST DUP1 ISZERO PUSH2 0x6D5 JUMPI DUP1 PUSH1 0x1F LT PUSH2 0x6AA JUMPI PUSH2 0x100 DUP1 DUP4 SLOAD DIV MUL DUP4 MSTORE SWAP2 PUSH1 0x20 ADD SWAP2 PUSH2 0x6D5 JUMP JUMPDEST DUP3 ADD SWAP2 SWAP1 PUSH1 0x0 MSTORE PUSH1 0x20 PUSH1 0x0 KECCAK256 SWAP1 JUMPDEST DUP2 SLOAD DUP2 MSTORE SWAP1 PUSH1 0x1 ADD SWAP1 PUSH1 0x20 ADD DUP1 DUP4 GT PUSH2 0x6B8 JUMPI DUP3 SWAP1 SUB PUSH1 0x1F AND DUP3 ADD SWAP2 JUMPDEST POP POP POP POP PUSH1 0x4 DUP4 ADD SLOAD PUSH1 0x5 DUP5 ADD SLOAD PUSH1 0x6 SWAP1 SWAP5 ADD SLOAD SWAP3 SWAP4 SWAP1 SWAP3 SWAP1 SWAP2 POP PUSH1 0xFF AND DUP8 JUMP JUMPDEST PUSH1 0x1 DUP1 SLOAD SWAP1 PUSH1 0x0 PUSH2 0x706 DUP4 PUSH2 0xC8D JUMP JUMPDEST SWAP1 SWAP2 SSTORE POP POP PUSH1 0x40 DUP1 MLOAD PUSH1 0xE0 DUP2 ADD DUP3 MSTORE CALLER DUP2 MSTORE PUSH1 0x20 DUP2 ADD DUP7 SWAP1 MSTORE SWAP1 DUP2 ADD DUP5 SWAP1 MSTORE PUSH1 0x60 DUP2 ADD DUP4 SWAP1 MSTORE TIMESTAMP PUSH1 0x80 DUP3 ADD MSTORE PUSH1 0xA0 DUP2 ADD DUP3 SWAP1 MSTORE PUSH1 0xC0 DUP2 ADD PUSH1 0x0 SWAP1 MSTORE PUSH1 0x1 DUP1 SLOAD PUSH1 0x0 SWAP1 DUP2 MSTORE PUSH1 0x2 PUSH1 0x20 SWAP1 DUP2 MSTORE PUSH1 0x40 SWAP1 SWAP2 KECCAK256 DUP4 MLOAD DUP2 SLOAD PUSH1 0x1 PUSH1 0x1 PUSH1 0xA0 SHL SUB NOT AND PUSH1 0x1 PUSH1 0x1 PUSH1 0xA0 SHL SUB SWAP1 SWAP2 AND OR DUP2 SSTORE SWAP1 DUP4 ADD MLOAD SWAP1 SWAP2 DUP3 ADD SWAP1 PUSH2 0x785 SWAP1 DUP3 PUSH2 0xD03 JUMP JUMPDEST POP PUSH1 0x40 DUP3 ADD MLOAD PUSH1 0x2 DUP3 ADD SWAP1 PUSH2 0x79A SWAP1 DUP3 PUSH2 0xD03 JUMP JUMPDEST POP PUSH1 0x60 DUP3 ADD MLOAD PUSH1 0x3 DUP3 ADD SWAP1 PUSH2 0x7AF SWAP1 DUP3 PUSH2 0xD03 JUMP JUMPDEST POP PUSH1 0x80 DUP3 ADD MLOAD PUSH1 0x4 DUP3 ADD SSTORE PUSH1 0xA0 DUP3 ADD MLOAD PUSH1 0x5 DUP3 ADD SSTORE PUSH1 0xC0 DUP3 ADD MLOAD PUSH1 0x6 DUP3 ADD DUP1 SLOAD PUSH1 0xFF NOT AND PUSH1 0x1 DUP4 PUSH1 0x2 DUP2 GT ISZERO PUSH2 0x7E7 JUMPI PUSH2 0x7E7 PUSH2 0x934 JUMP JUMPDEST MUL OR SWAP1 SSTORE POP POP PUSH1 0x1 SLOAD PUSH1 0x40 MLOAD CALLER SWAP3 POP PUSH32 0x52123F5D858F84E2B97AF25FB8D16A9B34B5EFAD3F2EC70BF6283761224BBCD7 SWAP1 PUSH2 0x825 SWAP1 DUP8 SWAP1 DUP7 SWAP1 PUSH2 0xDC3 JUMP JUMPDEST PUSH1 0x40 MLOAD DUP1 SWAP2 SUB SWAP1 LOG3 POP POP POP POP JUMP JUMPDEST PUSH1 0x0 SLOAD PUSH1 0x1 PUSH1 0x1 PUSH1 0xA0 SHL SUB AND CALLER EQ PUSH2 0x85D JUMPI PUSH1 0x40 MLOAD PUSH3 0x461BCD PUSH1 0xE5 SHL DUP2 MSTORE PUSH1 0x4 ADD PUSH2 0x192 SWAP1 PUSH2 0xC62 JUMP JUMPDEST PUSH1 0x0 DUP1 SLOAD PUSH1 0x1 PUSH1 0x1 PUSH1 0xA0 SHL SUB NOT AND PUSH1 0x1 PUSH1 0x1 PUSH1 0xA0 SHL SUB SWAP3 SWAP1 SWAP3 AND SWAP2 SWAP1 SWAP2 OR SWAP1 SSTORE JUMP JUMPDEST PUSH1 0x40 MLOAD DUP1 PUSH1 0xE0 ADD PUSH1 0x40 MSTORE DUP1 PUSH1 0x0 PUSH1 0x1 PUSH1 0x1 PUSH1 0xA0 SHL SUB AND DUP2 MSTORE PUSH1 0x20 ADD PUSH1 0x60 DUP2 MSTORE PUSH1 0x20 ADD PUSH1 0x60 DUP2 MSTORE PUSH1 0x20 ADD PUSH1 0x60 DUP2 MSTORE PUSH1 0x20 ADD PUSH1 0x0 DUP2 MSTORE PUSH1 0x20 ADD PUSH1 0x0 DUP2 MSTORE PUSH1 0x20 ADD PUSH1 0x0 PUSH1 0x2 DUP2 GT ISZERO PUSH2 0x8D0 JUMPI PUSH2 0x8D0 PUSH2 0x934 JUMP JUMPDEST SWAP1 MSTORE SWAP1 JUMP JUMPDEST PUSH1 0x0 PUSH1 0x20 DUP3 DUP5 SUB SLT ISZERO PUSH2 0x8E7 JUMPI PUSH1 0x0 DUP1 REVERT JUMPDEST POP CALLDATALOAD SWAP2 SWAP1 POP JUMP JUMPDEST PUSH1 0x0 DUP2 MLOAD DUP1 DUP5 MSTORE PUSH1 0x0 JUMPDEST DUP2 DUP2 LT ISZERO PUSH2 0x914 JUMPI PUSH1 0x20 DUP2 DUP6 ADD DUP2 ADD MLOAD DUP7 DUP4 ADD DUP3 ADD MSTORE ADD PUSH2 0x8F8 JUMP JUMPDEST POP PUSH1 0x0 PUSH1 0x20 DUP3 DUP7 ADD ADD MSTORE PUSH1 0x20 PUSH1 0x1F NOT PUSH1 0x1F DUP4 ADD AND DUP6 ADD ADD SWAP2 POP POP SWAP3 SWAP2 POP POP JUMP JUMPDEST PUSH4 0x4E487B71 PUSH1 0xE0 SHL PUSH1 0x0 MSTORE PUSH1 0x21 PUSH1 0x4 MSTORE PUSH1 0x24 PUSH1 0x0 REVERT JUMPDEST PUSH1 0x3 DUP2 LT PUSH2 0x968 JUMPI PUSH4 0x4E487B71 PUSH1 0xE0 SHL PUSH1 0x0 MSTORE PUSH1 0x21 PUSH1 0x4 MSTORE PUSH1 0x24 PUSH1 0x0 REVERT JUMPDEST SWAP1 MSTORE JUMP JUMPDEST PUSH1 0x20 DUP1 DUP3 MSTORE DUP3 MLOAD PUSH1 0x1 PUSH1 0x1 PUSH1 0xA0 SHL SUB AND DUP3 DUP3 ADD MSTORE DUP3 ADD MLOAD PUSH1 0xE0 PUSH1 0x40 DUP4 ADD MSTORE PUSH1 0x0 SWAP1 PUSH2 0x99B PUSH2 0x100 DUP5 ADD DUP3 PUSH2 0x8EE JUMP JUMPDEST SWAP1 POP PUSH1 0x40 DUP5 ADD MLOAD PUSH1 0x1F NOT DUP1 DUP6 DUP5 SUB ADD PUSH1 0x60 DUP7 ADD MSTORE PUSH2 0x9B9 DUP4 DUP4 PUSH2 0x8EE JUMP JUMPDEST SWAP3 POP PUSH1 0x60 DUP7 ADD MLOAD SWAP2 POP DUP1 DUP6 DUP5 SUB ADD PUSH1 0x80 DUP7 ADD MSTORE POP PUSH2 0x9D7 DUP3 DUP3 PUSH2 0x8EE JUMP JUMPDEST SWAP2 POP POP PUSH1 0x80 DUP5 ADD MLOAD PUSH1 0xA0 DUP5 ADD MSTORE PUSH1 0xA0 DUP5 ADD MLOAD PUSH1 0xC0 DUP5 ADD MSTORE PUSH1 0xC0 DUP5 ADD MLOAD PUSH2 0xA00 PUSH1 0xE0 DUP6 ADD DUP3 PUSH2 0x94A JUMP JUMPDEST POP SWAP4 SWAP3 POP POP POP JUMP JUMPDEST PUSH1 0x0 DUP1 PUSH1 0x40 DUP4 DUP6 SUB SLT ISZERO PUSH2 0xA1B JUMPI PUSH1 0x0 DUP1 REVERT JUMPDEST POP POP DUP1 CALLDATALOAD SWAP3 PUSH1 0x20 SWAP1 SWAP2 ADD CALLDATALOAD SWAP2 POP JUMP JUMPDEST PUSH1 0x1 PUSH1 0x1 PUSH1 0xA0 SHL SUB DUP9 AND DUP2 MSTORE PUSH1 0xE0 PUSH1 0x20 DUP3 ADD DUP2 SWAP1 MSTORE PUSH1 0x0 SWAP1 PUSH2 0xA4E SWAP1 DUP4 ADD DUP10 PUSH2 0x8EE JUMP JUMPDEST DUP3 DUP2 SUB PUSH1 0x40 DUP5 ADD MSTORE PUSH2 0xA60 DUP2 DUP10 PUSH2 0x8EE JUMP JUMPDEST SWAP1 POP DUP3 DUP2 SUB PUSH1 0x60 DUP5 ADD MSTORE PUSH2 0xA74 DUP2 DUP9 PUSH2 0x8EE JUMP JUMPDEST SWAP2 POP POP DUP5 PUSH1 0x80 DUP4 ADD MSTORE DUP4 PUSH1 0xA0 DUP4 ADD MSTORE PUSH2 0xA90 PUSH1 0xC0 DUP4 ADD DUP5 PUSH2 0x94A JUMP JUMPDEST SWAP9 SWAP8 POP POP POP POP POP POP POP POP JUMP JUMPDEST PUSH4 0x4E487B71 PUSH1 0xE0 SHL PUSH1 0x0 MSTORE PUSH1 0x41 PUSH1 0x4 MSTORE PUSH1 0x24 PUSH1 0x0 REVERT JUMPDEST PUSH1 0x0 DUP3 PUSH1 0x1F DUP4 ADD SLT PUSH2 0xAC3 JUMPI PUSH1 0x0 DUP1 REVERT JUMPDEST DUP2 CALLDATALOAD PUSH8 0xFFFFFFFFFFFFFFFF DUP1 DUP3 GT ISZERO PUSH2 0xADE JUMPI PUSH2 0xADE PUSH2 0xA9C JUMP JUMPDEST PUSH1 0x40 MLOAD PUSH1 0x1F DUP4 ADD PUSH1 0x1F NOT SWAP1 DUP2 AND PUSH1 0x3F ADD AND DUP2 ADD SWAP1 DUP3 DUP3 GT DUP2 DUP4 LT OR ISZERO PUSH2 0xB06 JUMPI PUSH2 0xB06 PUSH2 0xA9C JUMP JUMPDEST DUP2 PUSH1 0x40 MSTORE DUP4 DUP2 MSTORE DUP7 PUSH1 0x20 DUP6 DUP9 ADD ADD GT ISZERO PUSH2 0xB1F JUMPI PUSH1 0x0 DUP1 REVERT JUMPDEST DUP4 PUSH1 0x20 DUP8 ADD PUSH1 0x20 DUP4 ADD CALLDATACOPY PUSH1 0x0 PUSH1 0x20 DUP6 DUP4 ADD ADD MSTORE DUP1 SWAP5 POP POP POP POP POP SWAP3 SWAP2 POP POP JUMP JUMPDEST PUSH1 0x0 DUP1 PUSH1 0x0 DUP1 PUSH1 0x80 DUP6 DUP8 SUB SLT ISZERO PUSH2 0xB55 JUMPI PUSH1 0x0 DUP1 REVERT JUMPDEST DUP5 CALLDATALOAD PUSH8 0xFFFFFFFFFFFFFFFF DUP1 DUP3 GT ISZERO PUSH2 0xB6D JUMPI PUSH1 0x0 DUP1 REVERT JUMPDEST PUSH2 0xB79 DUP9 DUP4 DUP10 ADD PUSH2 0xAB2 JUMP JUMPDEST SWAP6 POP PUSH1 0x20 DUP8 ADD CALLDATALOAD SWAP2 POP DUP1 DUP3 GT ISZERO PUSH2 0xB8F JUMPI PUSH1 0x0 DUP1 REVERT JUMPDEST PUSH2 0xB9B DUP9 DUP4 DUP10 ADD PUSH2 0xAB2 JUMP JUMPDEST SWAP5 POP PUSH1 0x40 DUP8 ADD CALLDATALOAD SWAP2 POP DUP1 DUP3 GT ISZERO PUSH2 0xBB1 JUMPI PUSH1 0x0 DUP1 REVERT JUMPDEST POP PUSH2 0xBBE DUP8 DUP3 DUP9 ADD PUSH2 0xAB2 JUMP JUMPDEST SWAP5 SWAP8 SWAP4 SWAP7 POP SWAP4 SWAP5 PUSH1 0x60 ADD CALLDATALOAD SWAP4 POP POP POP JUMP JUMPDEST PUSH1 0x0 PUSH1 0x20 DUP3 DUP5 SUB SLT ISZERO PUSH2 0xBE1 JUMPI PUSH1 0x0 DUP1 REVERT JUMPDEST DUP2 CALLDATALOAD PUSH1 0x1 PUSH1 0x1 PUSH1 0xA0 SHL SUB DUP2 AND DUP2 EQ PUSH2 0xBF8 JUMPI PUSH1 0x0 DUP1 REVERT JUMPDEST SWAP4 SWAP3 POP POP POP JUMP JUMPDEST PUSH1 0x20 DUP1 DUP3 MSTORE PUSH1 0xF SWAP1 DUP3 ADD MSTORE PUSH15 0x496E76616C69642063617073756C65 PUSH1 0x88 SHL PUSH1 0x40 DUP3 ADD MSTORE PUSH1 0x60 ADD SWAP1 JUMP JUMPDEST PUSH1 0x1 DUP2 DUP2 SHR SWAP1 DUP3 AND DUP1 PUSH2 0xC3C JUMPI PUSH1 0x7F DUP3 AND SWAP2 POP JUMPDEST PUSH1 0x20 DUP3 LT DUP2 SUB PUSH2 0xC5C JUMPI PUSH4 0x4E487B71 PUSH1 0xE0 SHL PUSH1 0x0 MSTORE PUSH1 0x22 PUSH1 0x4 MSTORE PUSH1 0x24 PUSH1 0x0 REVERT JUMPDEST POP SWAP2 SWAP1 POP JUMP JUMPDEST PUSH1 0x20 DUP1 DUP3 MSTORE PUSH1 0x11 SWAP1 DUP3 ADD MSTORE PUSH17 0x4F6E6C792056657269747573206E6F6465 PUSH1 0x78 SHL PUSH1 0x40 DUP3 ADD MSTORE PUSH1 0x60 ADD SWAP1 JUMP JUMPDEST PUSH1 0x0 PUSH1 0x1 DUP3 ADD PUSH2 0xCAD JUMPI PUSH4 0x4E487B71 PUSH1 0xE0 SHL PUSH1 0x0 MSTORE PUSH1 0x11 PUSH1 0x4 MSTORE PUSH1 0x24 PUSH1 0x0 REVERT JUMPDEST POP PUSH1 0x1 ADD SWAP1 JUMP JUMPDEST PUSH1 0x1F DUP3 GT ISZERO PUSH2 0xCFE JUMPI PUSH1 0x0 DUP2 DUP2 MSTORE PUSH1 0x20 DUP2 KECCAK256 PUSH1 0x1F DUP6 ADD PUSH1 0x5 SHR DUP2 ADD PUSH1 0x20 DUP7 LT ISZERO PUSH2 0xCDB JUMPI POP DUP1 JUMPDEST PUSH1 0x1F DUP6 ADD PUSH1 0x5 SHR DUP3 ADD SWAP2 POP JUMPDEST DUP2 DUP2 LT ISZERO PUSH2 0xCFA JUMPI DUP3 DUP2 SSTORE PUSH1 0x1 ADD PUSH2 0xCE7 JUMP JUMPDEST POP POP POP JUMPDEST POP POP POP JUMP JUMPDEST DUP2 MLOAD PUSH8 0xFFFFFFFFFFFFFFFF DUP2 GT ISZERO PUSH2 0xD1D JUMPI PUSH2 0xD1D PUSH2 0xA9C JUMP JUMPDEST PUSH2 0xD31 DUP2 PUSH2 0xD2B DUP5 SLOAD PUSH2 0xC28 JUMP JUMPDEST DUP5 PUSH2 0xCB4 JUMP JUMPDEST PUSH1 0x20 DUP1 PUSH1 0x1F DUP4 GT PUSH1 0x1 DUP2 EQ PUSH2 0xD66 JUMPI PUSH1 0x0 DUP5 ISZERO PUSH2 0xD4E JUMPI POP DUP6 DUP4 ADD MLOAD JUMPDEST PUSH1 0x0 NOT PUSH1 0x3 DUP7 SWAP1 SHL SHR NOT AND PUSH1 0x1 DUP6 SWAP1 SHL OR DUP6 SSTORE PUSH2 0xCFA JUMP JUMPDEST PUSH1 0x0 DUP6 DUP2 MSTORE PUSH1 0x20 DUP2 KECCAK256 PUSH1 0x1F NOT DUP7 AND SWAP2 JUMPDEST DUP3 DUP2 LT ISZERO PUSH2 0xD95 JUMPI DUP9 DUP7 ADD MLOAD DUP3 SSTORE SWAP5 DUP5 ADD SWAP5 PUSH1 0x1 SWAP1 SWAP2 ADD SWAP1 DUP5 ADD PUSH2 0xD76 JUMP JUMPDEST POP DUP6 DUP3 LT ISZERO PUSH2 0xDB3 JUMPI DUP8 DUP6 ADD MLOAD PUSH1 0x0 NOT PUSH1 0x3 DUP9 SWAP1 SHL PUSH1 0xF8 AND SHR NOT AND DUP2 SSTORE JUMPDEST POP POP POP POP POP PUSH1 0x1 SWAP1 DUP2 SHL ADD SWAP1 SSTORE POP JUMP JUMPDEST PUSH1 0x40 DUP2 MSTORE PUSH1 0x0 PUSH2 0xDD6 PUSH1 0x40 DUP4 ADD DUP6 PUSH2 0x8EE JUMP JUMPDEST SWAP1 POP DUP3 PUSH1 0x20 DUP4 ADD MSTORE SWAP4 SWAP3 POP POP POP JUMP INVALID LOG2 PUSH5 0x6970667358 0x22 SLT KECCAK256 0xCF 0x1F 0xA6 JUMPDEST PC PUSH31 0xC2911AC647AF3D6FFE596F5BAD4376D586EACFE06F476F128C9664736F6C63 NUMBER STOP ADDMOD EQ STOP CALLER "},"methodIdentifiers":{"assignYield(uint256,uint256)":"434febb9","capsuleCount()":"05dc0394","capsules(uint256)":"517bbf46","createCapsule(string,string,string,uint256)":"58466a44","getCapsule(uint256)":"3aac3858","sealCapsule(uint256)":"3b42125d","updateVeritus(address)":"7aed504b","veritusNode()":"2de7036e"}}}}}