{"solidity/contracts/FeeManager.sol":{"FeeManager":{"abi":[{"inputs":[{"internalType":"address","name":"_gtt","type":"address"},{"internalType":"address","name":"_treasury","type":"address"}],"stateMutability":"nonpayable","type":"constructor"},{"anonymous":false,"inputs":[{"indexed":true,"internalType":"address","name":"user","type":"address"},{"indexed":true,"internalType":"string","name":"action","type":"string"},{"indexed":false,"internalType":"uint256","name":"amount","type":"uint256"}],"name":"FeePaid","type":"event"},{"anonymous":false,"inputs":[{"indexed":true,"internalType":"string","name":"action","type":"string"},{"indexed":false,"internalType":"uint256","name":"oldAmount","type":"uint256"},{"indexed":false,"internalType":"uint256","name":"newAmount","type":"uint256"}],"name":"FeeUpdated","type":"event"},{"anonymous":false,"inputs":[{"indexed":true,"internalType":"address","name":"oldTreasury","type":"address"},{"indexed":true,"internalType":"address","name":"newTreasury","type":"address"}],"name":"TreasuryUpdated","type":"event"},{"inputs":[],"name":"getAllFees","outputs":[{"internalType":"uint256","name":"","type":"uint256"},{"internalType":"uint256","name":"","type":"uint256"},{"internalType":"uint256","name":"","type":"uint256"},{"internalType":"uint256","name":"","type":"uint256"}],"stateMutability":"view","type":"function"},{"inputs":[{"internalType":"string","name":"action","type":"string"}],"name":"getFee","outputs":[{"internalType":"uint256","name":"","type":"uint256"}],"stateMutability":"view","type":"function"},{"inputs":[{"internalType":"string","name":"action","type":"string"}],"name":"getTotalFeesCollected","outputs":[{"internalType":"uint256","name":"","type":"uint256"}],"stateMutability":"view","type":"function"},{"inputs":[{"internalType":"address","name":"user","type":"address"},{"internalType":"string","name":"action","type":"string"}],"name":"getUserFeePaid","outputs":[{"internalType":"uint256","name":"","type":"uint256"}],"stateMutability":"view","type":"function"},{"inputs":[{"internalType":"address","name":"user","type":"address"}],"name":"getUserTotalFeePaid","outputs":[{"internalType":"uint256","name":"","type":"uint256"}],"stateMutability":"view","type":"function"},{"inputs":[],"name":"gtt","outputs":[{"internalType":"contract IGTT","name":"","type":"address"}],"stateMutability":"view","type":"function"},{"inputs":[],"name":"mintFee","outputs":[{"internalType":"uint256","name":"","type":"uint256"}],"stateMutability":"view","type":"function"},{"inputs":[],"name":"owner","outputs":[{"internalType":"address","name":"","type":"address"}],"stateMutability":"view","type":"function"},{"inputs":[{"internalType":"string","name":"action","type":"string"}],"name":"payFee","outputs":[],"stateMutability":"nonpayable","type":"function"},{"inputs":[],"name":"proposalFee","outputs":[{"internalType":"uint256","name":"","type":"uint256"}],"stateMutability":"view","type":"function"},{"inputs":[],"name":"sealFee","outputs":[{"internalType":"uint256","name":"","type":"uint256"}],"stateMutability":"view","type":"function"},{"inputs":[{"internalType":"string","name":"action","type":"string"},{"internalType":"uint256","name":"amount","type":"uint256"}],"name":"setFee","outputs":[],"stateMutability":"nonpayable","type":"function"},{"inputs":[{"internalType":"string","name":"","type":"string"}],"name":"totalFeesCollected","outputs":[{"internalType":"uint256","name":"","type":"uint256"}],"stateMutability":"view","type":"function"},{"inputs":[{"internalType":"address","name":"newOwner","type":"address"}],"name":"transferOwnership","outputs":[],"stateMutability":"nonpayable","type":"function"},{"inputs":[],"name":"treasury","outputs":[{"internalType":"address","name":"","type":"address"}],"stateMutability":"view","type":"function"},{"inputs":[{"internalType":"address","name":"newTreasury","type":"address"}],"name":"updateTreasury","outputs":[],"stateMutability":"nonpayable","type":"function"},{"inputs":[{"internalType":"address","name":"","type":"address"},{"internalType":"string","name":"","type":"string"}],"name":"userFeePaid","outputs":[{"internalType":"uint256","name":"","type":"uint256"}],"stateMutability":"view","type":"function"},{"inputs":[{"internalType":"address","name":"","type":"address"}],"name":"userTotalFeePaid","outputs":[{"internalType":"uint256","name":"","type":"uint256"}],"stateMutability":"view","type":"function"},{"inputs":[],"name":"verificationFee","outputs":[{"internalType":"uint256","name":"","type":"uint256"}],"stateMutability":"view","type":"function"}],"evm":{"bytecode":{"linkReferences":{},"object":"60806040526802b5e3af16b188000060035568056bc75e2d63100000600455681b1ae4d6e2ef50000060055568015af1d78b58c4000060065534801561004457600080fd5b50604051610d9d380380610d9d833981016040819052610063916100bb565b600280546001600160a01b03199081163317909155600180546001600160a01b03948516908316179055600080549290931691161790556100ee565b80516001600160a01b03811681146100b657600080fd5b919050565b600080604083850312156100ce57600080fd5b6100d78361009f565b91506100e56020840161009f565b90509250929050565b610ca0806100fd6000396000f3fe608060405234801561001057600080fd5b50600436106101215760003560e01c8063a8c278a2116100ad578063cafe0e9011610071578063cafe0e90146102bc578063ed1eee68146102cf578063f2fde38b146102e2578063f84acddb146102f5578063fd41267f1461030857600080fd5b8063a8c278a214610258578063a958ab4114610261578063b20feaaf14610274578063b23bf443146102a0578063c27cabb5146102b357600080fd5b806361d027b3116100f457806361d027b3146101c95780637a52c1a1146101dc5780637f51bb1f146102075780638da5cb5b1461021c5780639934675b1461022f57600080fd5b806313966db514610126578063389f40f41461014257806341befc24146101625780635c6afd001461019e575b600080fd5b61012f60035481565b6040519081526020015b60405180910390f35b61012f610150366004610a22565b60096020526000908152604090205481565b61012f610170366004610ae7565b6008602090815260009283526040909220815180830184018051928152908401929093019190912091525481565b6001546101b1906001600160a01b031681565b6040516001600160a01b039091168152602001610139565b6000546101b1906001600160a01b031681565b61012f6101ea366004610b35565b805160208183018101805160078252928201919093012091525481565b61021a610215366004610a22565b610311565b005b6002546101b1906001600160a01b031681565b61012f61023d366004610a22565b6001600160a01b031660009081526009602052604090205490565b61012f60065481565b61012f61026f366004610b35565b6103ea565b600354600454600554600654604080519485526020850193909352918301526060820152608001610139565b61021a6102ae366004610b35565b610412565b61012f60055481565b61021a6102ca366004610b72565b6106c5565b61012f6102dd366004610b35565b610857565b61021a6102f0366004610a22565b61092e565b61012f610303366004610ae7565b6109c8565b61012f60045481565b6002546001600160a01b031633146103445760405162461bcd60e51b815260040161033b90610bb7565b60405180910390fd5b6001600160a01b03811661039a5760405162461bcd60e51b815260206004820152601860248201527f496e76616c696420747265617375727920616464726573730000000000000000604482015260640161033b565b600080546001600160a01b038381166001600160a01b0319831681178455604051919092169283917f4ab5be82436d353e61ca18726e984e561f5c1cc7c6d38b29d2553c790434705a9190a35050565b60006007826040516103fc9190610bdf565b9081526020016040518091039020549050919050565b600061041d82610857565b9050600081116104625760405162461bcd60e51b815260206004820152601060248201526f496e76616c696420666565207479706560801b604482015260640161033b565b6001546040516370a0823160e01b815233600482015282916001600160a01b0316906370a0823190602401602060405180830381865afa1580156104aa573d6000803e3d6000fd5b505050506040513d601f19601f820116820180604052508101906104ce9190610c0e565b101561051c5760405162461bcd60e51b815260206004820152601860248201527f496e73756666696369656e74204754542062616c616e63650000000000000000604482015260640161033b565b6001546000546040516323b872dd60e01b81523360048201526001600160a01b039182166024820152604481018490529116906323b872dd906064016020604051808303816000875af1158015610577573d6000803e3d6000fd5b505050506040513d601f19601f8201168201806040525081019061059b9190610c27565b6105dd5760405162461bcd60e51b815260206004820152601360248201527211d515081d1c985b9cd9995c8819985a5b1959606a1b604482015260640161033b565b806007836040516105ee9190610bdf565b9081526020016040518091039020600082825461060b9190610c49565b909155505033600090815260086020526040908190209051829190610631908590610bdf565b9081526020016040518091039020600082825461064e9190610c49565b90915550503360009081526009602052604081208054839290610672908490610c49565b9091555050604051610685908390610bdf565b6040519081900381208282529033907ff8efcbf5e7b234324bfe1597e03e47097873931b75004b6b223f7b1018c7fc3d9060200160405180910390a35050565b6002546001600160a01b031633146106ef5760405162461bcd60e51b815260040161033b90610bb7565b60006106fa83610857565b835160208501209091507f250f4c3a8efc869f614ab6a0e132cb734d7e988ee48c9f601a9a58d8cbaafcac8101610735576003839055610803565b7f2558f7ceaebc63887b5bd1e58b0529aab8f95ab832ea2b64ddf977e3eedb53dc8103610766576004839055610803565b7fb6d2dc83590271a7c0a5ab5fbf6a2dad418bbfd533c253e3d69a6772712809c78103610797576005839055610803565b7fc5a869c17615f7b2c13a820954f10069a69200b197ffc10621945d13e22bc59d81036107c8576006839055610803565b60405162461bcd60e51b815260206004820152601060248201526f496e76616c696420666565207479706560801b604482015260640161033b565b836040516108119190610bdf565b6040805191829003822084835260208301869052917fa959d4d2b0cc07c4515dc6e929a0f9c8ade49c6edb5133ba973de9b8ad745861910160405180910390a250505050565b805160208201206000907f250f4c3a8efc869f614ab6a0e132cb734d7e988ee48c9f601a9a58d8cbaafcac8101610892575050600354919050565b7f2558f7ceaebc63887b5bd1e58b0529aab8f95ab832ea2b64ddf977e3eedb53dc81036108c3575050600454919050565b7fb6d2dc83590271a7c0a5ab5fbf6a2dad418bbfd533c253e3d69a6772712809c781036108f4575050600554919050565b7fc5a869c17615f7b2c13a820954f10069a69200b197ffc10621945d13e22bc59d8103610925575050600654919050565b50600092915050565b6002546001600160a01b031633146109585760405162461bcd60e51b815260040161033b90610bb7565b6001600160a01b0381166109a65760405162461bcd60e51b8152602060048201526015602482015274496e76616c6964206f776e6572206164647265737360581b604482015260640161033b565b600280546001600160a01b0319166001600160a01b0392909216919091179055565b6001600160a01b03821660009081526008602052604080822090516109ee908490610bdf565b90815260200160405180910390205490505b92915050565b80356001600160a01b0381168114610a1d57600080fd5b919050565b600060208284031215610a3457600080fd5b610a3d82610a06565b9392505050565b634e487b7160e01b600052604160045260246000fd5b600082601f830112610a6b57600080fd5b813567ffffffffffffffff80821115610a8657610a86610a44565b604051601f8301601f19908116603f01168101908282118183101715610aae57610aae610a44565b81604052838152866020858801011115610ac757600080fd5b836020870160208301376000602085830101528094505050505092915050565b60008060408385031215610afa57600080fd5b610b0383610a06565b9150602083013567ffffffffffffffff811115610b1f57600080fd5b610b2b85828601610a5a565b9150509250929050565b600060208284031215610b4757600080fd5b813567ffffffffffffffff811115610b5e57600080fd5b610b6a84828501610a5a565b949350505050565b60008060408385031215610b8557600080fd5b823567ffffffffffffffff811115610b9c57600080fd5b610ba885828601610a5a565b95602094909401359450505050565b6020808252600e908201526d139bdd08185d5d1a1bdc9a5e995960921b604082015260600190565b6000825160005b81811015610c005760208186018101518583015201610be6565b506000920191825250919050565b600060208284031215610c2057600080fd5b5051919050565b600060208284031215610c3957600080fd5b81518015158114610a3d57600080fd5b80820180821115610a0057634e487b7160e01b600052601160045260246000fdfea2646970667358221220fe524c9c84e5ec26bfa539134770f52109f0c7317c409d84404bb0ed477979d864736f6c63430008140033","opcodes":"PUSH1 0x80 PUSH1 0x40 MSTORE PUSH9 0x2B5E3AF16B1880000 PUSH1 0x3 SSTORE PUSH9 0x56BC75E2D63100000 PUSH1 0x4 SSTORE PUSH9 0x1B1AE4D6E2EF500000 PUSH1 0x5 SSTORE PUSH9 0x15AF1D78B58C40000 PUSH1 0x6 SSTORE CALLVALUE DUP1 ISZERO PUSH2 0x44 JUMPI PUSH1 0x0 DUP1 REVERT JUMPDEST POP PUSH1 0x40 MLOAD PUSH2 0xD9D CODESIZE SUB DUP1 PUSH2 0xD9D DUP4 CODECOPY DUP2 ADD PUSH1 0x40 DUP2 SWAP1 MSTORE PUSH2 0x63 SWAP2 PUSH2 0xBB JUMP JUMPDEST PUSH1 0x2 DUP1 SLOAD PUSH1 0x1 PUSH1 0x1 PUSH1 0xA0 SHL SUB NOT SWAP1 DUP2 AND CALLER OR SWAP1 SWAP2 SSTORE PUSH1 0x1 DUP1 SLOAD PUSH1 0x1 PUSH1 0x1 PUSH1 0xA0 SHL SUB SWAP5 DUP6 AND SWAP1 DUP4 AND OR SWAP1 SSTORE PUSH1 0x0 DUP1 SLOAD SWAP3 SWAP1 SWAP4 AND SWAP2 AND OR SWAP1 SSTORE PUSH2 0xEE JUMP JUMPDEST DUP1 MLOAD PUSH1 0x1 PUSH1 0x1 PUSH1 0xA0 SHL SUB DUP2 AND DUP2 EQ PUSH2 0xB6 JUMPI PUSH1 0x0 DUP1 REVERT JUMPDEST SWAP2 SWAP1 POP JUMP JUMPDEST PUSH1 0x0 DUP1 PUSH1 0x40 DUP4 DUP6 SUB SLT ISZERO PUSH2 0xCE JUMPI PUSH1 0x0 DUP1 REVERT JUMPDEST PUSH2 0xD7 DUP4 PUSH2 0x9F JUMP JUMPDEST SWAP2 POP PUSH2 0xE5 PUSH1 0x20 DUP5 ADD PUSH2 0x9F JUMP JUMPDEST SWAP1 POP SWAP3 POP SWAP3 SWAP1 POP JUMP JUMPDEST PUSH2 0xCA0 DUP1 PUSH2 0xFD PUSH1 0x0 CODECOPY PUSH1 0x0 RETURN INVALID PUSH1 0x80 PUSH1 0x40 MSTORE CALLVALUE DUP1 ISZERO PUSH2 0x10 JUMPI PUSH1 0x0 DUP1 REVERT JUMPDEST POP PUSH1 0x4 CALLDATASIZE LT PUSH2 0x121 JUMPI PUSH1 0x0 CALLDATALOAD PUSH1 0xE0 SHR DUP1 PUSH4 0xA8C278A2 GT PUSH2 0xAD JUMPI DUP1 PUSH4 0xCAFE0E90 GT PUSH2 0x71 JUMPI DUP1 PUSH4 0xCAFE0E90 EQ PUSH2 0x2BC JUMPI DUP1 PUSH4 0xED1EEE68 EQ PUSH2 0x2CF JUMPI DUP1 PUSH4 0xF2FDE38B EQ PUSH2 0x2E2 JUMPI DUP1 PUSH4 0xF84ACDDB EQ PUSH2 0x2F5 JUMPI DUP1 PUSH4 0xFD41267F EQ PUSH2 0x308 JUMPI PUSH1 0x0 DUP1 REVERT JUMPDEST DUP1 PUSH4 0xA8C278A2 EQ PUSH2 0x258 JUMPI DUP1 PUSH4 0xA958AB41 EQ PUSH2 0x261 JUMPI DUP1 PUSH4 0xB20FEAAF EQ PUSH2 0x274 JUMPI DUP1 PUSH4 0xB23BF443 EQ PUSH2 0x2A0 JUMPI DUP1 PUSH4 0xC27CABB5 EQ PUSH2 0x2B3 JUMPI PUSH1 0x0 DUP1 REVERT JUMPDEST DUP1 PUSH4 0x61D027B3 GT PUSH2 0xF4 JUMPI DUP1 PUSH4 0x61D027B3 EQ PUSH2 0x1C9 JUMPI DUP1 PUSH4 0x7A52C1A1 EQ PUSH2 0x1DC JUMPI DUP1 PUSH4 0x7F51BB1F EQ PUSH2 0x207 JUMPI DUP1 PUSH4 0x8DA5CB5B EQ PUSH2 0x21C JUMPI DUP1 PUSH4 0x9934675B EQ PUSH2 0x22F JUMPI PUSH1 0x0 DUP1 REVERT JUMPDEST DUP1 PUSH4 0x13966DB5 EQ PUSH2 0x126 JUMPI DUP1 PUSH4 0x389F40F4 EQ PUSH2 0x142 JUMPI DUP1 PUSH4 0x41BEFC24 EQ PUSH2 0x162 JUMPI DUP1 PUSH4 0x5C6AFD00 EQ PUSH2 0x19E JUMPI JUMPDEST PUSH1 0x0 DUP1 REVERT JUMPDEST PUSH2 0x12F PUSH1 0x3 SLOAD DUP2 JUMP JUMPDEST PUSH1 0x40 MLOAD SWAP1 DUP2 MSTORE PUSH1 0x20 ADD JUMPDEST PUSH1 0x40 MLOAD DUP1 SWAP2 SUB SWAP1 RETURN JUMPDEST PUSH2 0x12F PUSH2 0x150 CALLDATASIZE PUSH1 0x4 PUSH2 0xA22 JUMP JUMPDEST PUSH1 0x9 PUSH1 0x20 MSTORE PUSH1 0x0 SWAP1 DUP2 MSTORE PUSH1 0x40 SWAP1 KECCAK256 SLOAD DUP2 JUMP JUMPDEST PUSH2 0x12F PUSH2 0x170 CALLDATASIZE PUSH1 0x4 PUSH2 0xAE7 JUMP JUMPDEST PUSH1 0x8 PUSH1 0x20 SWAP1 DUP2 MSTORE PUSH1 0x0 SWAP3 DUP4 MSTORE PUSH1 0x40 SWAP1 SWAP3 KECCAK256 DUP2 MLOAD DUP1 DUP4 ADD DUP5 ADD DUP1 MLOAD SWAP3 DUP2 MSTORE SWAP1 DUP5 ADD SWAP3 SWAP1 SWAP4 ADD SWAP2 SWAP1 SWAP2 KECCAK256 SWAP2 MSTORE SLOAD DUP2 JUMP JUMPDEST PUSH1 0x1 SLOAD PUSH2 0x1B1 SWAP1 PUSH1 0x1 PUSH1 0x1 PUSH1 0xA0 SHL SUB AND DUP2 JUMP JUMPDEST PUSH1 0x40 MLOAD PUSH1 0x1 PUSH1 0x1 PUSH1 0xA0 SHL SUB SWAP1 SWAP2 AND DUP2 MSTORE PUSH1 0x20 ADD PUSH2 0x139 JUMP JUMPDEST PUSH1 0x0 SLOAD PUSH2 0x1B1 SWAP1 PUSH1 0x1 PUSH1 0x1 PUSH1 0xA0 SHL SUB AND DUP2 JUMP JUMPDEST PUSH2 0x12F PUSH2 0x1EA CALLDATASIZE PUSH1 0x4 PUSH2 0xB35 JUMP JUMPDEST DUP1 MLOAD PUSH1 0x20 DUP2 DUP4 ADD DUP2 ADD DUP1 MLOAD PUSH1 0x7 DUP3 MSTORE SWAP3 DUP3 ADD SWAP2 SWAP1 SWAP4 ADD KECCAK256 SWAP2 MSTORE SLOAD DUP2 JUMP JUMPDEST PUSH2 0x21A PUSH2 0x215 CALLDATASIZE PUSH1 0x4 PUSH2 0xA22 JUMP JUMPDEST PUSH2 0x311 JUMP JUMPDEST STOP JUMPDEST PUSH1 0x2 SLOAD PUSH2 0x1B1 SWAP1 PUSH1 0x1 PUSH1 0x1 PUSH1 0xA0 SHL SUB AND DUP2 JUMP JUMPDEST PUSH2 0x12F PUSH2 0x23D CALLDATASIZE PUSH1 0x4 PUSH2 0xA22 JUMP JUMPDEST PUSH1 0x1 PUSH1 0x1 PUSH1 0xA0 SHL SUB AND PUSH1 0x0 SWAP1 DUP2 MSTORE PUSH1 0x9 PUSH1 0x20 MSTORE PUSH1 0x40 SWAP1 KECCAK256 SLOAD SWAP1 JUMP JUMPDEST PUSH2 0x12F PUSH1 0x6 SLOAD DUP2 JUMP JUMPDEST PUSH2 0x12F PUSH2 0x26F CALLDATASIZE PUSH1 0x4 PUSH2 0xB35 JUMP JUMPDEST PUSH2 0x3EA JUMP JUMPDEST PUSH1 0x3 SLOAD PUSH1 0x4 SLOAD PUSH1 0x5 SLOAD PUSH1 0x6 SLOAD PUSH1 0x40 DUP1 MLOAD SWAP5 DUP6 MSTORE PUSH1 0x20 DUP6 ADD SWAP4 SWAP1 SWAP4 MSTORE SWAP2 DUP4 ADD MSTORE PUSH1 0x60 DUP3 ADD MSTORE PUSH1 0x80 ADD PUSH2 0x139 JUMP JUMPDEST PUSH2 0x21A PUSH2 0x2AE CALLDATASIZE PUSH1 0x4 PUSH2 0xB35 JUMP JUMPDEST PUSH2 0x412 JUMP JUMPDEST PUSH2 0x12F PUSH1 0x5 SLOAD DUP2 JUMP JUMPDEST PUSH2 0x21A PUSH2 0x2CA CALLDATASIZE PUSH1 0x4 PUSH2 0xB72 JUMP JUMPDEST PUSH2 0x6C5 JUMP JUMPDEST PUSH2 0x12F PUSH2 0x2DD CALLDATASIZE PUSH1 0x4 PUSH2 0xB35 JUMP JUMPDEST PUSH2 0x857 JUMP JUMPDEST PUSH2 0x21A PUSH2 0x2F0 CALLDATASIZE PUSH1 0x4 PUSH2 0xA22 JUMP JUMPDEST PUSH2 0x92E JUMP JUMPDEST PUSH2 0x12F PUSH2 0x303 CALLDATASIZE PUSH1 0x4 PUSH2 0xAE7 JUMP JUMPDEST PUSH2 0x9C8 JUMP JUMPDEST PUSH2 0x12F PUSH1 0x4 SLOAD DUP2 JUMP JUMPDEST PUSH1 0x2 SLOAD PUSH1 0x1 PUSH1 0x1 PUSH1 0xA0 SHL SUB AND CALLER EQ PUSH2 0x344 JUMPI PUSH1 0x40 MLOAD PUSH3 0x461BCD PUSH1 0xE5 SHL DUP2 MSTORE PUSH1 0x4 ADD PUSH2 0x33B SWAP1 PUSH2 0xBB7 JUMP JUMPDEST PUSH1 0x40 MLOAD DUP1 SWAP2 SUB SWAP1 REVERT JUMPDEST PUSH1 0x1 PUSH1 0x1 PUSH1 0xA0 SHL SUB DUP2 AND PUSH2 0x39A JUMPI PUSH1 0x40 MLOAD PUSH3 0x461BCD PUSH1 0xE5 SHL DUP2 MSTORE PUSH1 0x20 PUSH1 0x4 DUP3 ADD MSTORE PUSH1 0x18 PUSH1 0x24 DUP3 ADD MSTORE PUSH32 0x496E76616C696420747265617375727920616464726573730000000000000000 PUSH1 0x44 DUP3 ADD MSTORE PUSH1 0x64 ADD PUSH2 0x33B JUMP JUMPDEST PUSH1 0x0 DUP1 SLOAD PUSH1 0x1 PUSH1 0x1 PUSH1 0xA0 SHL SUB DUP4 DUP2 AND PUSH1 0x1 PUSH1 0x1 PUSH1 0xA0 SHL SUB NOT DUP4 AND DUP2 OR DUP5 SSTORE PUSH1 0x40 MLOAD SWAP2 SWAP1 SWAP3 AND SWAP3 DUP4 SWAP2 PUSH32 0x4AB5BE82436D353E61CA18726E984E561F5C1CC7C6D38B29D2553C790434705A SWAP2 SWAP1 LOG3 POP POP JUMP JUMPDEST PUSH1 0x0 PUSH1 0x7 DUP3 PUSH1 0x40 MLOAD PUSH2 0x3FC SWAP2 SWAP1 PUSH2 0xBDF JUMP JUMPDEST SWAP1 DUP2 MSTORE PUSH1 0x20 ADD PUSH1 0x40 MLOAD DUP1 SWAP2 SUB SWAP1 KECCAK256 SLOAD SWAP1 POP SWAP2 SWAP1 POP JUMP JUMPDEST PUSH1 0x0 PUSH2 0x41D DUP3 PUSH2 0x857 JUMP JUMPDEST SWAP1 POP PUSH1 0x0 DUP2 GT PUSH2 0x462 JUMPI PUSH1 0x40 MLOAD PUSH3 0x461BCD PUSH1 0xE5 SHL DUP2 MSTORE PUSH1 0x20 PUSH1 0x4 DUP3 ADD MSTORE PUSH1 0x10 PUSH1 0x24 DUP3 ADD MSTORE PUSH16 0x496E76616C6964206665652074797065 PUSH1 0x80 SHL PUSH1 0x44 DUP3 ADD MSTORE PUSH1 0x64 ADD PUSH2 0x33B JUMP JUMPDEST PUSH1 0x1 SLOAD PUSH1 0x40 MLOAD PUSH4 0x70A08231 PUSH1 0xE0 SHL DUP2 MSTORE CALLER PUSH1 0x4 DUP3 ADD MSTORE DUP3 SWAP2 PUSH1 0x1 PUSH1 0x1 PUSH1 0xA0 SHL SUB AND SWAP1 PUSH4 0x70A08231 SWAP1 PUSH1 0x24 ADD PUSH1 0x20 PUSH1 0x40 MLOAD DUP1 DUP4 SUB DUP2 DUP7 GAS STATICCALL ISZERO DUP1 ISZERO PUSH2 0x4AA JUMPI RETURNDATASIZE PUSH1 0x0 DUP1 RETURNDATACOPY RETURNDATASIZE PUSH1 0x0 REVERT JUMPDEST POP POP POP POP PUSH1 0x40 MLOAD RETURNDATASIZE PUSH1 0x1F NOT PUSH1 0x1F DUP3 ADD AND DUP3 ADD DUP1 PUSH1 0x40 MSTORE POP DUP2 ADD SWAP1 PUSH2 0x4CE SWAP2 SWAP1 PUSH2 0xC0E JUMP JUMPDEST LT ISZERO PUSH2 0x51C JUMPI PUSH1 0x40 MLOAD PUSH3 0x461BCD PUSH1 0xE5 SHL DUP2 MSTORE PUSH1 0x20 PUSH1 0x4 DUP3 ADD MSTORE PUSH1 0x18 PUSH1 0x24 DUP3 ADD MSTORE PUSH32 0x496E73756666696369656E74204754542062616C616E63650000000000000000 PUSH1 0x44 DUP3 ADD MSTORE PUSH1 0x64 ADD PUSH2 0x33B JUMP JUMPDEST PUSH1 0x1 SLOAD PUSH1 0x0 SLOAD PUSH1 0x40 MLOAD PUSH4 0x23B872DD PUSH1 0xE0 SHL DUP2 MSTORE CALLER PUSH1 0x4 DUP3 ADD MSTORE PUSH1 0x1 PUSH1 0x1 PUSH1 0xA0 SHL SUB SWAP2 DUP3 AND PUSH1 0x24 DUP3 ADD MSTORE PUSH1 0x44 DUP2 ADD DUP5 SWAP1 MSTORE SWAP2 AND SWAP1 PUSH4 0x23B872DD SWAP1 PUSH1 0x64 ADD PUSH1 0x20 PUSH1 0x40 MLOAD DUP1 DUP4 SUB DUP2 PUSH1 0x0 DUP8 GAS CALL ISZERO DUP1 ISZERO PUSH2 0x577 JUMPI RETURNDATASIZE PUSH1 0x0 DUP1 RETURNDATACOPY RETURNDATASIZE PUSH1 0x0 REVERT JUMPDEST POP POP POP POP PUSH1 0x40 MLOAD RETURNDATASIZE PUSH1 0x1F NOT PUSH1 0x1F DUP3 ADD AND DUP3 ADD DUP1 PUSH1 0x40 MSTORE POP DUP2 ADD SWAP1 PUSH2 0x59B SWAP2 SWAP1 PUSH2 0xC27 JUMP JUMPDEST PUSH2 0x5DD JUMPI PUSH1 0x40 MLOAD PUSH3 0x461BCD PUSH1 0xE5 SHL DUP2 MSTORE PUSH1 0x20 PUSH1 0x4 DUP3 ADD MSTORE PUSH1 0x13 PUSH1 0x24 DUP3 ADD MSTORE PUSH19 0x11D515081D1C985B9CD9995C8819985A5B1959 PUSH1 0x6A SHL PUSH1 0x44 DUP3 ADD MSTORE PUSH1 0x64 ADD PUSH2 0x33B JUMP JUMPDEST DUP1 PUSH1 0x7 DUP4 PUSH1 0x40 MLOAD PUSH2 0x5EE SWAP2 SWAP1 PUSH2 0xBDF JUMP JUMPDEST SWAP1 DUP2 MSTORE PUSH1 0x20 ADD PUSH1 0x40 MLOAD DUP1 SWAP2 SUB SWAP1 KECCAK256 PUSH1 0x0 DUP3 DUP3 SLOAD PUSH2 0x60B SWAP2 SWAP1 PUSH2 0xC49 JUMP JUMPDEST SWAP1 SWAP2 SSTORE POP POP CALLER PUSH1 0x0 SWAP1 DUP2 MSTORE PUSH1 0x8 PUSH1 0x20 MSTORE PUSH1 0x40 SWAP1 DUP2 SWAP1 KECCAK256 SWAP1 MLOAD DUP3 SWAP2 SWAP1 PUSH2 0x631 SWAP1 DUP6 SWAP1 PUSH2 0xBDF JUMP JUMPDEST SWAP1 DUP2 MSTORE PUSH1 0x20 ADD PUSH1 0x40 MLOAD DUP1 SWAP2 SUB SWAP1 KECCAK256 PUSH1 0x0 DUP3 DUP3 SLOAD PUSH2 0x64E SWAP2 SWAP1 PUSH2 0xC49 JUMP JUMPDEST SWAP1 SWAP2 SSTORE POP POP CALLER PUSH1 0x0 SWAP1 DUP2 MSTORE PUSH1 0x9 PUSH1 0x20 MSTORE PUSH1 0x40 DUP2 KECCAK256 DUP1 SLOAD DUP4 SWAP3 SWAP1 PUSH2 0x672 SWAP1 DUP5 SWAP1 PUSH2 0xC49 JUMP JUMPDEST SWAP1 SWAP2 SSTORE POP POP PUSH1 0x40 MLOAD PUSH2 0x685 SWAP1 DUP4 SWAP1 PUSH2 0xBDF JUMP JUMPDEST PUSH1 0x40 MLOAD SWAP1 DUP2 SWAP1 SUB DUP2 KECCAK256 DUP3 DUP3 MSTORE SWAP1 CALLER SWAP1 PUSH32 0xF8EFCBF5E7B234324BFE1597E03E47097873931B75004B6B223F7B1018C7FC3D SWAP1 PUSH1 0x20 ADD PUSH1 0x40 MLOAD DUP1 SWAP2 SUB SWAP1 LOG3 POP POP JUMP JUMPDEST PUSH1 0x2 SLOAD PUSH1 0x1 PUSH1 0x1 PUSH1 0xA0 SHL SUB AND CALLER EQ PUSH2 0x6EF JUMPI PUSH1 0x40 MLOAD PUSH3 0x461BCD PUSH1 0xE5 SHL DUP2 MSTORE PUSH1 0x4 ADD PUSH2 0x33B SWAP1 PUSH2 0xBB7 JUMP JUMPDEST PUSH1 0x0 PUSH2 0x6FA DUP4 PUSH2 0x857 JUMP JUMPDEST DUP4 MLOAD PUSH1 0x20 DUP6 ADD KECCAK256 SWAP1 SWAP2 POP PUSH32 0x250F4C3A8EFC869F614AB6A0E132CB734D7E988EE48C9F601A9A58D8CBAAFCAC DUP2 ADD PUSH2 0x735 JUMPI PUSH1 0x3 DUP4 SWAP1 SSTORE PUSH2 0x803 JUMP JUMPDEST PUSH32 0x2558F7CEAEBC63887B5BD1E58B0529AAB8F95AB832EA2B64DDF977E3EEDB53DC DUP2 SUB PUSH2 0x766 JUMPI PUSH1 0x4 DUP4 SWAP1 SSTORE PUSH2 0x803 JUMP JUMPDEST PUSH32 0xB6D2DC83590271A7C0A5AB5FBF6A2DAD418BBFD533C253E3D69A6772712809C7 DUP2 SUB PUSH2 0x797 JUMPI PUSH1 0x5 DUP4 SWAP1 SSTORE PUSH2 0x803 JUMP JUMPDEST PUSH32 0xC5A869C17615F7B2C13A820954F10069A69200B197FFC10621945D13E22BC59D DUP2 SUB PUSH2 0x7C8 JUMPI PUSH1 0x6 DUP4 SWAP1 SSTORE PUSH2 0x803 JUMP JUMPDEST PUSH1 0x40 MLOAD PUSH3 0x461BCD PUSH1 0xE5 SHL DUP2 MSTORE PUSH1 0x20 PUSH1 0x4 DUP3 ADD MSTORE PUSH1 0x10 PUSH1 0x24 DUP3 ADD MSTORE PUSH16 0x496E76616C6964206665652074797065 PUSH1 0x80 SHL PUSH1 0x44 DUP3 ADD MSTORE PUSH1 0x64 ADD PUSH2 0x33B JUMP JUMPDEST DUP4 PUSH1 0x40 MLOAD PUSH2 0x811 SWAP2 SWAP1 PUSH2 0xBDF JUMP JUMPDEST PUSH1 0x40 DUP1 MLOAD SWAP2 DUP3 SWAP1 SUB DUP3 KECCAK256 DUP5 DUP4 MSTORE PUSH1 0x20 DUP4 ADD DUP7 SWAP1 MSTORE SWAP2 PUSH32 0xA959D4D2B0CC07C4515DC6E929A0F9C8ADE49C6EDB5133BA973DE9B8AD745861 SWAP2 ADD PUSH1 0x40 MLOAD DUP1 SWAP2 SUB SWAP1 LOG2 POP POP POP POP JUMP JUMPDEST DUP1 MLOAD PUSH1 0x20 DUP3 ADD KECCAK256 PUSH1 0x0 SWAP1 PUSH32 0x250F4C3A8EFC869F614AB6A0E132CB734D7E988EE48C9F601A9A58D8CBAAFCAC DUP2 ADD PUSH2 0x892 JUMPI POP POP PUSH1 0x3 SLOAD SWAP2 SWAP1 POP JUMP JUMPDEST PUSH32 0x2558F7CEAEBC63887B5BD1E58B0529AAB8F95AB832EA2B64DDF977E3EEDB53DC DUP2 SUB PUSH2 0x8C3 JUMPI POP POP PUSH1 0x4 SLOAD SWAP2 SWAP1 POP JUMP JUMPDEST PUSH32 0xB6D2DC83590271A7C0A5AB5FBF6A2DAD418BBFD533C253E3D69A6772712809C7 DUP2 SUB PUSH2 0x8F4 JUMPI POP POP PUSH1 0x5 SLOAD SWAP2 SWAP1 POP JUMP JUMPDEST PUSH32 0xC5A869C17615F7B2C13A820954F10069A69200B197FFC10621945D13E22BC59D DUP2 SUB PUSH2 0x925 JUMPI POP POP PUSH1 0x6 SLOAD SWAP2 SWAP1 POP JUMP JUMPDEST POP PUSH1 0x0 SWAP3 SWAP2 POP POP JUMP JUMPDEST PUSH1 0x2 SLOAD PUSH1 0x1 PUSH1 0x1 PUSH1 0xA0 SHL SUB AND CALLER EQ PUSH2 0x958 JUMPI PUSH1 0x40 MLOAD PUSH3 0x461BCD PUSH1 0xE5 SHL DUP2 MSTORE PUSH1 0x4 ADD PUSH2 0x33B SWAP1 PUSH2 0xBB7 JUMP JUMPDEST PUSH1 0x1 PUSH1 0x1 PUSH1 0xA0 SHL SUB DUP2 AND PUSH2 0x9A6 JUMPI PUSH1 0x40 MLOAD PUSH3 0x461BCD PUSH1 0xE5 SHL DUP2 MSTORE PUSH1 0x20 PUSH1 0x4 DUP3 ADD MSTORE PUSH1 0x15 PUSH1 0x24 DUP3 ADD MSTORE PUSH21 0x496E76616C6964206F776E65722061646472657373 PUSH1 0x58 SHL PUSH1 0x44 DUP3 ADD MSTORE PUSH1 0x64 ADD PUSH2 0x33B JUMP JUMPDEST PUSH1 0x2 DUP1 SLOAD PUSH1 0x1 PUSH1 0x1 PUSH1 0xA0 SHL SUB NOT AND PUSH1 0x1 PUSH1 0x1 PUSH1 0xA0 SHL SUB SWAP3 SWAP1 SWAP3 AND SWAP2 SWAP1 SWAP2 OR SWAP1 SSTORE JUMP JUMPDEST PUSH1 0x1 PUSH1 0x1 PUSH1 0xA0 SHL SUB DUP3 AND PUSH1 0x0 SWAP1 DUP2 MSTORE PUSH1 0x8 PUSH1 0x20 MSTORE PUSH1 0x40 DUP1 DUP3 KECCAK256 SWAP1 MLOAD PUSH2 0x9EE SWAP1 DUP5 SWAP1 PUSH2 0xBDF JUMP JUMPDEST SWAP1 DUP2 MSTORE PUSH1 0x20 ADD PUSH1 0x40 MLOAD DUP1 SWAP2 SUB SWAP1 KECCAK256 SLOAD SWAP1 POP JUMPDEST SWAP3 SWAP2 POP POP JUMP JUMPDEST DUP1 CALLDATALOAD PUSH1 0x1 PUSH1 0x1 PUSH1 0xA0 SHL SUB DUP2 AND DUP2 EQ PUSH2 0xA1D JUMPI PUSH1 0x0 DUP1 REVERT JUMPDEST SWAP2 SWAP1 POP JUMP JUMPDEST PUSH1 0x0 PUSH1 0x20 DUP3 DUP5 SUB SLT ISZERO PUSH2 0xA34 JUMPI PUSH1 0x0 DUP1 REVERT JUMPDEST PUSH2 0xA3D DUP3 PUSH2 0xA06 JUMP JUMPDEST SWAP4 SWAP3 POP POP POP JUMP JUMPDEST PUSH4 0x4E487B71 PUSH1 0xE0 SHL PUSH1 0x0 MSTORE PUSH1 0x41 PUSH1 0x4 MSTORE PUSH1 0x24 PUSH1 0x0 REVERT JUMPDEST PUSH1 0x0 DUP3 PUSH1 0x1F DUP4 ADD SLT PUSH2 0xA6B JUMPI PUSH1 0x0 DUP1 REVERT JUMPDEST DUP2 CALLDATALOAD PUSH8 0xFFFFFFFFFFFFFFFF DUP1 DUP3 GT ISZERO PUSH2 0xA86 JUMPI PUSH2 0xA86 PUSH2 0xA44 JUMP JUMPDEST PUSH1 0x40 MLOAD PUSH1 0x1F DUP4 ADD PUSH1 0x1F NOT SWAP1 DUP2 AND PUSH1 0x3F ADD AND DUP2 ADD SWAP1 DUP3 DUP3 GT DUP2 DUP4 LT OR ISZERO PUSH2 0xAAE JUMPI PUSH2 0xAAE PUSH2 0xA44 JUMP JUMPDEST DUP2 PUSH1 0x40 MSTORE DUP4 DUP2 MSTORE DUP7 PUSH1 0x20 DUP6 DUP9 ADD ADD GT ISZERO PUSH2 0xAC7 JUMPI PUSH1 0x0 DUP1 REVERT JUMPDEST DUP4 PUSH1 0x20 DUP8 ADD PUSH1 0x20 DUP4 ADD CALLDATACOPY PUSH1 0x0 PUSH1 0x20 DUP6 DUP4 ADD ADD MSTORE DUP1 SWAP5 POP POP POP POP POP SWAP3 SWAP2 POP POP JUMP JUMPDEST PUSH1 0x0 DUP1 PUSH1 0x40 DUP4 DUP6 SUB SLT ISZERO PUSH2 0xAFA JUMPI PUSH1 0x0 DUP1 REVERT JUMPDEST PUSH2 0xB03 DUP4 PUSH2 0xA06 JUMP JUMPDEST SWAP2 POP PUSH1 0x20 DUP4 ADD CALLDATALOAD PUSH8 0xFFFFFFFFFFFFFFFF DUP2 GT ISZERO PUSH2 0xB1F JUMPI PUSH1 0x0 DUP1 REVERT JUMPDEST PUSH2 0xB2B DUP6 DUP3 DUP7 ADD PUSH2 0xA5A JUMP JUMPDEST SWAP2 POP POP SWAP3 POP SWAP3 SWAP1 POP JUMP JUMPDEST PUSH1 0x0 PUSH1 0x20 DUP3 DUP5 SUB SLT ISZERO PUSH2 0xB47 JUMPI PUSH1 0x0 DUP1 REVERT JUMPDEST DUP2 CALLDATALOAD PUSH8 0xFFFFFFFFFFFFFFFF DUP2 GT ISZERO PUSH2 0xB5E JUMPI PUSH1 0x0 DUP1 REVERT JUMPDEST PUSH2 0xB6A DUP5 DUP3 DUP6 ADD PUSH2 0xA5A JUMP JUMPDEST SWAP5 SWAP4 POP POP POP POP JUMP JUMPDEST PUSH1 0x0 DUP1 PUSH1 0x40 DUP4 DUP6 SUB SLT ISZERO PUSH2 0xB85 JUMPI PUSH1 0x0 DUP1 REVERT JUMPDEST DUP3 CALLDATALOAD PUSH8 0xFFFFFFFFFFFFFFFF DUP2 GT ISZERO PUSH2 0xB9C JUMPI PUSH1 0x0 DUP1 REVERT JUMPDEST PUSH2 0xBA8 DUP6 DUP3 DUP7 ADD PUSH2 0xA5A JUMP JUMPDEST SWAP6 PUSH1 0x20 SWAP5 SWAP1 SWAP5 ADD CALLDATALOAD SWAP5 POP POP POP POP JUMP JUMPDEST PUSH1 0x20 DUP1 DUP3 MSTORE PUSH1 0xE SWAP1 DUP3 ADD MSTORE PUSH14 0x139BDD08185D5D1A1BDC9A5E9959 PUSH1 0x92 SHL PUSH1 0x40 DUP3 ADD MSTORE PUSH1 0x60 ADD SWAP1 JUMP JUMPDEST PUSH1 0x0 DUP3 MLOAD PUSH1 0x0 JUMPDEST DUP2 DUP2 LT ISZERO PUSH2 0xC00 JUMPI PUSH1 0x20 DUP2 DUP7 ADD DUP2 ADD MLOAD DUP6 DUP4 ADD MSTORE ADD PUSH2 0xBE6 JUMP JUMPDEST POP PUSH1 0x0 SWAP3 ADD SWAP2 DUP3 MSTORE POP SWAP2 SWAP1 POP JUMP JUMPDEST PUSH1 0x0 PUSH1 0x20 DUP3 DUP5 SUB SLT ISZERO PUSH2 0xC20 JUMPI PUSH1 0x0 DUP1 REVERT JUMPDEST POP MLOAD SWAP2 SWAP1 POP JUMP JUMPDEST PUSH1 0x0 PUSH1 0x20 DUP3 DUP5 SUB SLT ISZERO PUSH2 0xC39 JUMPI PUSH1 0x0 DUP1 REVERT JUMPDEST DUP2 MLOAD DUP1 ISZERO ISZERO DUP2 EQ PUSH2 0xA3D JUMPI PUSH1 0x0 DUP1 REVERT JUMPDEST DUP1 DUP3 ADD DUP1 DUP3 GT ISZERO PUSH2 0xA00 JUMPI PUSH4 0x4E487B71 PUSH1 0xE0 SHL PUSH1 0x0 MSTORE PUSH1 0x11 PUSH1 0x4 MSTORE PUSH1 0x24 PUSH1 0x0 REVERT INVALID LOG2 PUSH5 0x6970667358 0x22 SLT KECCAK256 INVALID MSTORE 0x4C SWAP13 DUP5 0xE5 0xEC 0x26 0xBF 0xA5 CODECOPY SGT SELFBALANCE PUSH17 0xF52109F0C7317C409D84404BB0ED477979 0xD8 PUSH5 0x736F6C6343 STOP ADDMOD EQ STOP CALLER "},"methodIdentifiers":{"getAllFees()":"b20feaaf","getFee(string)":"ed1eee68","getTotalFeesCollected(string)":"a958ab41","getUserFeePaid(address,string)":"f84acddb","getUserTotalFeePaid(address)":"9934675b","gtt()":"5c6afd00","mintFee()":"13966db5","owner()":"8da5cb5b","payFee(string)":"b23bf443","proposalFee()":"c27cabb5","sealFee()":"fd41267f","setFee(string,uint256)":"cafe0e90","totalFeesCollected(string)":"7a52c1a1","transferOwnership(address)":"f2fde38b","treasury()":"61d027b3","updateTreasury(address)":"7f51bb1f","userFeePaid(address,string)":"41befc24","userTotalFeePaid(address)":"389f40f4","verificationFee()":"a8c278a2"}}}}}