{"solidity/contracts/TruthVault.sol":{"TruthVault":{"abi":[{"inputs":[{"internalType":"address","name":"_gttToken","type":"address"},{"internalType":"address","name":"_admin","type":"address"}],"stateMutability":"nonpayable","type":"constructor"},{"inputs":[],"name":"AccessControlBadConfirmation","type":"error"},{"inputs":[{"internalType":"address","name":"account","type":"address"},{"internalType":"bytes32","name":"neededRole","type":"bytes32"}],"name":"AccessControlUnauthorizedAccount","type":"error"},{"inputs":[],"name":"EnforcedPause","type":"error"},{"inputs":[],"name":"ExpectedPause","type":"error"},{"inputs":[],"name":"ReentrancyGuardReentrantCall","type":"error"},{"anonymous":false,"inputs":[{"indexed":true,"internalType":"uint256","name":"capsuleId","type":"uint256"},{"indexed":true,"internalType":"address","name":"creator","type":"address"},{"indexed":false,"internalType":"string","name":"ipfsHash","type":"string"}],"name":"CapsuleRegistered","type":"event"},{"anonymous":false,"inputs":[{"indexed":true,"internalType":"uint256","name":"capsuleId","type":"uint256"},{"indexed":false,"internalType":"bool","name":"isVerified","type":"bool"},{"indexed":false,"internalType":"bool","name":"isSealed","type":"bool"}],"name":"CapsuleVerified","type":"event"},{"anonymous":false,"inputs":[{"indexed":false,"internalType":"uint256","name":"yieldToGTTRatio","type":"uint256"},{"indexed":false,"internalType":"uint256","name":"premiumMultiplier","type":"uint256"},{"indexed":false,"internalType":"uint256","name":"eliteMultiplier","type":"uint256"},{"indexed":false,"internalType":"uint256","name":"legendaryMultiplier","type":"uint256"}],"name":"ParametersUpdated","type":"event"},{"anonymous":false,"inputs":[{"indexed":false,"internalType":"address","name":"account","type":"address"}],"name":"Paused","type":"event"},{"anonymous":false,"inputs":[{"indexed":true,"internalType":"bytes32","name":"role","type":"bytes32"},{"indexed":true,"internalType":"bytes32","name":"previousAdminRole","type":"bytes32"},{"indexed":true,"internalType":"bytes32","name":"newAdminRole","type":"bytes32"}],"name":"RoleAdminChanged","type":"event"},{"anonymous":false,"inputs":[{"indexed":true,"internalType":"bytes32","name":"role","type":"bytes32"},{"indexed":true,"internalType":"address","name":"account","type":"address"},{"indexed":true,"internalType":"address","name":"sender","type":"address"}],"name":"RoleGranted","type":"event"},{"anonymous":false,"inputs":[{"indexed":true,"internalType":"bytes32","name":"role","type":"bytes32"},{"indexed":true,"internalType":"address","name":"account","type":"address"},{"indexed":true,"internalType":"address","name":"sender","type":"address"}],"name":"RoleRevoked","type":"event"},{"anonymous":false,"inputs":[{"indexed":false,"internalType":"address","name":"account","type":"address"}],"name":"Unpaused","type":"event"},{"anonymous":false,"inputs":[{"indexed":true,"internalType":"address","name":"user","type":"address"},{"indexed":true,"internalType":"uint256","name":"capsuleId","type":"uint256"},{"indexed":false,"internalType":"uint256","name":"yieldAmount","type":"uint256"},{"indexed":false,"internalType":"uint256","name":"gttAmount","type":"uint256"},{"indexed":false,"internalType":"string","name":"reason","type":"string"}],"name":"YieldClaimed","type":"event"},{"anonymous":false,"inputs":[{"indexed":true,"internalType":"uint256","name":"capsuleId","type":"uint256"},{"indexed":false,"internalType":"uint256","name":"oldYield","type":"uint256"},{"indexed":false,"internalType":"uint256","name":"newYield","type":"uint256"}],"name":"YieldUpdated","type":"event"},{"inputs":[],"name":"CLAIM_COOLDOWN","outputs":[{"internalType":"uint256","name":"","type":"uint256"}],"stateMutability":"view","type":"function"},{"inputs":[],"name":"DEFAULT_ADMIN_ROLE","outputs":[{"internalType":"bytes32","name":"","type":"bytes32"}],"stateMutability":"view","type":"function"},{"inputs":[],"name":"ELITE_THRESHOLD","outputs":[{"internalType":"uint256","name":"","type":"uint256"}],"stateMutability":"view","type":"function"},{"inputs":[],"name":"GOVERNOR_ROLE","outputs":[{"internalType":"bytes32","name":"","type":"bytes32"}],"stateMutability":"view","type":"function"},{"inputs":[],"name":"LEGENDARY_THRESHOLD","outputs":[{"internalType":"uint256","name":"","type":"uint256"}],"stateMutability":"view","type":"function"},{"inputs":[],"name":"MIN_CLAIM_AMOUNT","outputs":[{"internalType":"uint256","name":"","type":"uint256"}],"stateMutability":"view","type":"function"},{"inputs":[],"name":"ORACLE_ROLE","outputs":[{"internalType":"bytes32","name":"","type":"bytes32"}],"stateMutability":"view","type":"function"},{"inputs":[],"name":"PREMIUM_THRESHOLD","outputs":[{"internalType":"uint256","name":"","type":"uint256"}],"stateMutability":"view","type":"function"},{"inputs":[{"internalType":"uint256","name":"yieldAmount","type":"uint256"}],"name":"calculateGTTReward","outputs":[{"internalType":"uint256","name":"","type":"uint256"}],"stateMutability":"view","type":"function"},{"inputs":[{"internalType":"uint256","name":"","type":"uint256"},{"internalType":"address","name":"","type":"address"}],"name":"capsuleUserClaims","outputs":[{"internalType":"uint256","name":"","type":"uint256"}],"stateMutability":"view","type":"function"},{"inputs":[{"internalType":"uint256","name":"","type":"uint256"}],"name":"capsules","outputs":[{"internalType":"address","name":"creator","type":"address"},{"internalType":"bool","name":"isVerified","type":"bool"},{"internalType":"bool","name":"isSealed","type":"bool"},{"internalType":"uint256","name":"truthYield","type":"uint256"},{"internalType":"uint256","name":"totalClaimed","type":"uint256"},{"internalType":"uint256","name":"lastClaimTime","type":"uint256"},{"internalType":"string","name":"ipfsHash","type":"string"},{"internalType":"string","name":"veritasSealUrl","type":"string"}],"stateMutability":"view","type":"function"},{"inputs":[{"internalType":"uint256","name":"capsuleId","type":"uint256"}],"name":"claimYield","outputs":[],"stateMutability":"nonpayable","type":"function"},{"inputs":[],"name":"eliteMultiplier","outputs":[{"internalType":"uint256","name":"","type":"uint256"}],"stateMutability":"view","type":"function"},{"inputs":[{"internalType":"uint256","name":"capsuleId","type":"uint256"}],"name":"getCapsuleClaimInfo","outputs":[{"internalType":"address","name":"creator","type":"address"},{"internalType":"uint256","name":"totalEarned","type":"uint256"},{"internalType":"uint256","name":"totalClaimed","type":"uint256"},{"internalType":"uint256","name":"claimable","type":"uint256"},{"internalType":"uint256","name":"nextClaimTime","type":"uint256"}],"stateMutability":"view","type":"function"},{"inputs":[{"internalType":"bytes32","name":"role","type":"bytes32"}],"name":"getRoleAdmin","outputs":[{"internalType":"bytes32","name":"","type":"bytes32"}],"stateMutability":"view","type":"function"},{"inputs":[{"internalType":"bytes32","name":"role","type":"bytes32"},{"internalType":"address","name":"account","type":"address"}],"name":"grantRole","outputs":[],"stateMutability":"nonpayable","type":"function"},{"inputs":[],"name":"gttToken","outputs":[{"internalType":"contract GTTToken","name":"","type":"address"}],"stateMutability":"view","type":"function"},{"inputs":[{"internalType":"bytes32","name":"role","type":"bytes32"},{"internalType":"address","name":"account","type":"address"}],"name":"hasRole","outputs":[{"internalType":"bool","name":"","type":"bool"}],"stateMutability":"view","type":"function"},{"inputs":[],"name":"legendaryMultiplier","outputs":[{"internalType":"uint256","name":"","type":"uint256"}],"stateMutability":"view","type":"function"},{"inputs":[],"name":"pause","outputs":[],"stateMutability":"nonpayable","type":"function"},{"inputs":[],"name":"paused","outputs":[{"internalType":"bool","name":"","type":"bool"}],"stateMutability":"view","type":"function"},{"inputs":[],"name":"premiumMultiplier","outputs":[{"internalType":"uint256","name":"","type":"uint256"}],"stateMutability":"view","type":"function"},{"inputs":[{"internalType":"uint256","name":"capsuleId","type":"uint256"},{"internalType":"address","name":"creator","type":"address"},{"internalType":"string","name":"ipfsHash","type":"string"}],"name":"registerCapsule","outputs":[],"stateMutability":"nonpayable","type":"function"},{"inputs":[{"internalType":"bytes32","name":"role","type":"bytes32"},{"internalType":"address","name":"callerConfirmation","type":"address"}],"name":"renounceRole","outputs":[],"stateMutability":"nonpayable","type":"function"},{"inputs":[{"internalType":"bytes32","name":"role","type":"bytes32"},{"internalType":"address","name":"account","type":"address"}],"name":"revokeRole","outputs":[],"stateMutability":"nonpayable","type":"function"},{"inputs":[{"internalType":"bytes4","name":"interfaceId","type":"bytes4"}],"name":"supportsInterface","outputs":[{"internalType":"bool","name":"","type":"bool"}],"stateMutability":"view","type":"function"},{"inputs":[{"internalType":"address","name":"","type":"address"}],"name":"totalUserClaims","outputs":[{"internalType":"uint256","name":"","type":"uint256"}],"stateMutability":"view","type":"function"},{"inputs":[],"name":"unpause","outputs":[],"stateMutability":"nonpayable","type":"function"},{"inputs":[{"internalType":"uint256","name":"_yieldToGTTRatio","type":"uint256"},{"internalType":"uint256","name":"_premiumMultiplier","type":"uint256"},{"internalType":"uint256","name":"_eliteMultiplier","type":"uint256"},{"internalType":"uint256","name":"_legendaryMultiplier","type":"uint256"}],"name":"updateParameters","outputs":[],"stateMutability":"nonpayable","type":"function"},{"inputs":[{"internalType":"uint256","name":"capsuleId","type":"uint256"},{"internalType":"uint256","name":"newYield","type":"uint256"}],"name":"updateYield","outputs":[],"stateMutability":"nonpayable","type":"function"},{"inputs":[{"internalType":"uint256","name":"capsuleId","type":"uint256"},{"internalType":"bool","name":"isVerified","type":"bool"},{"internalType":"bool","name":"isSealed","type":"bool"},{"internalType":"string","name":"veritasSealUrl","type":"string"}],"name":"verifyCapsule","outputs":[],"stateMutability":"nonpayable","type":"function"},{"inputs":[],"name":"yieldToGTTRatio","outputs":[{"internalType":"uint256","name":"","type":"uint256"}],"stateMutability":"view","type":"function"}],"evm":{"bytecode":{"linkReferences":{},"object":"60a06040526064600655609660075560c860085561012c6009553480156200002657600080fd5b50604051620020ca380380620020ca833981016040819052620000499162000256565b600180556001600160a01b038216620000b55760405162461bcd60e51b8152602060048201526024808201527f54727574685661756c743a2047545420746f6b656e2063616e6e6f74206265206044820152637a65726f60e01b60648201526084015b60405180910390fd5b6001600160a01b0381166200010d5760405162461bcd60e51b815260206004820181905260248201527f54727574685661756c743a2041646d696e2063616e6e6f74206265207a65726f6044820152606401620000ac565b6001600160a01b038216608052620001276000826200018a565b50620001547f7935bd0ae54bc31f548c14dba4d37c5c64b3f8ca900cb468fb8abd54d5894f55826200018a565b50620001817f68e79a7bf1e0bc45d0a330c573bc367f9cf464fd326078812f301165fbda4ef1826200018a565b5050506200028e565b6000828152602081815260408083206001600160a01b038516845290915281205460ff166200022f576000838152602081815260408083206001600160a01b03861684529091529020805460ff19166001179055620001e63390565b6001600160a01b0316826001600160a01b0316847f2f8788117e7eff1d82e926ec794901d17c78024a50270940304540a733656f0d60405160405180910390a450600162000233565b5060005b92915050565b80516001600160a01b03811681146200025157600080fd5b919050565b600080604083850312156200026a57600080fd5b620002758362000239565b9150620002856020840162000239565b90509250929050565b608051611e19620002b160003960008181610245015261083c0152611e196000f3fe608060405234801561001057600080fd5b50600436106101f05760003560e01c80636fe389821161010f578063ac159467116100a2578063d8f7ef2c11610071578063d8f7ef2c14610475578063e945be1314610488578063ee1eab4f1461049b578063f4277c6d146104ae57600080fd5b8063ac15946714610435578063ccc574901461043e578063d547741f14610453578063d731c4f61461046657600080fd5b806391d14854116100de57806391d14854146103c557806395a968e5146103d85780639af01c2d1461041d578063a217fddf1461042d57600080fd5b80636fe38982146103765780637de857dd1461037f5780638456cb59146103925780638e52b2841461039a57600080fd5b8063383ea72811610187578063517bbf4611610156578063517bbf461461031157806354973c0e1461033857806357e856f91461034b5780635c975abb1461036b57600080fd5b8063383ea728146102dd5780633f4ba83a146102ed57806340bd2e23146102f55780634783decd1461030857600080fd5b80632bc1f6bf116101c35780632bc1f6bf146102a25780632f2ff15d146102ab57806336568abe146102c057806337c909ec146102d357600080fd5b806301ffc9a7146101f557806307e2cea51461021d5780631712c52414610240578063248a9ca31461027f575b600080fd5b6102086102033660046116e5565b6104be565b60405190151581526020015b60405180910390f35b610232600080516020611dc483398151915281565b604051908152602001610214565b6102677f000000000000000000000000000000000000000000000000000000000000000081565b6040516001600160a01b039091168152602001610214565b61023261028d366004611716565b60009081526020819052604090206001015490565b61023260095481565b6102be6102b936600461174b565b6104f5565b005b6102be6102ce36600461174b565b610520565b61023262093a8081565b610232680d8d726b7177a8000081565b6102be610558565b6102be610303366004611716565b61057b565b61023260065481565b61032461031f366004611716565b610900565b6040516102149897969594939291906117c7565b6102be61034636600461182e565b610a67565b610232610359366004611850565b60046020526000908152604090205481565b60025460ff16610208565b61023260075481565b6102be61038d3660046118c4565b610b0d565b6102be610c0a565b6102326103a836600461174b565b600560209081526000928352604080842090915290825290205481565b6102086103d336600461174b565b610c2a565b6103eb6103e6366004611716565b610c53565b604080516001600160a01b0390961686526020860194909452928401919091526060830152608082015260a001610214565b61023268056bc75e2d6310000081565b610232600081565b61023260085481565b610232600080516020611da483398151915281565b6102be61046136600461174b565b610e4a565b610232670de0b6b3a764000081565b610232610483366004611716565b610e6f565b6102be610496366004611933565b610f07565b6102be6104a936600461198d565b6111b6565b610232681b1ae4d6e2ef50000081565b60006001600160e01b03198216637965db0b60e01b14806104ef57506301ffc9a760e01b6001600160e01b03198316145b92915050565b6000828152602081905260409020600101546105108161139e565b61051a83836113a8565b50505050565b6001600160a01b03811633146105495760405163334bd91960e11b815260040160405180910390fd5b610553828261143a565b505050565b600080516020611da48339815191526105708161139e565b6105786114a5565b50565b6105836114f7565b61058b611521565b6000818152600360205260409020548190600160a01b900460ff16806105c65750600081815260036020526040902054600160a81b900460ff165b6106175760405162461bcd60e51b815260206004820181905260248201527f54727574685661756c743a2043617073756c65206e6f7420766572696669656460448201526064015b60405180910390fd5b60008281526003602052604090205482906001600160a01b0316331461067f5760405162461bcd60e51b815260206004820152601f60248201527f54727574685661756c743a204e6f742063617073756c652063726561746f7200604482015260640161060e565b6000838152600360208190526040909120908101546106a29062093a80906119d5565b4210156106fb5760405162461bcd60e51b815260206004820152602160248201527f54727574685661756c743a20436c61696d20636f6f6c646f776e2061637469766044820152606560f81b606482015260840161060e565b600061070a8260010154610e6f565b9050600082600201548261071e91906119e8565b9050670de0b6b3a76400008110156107885760405162461bcd60e51b815260206004820152602760248201527f54727574685661756c743a20496e73756666696369656e74207969656c6420746044820152666f20636c61696d60c81b606482015260840161060e565b8083600201600082825461079c91906119d5565b909155505042600384015533600090815260046020526040812080548392906107c69084906119d5565b90915550506000868152600560209081526040808320338452909152812080548392906107f49084906119d5565b909155506000905061080587611547565b60405160200161081591906119fb565b60408051601f19818403018152908290526308b419b760e41b825291506001600160a01b037f00000000000000000000000000000000000000000000000000000000000000001690638b419b709061087590339086908690600401611a40565b600060405180830381600087803b15801561088f57600080fd5b505af11580156108a3573d6000803e3d6000fd5b5050505086336001600160a01b03167f78d87b3229abd5d5378082613dfaf665a6126e74df802fd6c5e220b8c5f38db0866001015485856040516108e993929190611a70565b60405180910390a350505050505061057860018055565b6003602081905260009182526040909120805460018201546002830154938301546004840180546001600160a01b0385169660ff600160a01b8704811697600160a81b9097041695909392909161095690611a8f565b80601f016020809104026020016040519081016040528092919081815260200182805461098290611a8f565b80156109cf5780601f106109a4576101008083540402835291602001916109cf565b820191906000526020600020905b8154815290600101906020018083116109b257829003601f168201915b5050505050908060050180546109e490611a8f565b80601f0160208091040260200160405190810160405280929190818152602001828054610a1090611a8f565b8015610a5d5780601f10610a3257610100808354040283529160200191610a5d565b820191906000526020600020905b815481529060010190602001808311610a4057829003601f168201915b5050505050905088565b600080516020611dc4833981519152610a7f8161139e565b6000838152600360205260409020546001600160a01b0316610ab35760405162461bcd60e51b815260040161060e90611ac9565b60008381526003602090815260409182902060010180549085905582518181529182018590529185917f5250a38a2d30d036e9551d0ffebae487372c83817a8d740854c5d4768587bf77910160405180910390a250505050565b600080516020611dc4833981519152610b258161139e565b6000868152600360205260409020546001600160a01b0316610b595760405162461bcd60e51b815260040161060e90611ac9565b6000868152600360205260409020805461ffff60a01b1916600160a01b8715150260ff60a81b191617600160a81b8615801591909102919091179091558490610ba157508115155b15610bc4576000868152600360205260409020600501610bc2838583611b6f565b505b604080518615158152851515602082015287917f96490d92533f44e8a931268063a90889639eca27c88096a30d4baf00da2a83f0910160405180910390a2505050505050565b600080516020611da4833981519152610c228161139e565b610578611648565b6000918252602082815260408084206001600160a01b0393909316845291905290205460ff1690565b600081815260036020818152604080842081516101008101835281546001600160a01b038116825260ff600160a01b82048116151595830195909552600160a81b900490931615159183019190915260018101546060830152600281015460808301529182015460a0820152600482018054849384938493849384939160c0840191610cde90611a8f565b80601f0160208091040260200160405190810160405280929190818152602001828054610d0a90611a8f565b8015610d575780601f10610d2c57610100808354040283529160200191610d57565b820191906000526020600020905b815481529060010190602001808311610d3a57829003601f168201915b50505050508152602001600582018054610d7090611a8f565b80601f0160208091040260200160405190810160405280929190818152602001828054610d9c90611a8f565b8015610de95780601f10610dbe57610100808354040283529160200191610de9565b820191906000526020600020905b815481529060010190602001808311610dcc57829003601f168201915b505050505081525050905080600001519550610e088160600151610e6f565b945080608001519350838511610e1f576000610e29565b610e2984866119e8565b925062093a808160a00151610e3e91906119d5565b91505091939590929450565b600082815260208190526040902060010154610e658161139e565b61051a838361143a565b600081600003610e8157506000919050565b600061271060065484610e949190611c30565b610e9e9190611c5d565b90506064681b1ae4d6e2ef5000008410610ebb5750600954610ee9565b680d8d726b7177a800008410610ed45750600854610ee9565b68056bc75e2d631000008410610ee957506007545b6064610ef58284611c30565b610eff9190611c5d565b949350505050565b600080516020611dc4833981519152610f1f8161139e565b6001600160a01b038416610f805760405162461bcd60e51b815260206004820152602260248201527f54727574685661756c743a2043726561746f722063616e6e6f74206265207a65604482015261726f60f01b606482015260840161060e565b81610fcd5760405162461bcd60e51b815260206004820152601e60248201527f54727574685661756c743a204950465320686173682072657175697265640000604482015260640161060e565b6000858152600360205260409020546001600160a01b03161561103d5760405162461bcd60e51b815260206004820152602260248201527f54727574685661756c743a2043617073756c6520616c72656164792065786973604482015261747360f01b606482015260840161060e565b604051806101000160405280856001600160a01b0316815260200160001515815260200160001515815260200160008152602001600081526020016000815260200184848080601f016020809104026020016040519081016040528093929190818152602001838380828437600092018290525093855250506040805160208181018352848252948501528983526003808552928190208551815495870151928701511515600160a81b0260ff60a81b19931515600160a01b026001600160a81b03199097166001600160a01b0390921691909117959095179190911693909317835550606083015160018301556080830151600283015560a08301519082015560c082015160048201906111529082611c71565b5060e082015160058201906111679082611c71565b50905050836001600160a01b0316857f1416eedbd3662f6d7632153faa4e4b5a9ee829fc1278981b082bc342bd5c63a685856040516111a7929190611d31565b60405180910390a35050505050565b600080516020611da48339815191526111ce8161139e565b6000851161121e5760405162461bcd60e51b815260206004820152601960248201527f54727574685661756c743a20496e76616c696420726174696f00000000000000604482015260640161060e565b606484101561127e5760405162461bcd60e51b815260206004820152602660248201527f54727574685661756c743a20496e76616c6964207072656d69756d206d756c7460448201526534b83634b2b960d11b606482015260840161060e565b838310156112da5760405162461bcd60e51b8152602060048201526024808201527f54727574685661756c743a20496e76616c696420656c697465206d756c7469706044820152633634b2b960e11b606482015260840161060e565b8282101561133b5760405162461bcd60e51b815260206004820152602860248201527f54727574685661756c743a20496e76616c6964206c6567656e64617279206d75604482015267363a34b83634b2b960c11b606482015260840161060e565b60068590556007849055600883905560098290556040805186815260208101869052908101849052606081018390527fbca959adb5aa52aaea5a17838313a61bebf160bf6064e31593c79c8432c79fea9060800160405180910390a15050505050565b6105788133611685565b60006113b48383610c2a565b611432576000838152602081815260408083206001600160a01b03861684529091529020805460ff191660011790556113ea3390565b6001600160a01b0316826001600160a01b0316847f2f8788117e7eff1d82e926ec794901d17c78024a50270940304540a733656f0d60405160405180910390a45060016104ef565b5060006104ef565b60006114468383610c2a565b15611432576000838152602081815260408083206001600160a01b0386168085529252808320805460ff1916905551339286917ff6391f5c32d9c69d2a47ea670b442974b53935d1edc7fd64eb21e047a839171b9190a45060016104ef565b6114ad6116c2565b6002805460ff191690557f5db9ee0a495bf2e6ff9c91a7834c1ba4fdd244a5e8aa4e537bd38aeae4b073aa335b6040516001600160a01b03909116815260200160405180910390a1565b60026001540361151a57604051633ee5aeb560e01b815260040160405180910390fd5b6002600155565b60025460ff16156115455760405163d93c066560e01b815260040160405180910390fd5b565b60608160000361156e5750506040805180820190915260018152600360fc1b602082015290565b8160005b8115611598578061158281611d60565b91506115919050600a83611c5d565b9150611572565b60008167ffffffffffffffff8111156115b3576115b3611b0b565b6040519080825280601f01601f1916602001820160405280156115dd576020820181803683370190505b5090505b8415610eff576115f26001836119e8565b91506115ff600a86611d79565b61160a9060306119d5565b60f81b81838151811061161f5761161f611d8d565b60200101906001600160f81b031916908160001a905350611641600a86611c5d565b94506115e1565b611650611521565b6002805460ff191660011790557f62e78cea01bee320cd4e420270b5ea74000d11b0c9f74754ebdbfc544b05a2586114da3390565b61168f8282610c2a565b6116be5760405163e2517d3f60e01b81526001600160a01b03821660048201526024810183905260440161060e565b5050565b60025460ff1661154557604051638dfc202b60e01b815260040160405180910390fd5b6000602082840312156116f757600080fd5b81356001600160e01b03198116811461170f57600080fd5b9392505050565b60006020828403121561172857600080fd5b5035919050565b80356001600160a01b038116811461174657600080fd5b919050565b6000806040838503121561175e57600080fd5b8235915061176e6020840161172f565b90509250929050565b60005b8381101561179257818101518382015260200161177a565b50506000910152565b600081518084526117b3816020860160208601611777565b601f01601f19169290920160200192915050565b600061010060018060a01b038b168352891515602084015288151560408401528760608401528660808401528560a08401528060c084015261180b8184018661179b565b905082810360e084015261181f818561179b565b9b9a5050505050505050505050565b6000806040838503121561184157600080fd5b50508035926020909101359150565b60006020828403121561186257600080fd5b61170f8261172f565b8035801515811461174657600080fd5b60008083601f84011261188d57600080fd5b50813567ffffffffffffffff8111156118a557600080fd5b6020830191508360208285010111156118bd57600080fd5b9250929050565b6000806000806000608086880312156118dc57600080fd5b853594506118ec6020870161186b565b93506118fa6040870161186b565b9250606086013567ffffffffffffffff81111561191657600080fd5b6119228882890161187b565b969995985093965092949392505050565b6000806000806060858703121561194957600080fd5b843593506119596020860161172f565b9250604085013567ffffffffffffffff81111561197557600080fd5b6119818782880161187b565b95989497509550505050565b600080600080608085870312156119a357600080fd5b5050823594602084013594506040840135936060013592509050565b634e487b7160e01b600052601160045260246000fd5b808201808211156104ef576104ef6119bf565b818103818111156104ef576104ef6119bf565b7f5969656c6420636c61696d20666f722063617073756c65202300000000000000815260008251611a33816019850160208701611777565b9190910160190192915050565b60018060a01b0384168152826020820152606060408201526000611a67606083018461179b565b95945050505050565b838152826020820152606060408201526000611a67606083018461179b565b600181811c90821680611aa357607f821691505b602082108103611ac357634e487b7160e01b600052602260045260246000fd5b50919050565b60208082526022908201527f54727574685661756c743a2043617073756c65206e6f74207265676973746572604082015261195960f21b606082015260800190565b634e487b7160e01b600052604160045260246000fd5b601f82111561055357600081815260208120601f850160051c81016020861015611b485750805b601f850160051c820191505b81811015611b6757828155600101611b54565b505050505050565b67ffffffffffffffff831115611b8757611b87611b0b565b611b9b83611b958354611a8f565b83611b21565b6000601f841160018114611bcf5760008515611bb75750838201355b600019600387901b1c1916600186901b178355611c29565b600083815260209020601f19861690835b82811015611c005786850135825560209485019460019092019101611be0565b5086821015611c1d5760001960f88860031b161c19848701351681555b505060018560011b0183555b5050505050565b80820281158282048414176104ef576104ef6119bf565b634e487b7160e01b600052601260045260246000fd5b600082611c6c57611c6c611c47565b500490565b815167ffffffffffffffff811115611c8b57611c8b611b0b565b611c9f81611c998454611a8f565b84611b21565b602080601f831160018114611cd45760008415611cbc5750858301515b600019600386901b1c1916600185901b178555611b67565b600085815260208120601f198616915b82811015611d0357888601518255948401946001909101908401611ce4565b5085821015611d215787850151600019600388901b60f8161c191681555b5050505050600190811b01905550565b60208152816020820152818360408301376000818301604090810191909152601f909201601f19160101919050565b600060018201611d7257611d726119bf565b5060010190565b600082611d8857611d88611c47565b500690565b634e487b7160e01b600052603260045260246000fdfe7935bd0ae54bc31f548c14dba4d37c5c64b3f8ca900cb468fb8abd54d5894f5568e79a7bf1e0bc45d0a330c573bc367f9cf464fd326078812f301165fbda4ef1a2646970667358221220388cd71cdaffb95666babee29c503f1f88ff48b0afa895fec1e8bba414bf00a764736f6c63430008140033","opcodes":"PUSH1 0xA0 PUSH1 0x40 MSTORE PUSH1 0x64 PUSH1 0x6 SSTORE PUSH1 0x96 PUSH1 0x7 SSTORE PUSH1 0xC8 PUSH1 0x8 SSTORE PUSH2 0x12C PUSH1 0x9 SSTORE CALLVALUE DUP1 ISZERO PUSH3 0x26 JUMPI PUSH1 0x0 DUP1 REVERT JUMPDEST POP PUSH1 0x40 MLOAD PUSH3 0x20CA CODESIZE SUB DUP1 PUSH3 0x20CA DUP4 CODECOPY DUP2 ADD PUSH1 0x40 DUP2 SWAP1 MSTORE PUSH3 0x49 SWAP2 PUSH3 0x256 JUMP JUMPDEST PUSH1 0x1 DUP1 SSTORE PUSH1 0x1 PUSH1 0x1 PUSH1 0xA0 SHL SUB DUP3 AND PUSH3 0xB5 JUMPI PUSH1 0x40 MLOAD PUSH3 0x461BCD PUSH1 0xE5 SHL DUP2 MSTORE PUSH1 0x20 PUSH1 0x4 DUP3 ADD MSTORE PUSH1 0x24 DUP1 DUP3 ADD MSTORE PUSH32 0x54727574685661756C743A2047545420746F6B656E2063616E6E6F7420626520 PUSH1 0x44 DUP3 ADD MSTORE PUSH4 0x7A65726F PUSH1 0xE0 SHL PUSH1 0x64 DUP3 ADD MSTORE PUSH1 0x84 ADD JUMPDEST PUSH1 0x40 MLOAD DUP1 SWAP2 SUB SWAP1 REVERT JUMPDEST PUSH1 0x1 PUSH1 0x1 PUSH1 0xA0 SHL SUB DUP2 AND PUSH3 0x10D JUMPI PUSH1 0x40 MLOAD PUSH3 0x461BCD PUSH1 0xE5 SHL DUP2 MSTORE PUSH1 0x20 PUSH1 0x4 DUP3 ADD DUP2 SWAP1 MSTORE PUSH1 0x24 DUP3 ADD MSTORE PUSH32 0x54727574685661756C743A2041646D696E2063616E6E6F74206265207A65726F PUSH1 0x44 DUP3 ADD MSTORE PUSH1 0x64 ADD PUSH3 0xAC JUMP JUMPDEST PUSH1 0x1 PUSH1 0x1 PUSH1 0xA0 SHL SUB DUP3 AND PUSH1 0x80 MSTORE PUSH3 0x127 PUSH1 0x0 DUP3 PUSH3 0x18A JUMP JUMPDEST POP PUSH3 0x154 PUSH32 0x7935BD0AE54BC31F548C14DBA4D37C5C64B3F8CA900CB468FB8ABD54D5894F55 DUP3 PUSH3 0x18A JUMP JUMPDEST POP PUSH3 0x181 PUSH32 0x68E79A7BF1E0BC45D0A330C573BC367F9CF464FD326078812F301165FBDA4EF1 DUP3 PUSH3 0x18A JUMP JUMPDEST POP POP POP PUSH3 0x28E JUMP JUMPDEST PUSH1 0x0 DUP3 DUP2 MSTORE PUSH1 0x20 DUP2 DUP2 MSTORE PUSH1 0x40 DUP1 DUP4 KECCAK256 PUSH1 0x1 PUSH1 0x1 PUSH1 0xA0 SHL SUB DUP6 AND DUP5 MSTORE SWAP1 SWAP2 MSTORE DUP2 KECCAK256 SLOAD PUSH1 0xFF AND PUSH3 0x22F JUMPI PUSH1 0x0 DUP4 DUP2 MSTORE PUSH1 0x20 DUP2 DUP2 MSTORE PUSH1 0x40 DUP1 DUP4 KECCAK256 PUSH1 0x1 PUSH1 0x1 PUSH1 0xA0 SHL SUB DUP7 AND DUP5 MSTORE SWAP1 SWAP2 MSTORE SWAP1 KECCAK256 DUP1 SLOAD PUSH1 0xFF NOT AND PUSH1 0x1 OR SWAP1 SSTORE PUSH3 0x1E6 CALLER SWAP1 JUMP JUMPDEST PUSH1 0x1 PUSH1 0x1 PUSH1 0xA0 SHL SUB AND DUP3 PUSH1 0x1 PUSH1 0x1 PUSH1 0xA0 SHL SUB AND DUP5 PUSH32 0x2F8788117E7EFF1D82E926EC794901D17C78024A50270940304540A733656F0D PUSH1 0x40 MLOAD PUSH1 0x40 MLOAD DUP1 SWAP2 SUB SWAP1 LOG4 POP PUSH1 0x1 PUSH3 0x233 JUMP JUMPDEST POP PUSH1 0x0 JUMPDEST SWAP3 SWAP2 POP POP JUMP JUMPDEST DUP1 MLOAD PUSH1 0x1 PUSH1 0x1 PUSH1 0xA0 SHL SUB DUP2 AND DUP2 EQ PUSH3 0x251 JUMPI PUSH1 0x0 DUP1 REVERT JUMPDEST SWAP2 SWAP1 POP JUMP JUMPDEST PUSH1 0x0 DUP1 PUSH1 0x40 DUP4 DUP6 SUB SLT ISZERO PUSH3 0x26A JUMPI PUSH1 0x0 DUP1 REVERT JUMPDEST PUSH3 0x275 DUP4 PUSH3 0x239 JUMP JUMPDEST SWAP2 POP PUSH3 0x285 PUSH1 0x20 DUP5 ADD PUSH3 0x239 JUMP JUMPDEST SWAP1 POP SWAP3 POP SWAP3 SWAP1 POP JUMP JUMPDEST PUSH1 0x80 MLOAD PUSH2 0x1E19 PUSH3 0x2B1 PUSH1 0x0 CODECOPY PUSH1 0x0 DUP2 DUP2 PUSH2 0x245 ADD MSTORE PUSH2 0x83C ADD MSTORE PUSH2 0x1E19 PUSH1 0x0 RETURN INVALID PUSH1 0x80 PUSH1 0x40 MSTORE CALLVALUE DUP1 ISZERO PUSH2 0x10 JUMPI PUSH1 0x0 DUP1 REVERT JUMPDEST POP PUSH1 0x4 CALLDATASIZE LT PUSH2 0x1F0 JUMPI PUSH1 0x0 CALLDATALOAD PUSH1 0xE0 SHR DUP1 PUSH4 0x6FE38982 GT PUSH2 0x10F JUMPI DUP1 PUSH4 0xAC159467 GT PUSH2 0xA2 JUMPI DUP1 PUSH4 0xD8F7EF2C GT PUSH2 0x71 JUMPI DUP1 PUSH4 0xD8F7EF2C EQ PUSH2 0x475 JUMPI DUP1 PUSH4 0xE945BE13 EQ PUSH2 0x488 JUMPI DUP1 PUSH4 0xEE1EAB4F EQ PUSH2 0x49B JUMPI DUP1 PUSH4 0xF4277C6D EQ PUSH2 0x4AE JUMPI PUSH1 0x0 DUP1 REVERT JUMPDEST DUP1 PUSH4 0xAC159467 EQ PUSH2 0x435 JUMPI DUP1 PUSH4 0xCCC57490 EQ PUSH2 0x43E JUMPI DUP1 PUSH4 0xD547741F EQ PUSH2 0x453 JUMPI DUP1 PUSH4 0xD731C4F6 EQ PUSH2 0x466 JUMPI PUSH1 0x0 DUP1 REVERT JUMPDEST DUP1 PUSH4 0x91D14854 GT PUSH2 0xDE JUMPI DUP1 PUSH4 0x91D14854 EQ PUSH2 0x3C5 JUMPI DUP1 PUSH4 0x95A968E5 EQ PUSH2 0x3D8 JUMPI DUP1 PUSH4 0x9AF01C2D EQ PUSH2 0x41D JUMPI DUP1 PUSH4 0xA217FDDF EQ PUSH2 0x42D JUMPI PUSH1 0x0 DUP1 REVERT JUMPDEST DUP1 PUSH4 0x6FE38982 EQ PUSH2 0x376 JUMPI DUP1 PUSH4 0x7DE857DD EQ PUSH2 0x37F JUMPI DUP1 PUSH4 0x8456CB59 EQ PUSH2 0x392 JUMPI DUP1 PUSH4 0x8E52B284 EQ PUSH2 0x39A JUMPI PUSH1 0x0 DUP1 REVERT JUMPDEST DUP1 PUSH4 0x383EA728 GT PUSH2 0x187 JUMPI DUP1 PUSH4 0x517BBF46 GT PUSH2 0x156 JUMPI DUP1 PUSH4 0x517BBF46 EQ PUSH2 0x311 JUMPI DUP1 PUSH4 0x54973C0E EQ PUSH2 0x338 JUMPI DUP1 PUSH4 0x57E856F9 EQ PUSH2 0x34B JUMPI DUP1 PUSH4 0x5C975ABB EQ PUSH2 0x36B JUMPI PUSH1 0x0 DUP1 REVERT JUMPDEST DUP1 PUSH4 0x383EA728 EQ PUSH2 0x2DD JUMPI DUP1 PUSH4 0x3F4BA83A EQ PUSH2 0x2ED JUMPI DUP1 PUSH4 0x40BD2E23 EQ PUSH2 0x2F5 JUMPI DUP1 PUSH4 0x4783DECD EQ PUSH2 0x308 JUMPI PUSH1 0x0 DUP1 REVERT JUMPDEST DUP1 PUSH4 0x2BC1F6BF GT PUSH2 0x1C3 JUMPI DUP1 PUSH4 0x2BC1F6BF EQ PUSH2 0x2A2 JUMPI DUP1 PUSH4 0x2F2FF15D EQ PUSH2 0x2AB JUMPI DUP1 PUSH4 0x36568ABE EQ PUSH2 0x2C0 JUMPI DUP1 PUSH4 0x37C909EC EQ PUSH2 0x2D3 JUMPI PUSH1 0x0 DUP1 REVERT JUMPDEST DUP1 PUSH4 0x1FFC9A7 EQ PUSH2 0x1F5 JUMPI DUP1 PUSH4 0x7E2CEA5 EQ PUSH2 0x21D JUMPI DUP1 PUSH4 0x1712C524 EQ PUSH2 0x240 JUMPI DUP1 PUSH4 0x248A9CA3 EQ PUSH2 0x27F JUMPI JUMPDEST PUSH1 0x0 DUP1 REVERT JUMPDEST PUSH2 0x208 PUSH2 0x203 CALLDATASIZE PUSH1 0x4 PUSH2 0x16E5 JUMP JUMPDEST PUSH2 0x4BE JUMP JUMPDEST PUSH1 0x40 MLOAD SWAP1 ISZERO ISZERO DUP2 MSTORE PUSH1 0x20 ADD JUMPDEST PUSH1 0x40 MLOAD DUP1 SWAP2 SUB SWAP1 RETURN JUMPDEST PUSH2 0x232 PUSH1 0x0 DUP1 MLOAD PUSH1 0x20 PUSH2 0x1DC4 DUP4 CODECOPY DUP2 MLOAD SWAP2 MSTORE DUP2 JUMP JUMPDEST PUSH1 0x40 MLOAD SWAP1 DUP2 MSTORE PUSH1 0x20 ADD PUSH2 0x214 JUMP JUMPDEST PUSH2 0x267 PUSH32 0x0 DUP2 JUMP JUMPDEST PUSH1 0x40 MLOAD PUSH1 0x1 PUSH1 0x1 PUSH1 0xA0 SHL SUB SWAP1 SWAP2 AND DUP2 MSTORE PUSH1 0x20 ADD PUSH2 0x214 JUMP JUMPDEST PUSH2 0x232 PUSH2 0x28D CALLDATASIZE PUSH1 0x4 PUSH2 0x1716 JUMP JUMPDEST PUSH1 0x0 SWAP1 DUP2 MSTORE PUSH1 0x20 DUP2 SWAP1 MSTORE PUSH1 0x40 SWAP1 KECCAK256 PUSH1 0x1 ADD SLOAD SWAP1 JUMP JUMPDEST PUSH2 0x232 PUSH1 0x9 SLOAD DUP2 JUMP JUMPDEST PUSH2 0x2BE PUSH2 0x2B9 CALLDATASIZE PUSH1 0x4 PUSH2 0x174B JUMP JUMPDEST PUSH2 0x4F5 JUMP JUMPDEST STOP JUMPDEST PUSH2 0x2BE PUSH2 0x2CE CALLDATASIZE PUSH1 0x4 PUSH2 0x174B JUMP JUMPDEST PUSH2 0x520 JUMP JUMPDEST PUSH2 0x232 PUSH3 0x93A80 DUP2 JUMP JUMPDEST PUSH2 0x232 PUSH9 0xD8D726B7177A80000 DUP2 JUMP JUMPDEST PUSH2 0x2BE PUSH2 0x558 JUMP JUMPDEST PUSH2 0x2BE PUSH2 0x303 CALLDATASIZE PUSH1 0x4 PUSH2 0x1716 JUMP JUMPDEST PUSH2 0x57B JUMP JUMPDEST PUSH2 0x232 PUSH1 0x6 SLOAD DUP2 JUMP JUMPDEST PUSH2 0x324 PUSH2 0x31F CALLDATASIZE PUSH1 0x4 PUSH2 0x1716 JUMP JUMPDEST PUSH2 0x900 JUMP JUMPDEST PUSH1 0x40 MLOAD PUSH2 0x214 SWAP9 SWAP8 SWAP7 SWAP6 SWAP5 SWAP4 SWAP3 SWAP2 SWAP1 PUSH2 0x17C7 JUMP JUMPDEST PUSH2 0x2BE PUSH2 0x346 CALLDATASIZE PUSH1 0x4 PUSH2 0x182E JUMP JUMPDEST PUSH2 0xA67 JUMP JUMPDEST PUSH2 0x232 PUSH2 0x359 CALLDATASIZE PUSH1 0x4 PUSH2 0x1850 JUMP JUMPDEST PUSH1 0x4 PUSH1 0x20 MSTORE PUSH1 0x0 SWAP1 DUP2 MSTORE PUSH1 0x40 SWAP1 KECCAK256 SLOAD DUP2 JUMP JUMPDEST PUSH1 0x2 SLOAD PUSH1 0xFF AND PUSH2 0x208 JUMP JUMPDEST PUSH2 0x232 PUSH1 0x7 SLOAD DUP2 JUMP JUMPDEST PUSH2 0x2BE PUSH2 0x38D CALLDATASIZE PUSH1 0x4 PUSH2 0x18C4 JUMP JUMPDEST PUSH2 0xB0D JUMP JUMPDEST PUSH2 0x2BE PUSH2 0xC0A JUMP JUMPDEST PUSH2 0x232 PUSH2 0x3A8 CALLDATASIZE PUSH1 0x4 PUSH2 0x174B JUMP JUMPDEST PUSH1 0x5 PUSH1 0x20 SWAP1 DUP2 MSTORE PUSH1 0x0 SWAP3 DUP4 MSTORE PUSH1 0x40 DUP1 DUP5 KECCAK256 SWAP1 SWAP2 MSTORE SWAP1 DUP3 MSTORE SWAP1 KECCAK256 SLOAD DUP2 JUMP JUMPDEST PUSH2 0x208 PUSH2 0x3D3 CALLDATASIZE PUSH1 0x4 PUSH2 0x174B JUMP JUMPDEST PUSH2 0xC2A JUMP JUMPDEST PUSH2 0x3EB PUSH2 0x3E6 CALLDATASIZE PUSH1 0x4 PUSH2 0x1716 JUMP JUMPDEST PUSH2 0xC53 JUMP JUMPDEST PUSH1 0x40 DUP1 MLOAD PUSH1 0x1 PUSH1 0x1 PUSH1 0xA0 SHL SUB SWAP1 SWAP7 AND DUP7 MSTORE PUSH1 0x20 DUP7 ADD SWAP5 SWAP1 SWAP5 MSTORE SWAP3 DUP5 ADD SWAP2 SWAP1 SWAP2 MSTORE PUSH1 0x60 DUP4 ADD MSTORE PUSH1 0x80 DUP3 ADD MSTORE PUSH1 0xA0 ADD PUSH2 0x214 JUMP JUMPDEST PUSH2 0x232 PUSH9 0x56BC75E2D63100000 DUP2 JUMP JUMPDEST PUSH2 0x232 PUSH1 0x0 DUP2 JUMP JUMPDEST PUSH2 0x232 PUSH1 0x8 SLOAD DUP2 JUMP JUMPDEST PUSH2 0x232 PUSH1 0x0 DUP1 MLOAD PUSH1 0x20 PUSH2 0x1DA4 DUP4 CODECOPY DUP2 MLOAD SWAP2 MSTORE DUP2 JUMP JUMPDEST PUSH2 0x2BE PUSH2 0x461 CALLDATASIZE PUSH1 0x4 PUSH2 0x174B JUMP JUMPDEST PUSH2 0xE4A JUMP JUMPDEST PUSH2 0x232 PUSH8 0xDE0B6B3A7640000 DUP2 JUMP JUMPDEST PUSH2 0x232 PUSH2 0x483 CALLDATASIZE PUSH1 0x4 PUSH2 0x1716 JUMP JUMPDEST PUSH2 0xE6F JUMP JUMPDEST PUSH2 0x2BE PUSH2 0x496 CALLDATASIZE PUSH1 0x4 PUSH2 0x1933 JUMP JUMPDEST PUSH2 0xF07 JUMP JUMPDEST PUSH2 0x2BE PUSH2 0x4A9 CALLDATASIZE PUSH1 0x4 PUSH2 0x198D JUMP JUMPDEST PUSH2 0x11B6 JUMP JUMPDEST PUSH2 0x232 PUSH9 0x1B1AE4D6E2EF500000 DUP2 JUMP JUMPDEST PUSH1 0x0 PUSH1 0x1 PUSH1 0x1 PUSH1 0xE0 SHL SUB NOT DUP3 AND PUSH4 0x7965DB0B PUSH1 0xE0 SHL EQ DUP1 PUSH2 0x4EF JUMPI POP PUSH4 0x1FFC9A7 PUSH1 0xE0 SHL PUSH1 0x1 PUSH1 0x1 PUSH1 0xE0 SHL SUB NOT DUP4 AND EQ JUMPDEST SWAP3 SWAP2 POP POP JUMP JUMPDEST PUSH1 0x0 DUP3 DUP2 MSTORE PUSH1 0x20 DUP2 SWAP1 MSTORE PUSH1 0x40 SWAP1 KECCAK256 PUSH1 0x1 ADD SLOAD PUSH2 0x510 DUP2 PUSH2 0x139E JUMP JUMPDEST PUSH2 0x51A DUP4 DUP4 PUSH2 0x13A8 JUMP JUMPDEST POP POP POP POP JUMP JUMPDEST PUSH1 0x1 PUSH1 0x1 PUSH1 0xA0 SHL SUB DUP2 AND CALLER EQ PUSH2 0x549 JUMPI PUSH1 0x40 MLOAD PUSH4 0x334BD919 PUSH1 0xE1 SHL DUP2 MSTORE PUSH1 0x4 ADD PUSH1 0x40 MLOAD DUP1 SWAP2 SUB SWAP1 REVERT JUMPDEST PUSH2 0x553 DUP3 DUP3 PUSH2 0x143A JUMP JUMPDEST POP POP POP JUMP JUMPDEST PUSH1 0x0 DUP1 MLOAD PUSH1 0x20 PUSH2 0x1DA4 DUP4 CODECOPY DUP2 MLOAD SWAP2 MSTORE PUSH2 0x570 DUP2 PUSH2 0x139E JUMP JUMPDEST PUSH2 0x578 PUSH2 0x14A5 JUMP JUMPDEST POP JUMP JUMPDEST PUSH2 0x583 PUSH2 0x14F7 JUMP JUMPDEST PUSH2 0x58B PUSH2 0x1521 JUMP JUMPDEST PUSH1 0x0 DUP2 DUP2 MSTORE PUSH1 0x3 PUSH1 0x20 MSTORE PUSH1 0x40 SWAP1 KECCAK256 SLOAD DUP2 SWAP1 PUSH1 0x1 PUSH1 0xA0 SHL SWAP1 DIV PUSH1 0xFF AND DUP1 PUSH2 0x5C6 JUMPI POP PUSH1 0x0 DUP2 DUP2 MSTORE PUSH1 0x3 PUSH1 0x20 MSTORE PUSH1 0x40 SWAP1 KECCAK256 SLOAD PUSH1 0x1 PUSH1 0xA8 SHL SWAP1 DIV PUSH1 0xFF AND JUMPDEST PUSH2 0x617 JUMPI PUSH1 0x40 MLOAD PUSH3 0x461BCD PUSH1 0xE5 SHL DUP2 MSTORE PUSH1 0x20 PUSH1 0x4 DUP3 ADD DUP2 SWAP1 MSTORE PUSH1 0x24 DUP3 ADD MSTORE PUSH32 0x54727574685661756C743A2043617073756C65206E6F74207665726966696564 PUSH1 0x44 DUP3 ADD MSTORE PUSH1 0x64 ADD JUMPDEST PUSH1 0x40 MLOAD DUP1 SWAP2 SUB SWAP1 REVERT JUMPDEST PUSH1 0x0 DUP3 DUP2 MSTORE PUSH1 0x3 PUSH1 0x20 MSTORE PUSH1 0x40 SWAP1 KECCAK256 SLOAD DUP3 SWAP1 PUSH1 0x1 PUSH1 0x1 PUSH1 0xA0 SHL SUB AND CALLER EQ PUSH2 0x67F JUMPI PUSH1 0x40 MLOAD PUSH3 0x461BCD PUSH1 0xE5 SHL DUP2 MSTORE PUSH1 0x20 PUSH1 0x4 DUP3 ADD MSTORE PUSH1 0x1F PUSH1 0x24 DUP3 ADD MSTORE PUSH32 0x54727574685661756C743A204E6F742063617073756C652063726561746F7200 PUSH1 0x44 DUP3 ADD MSTORE PUSH1 0x64 ADD PUSH2 0x60E JUMP JUMPDEST PUSH1 0x0 DUP4 DUP2 MSTORE PUSH1 0x3 PUSH1 0x20 DUP2 SWAP1 MSTORE PUSH1 0x40 SWAP1 SWAP2 KECCAK256 SWAP1 DUP2 ADD SLOAD PUSH2 0x6A2 SWAP1 PUSH3 0x93A80 SWAP1 PUSH2 0x19D5 JUMP JUMPDEST TIMESTAMP LT ISZERO PUSH2 0x6FB JUMPI PUSH1 0x40 MLOAD PUSH3 0x461BCD PUSH1 0xE5 SHL DUP2 MSTORE PUSH1 0x20 PUSH1 0x4 DUP3 ADD MSTORE PUSH1 0x21 PUSH1 0x24 DUP3 ADD MSTORE PUSH32 0x54727574685661756C743A20436C61696D20636F6F6C646F776E206163746976 PUSH1 0x44 DUP3 ADD MSTORE PUSH1 0x65 PUSH1 0xF8 SHL PUSH1 0x64 DUP3 ADD MSTORE PUSH1 0x84 ADD PUSH2 0x60E JUMP JUMPDEST PUSH1 0x0 PUSH2 0x70A DUP3 PUSH1 0x1 ADD SLOAD PUSH2 0xE6F JUMP JUMPDEST SWAP1 POP PUSH1 0x0 DUP3 PUSH1 0x2 ADD SLOAD DUP3 PUSH2 0x71E SWAP2 SWAP1 PUSH2 0x19E8 JUMP JUMPDEST SWAP1 POP PUSH8 0xDE0B6B3A7640000 DUP2 LT ISZERO PUSH2 0x788 JUMPI PUSH1 0x40 MLOAD PUSH3 0x461BCD PUSH1 0xE5 SHL DUP2 MSTORE PUSH1 0x20 PUSH1 0x4 DUP3 ADD MSTORE PUSH1 0x27 PUSH1 0x24 DUP3 ADD MSTORE PUSH32 0x54727574685661756C743A20496E73756666696369656E74207969656C642074 PUSH1 0x44 DUP3 ADD MSTORE PUSH7 0x6F20636C61696D PUSH1 0xC8 SHL PUSH1 0x64 DUP3 ADD MSTORE PUSH1 0x84 ADD PUSH2 0x60E JUMP JUMPDEST DUP1 DUP4 PUSH1 0x2 ADD PUSH1 0x0 DUP3 DUP3 SLOAD PUSH2 0x79C SWAP2 SWAP1 PUSH2 0x19D5 JUMP JUMPDEST SWAP1 SWAP2 SSTORE POP POP TIMESTAMP PUSH1 0x3 DUP5 ADD SSTORE CALLER PUSH1 0x0 SWAP1 DUP2 MSTORE PUSH1 0x4 PUSH1 0x20 MSTORE PUSH1 0x40 DUP2 KECCAK256 DUP1 SLOAD DUP4 SWAP3 SWAP1 PUSH2 0x7C6 SWAP1 DUP5 SWAP1 PUSH2 0x19D5 JUMP JUMPDEST SWAP1 SWAP2 SSTORE POP POP PUSH1 0x0 DUP7 DUP2 MSTORE PUSH1 0x5 PUSH1 0x20 SWAP1 DUP2 MSTORE PUSH1 0x40 DUP1 DUP4 KECCAK256 CALLER DUP5 MSTORE SWAP1 SWAP2 MSTORE DUP2 KECCAK256 DUP1 SLOAD DUP4 SWAP3 SWAP1 PUSH2 0x7F4 SWAP1 DUP5 SWAP1 PUSH2 0x19D5 JUMP JUMPDEST SWAP1 SWAP2 SSTORE POP PUSH1 0x0 SWAP1 POP PUSH2 0x805 DUP8 PUSH2 0x1547 JUMP JUMPDEST PUSH1 0x40 MLOAD PUSH1 0x20 ADD PUSH2 0x815 SWAP2 SWAP1 PUSH2 0x19FB JUMP JUMPDEST PUSH1 0x40 DUP1 MLOAD PUSH1 0x1F NOT DUP2 DUP5 SUB ADD DUP2 MSTORE SWAP1 DUP3 SWAP1 MSTORE PUSH4 0x8B419B7 PUSH1 0xE4 SHL DUP3 MSTORE SWAP2 POP PUSH1 0x1 PUSH1 0x1 PUSH1 0xA0 SHL SUB PUSH32 0x0 AND SWAP1 PUSH4 0x8B419B70 SWAP1 PUSH2 0x875 SWAP1 CALLER SWAP1 DUP7 SWAP1 DUP7 SWAP1 PUSH1 0x4 ADD PUSH2 0x1A40 JUMP JUMPDEST PUSH1 0x0 PUSH1 0x40 MLOAD DUP1 DUP4 SUB DUP2 PUSH1 0x0 DUP8 DUP1 EXTCODESIZE ISZERO DUP1 ISZERO PUSH2 0x88F JUMPI PUSH1 0x0 DUP1 REVERT JUMPDEST POP GAS CALL ISZERO DUP1 ISZERO PUSH2 0x8A3 JUMPI RETURNDATASIZE PUSH1 0x0 DUP1 RETURNDATACOPY RETURNDATASIZE PUSH1 0x0 REVERT JUMPDEST POP POP POP POP DUP7 CALLER PUSH1 0x1 PUSH1 0x1 PUSH1 0xA0 SHL SUB AND PUSH32 0x78D87B3229ABD5D5378082613DFAF665A6126E74DF802FD6C5E220B8C5F38DB0 DUP7 PUSH1 0x1 ADD SLOAD DUP6 DUP6 PUSH1 0x40 MLOAD PUSH2 0x8E9 SWAP4 SWAP3 SWAP2 SWAP1 PUSH2 0x1A70 JUMP JUMPDEST PUSH1 0x40 MLOAD DUP1 SWAP2 SUB SWAP1 LOG3 POP POP POP POP POP POP PUSH2 0x578 PUSH1 0x1 DUP1 SSTORE JUMP JUMPDEST PUSH1 0x3 PUSH1 0x20 DUP2 SWAP1 MSTORE PUSH1 0x0 SWAP2 DUP3 MSTORE PUSH1 0x40 SWAP1 SWAP2 KECCAK256 DUP1 SLOAD PUSH1 0x1 DUP3 ADD SLOAD PUSH1 0x2 DUP4 ADD SLOAD SWAP4 DUP4 ADD SLOAD PUSH1 0x4 DUP5 ADD DUP1 SLOAD PUSH1 0x1 PUSH1 0x1 PUSH1 0xA0 SHL SUB DUP6 AND SWAP7 PUSH1 0xFF PUSH1 0x1 PUSH1 0xA0 SHL DUP8 DIV DUP2 AND SWAP8 PUSH1 0x1 PUSH1 0xA8 SHL SWAP1 SWAP8 DIV AND SWAP6 SWAP1 SWAP4 SWAP3 SWAP1 SWAP2 PUSH2 0x956 SWAP1 PUSH2 0x1A8F JUMP JUMPDEST DUP1 PUSH1 0x1F ADD PUSH1 0x20 DUP1 SWAP2 DIV MUL PUSH1 0x20 ADD PUSH1 0x40 MLOAD SWAP1 DUP2 ADD PUSH1 0x40 MSTORE DUP1 SWAP3 SWAP2 SWAP1 DUP2 DUP2 MSTORE PUSH1 0x20 ADD DUP3 DUP1 SLOAD PUSH2 0x982 SWAP1 PUSH2 0x1A8F JUMP JUMPDEST DUP1 ISZERO PUSH2 0x9CF JUMPI DUP1 PUSH1 0x1F LT PUSH2 0x9A4 JUMPI PUSH2 0x100 DUP1 DUP4 SLOAD DIV MUL DUP4 MSTORE SWAP2 PUSH1 0x20 ADD SWAP2 PUSH2 0x9CF JUMP JUMPDEST DUP3 ADD SWAP2 SWAP1 PUSH1 0x0 MSTORE PUSH1 0x20 PUSH1 0x0 KECCAK256 SWAP1 JUMPDEST DUP2 SLOAD DUP2 MSTORE SWAP1 PUSH1 0x1 ADD SWAP1 PUSH1 0x20 ADD DUP1 DUP4 GT PUSH2 0x9B2 JUMPI DUP3 SWAP1 SUB PUSH1 0x1F AND DUP3 ADD SWAP2 JUMPDEST POP POP POP POP POP SWAP1 DUP1 PUSH1 0x5 ADD DUP1 SLOAD PUSH2 0x9E4 SWAP1 PUSH2 0x1A8F JUMP JUMPDEST DUP1 PUSH1 0x1F ADD PUSH1 0x20 DUP1 SWAP2 DIV MUL PUSH1 0x20 ADD PUSH1 0x40 MLOAD SWAP1 DUP2 ADD PUSH1 0x40 MSTORE DUP1 SWAP3 SWAP2 SWAP1 DUP2 DUP2 MSTORE PUSH1 0x20 ADD DUP3 DUP1 SLOAD PUSH2 0xA10 SWAP1 PUSH2 0x1A8F JUMP JUMPDEST DUP1 ISZERO PUSH2 0xA5D JUMPI DUP1 PUSH1 0x1F LT PUSH2 0xA32 JUMPI PUSH2 0x100 DUP1 DUP4 SLOAD DIV MUL DUP4 MSTORE SWAP2 PUSH1 0x20 ADD SWAP2 PUSH2 0xA5D JUMP JUMPDEST DUP3 ADD SWAP2 SWAP1 PUSH1 0x0 MSTORE PUSH1 0x20 PUSH1 0x0 KECCAK256 SWAP1 JUMPDEST DUP2 SLOAD DUP2 MSTORE SWAP1 PUSH1 0x1 ADD SWAP1 PUSH1 0x20 ADD DUP1 DUP4 GT PUSH2 0xA40 JUMPI DUP3 SWAP1 SUB PUSH1 0x1F AND DUP3 ADD SWAP2 JUMPDEST POP POP POP POP POP SWAP1 POP DUP9 JUMP JUMPDEST PUSH1 0x0 DUP1 MLOAD PUSH1 0x20 PUSH2 0x1DC4 DUP4 CODECOPY DUP2 MLOAD SWAP2 MSTORE PUSH2 0xA7F DUP2 PUSH2 0x139E JUMP JUMPDEST PUSH1 0x0 DUP4 DUP2 MSTORE PUSH1 0x3 PUSH1 0x20 MSTORE PUSH1 0x40 SWAP1 KECCAK256 SLOAD PUSH1 0x1 PUSH1 0x1 PUSH1 0xA0 SHL SUB AND PUSH2 0xAB3 JUMPI PUSH1 0x40 MLOAD PUSH3 0x461BCD PUSH1 0xE5 SHL DUP2 MSTORE PUSH1 0x4 ADD PUSH2 0x60E SWAP1 PUSH2 0x1AC9 JUMP JUMPDEST PUSH1 0x0 DUP4 DUP2 MSTORE PUSH1 0x3 PUSH1 0x20 SWAP1 DUP2 MSTORE PUSH1 0x40 SWAP2 DUP3 SWAP1 KECCAK256 PUSH1 0x1 ADD DUP1 SLOAD SWAP1 DUP6 SWAP1 SSTORE DUP3 MLOAD DUP2 DUP2 MSTORE SWAP2 DUP3 ADD DUP6 SWAP1 MSTORE SWAP2 DUP6 SWAP2 PUSH32 0x5250A38A2D30D036E9551D0FFEBAE487372C83817A8D740854C5D4768587BF77 SWAP2 ADD PUSH1 0x40 MLOAD DUP1 SWAP2 SUB SWAP1 LOG2 POP POP POP POP JUMP JUMPDEST PUSH1 0x0 DUP1 MLOAD PUSH1 0x20 PUSH2 0x1DC4 DUP4 CODECOPY DUP2 MLOAD SWAP2 MSTORE PUSH2 0xB25 DUP2 PUSH2 0x139E JUMP JUMPDEST PUSH1 0x0 DUP7 DUP2 MSTORE PUSH1 0x3 PUSH1 0x20 MSTORE PUSH1 0x40 SWAP1 KECCAK256 SLOAD PUSH1 0x1 PUSH1 0x1 PUSH1 0xA0 SHL SUB AND PUSH2 0xB59 JUMPI PUSH1 0x40 MLOAD PUSH3 0x461BCD PUSH1 0xE5 SHL DUP2 MSTORE PUSH1 0x4 ADD PUSH2 0x60E SWAP1 PUSH2 0x1AC9 JUMP JUMPDEST PUSH1 0x0 DUP7 DUP2 MSTORE PUSH1 0x3 PUSH1 0x20 MSTORE PUSH1 0x40 SWAP1 KECCAK256 DUP1 SLOAD PUSH2 0xFFFF PUSH1 0xA0 SHL NOT AND PUSH1 0x1 PUSH1 0xA0 SHL DUP8 ISZERO ISZERO MUL PUSH1 0xFF PUSH1 0xA8 SHL NOT AND OR PUSH1 0x1 PUSH1 0xA8 SHL DUP7 ISZERO DUP1 ISZERO SWAP2 SWAP1 SWAP2 MUL SWAP2 SWAP1 SWAP2 OR SWAP1 SWAP2 SSTORE DUP5 SWAP1 PUSH2 0xBA1 JUMPI POP DUP2 ISZERO ISZERO JUMPDEST ISZERO PUSH2 0xBC4 JUMPI PUSH1 0x0 DUP7 DUP2 MSTORE PUSH1 0x3 PUSH1 0x20 MSTORE PUSH1 0x40 SWAP1 KECCAK256 PUSH1 0x5 ADD PUSH2 0xBC2 DUP4 DUP6 DUP4 PUSH2 0x1B6F JUMP JUMPDEST POP JUMPDEST PUSH1 0x40 DUP1 MLOAD DUP7 ISZERO ISZERO DUP2 MSTORE DUP6 ISZERO ISZERO PUSH1 0x20 DUP3 ADD MSTORE DUP8 SWAP2 PUSH32 0x96490D92533F44E8A931268063A90889639ECA27C88096A30D4BAF00DA2A83F0 SWAP2 ADD PUSH1 0x40 MLOAD DUP1 SWAP2 SUB SWAP1 LOG2 POP POP POP POP POP POP JUMP JUMPDEST PUSH1 0x0 DUP1 MLOAD PUSH1 0x20 PUSH2 0x1DA4 DUP4 CODECOPY DUP2 MLOAD SWAP2 MSTORE PUSH2 0xC22 DUP2 PUSH2 0x139E JUMP JUMPDEST PUSH2 0x578 PUSH2 0x1648 JUMP JUMPDEST PUSH1 0x0 SWAP2 DUP3 MSTORE PUSH1 0x20 DUP3 DUP2 MSTORE PUSH1 0x40 DUP1 DUP5 KECCAK256 PUSH1 0x1 PUSH1 0x1 PUSH1 0xA0 SHL SUB SWAP4 SWAP1 SWAP4 AND DUP5 MSTORE SWAP2 SWAP1 MSTORE SWAP1 KECCAK256 SLOAD PUSH1 0xFF AND SWAP1 JUMP JUMPDEST PUSH1 0x0 DUP2 DUP2 MSTORE PUSH1 0x3 PUSH1 0x20 DUP2 DUP2 MSTORE PUSH1 0x40 DUP1 DUP5 KECCAK256 DUP2 MLOAD PUSH2 0x100 DUP2 ADD DUP4 MSTORE DUP2 SLOAD PUSH1 0x1 PUSH1 0x1 PUSH1 0xA0 SHL SUB DUP2 AND DUP3 MSTORE PUSH1 0xFF PUSH1 0x1 PUSH1 0xA0 SHL DUP3 DIV DUP2 AND ISZERO ISZERO SWAP6 DUP4 ADD SWAP6 SWAP1 SWAP6 MSTORE PUSH1 0x1 PUSH1 0xA8 SHL SWAP1 DIV SWAP1 SWAP4 AND ISZERO ISZERO SWAP2 DUP4 ADD SWAP2 SWAP1 SWAP2 MSTORE PUSH1 0x1 DUP2 ADD SLOAD PUSH1 0x60 DUP4 ADD MSTORE PUSH1 0x2 DUP2 ADD SLOAD PUSH1 0x80 DUP4 ADD MSTORE SWAP2 DUP3 ADD SLOAD PUSH1 0xA0 DUP3 ADD MSTORE PUSH1 0x4 DUP3 ADD DUP1 SLOAD DUP5 SWAP4 DUP5 SWAP4 DUP5 SWAP4 DUP5 SWAP4 DUP5 SWAP4 SWAP2 PUSH1 0xC0 DUP5 ADD SWAP2 PUSH2 0xCDE SWAP1 PUSH2 0x1A8F JUMP JUMPDEST DUP1 PUSH1 0x1F ADD PUSH1 0x20 DUP1 SWAP2 DIV MUL PUSH1 0x20 ADD PUSH1 0x40 MLOAD SWAP1 DUP2 ADD PUSH1 0x40 MSTORE DUP1 SWAP3 SWAP2 SWAP1 DUP2 DUP2 MSTORE PUSH1 0x20 ADD DUP3 DUP1 SLOAD PUSH2 0xD0A SWAP1 PUSH2 0x1A8F JUMP JUMPDEST DUP1 ISZERO PUSH2 0xD57 JUMPI DUP1 PUSH1 0x1F LT PUSH2 0xD2C JUMPI PUSH2 0x100 DUP1 DUP4 SLOAD DIV MUL DUP4 MSTORE SWAP2 PUSH1 0x20 ADD SWAP2 PUSH2 0xD57 JUMP JUMPDEST DUP3 ADD SWAP2 SWAP1 PUSH1 0x0 MSTORE PUSH1 0x20 PUSH1 0x0 KECCAK256 SWAP1 JUMPDEST DUP2 SLOAD DUP2 MSTORE SWAP1 PUSH1 0x1 ADD SWAP1 PUSH1 0x20 ADD DUP1 DUP4 GT PUSH2 0xD3A JUMPI DUP3 SWAP1 SUB PUSH1 0x1F AND DUP3 ADD SWAP2 JUMPDEST POP POP POP POP POP DUP2 MSTORE PUSH1 0x20 ADD PUSH1 0x5 DUP3 ADD DUP1 SLOAD PUSH2 0xD70 SWAP1 PUSH2 0x1A8F JUMP JUMPDEST DUP1 PUSH1 0x1F ADD PUSH1 0x20 DUP1 SWAP2 DIV MUL PUSH1 0x20 ADD PUSH1 0x40 MLOAD SWAP1 DUP2 ADD PUSH1 0x40 MSTORE DUP1 SWAP3 SWAP2 SWAP1 DUP2 DUP2 MSTORE PUSH1 0x20 ADD DUP3 DUP1 SLOAD PUSH2 0xD9C SWAP1 PUSH2 0x1A8F JUMP JUMPDEST DUP1 ISZERO PUSH2 0xDE9 JUMPI DUP1 PUSH1 0x1F LT PUSH2 0xDBE JUMPI PUSH2 0x100 DUP1 DUP4 SLOAD DIV MUL DUP4 MSTORE SWAP2 PUSH1 0x20 ADD SWAP2 PUSH2 0xDE9 JUMP JUMPDEST DUP3 ADD SWAP2 SWAP1 PUSH1 0x0 MSTORE PUSH1 0x20 PUSH1 0x0 KECCAK256 SWAP1 JUMPDEST DUP2 SLOAD DUP2 MSTORE SWAP1 PUSH1 0x1 ADD SWAP1 PUSH1 0x20 ADD DUP1 DUP4 GT PUSH2 0xDCC JUMPI DUP3 SWAP1 SUB PUSH1 0x1F AND DUP3 ADD SWAP2 JUMPDEST POP POP POP POP POP DUP2 MSTORE POP POP SWAP1 POP DUP1 PUSH1 0x0 ADD MLOAD SWAP6 POP PUSH2 0xE08 DUP2 PUSH1 0x60 ADD MLOAD PUSH2 0xE6F JUMP JUMPDEST SWAP5 POP DUP1 PUSH1 0x80 ADD MLOAD SWAP4 POP DUP4 DUP6 GT PUSH2 0xE1F JUMPI PUSH1 0x0 PUSH2 0xE29 JUMP JUMPDEST PUSH2 0xE29 DUP5 DUP7 PUSH2 0x19E8 JUMP JUMPDEST SWAP3 POP PUSH3 0x93A80 DUP2 PUSH1 0xA0 ADD MLOAD PUSH2 0xE3E SWAP2 SWAP1 PUSH2 0x19D5 JUMP JUMPDEST SWAP2 POP POP SWAP2 SWAP4 SWAP6 SWAP1 SWAP3 SWAP5 POP JUMP JUMPDEST PUSH1 0x0 DUP3 DUP2 MSTORE PUSH1 0x20 DUP2 SWAP1 MSTORE PUSH1 0x40 SWAP1 KECCAK256 PUSH1 0x1 ADD SLOAD PUSH2 0xE65 DUP2 PUSH2 0x139E JUMP JUMPDEST PUSH2 0x51A DUP4 DUP4 PUSH2 0x143A JUMP JUMPDEST PUSH1 0x0 DUP2 PUSH1 0x0 SUB PUSH2 0xE81 JUMPI POP PUSH1 0x0 SWAP2 SWAP1 POP JUMP JUMPDEST PUSH1 0x0 PUSH2 0x2710 PUSH1 0x6 SLOAD DUP5 PUSH2 0xE94 SWAP2 SWAP1 PUSH2 0x1C30 JUMP JUMPDEST PUSH2 0xE9E SWAP2 SWAP1 PUSH2 0x1C5D JUMP JUMPDEST SWAP1 POP PUSH1 0x64 PUSH9 0x1B1AE4D6E2EF500000 DUP5 LT PUSH2 0xEBB JUMPI POP PUSH1 0x9 SLOAD PUSH2 0xEE9 JUMP JUMPDEST PUSH9 0xD8D726B7177A80000 DUP5 LT PUSH2 0xED4 JUMPI POP PUSH1 0x8 SLOAD PUSH2 0xEE9 JUMP JUMPDEST PUSH9 0x56BC75E2D63100000 DUP5 LT PUSH2 0xEE9 JUMPI POP PUSH1 0x7 SLOAD JUMPDEST PUSH1 0x64 PUSH2 0xEF5 DUP3 DUP5 PUSH2 0x1C30 JUMP JUMPDEST PUSH2 0xEFF SWAP2 SWAP1 PUSH2 0x1C5D JUMP JUMPDEST SWAP5 SWAP4 POP POP POP POP JUMP JUMPDEST PUSH1 0x0 DUP1 MLOAD PUSH1 0x20 PUSH2 0x1DC4 DUP4 CODECOPY DUP2 MLOAD SWAP2 MSTORE PUSH2 0xF1F DUP2 PUSH2 0x139E JUMP JUMPDEST PUSH1 0x1 PUSH1 0x1 PUSH1 0xA0 SHL SUB DUP5 AND PUSH2 0xF80 JUMPI PUSH1 0x40 MLOAD PUSH3 0x461BCD PUSH1 0xE5 SHL DUP2 MSTORE PUSH1 0x20 PUSH1 0x4 DUP3 ADD MSTORE PUSH1 0x22 PUSH1 0x24 DUP3 ADD MSTORE PUSH32 0x54727574685661756C743A2043726561746F722063616E6E6F74206265207A65 PUSH1 0x44 DUP3 ADD MSTORE PUSH2 0x726F PUSH1 0xF0 SHL PUSH1 0x64 DUP3 ADD MSTORE PUSH1 0x84 ADD PUSH2 0x60E JUMP JUMPDEST DUP2 PUSH2 0xFCD JUMPI PUSH1 0x40 MLOAD PUSH3 0x461BCD PUSH1 0xE5 SHL DUP2 MSTORE PUSH1 0x20 PUSH1 0x4 DUP3 ADD MSTORE PUSH1 0x1E PUSH1 0x24 DUP3 ADD MSTORE PUSH32 0x54727574685661756C743A204950465320686173682072657175697265640000 PUSH1 0x44 DUP3 ADD MSTORE PUSH1 0x64 ADD PUSH2 0x60E JUMP JUMPDEST PUSH1 0x0 DUP6 DUP2 MSTORE PUSH1 0x3 PUSH1 0x20 MSTORE PUSH1 0x40 SWAP1 KECCAK256 SLOAD PUSH1 0x1 PUSH1 0x1 PUSH1 0xA0 SHL SUB AND ISZERO PUSH2 0x103D JUMPI PUSH1 0x40 MLOAD PUSH3 0x461BCD PUSH1 0xE5 SHL DUP2 MSTORE PUSH1 0x20 PUSH1 0x4 DUP3 ADD MSTORE PUSH1 0x22 PUSH1 0x24 DUP3 ADD MSTORE PUSH32 0x54727574685661756C743A2043617073756C6520616C72656164792065786973 PUSH1 0x44 DUP3 ADD MSTORE PUSH2 0x7473 PUSH1 0xF0 SHL PUSH1 0x64 DUP3 ADD MSTORE PUSH1 0x84 ADD PUSH2 0x60E JUMP JUMPDEST PUSH1 0x40 MLOAD DUP1 PUSH2 0x100 ADD PUSH1 0x40 MSTORE DUP1 DUP6 PUSH1 0x1 PUSH1 0x1 PUSH1 0xA0 SHL SUB AND DUP2 MSTORE PUSH1 0x20 ADD PUSH1 0x0 ISZERO ISZERO DUP2 MSTORE PUSH1 0x20 ADD PUSH1 0x0 ISZERO ISZERO DUP2 MSTORE PUSH1 0x20 ADD PUSH1 0x0 DUP2 MSTORE PUSH1 0x20 ADD PUSH1 0x0 DUP2 MSTORE PUSH1 0x20 ADD PUSH1 0x0 DUP2 MSTORE PUSH1 0x20 ADD DUP5 DUP5 DUP1 DUP1 PUSH1 0x1F ADD PUSH1 0x20 DUP1 SWAP2 DIV MUL PUSH1 0x20 ADD PUSH1 0x40 MLOAD SWAP1 DUP2 ADD PUSH1 0x40 MSTORE DUP1 SWAP4 SWAP3 SWAP2 SWAP1 DUP2 DUP2 MSTORE PUSH1 0x20 ADD DUP4 DUP4 DUP1 DUP3 DUP5 CALLDATACOPY PUSH1 0x0 SWAP3 ADD DUP3 SWAP1 MSTORE POP SWAP4 DUP6 MSTORE POP POP PUSH1 0x40 DUP1 MLOAD PUSH1 0x20 DUP2 DUP2 ADD DUP4 MSTORE DUP5 DUP3 MSTORE SWAP5 DUP6 ADD MSTORE DUP10 DUP4 MSTORE PUSH1 0x3 DUP1 DUP6 MSTORE SWAP3 DUP2 SWAP1 KECCAK256 DUP6 MLOAD DUP2 SLOAD SWAP6 DUP8 ADD MLOAD SWAP3 DUP8 ADD MLOAD ISZERO ISZERO PUSH1 0x1 PUSH1 0xA8 SHL MUL PUSH1 0xFF PUSH1 0xA8 SHL NOT SWAP4 ISZERO ISZERO PUSH1 0x1 PUSH1 0xA0 SHL MUL PUSH1 0x1 PUSH1 0x1 PUSH1 0xA8 SHL SUB NOT SWAP1 SWAP8 AND PUSH1 0x1 PUSH1 0x1 PUSH1 0xA0 SHL SUB SWAP1 SWAP3 AND SWAP2 SWAP1 SWAP2 OR SWAP6 SWAP1 SWAP6 OR SWAP2 SWAP1 SWAP2 AND SWAP4 SWAP1 SWAP4 OR DUP4 SSTORE POP PUSH1 0x60 DUP4 ADD MLOAD PUSH1 0x1 DUP4 ADD SSTORE PUSH1 0x80 DUP4 ADD MLOAD PUSH1 0x2 DUP4 ADD SSTORE PUSH1 0xA0 DUP4 ADD MLOAD SWAP1 DUP3 ADD SSTORE PUSH1 0xC0 DUP3 ADD MLOAD PUSH1 0x4 DUP3 ADD SWAP1 PUSH2 0x1152 SWAP1 DUP3 PUSH2 0x1C71 JUMP JUMPDEST POP PUSH1 0xE0 DUP3 ADD MLOAD PUSH1 0x5 DUP3 ADD SWAP1 PUSH2 0x1167 SWAP1 DUP3 PUSH2 0x1C71 JUMP JUMPDEST POP SWAP1 POP POP DUP4 PUSH1 0x1 PUSH1 0x1 PUSH1 0xA0 SHL SUB AND DUP6 PUSH32 0x1416EEDBD3662F6D7632153FAA4E4B5A9EE829FC1278981B082BC342BD5C63A6 DUP6 DUP6 PUSH1 0x40 MLOAD PUSH2 0x11A7 SWAP3 SWAP2 SWAP1 PUSH2 0x1D31 JUMP JUMPDEST PUSH1 0x40 MLOAD DUP1 SWAP2 SUB SWAP1 LOG3 POP POP POP POP POP JUMP JUMPDEST PUSH1 0x0 DUP1 MLOAD PUSH1 0x20 PUSH2 0x1DA4 DUP4 CODECOPY DUP2 MLOAD SWAP2 MSTORE PUSH2 0x11CE DUP2 PUSH2 0x139E JUMP JUMPDEST PUSH1 0x0 DUP6 GT PUSH2 0x121E JUMPI PUSH1 0x40 MLOAD PUSH3 0x461BCD PUSH1 0xE5 SHL DUP2 MSTORE PUSH1 0x20 PUSH1 0x4 DUP3 ADD MSTORE PUSH1 0x19 PUSH1 0x24 DUP3 ADD MSTORE PUSH32 0x54727574685661756C743A20496E76616C696420726174696F00000000000000 PUSH1 0x44 DUP3 ADD MSTORE PUSH1 0x64 ADD PUSH2 0x60E JUMP JUMPDEST PUSH1 0x64 DUP5 LT ISZERO PUSH2 0x127E JUMPI PUSH1 0x40 MLOAD PUSH3 0x461BCD PUSH1 0xE5 SHL DUP2 MSTORE PUSH1 0x20 PUSH1 0x4 DUP3 ADD MSTORE PUSH1 0x26 PUSH1 0x24 DUP3 ADD MSTORE PUSH32 0x54727574685661756C743A20496E76616C6964207072656D69756D206D756C74 PUSH1 0x44 DUP3 ADD MSTORE PUSH6 0x34B83634B2B9 PUSH1 0xD1 SHL PUSH1 0x64 DUP3 ADD MSTORE PUSH1 0x84 ADD PUSH2 0x60E JUMP JUMPDEST DUP4 DUP4 LT ISZERO PUSH2 0x12DA JUMPI PUSH1 0x40 MLOAD PUSH3 0x461BCD PUSH1 0xE5 SHL DUP2 MSTORE PUSH1 0x20 PUSH1 0x4 DUP3 ADD MSTORE PUSH1 0x24 DUP1 DUP3 ADD MSTORE PUSH32 0x54727574685661756C743A20496E76616C696420656C697465206D756C746970 PUSH1 0x44 DUP3 ADD MSTORE PUSH4 0x3634B2B9 PUSH1 0xE1 SHL PUSH1 0x64 DUP3 ADD MSTORE PUSH1 0x84 ADD PUSH2 0x60E JUMP JUMPDEST DUP3 DUP3 LT ISZERO PUSH2 0x133B JUMPI PUSH1 0x40 MLOAD PUSH3 0x461BCD PUSH1 0xE5 SHL DUP2 MSTORE PUSH1 0x20 PUSH1 0x4 DUP3 ADD MSTORE PUSH1 0x28 PUSH1 0x24 DUP3 ADD MSTORE PUSH32 0x54727574685661756C743A20496E76616C6964206C6567656E64617279206D75 PUSH1 0x44 DUP3 ADD MSTORE PUSH8 0x363A34B83634B2B9 PUSH1 0xC1 SHL PUSH1 0x64 DUP3 ADD MSTORE PUSH1 0x84 ADD PUSH2 0x60E JUMP JUMPDEST PUSH1 0x6 DUP6 SWAP1 SSTORE PUSH1 0x7 DUP5 SWAP1 SSTORE PUSH1 0x8 DUP4 SWAP1 SSTORE PUSH1 0x9 DUP3 SWAP1 SSTORE PUSH1 0x40 DUP1 MLOAD DUP7 DUP2 MSTORE PUSH1 0x20 DUP2 ADD DUP7 SWAP1 MSTORE SWAP1 DUP2 ADD DUP5 SWAP1 MSTORE PUSH1 0x60 DUP2 ADD DUP4 SWAP1 MSTORE PUSH32 0xBCA959ADB5AA52AAEA5A17838313A61BEBF160BF6064E31593C79C8432C79FEA SWAP1 PUSH1 0x80 ADD PUSH1 0x40 MLOAD DUP1 SWAP2 SUB SWAP1 LOG1 POP POP POP POP POP JUMP JUMPDEST PUSH2 0x578 DUP2 CALLER PUSH2 0x1685 JUMP JUMPDEST PUSH1 0x0 PUSH2 0x13B4 DUP4 DUP4 PUSH2 0xC2A JUMP JUMPDEST PUSH2 0x1432 JUMPI PUSH1 0x0 DUP4 DUP2 MSTORE PUSH1 0x20 DUP2 DUP2 MSTORE PUSH1 0x40 DUP1 DUP4 KECCAK256 PUSH1 0x1 PUSH1 0x1 PUSH1 0xA0 SHL SUB DUP7 AND DUP5 MSTORE SWAP1 SWAP2 MSTORE SWAP1 KECCAK256 DUP1 SLOAD PUSH1 0xFF NOT AND PUSH1 0x1 OR SWAP1 SSTORE PUSH2 0x13EA CALLER SWAP1 JUMP JUMPDEST PUSH1 0x1 PUSH1 0x1 PUSH1 0xA0 SHL SUB AND DUP3 PUSH1 0x1 PUSH1 0x1 PUSH1 0xA0 SHL SUB AND DUP5 PUSH32 0x2F8788117E7EFF1D82E926EC794901D17C78024A50270940304540A733656F0D PUSH1 0x40 MLOAD PUSH1 0x40 MLOAD DUP1 SWAP2 SUB SWAP1 LOG4 POP PUSH1 0x1 PUSH2 0x4EF JUMP JUMPDEST POP PUSH1 0x0 PUSH2 0x4EF JUMP JUMPDEST PUSH1 0x0 PUSH2 0x1446 DUP4 DUP4 PUSH2 0xC2A JUMP JUMPDEST ISZERO PUSH2 0x1432 JUMPI PUSH1 0x0 DUP4 DUP2 MSTORE PUSH1 0x20 DUP2 DUP2 MSTORE PUSH1 0x40 DUP1 DUP4 KECCAK256 PUSH1 0x1 PUSH1 0x1 PUSH1 0xA0 SHL SUB DUP7 AND DUP1 DUP6 MSTORE SWAP3 MSTORE DUP1 DUP4 KECCAK256 DUP1 SLOAD PUSH1 0xFF NOT AND SWAP1 SSTORE MLOAD CALLER SWAP3 DUP7 SWAP2 PUSH32 0xF6391F5C32D9C69D2A47EA670B442974B53935D1EDC7FD64EB21E047A839171B SWAP2 SWAP1 LOG4 POP PUSH1 0x1 PUSH2 0x4EF JUMP JUMPDEST PUSH2 0x14AD PUSH2 0x16C2 JUMP JUMPDEST PUSH1 0x2 DUP1 SLOAD PUSH1 0xFF NOT AND SWAP1 SSTORE PUSH32 0x5DB9EE0A495BF2E6FF9C91A7834C1BA4FDD244A5E8AA4E537BD38AEAE4B073AA CALLER JUMPDEST PUSH1 0x40 MLOAD PUSH1 0x1 PUSH1 0x1 PUSH1 0xA0 SHL SUB SWAP1 SWAP2 AND DUP2 MSTORE PUSH1 0x20 ADD PUSH1 0x40 MLOAD DUP1 SWAP2 SUB SWAP1 LOG1 JUMP JUMPDEST PUSH1 0x2 PUSH1 0x1 SLOAD SUB PUSH2 0x151A JUMPI PUSH1 0x40 MLOAD PUSH4 0x3EE5AEB5 PUSH1 0xE0 SHL DUP2 MSTORE PUSH1 0x4 ADD PUSH1 0x40 MLOAD DUP1 SWAP2 SUB SWAP1 REVERT JUMPDEST PUSH1 0x2 PUSH1 0x1 SSTORE JUMP JUMPDEST PUSH1 0x2 SLOAD PUSH1 0xFF AND ISZERO PUSH2 0x1545 JUMPI PUSH1 0x40 MLOAD PUSH4 0xD93C0665 PUSH1 0xE0 SHL DUP2 MSTORE PUSH1 0x4 ADD PUSH1 0x40 MLOAD DUP1 SWAP2 SUB SWAP1 REVERT JUMPDEST JUMP JUMPDEST PUSH1 0x60 DUP2 PUSH1 0x0 SUB PUSH2 0x156E JUMPI POP POP PUSH1 0x40 DUP1 MLOAD DUP1 DUP3 ADD SWAP1 SWAP2 MSTORE PUSH1 0x1 DUP2 MSTORE PUSH1 0x3 PUSH1 0xFC SHL PUSH1 0x20 DUP3 ADD MSTORE SWAP1 JUMP JUMPDEST DUP2 PUSH1 0x0 JUMPDEST DUP2 ISZERO PUSH2 0x1598 JUMPI DUP1 PUSH2 0x1582 DUP2 PUSH2 0x1D60 JUMP JUMPDEST SWAP2 POP PUSH2 0x1591 SWAP1 POP PUSH1 0xA DUP4 PUSH2 0x1C5D JUMP JUMPDEST SWAP2 POP PUSH2 0x1572 JUMP JUMPDEST PUSH1 0x0 DUP2 PUSH8 0xFFFFFFFFFFFFFFFF DUP2 GT ISZERO PUSH2 0x15B3 JUMPI PUSH2 0x15B3 PUSH2 0x1B0B JUMP JUMPDEST PUSH1 0x40 MLOAD SWAP1 DUP1 DUP3 MSTORE DUP1 PUSH1 0x1F ADD PUSH1 0x1F NOT AND PUSH1 0x20 ADD DUP3 ADD PUSH1 0x40 MSTORE DUP1 ISZERO PUSH2 0x15DD JUMPI PUSH1 0x20 DUP3 ADD DUP2 DUP1 CALLDATASIZE DUP4 CALLDATACOPY ADD SWAP1 POP JUMPDEST POP SWAP1 POP JUMPDEST DUP5 ISZERO PUSH2 0xEFF JUMPI PUSH2 0x15F2 PUSH1 0x1 DUP4 PUSH2 0x19E8 JUMP JUMPDEST SWAP2 POP PUSH2 0x15FF PUSH1 0xA DUP7 PUSH2 0x1D79 JUMP JUMPDEST PUSH2 0x160A SWAP1 PUSH1 0x30 PUSH2 0x19D5 JUMP JUMPDEST PUSH1 0xF8 SHL DUP2 DUP4 DUP2 MLOAD DUP2 LT PUSH2 0x161F JUMPI PUSH2 0x161F PUSH2 0x1D8D JUMP JUMPDEST PUSH1 0x20 ADD ADD SWAP1 PUSH1 0x1 PUSH1 0x1 PUSH1 0xF8 SHL SUB NOT AND SWAP1 DUP2 PUSH1 0x0 BYTE SWAP1 MSTORE8 POP PUSH2 0x1641 PUSH1 0xA DUP7 PUSH2 0x1C5D JUMP JUMPDEST SWAP5 POP PUSH2 0x15E1 JUMP JUMPDEST PUSH2 0x1650 PUSH2 0x1521 JUMP JUMPDEST PUSH1 0x2 DUP1 SLOAD PUSH1 0xFF NOT AND PUSH1 0x1 OR SWAP1 SSTORE PUSH32 0x62E78CEA01BEE320CD4E420270B5EA74000D11B0C9F74754EBDBFC544B05A258 PUSH2 0x14DA CALLER SWAP1 JUMP JUMPDEST PUSH2 0x168F DUP3 DUP3 PUSH2 0xC2A JUMP JUMPDEST PUSH2 0x16BE JUMPI PUSH1 0x40 MLOAD PUSH4 0xE2517D3F PUSH1 0xE0 SHL DUP2 MSTORE PUSH1 0x1 PUSH1 0x1 PUSH1 0xA0 SHL SUB DUP3 AND PUSH1 0x4 DUP3 ADD MSTORE PUSH1 0x24 DUP2 ADD DUP4 SWAP1 MSTORE PUSH1 0x44 ADD PUSH2 0x60E JUMP JUMPDEST POP POP JUMP JUMPDEST PUSH1 0x2 SLOAD PUSH1 0xFF AND PUSH2 0x1545 JUMPI PUSH1 0x40 MLOAD PUSH4 0x8DFC202B PUSH1 0xE0 SHL DUP2 MSTORE PUSH1 0x4 ADD PUSH1 0x40 MLOAD DUP1 SWAP2 SUB SWAP1 REVERT JUMPDEST PUSH1 0x0 PUSH1 0x20 DUP3 DUP5 SUB SLT ISZERO PUSH2 0x16F7 JUMPI PUSH1 0x0 DUP1 REVERT JUMPDEST DUP2 CALLDATALOAD PUSH1 0x1 PUSH1 0x1 PUSH1 0xE0 SHL SUB NOT DUP2 AND DUP2 EQ PUSH2 0x170F JUMPI PUSH1 0x0 DUP1 REVERT JUMPDEST SWAP4 SWAP3 POP POP POP JUMP JUMPDEST PUSH1 0x0 PUSH1 0x20 DUP3 DUP5 SUB SLT ISZERO PUSH2 0x1728 JUMPI PUSH1 0x0 DUP1 REVERT JUMPDEST POP CALLDATALOAD SWAP2 SWAP1 POP JUMP JUMPDEST DUP1 CALLDATALOAD PUSH1 0x1 PUSH1 0x1 PUSH1 0xA0 SHL SUB DUP2 AND DUP2 EQ PUSH2 0x1746 JUMPI PUSH1 0x0 DUP1 REVERT JUMPDEST SWAP2 SWAP1 POP JUMP JUMPDEST PUSH1 0x0 DUP1 PUSH1 0x40 DUP4 DUP6 SUB SLT ISZERO PUSH2 0x175E JUMPI PUSH1 0x0 DUP1 REVERT JUMPDEST DUP3 CALLDATALOAD SWAP2 POP PUSH2 0x176E PUSH1 0x20 DUP5 ADD PUSH2 0x172F JUMP JUMPDEST SWAP1 POP SWAP3 POP SWAP3 SWAP1 POP JUMP JUMPDEST PUSH1 0x0 JUMPDEST DUP4 DUP2 LT ISZERO PUSH2 0x1792 JUMPI DUP2 DUP2 ADD MLOAD DUP4 DUP3 ADD MSTORE PUSH1 0x20 ADD PUSH2 0x177A JUMP JUMPDEST POP POP PUSH1 0x0 SWAP2 ADD MSTORE JUMP JUMPDEST PUSH1 0x0 DUP2 MLOAD DUP1 DUP5 MSTORE PUSH2 0x17B3 DUP2 PUSH1 0x20 DUP7 ADD PUSH1 0x20 DUP7 ADD PUSH2 0x1777 JUMP JUMPDEST PUSH1 0x1F ADD PUSH1 0x1F NOT AND SWAP3 SWAP1 SWAP3 ADD PUSH1 0x20 ADD SWAP3 SWAP2 POP POP JUMP JUMPDEST PUSH1 0x0 PUSH2 0x100 PUSH1 0x1 DUP1 PUSH1 0xA0 SHL SUB DUP12 AND DUP4 MSTORE DUP10 ISZERO ISZERO PUSH1 0x20 DUP5 ADD MSTORE DUP9 ISZERO ISZERO PUSH1 0x40 DUP5 ADD MSTORE DUP8 PUSH1 0x60 DUP5 ADD MSTORE DUP7 PUSH1 0x80 DUP5 ADD MSTORE DUP6 PUSH1 0xA0 DUP5 ADD MSTORE DUP1 PUSH1 0xC0 DUP5 ADD MSTORE PUSH2 0x180B DUP2 DUP5 ADD DUP7 PUSH2 0x179B JUMP JUMPDEST SWAP1 POP DUP3 DUP2 SUB PUSH1 0xE0 DUP5 ADD MSTORE PUSH2 0x181F DUP2 DUP6 PUSH2 0x179B JUMP JUMPDEST SWAP12 SWAP11 POP POP POP POP POP POP POP POP POP POP POP JUMP JUMPDEST PUSH1 0x0 DUP1 PUSH1 0x40 DUP4 DUP6 SUB SLT ISZERO PUSH2 0x1841 JUMPI PUSH1 0x0 DUP1 REVERT JUMPDEST POP POP DUP1 CALLDATALOAD SWAP3 PUSH1 0x20 SWAP1 SWAP2 ADD CALLDATALOAD SWAP2 POP JUMP JUMPDEST PUSH1 0x0 PUSH1 0x20 DUP3 DUP5 SUB SLT ISZERO PUSH2 0x1862 JUMPI PUSH1 0x0 DUP1 REVERT JUMPDEST PUSH2 0x170F DUP3 PUSH2 0x172F JUMP JUMPDEST DUP1 CALLDATALOAD DUP1 ISZERO ISZERO DUP2 EQ PUSH2 0x1746 JUMPI PUSH1 0x0 DUP1 REVERT JUMPDEST PUSH1 0x0 DUP1 DUP4 PUSH1 0x1F DUP5 ADD SLT PUSH2 0x188D JUMPI PUSH1 0x0 DUP1 REVERT JUMPDEST POP DUP2 CALLDATALOAD PUSH8 0xFFFFFFFFFFFFFFFF DUP2 GT ISZERO PUSH2 0x18A5 JUMPI PUSH1 0x0 DUP1 REVERT JUMPDEST PUSH1 0x20 DUP4 ADD SWAP2 POP DUP4 PUSH1 0x20 DUP3 DUP6 ADD ADD GT ISZERO PUSH2 0x18BD JUMPI PUSH1 0x0 DUP1 REVERT JUMPDEST SWAP3 POP SWAP3 SWAP1 POP JUMP JUMPDEST PUSH1 0x0 DUP1 PUSH1 0x0 DUP1 PUSH1 0x0 PUSH1 0x80 DUP7 DUP9 SUB SLT ISZERO PUSH2 0x18DC JUMPI PUSH1 0x0 DUP1 REVERT JUMPDEST DUP6 CALLDATALOAD SWAP5 POP PUSH2 0x18EC PUSH1 0x20 DUP8 ADD PUSH2 0x186B JUMP JUMPDEST SWAP4 POP PUSH2 0x18FA PUSH1 0x40 DUP8 ADD PUSH2 0x186B JUMP JUMPDEST SWAP3 POP PUSH1 0x60 DUP7 ADD CALLDATALOAD PUSH8 0xFFFFFFFFFFFFFFFF DUP2 GT ISZERO PUSH2 0x1916 JUMPI PUSH1 0x0 DUP1 REVERT JUMPDEST PUSH2 0x1922 DUP9 DUP3 DUP10 ADD PUSH2 0x187B JUMP JUMPDEST SWAP7 SWAP10 SWAP6 SWAP9 POP SWAP4 SWAP7 POP SWAP3 SWAP5 SWAP4 SWAP3 POP POP POP JUMP JUMPDEST PUSH1 0x0 DUP1 PUSH1 0x0 DUP1 PUSH1 0x60 DUP6 DUP8 SUB SLT ISZERO PUSH2 0x1949 JUMPI PUSH1 0x0 DUP1 REVERT JUMPDEST DUP5 CALLDATALOAD SWAP4 POP PUSH2 0x1959 PUSH1 0x20 DUP7 ADD PUSH2 0x172F JUMP JUMPDEST SWAP3 POP PUSH1 0x40 DUP6 ADD CALLDATALOAD PUSH8 0xFFFFFFFFFFFFFFFF DUP2 GT ISZERO PUSH2 0x1975 JUMPI PUSH1 0x0 DUP1 REVERT JUMPDEST PUSH2 0x1981 DUP8 DUP3 DUP9 ADD PUSH2 0x187B JUMP JUMPDEST SWAP6 SWAP9 SWAP5 SWAP8 POP SWAP6 POP POP POP POP JUMP JUMPDEST PUSH1 0x0 DUP1 PUSH1 0x0 DUP1 PUSH1 0x80 DUP6 DUP8 SUB SLT ISZERO PUSH2 0x19A3 JUMPI PUSH1 0x0 DUP1 REVERT JUMPDEST POP POP DUP3 CALLDATALOAD SWAP5 PUSH1 0x20 DUP5 ADD CALLDATALOAD SWAP5 POP PUSH1 0x40 DUP5 ADD CALLDATALOAD SWAP4 PUSH1 0x60 ADD CALLDATALOAD SWAP3 POP SWAP1 POP JUMP JUMPDEST PUSH4 0x4E487B71 PUSH1 0xE0 SHL PUSH1 0x0 MSTORE PUSH1 0x11 PUSH1 0x4 MSTORE PUSH1 0x24 PUSH1 0x0 REVERT JUMPDEST DUP1 DUP3 ADD DUP1 DUP3 GT ISZERO PUSH2 0x4EF JUMPI PUSH2 0x4EF PUSH2 0x19BF JUMP JUMPDEST DUP2 DUP2 SUB DUP2 DUP2 GT ISZERO PUSH2 0x4EF JUMPI PUSH2 0x4EF PUSH2 0x19BF JUMP JUMPDEST PUSH32 0x5969656C6420636C61696D20666F722063617073756C65202300000000000000 DUP2 MSTORE PUSH1 0x0 DUP3 MLOAD PUSH2 0x1A33 DUP2 PUSH1 0x19 DUP6 ADD PUSH1 0x20 DUP8 ADD PUSH2 0x1777 JUMP JUMPDEST SWAP2 SWAP1 SWAP2 ADD PUSH1 0x19 ADD SWAP3 SWAP2 POP POP JUMP JUMPDEST PUSH1 0x1 DUP1 PUSH1 0xA0 SHL SUB DUP5 AND DUP2 MSTORE DUP3 PUSH1 0x20 DUP3 ADD MSTORE PUSH1 0x60 PUSH1 0x40 DUP3 ADD MSTORE PUSH1 0x0 PUSH2 0x1A67 PUSH1 0x60 DUP4 ADD DUP5 PUSH2 0x179B JUMP JUMPDEST SWAP6 SWAP5 POP POP POP POP POP JUMP JUMPDEST DUP4 DUP2 MSTORE DUP3 PUSH1 0x20 DUP3 ADD MSTORE PUSH1 0x60 PUSH1 0x40 DUP3 ADD MSTORE PUSH1 0x0 PUSH2 0x1A67 PUSH1 0x60 DUP4 ADD DUP5 PUSH2 0x179B JUMP JUMPDEST PUSH1 0x1 DUP2 DUP2 SHR SWAP1 DUP3 AND DUP1 PUSH2 0x1AA3 JUMPI PUSH1 0x7F DUP3 AND SWAP2 POP JUMPDEST PUSH1 0x20 DUP3 LT DUP2 SUB PUSH2 0x1AC3 JUMPI PUSH4 0x4E487B71 PUSH1 0xE0 SHL PUSH1 0x0 MSTORE PUSH1 0x22 PUSH1 0x4 MSTORE PUSH1 0x24 PUSH1 0x0 REVERT JUMPDEST POP SWAP2 SWAP1 POP JUMP JUMPDEST PUSH1 0x20 DUP1 DUP3 MSTORE PUSH1 0x22 SWAP1 DUP3 ADD MSTORE PUSH32 0x54727574685661756C743A2043617073756C65206E6F74207265676973746572 PUSH1 0x40 DUP3 ADD MSTORE PUSH2 0x1959 PUSH1 0xF2 SHL PUSH1 0x60 DUP3 ADD MSTORE PUSH1 0x80 ADD SWAP1 JUMP JUMPDEST PUSH4 0x4E487B71 PUSH1 0xE0 SHL PUSH1 0x0 MSTORE PUSH1 0x41 PUSH1 0x4 MSTORE PUSH1 0x24 PUSH1 0x0 REVERT JUMPDEST PUSH1 0x1F DUP3 GT ISZERO PUSH2 0x553 JUMPI PUSH1 0x0 DUP2 DUP2 MSTORE PUSH1 0x20 DUP2 KECCAK256 PUSH1 0x1F DUP6 ADD PUSH1 0x5 SHR DUP2 ADD PUSH1 0x20 DUP7 LT ISZERO PUSH2 0x1B48 JUMPI POP DUP1 JUMPDEST PUSH1 0x1F DUP6 ADD PUSH1 0x5 SHR DUP3 ADD SWAP2 POP JUMPDEST DUP2 DUP2 LT ISZERO PUSH2 0x1B67 JUMPI DUP3 DUP2 SSTORE PUSH1 0x1 ADD PUSH2 0x1B54 JUMP JUMPDEST POP POP POP POP POP POP JUMP JUMPDEST PUSH8 0xFFFFFFFFFFFFFFFF DUP4 GT ISZERO PUSH2 0x1B87 JUMPI PUSH2 0x1B87 PUSH2 0x1B0B JUMP JUMPDEST PUSH2 0x1B9B DUP4 PUSH2 0x1B95 DUP4 SLOAD PUSH2 0x1A8F JUMP JUMPDEST DUP4 PUSH2 0x1B21 JUMP JUMPDEST PUSH1 0x0 PUSH1 0x1F DUP5 GT PUSH1 0x1 DUP2 EQ PUSH2 0x1BCF JUMPI PUSH1 0x0 DUP6 ISZERO PUSH2 0x1BB7 JUMPI POP DUP4 DUP3 ADD CALLDATALOAD JUMPDEST PUSH1 0x0 NOT PUSH1 0x3 DUP8 SWAP1 SHL SHR NOT AND PUSH1 0x1 DUP7 SWAP1 SHL OR DUP4 SSTORE PUSH2 0x1C29 JUMP JUMPDEST PUSH1 0x0 DUP4 DUP2 MSTORE PUSH1 0x20 SWAP1 KECCAK256 PUSH1 0x1F NOT DUP7 AND SWAP1 DUP4 JUMPDEST DUP3 DUP2 LT ISZERO PUSH2 0x1C00 JUMPI DUP7 DUP6 ADD CALLDATALOAD DUP3 SSTORE PUSH1 0x20 SWAP5 DUP6 ADD SWAP5 PUSH1 0x1 SWAP1 SWAP3 ADD SWAP2 ADD PUSH2 0x1BE0 JUMP JUMPDEST POP DUP7 DUP3 LT ISZERO PUSH2 0x1C1D JUMPI PUSH1 0x0 NOT PUSH1 0xF8 DUP9 PUSH1 0x3 SHL AND SHR NOT DUP5 DUP8 ADD CALLDATALOAD AND DUP2 SSTORE JUMPDEST POP POP PUSH1 0x1 DUP6 PUSH1 0x1 SHL ADD DUP4 SSTORE JUMPDEST POP POP POP POP POP JUMP JUMPDEST DUP1 DUP3 MUL DUP2 ISZERO DUP3 DUP3 DIV DUP5 EQ OR PUSH2 0x4EF JUMPI PUSH2 0x4EF PUSH2 0x19BF JUMP JUMPDEST PUSH4 0x4E487B71 PUSH1 0xE0 SHL PUSH1 0x0 MSTORE PUSH1 0x12 PUSH1 0x4 MSTORE PUSH1 0x24 PUSH1 0x0 REVERT JUMPDEST PUSH1 0x0 DUP3 PUSH2 0x1C6C JUMPI PUSH2 0x1C6C PUSH2 0x1C47 JUMP JUMPDEST POP DIV SWAP1 JUMP JUMPDEST DUP2 MLOAD PUSH8 0xFFFFFFFFFFFFFFFF DUP2 GT ISZERO PUSH2 0x1C8B JUMPI PUSH2 0x1C8B PUSH2 0x1B0B JUMP JUMPDEST PUSH2 0x1C9F DUP2 PUSH2 0x1C99 DUP5 SLOAD PUSH2 0x1A8F JUMP JUMPDEST DUP5 PUSH2 0x1B21 JUMP JUMPDEST PUSH1 0x20 DUP1 PUSH1 0x1F DUP4 GT PUSH1 0x1 DUP2 EQ PUSH2 0x1CD4 JUMPI PUSH1 0x0 DUP5 ISZERO PUSH2 0x1CBC JUMPI POP DUP6 DUP4 ADD MLOAD JUMPDEST PUSH1 0x0 NOT PUSH1 0x3 DUP7 SWAP1 SHL SHR NOT AND PUSH1 0x1 DUP6 SWAP1 SHL OR DUP6 SSTORE PUSH2 0x1B67 JUMP JUMPDEST PUSH1 0x0 DUP6 DUP2 MSTORE PUSH1 0x20 DUP2 KECCAK256 PUSH1 0x1F NOT DUP7 AND SWAP2 JUMPDEST DUP3 DUP2 LT ISZERO PUSH2 0x1D03 JUMPI DUP9 DUP7 ADD MLOAD DUP3 SSTORE SWAP5 DUP5 ADD SWAP5 PUSH1 0x1 SWAP1 SWAP2 ADD SWAP1 DUP5 ADD PUSH2 0x1CE4 JUMP JUMPDEST POP DUP6 DUP3 LT ISZERO PUSH2 0x1D21 JUMPI DUP8 DUP6 ADD MLOAD PUSH1 0x0 NOT PUSH1 0x3 DUP9 SWAP1 SHL PUSH1 0xF8 AND SHR NOT AND DUP2 SSTORE JUMPDEST POP POP POP POP POP PUSH1 0x1 SWAP1 DUP2 SHL ADD SWAP1 SSTORE POP JUMP JUMPDEST PUSH1 0x20 DUP2 MSTORE DUP2 PUSH1 0x20 DUP3 ADD MSTORE DUP2 DUP4 PUSH1 0x40 DUP4 ADD CALLDATACOPY PUSH1 0x0 DUP2 DUP4 ADD PUSH1 0x40 SWAP1 DUP2 ADD SWAP2 SWAP1 SWAP2 MSTORE PUSH1 0x1F SWAP1 SWAP3 ADD PUSH1 0x1F NOT AND ADD ADD SWAP2 SWAP1 POP JUMP JUMPDEST PUSH1 0x0 PUSH1 0x1 DUP3 ADD PUSH2 0x1D72 JUMPI PUSH2 0x1D72 PUSH2 0x19BF JUMP JUMPDEST POP PUSH1 0x1 ADD SWAP1 JUMP JUMPDEST PUSH1 0x0 DUP3 PUSH2 0x1D88 JUMPI PUSH2 0x1D88 PUSH2 0x1C47 JUMP JUMPDEST POP MOD SWAP1 JUMP JUMPDEST PUSH4 0x4E487B71 PUSH1 0xE0 SHL PUSH1 0x0 MSTORE PUSH1 0x32 PUSH1 0x4 MSTORE PUSH1 0x24 PUSH1 0x0 REVERT INVALID PUSH26 0x35BD0AE54BC31F548C14DBA4D37C5C64B3F8CA900CB468FB8ABD SLOAD 0xD5 DUP10 0x4F SSTORE PUSH9 0xE79A7BF1E0BC45D0A3 ADDRESS 0xC5 PUSH20 0xBC367F9CF464FD326078812F301165FBDA4EF1A2 PUSH5 0x6970667358 0x22 SLT KECCAK256 CODESIZE DUP13 0xD7 SHR 0xDA SELFDESTRUCT 0xB9 JUMP PUSH7 0xBABEE29C503F1F DUP9 SELFDESTRUCT BASEFEE 0xB0 0xAF 0xA8 SWAP6 INVALID 0xC1 0xE8 0xBB LOG4 EQ 0xBF STOP 0xA7 PUSH5 0x736F6C6343 STOP ADDMOD EQ STOP CALLER "},"methodIdentifiers":{"CLAIM_COOLDOWN()":"37c909ec","DEFAULT_ADMIN_ROLE()":"a217fddf","ELITE_THRESHOLD()":"383ea728","GOVERNOR_ROLE()":"ccc57490","LEGENDARY_THRESHOLD()":"f4277c6d","MIN_CLAIM_AMOUNT()":"d731c4f6","ORACLE_ROLE()":"07e2cea5","PREMIUM_THRESHOLD()":"9af01c2d","calculateGTTReward(uint256)":"d8f7ef2c","capsuleUserClaims(uint256,address)":"8e52b284","capsules(uint256)":"517bbf46","claimYield(uint256)":"40bd2e23","eliteMultiplier()":"ac159467","getCapsuleClaimInfo(uint256)":"95a968e5","getRoleAdmin(bytes32)":"248a9ca3","grantRole(bytes32,address)":"2f2ff15d","gttToken()":"1712c524","hasRole(bytes32,address)":"91d14854","legendaryMultiplier()":"2bc1f6bf","pause()":"8456cb59","paused()":"5c975abb","premiumMultiplier()":"6fe38982","registerCapsule(uint256,address,string)":"e945be13","renounceRole(bytes32,address)":"36568abe","revokeRole(bytes32,address)":"d547741f","supportsInterface(bytes4)":"01ffc9a7","totalUserClaims(address)":"57e856f9","unpause()":"3f4ba83a","updateParameters(uint256,uint256,uint256,uint256)":"ee1eab4f","updateYield(uint256,uint256)":"54973c0e","verifyCapsule(uint256,bool,bool,string)":"7de857dd","yieldToGTTRatio()":"4783decd"}}}}}